:1000000065C5000084C5000082C5000080C50000F1
:100010007EC500007CC500007AC5000078C50000E0
:1000200076C500000C94EF5572C500000C941B457A
:100030006EC500006CC500006AC500000C94A75195
:1000400066C500000C944D3062C5000060C500001C
:100050005EC500005CC500005AC500000C94D82F96
:1000600056C500000C9449360C940B3750C500005F
:100070004EC500004CC500004AC5000048C5000040
:1000800046C5000044C5000042C500000C949151D3
:100090000C94E1350C94DD363AC5000038C50000FB
:1000A00036C5000034C5000032C5000030C5000070
:1000B0002EC500000C9456512AC5000028C500002A
:1000C00026C5000024C500000C9421510C947935FC
:1000D0000C94AF361CC500001AC5000018C50000FE
:1000E00016C50000EC13401E401EFA130F14241412
:1000F0003914401E4214401E5514401E64146E14E0
:10010000C614401E401E401E7D149714B114131DCA
:10011000231D521D231D561D6D1D5C1D661D911D49
:10012000981DA31DAE1DCD1DCF1DD21DD41DB62CF7
:10013000CF2CE82C012D1A2D3D2D562DAF33B53384
:10014000B833BB33BF33C733CF333C343C343C3498
:10015000D733DA33E333EC333C343C343C343C3493
:100160003C343C34F433FE330A3414341734203432
:1001700029342F3499509C508B508F509550D35028
:10018000A050A450AA50AE50B250B850BC50C0506D
:10019000D350C650CA50CE50084AD73B3BCE016E12
:1001A00084BCBFFDC12F3D6C74319ABD56833DDACE
:1001B0003D00C77F11BED9E4BB4C3E916BAAAABEDD
:1001C000000000803F072C7AA5BA6CC590DA3B93FB
:1001D00065FC8BBC53F810FD3C5692834DBD879D4A
:1001E0003AB63DCBC9BF5BBE73DA0FC93F05A84C19
:1001F000CDB2D44EB93836A9020C50B991868808D0
:100200003CA6AAAA2ABE000000803F0000407A1047
:10021000F35A00A0724E18090010A5D4E80000E8B7
:100220007648170000E40B54020000CA9A3B000015
:1002300000E1F505000080969800000040420F00A4
:100240000000A08601000000102700000000E80365
:10025000000000006400000000000A000000000030
:100260000100000000002C76D888DC674F0823DFEF
:10027000C1DFAE59E1B1B796E5E3E453C63AE651C2
:10028000997696E8E6C28426EB898C9B62ED407CE9
:100290006FFCEFBC9C9F40F2BAA56FA5F490055A85
:1002A0002AF75C936B6CF9676DC11BFCE0E40D47AA
:1002B000FEF520E6B500D0ED902E030094357705CD
:1002C0000080841E080000204E0A000000C80C3385
:1002D0003333330F986E12831141EF8D2114893B14
:1002E000E65516CFFEE6DB18D1844B381BF77C1D94
:1002F000901DA4BBE424203284725E228100C9F1E7
:1003000024ECA1E53D276364696E6F7073757858BE
:100310005B00000020002300260029002C002F0095
:100320003200000100000301060109010D0A003D31
:1003300000244E005D0D0A005B302E396A2E3230EB
:100340003136303732363A005D0D0A005B544C4F7F
:100350003A005D0D0A002C005B4739323A005D0D12
:100360000A002C003A003330003238005B47005D51
:100370000D0A00205300204600205400204D380074
:10038000204D3900204D3500204D3400204D3300E4
:10039000204D3200204D3100204D300020473934AF
:1003A00000204739330020473931002047393000D9
:1003B00020473230002047323100204731390020B9
:1003C0004731380020473137002047004733382E67
:1003D000004738300047330047320047310047308C
:1003E000005B00290D0A00206D617820747261762F
:1003F000656C2C206D6D0020616363656C2C206D35
:100400006D2F7365635E3200206D617820726174B8
:10041000652C206D6D2F6D696E002C2073746570D6
:100420002F6D6D007A00790078002028003D0024AF
:10043000002028686F6D696E672070756C6C2D6F79
:1004400066662C206D6D290D0A002028686F6D6985
:100450006E67206465626F756E63652C206D7365D1
:1004600063290D0A2432373D002028686F6D696EBC
:1004700067207365656B2C206D6D2F6D696E290D7E
:100480000A2432363D002028686F6D696E67206649
:100490006565642C206D6D2F6D696E290D0A2432FF
:1004A000353D00290D0A2432343D002028686F6D47
:1004B000696E672064697220696E76657274206D5A
:1004C00061736B3A002028686F6D696E67206379ED
:1004D000636C652C20626F6F6C290D0A2432333DEA
:1004E00000202868617264206C696D6974732C2027
:1004F000626F6F6C290D0A2432323D002028736F21
:100500006674206C696D6974732C20626F6F6C293E
:100510000D0A2432313D0020287265706F727420FC
:10052000696E636865732C20626F6F6C290D0A24F5
:1005300032303D00202861726320746F6C657261F7
:100540006E63652C206D6D290D0A2431333D00202A
:10055000286A756E6374696F6E206465766961746C
:10056000696F6E2C206D6D290D0A2431323D0029F2
:100570000D0A2431313D0020287374617475732095
:100580007265706F7274206D61736B3A0020287011
:10059000726F62652070696E20696E766572742C68
:1005A00020626F6F6C290D0A2431303D0020286CC9
:1005B000696D69742070696E7320696E76657274F6
:1005C0002C20626F6F6C290D0A24363D00202873A1
:1005D00074657020656E61626C6520696E76657207
:1005E000742C20626F6F6C290D0A24353D00290D93
:1005F0000A24343D00202864697220706F727420D0
:10060000696E76657274206D61736B3A00290D0A0C
:1006100024333D0020287374657020706F7274203D
:10062000696E76657274206D61736B3A0020287371
:100630007465702069646C652064656C61792C2038
:100640006D736563290D0A24323D0020287374659B
:10065000702070756C73652C2075736563290D0AA5
:1006600024313D0024303D0024242028766965771C
:10067000204772626C2073657474696E6773290D0C
:100680000A2423202876696577202320706172610F
:100690006D6574657273290D0A2447202876696593
:1006A0007720706172736572207374617465290DAF
:1006B0000A2449202876696577206275696C642070
:1006C000696E666F290D0A244E20287669657720A9
:1006D0007374617274757020626C6F636B73290D33
:1006E0000A24783D76616C756520287361766520F3
:1006F0004772626C2073657474696E67290D0A24F1
:100700004E783D6C696E6520287361766520737440
:10071000617274757020626C6F636B290D0A2443DB
:100720002028636865636B2067636F6465206D6F65
:100730006465290D0A245820286B696C6C20616C53
:1007400061726D206C6F636B290D0A24482028723A
:10075000756E20686F6D696E67206379636C6529BB
:100760000D0A7E20286379636C652073746172744E
:10077000290D0A2120286665656420686F6C64294C
:100780000D0A3F202863757272656E742073746160
:10079000747573290D0A6374726C2D782028726544
:1007A000736574204772626C290D0A000D0A0048B7
:1007B0006F6D696E67206661696C0050726F62656B
:1007C000206661696C0041626F72742064757269A1
:1007D0006E67206379636C6500536F6674206C6983
:1007E0006D69740048617264206C696D69740041C0
:1007F0004C41524D3A20003E0D0A002C4C696D3A96
:10080000002C52583A002C4275663A002C002C57A6
:10081000506F733A002C002C4D506F733A003C44DB
:100820006F6F72003C436865636B003C416C6172A2
:100830006D003C486F6D65003C486F6C64003C5235
:10084000756E003C49646C65005D0D0A005265736D
:10085000746F72696E672064656661756C7473008D
:1008600050676D20456E6400436865636B20446F7C
:100870006F720044697361626C656400456E616209
:100880006C65640043617574696F6E3A20556E6CD7
:100890006F636B656400272448277C272458272032
:1008A000746F20756E6C6F636B0052657365742096
:1008B000746F20636F6E74696E7565005B00000075
:1008C0002100240027002A002D0030003300010100
:1008D0000000040107010A015D0D0A003A002C0026
:1008E0005B5052423A000D0A00496E76616C6964B1
:1008F0002067636F64652049443A00556E646566FD
:10090000696E656420666565642072617465004D7A
:100910006F64616C2067726F75702076696F6C61AF
:1009200074696F6E00486F6D696E67206E6F74201A
:10093000656E61626C656400416C61726D206C6F04
:10094000636B004E6F742069646C650045455052BE
:100950004F4D2072656164206661696C2E2055736D
:10096000696E672064656661756C74730056616CAE
:100970007565203C2033207573656300536574747E
:10098000696E672064697361626C65640056616CAE
:100990007565203C203000496E76616C6964207377
:1009A000746174656D656E7400426164206E756D6E
:1009B00062657220666F726D617400457870656360
:1009C00074656420636F6D6D616E64206C65747412
:1009D0006572006572726F723A20006F6B0D0A00CB
:1009E00000002200250028002B002E0031003400DA
:1009F00002010000050108010B01050505050705B9
:100A000008080808020202020A0A0808040404048A
:100A100001010101010101010303030303030303B6
:100A2000040707070C0C0C0C0C0C0C0C0202020245
:100A300006060606060606060B0B0B0B0B0B0B0B2E
:100A400001021020200808102040102040800201E0
:100A500002010804020101020408102040808040C5
:100A600020100804020180040201804020100804C4
:100A70000201080402010102040810204080010262
:100A800004081020408000000A0B02090C0D0E081B
:100A90000703040100000000000000000000000047
:100AA0000000000000000000000000000000000046
:100AB0000000121110000000000000000000000003
:100AC00000000000000000000000000011241FBE14
:100AD000CFEFD1E2DEBFCDBF00E00CBF14E0A0E05D
:100AE000B2E0ECE9FAEE00E00BBF02C007900D9215
:100AF000AE33B107D9F723E1AEE3B4E001C01D92F4
:100B0000A837B207E1F70E94DE580C944C7578CAFA
:100B10002F923F924F925F926F927F928F929F920D
:100B2000AF92BF92CF92DF92EF92FF920F931F93FB
:100B3000CF93DF93CDB7DEB7C25DD1090FB6F8947E
:100B4000DEBF0FBECDBFC753DF4F99838883C95C1B
:100B5000D04089E3E0E0F3E1DF011D928A95E9F7F7
:100B60008AE0E9E3F3E1A1E0B3E101900D928A9517
:100B7000E1F7FE01EB55FF4F1082C154DF4F1982A0
:100B80001882CF5BD040C554DF4F19821882CB5BEF
:100B9000D040CB53DF4F1882C55CD040CA54DF4FE2
:100BA0001882C65BD040C654DF4F1882CA5BD04063
:100BB000E45AF109C855DF4FF983E883C85AD04099
:100BC0009E012F5A3F4FC655DF4F39832883CA5A9B
:100BD000D040CE01CD96C455DF4F99838883CC5A3F
:100BE000D040D9011896C553DF4FB983A883CB5C99
:100BF000D040CB55DF4F8881C55AD040C753DF4F17
:100C0000E881F981C95CD040E80FF11D1081112302
:100C100011F40C9423159FEB910F9A3110F00C9462
:100C2000321E8F5FCB55DF4F8883C55AD040AE014F
:100C30004F555F4FBE016B557F4FC753DF4F8881C4
:100C40009981C95CD0400E945E27882311F40C94DE
:100C5000341ECF55DF4FC880D980EA80FB80C15A4F
:100C6000D040C701B6010E945A6E0E94C76BCF5395
:100C7000DF4F688379838A839B83C15CD040CF53E5
:100C8000DF4F28803980C15CD040B10180E090E026
:100C90000E94F36B9B01AC01C701B6010E94796A07
:100CA00020E030E048EC52E40E94AC6D4B015C0166
:100CB00020E030E0A9010E94716D20E030E040E0CA
:100CC0005FE387FD05C0C501B4010E947A6A04C0D4
:100CD000C501B4010E94796A0E94C26BCE54DF4FF5
:100CE00079836883C25BD0401D3411F40C948E0E5E
:100CF000103511F40C942A0F173411F00C94D913F9
:100D0000CB55DF4F8881C55AD040C753DF4FE881AC
:100D1000F981C95CD040E80FF11DCF01FAE92F1627
:100D2000F8E03F0609F416C158F434ED231637E015
:100D3000330699F0A9E92A16A8E03A06D1F13BC595
:100D4000BCE92B16B8E03B0609F43DC2EDE92E16CE
:100D5000E8E03E0609F42DC32EC51A82198221E06F
:100D600030E02C0F3D1F3F932F9329EC33E03F934E
:100D70002F939F938F930E94206F0F900F900F904F
:100D80000F900F900F90181619060CF037C3898139
:100D90009A819093670E8093660E11E01093390D3F
:100DA0008091D00C81110AC50E945C3A1093D00C3E
:100DB00005C58E010B5E1F4F1F930F939E01275D8C
:100DC0003F4F3F932F93C355DF4F3881CD5AD040CB
:100DD0003F93C455DF4FA881CC5AD040AF93C5553F
:100DE000DF4FB881CB5AD040BF93C655DF4FE88163
:100DF000CA5AD040EF9329E132E03F932F939F935B
:100E00008F930E94206F0FB6F894DEBF0FBECDBF48
:100E100004970CF4F3C2EF961CAE1DAE1EAE1FAECF
:100E2000EF97E5961CAE1DAE1EAE1FAEE597AB96D6
:100E30001CAE1DAE1EAE1FAEAB97A1961CAE1DAE76
:100E40001EAE1FAEA1978CE0C855DF4FA881B981B7
:100E5000C85AD0401D928A95E9F7AE0145585F4FB8
:100E600060E070E0CE018F5A9F4F0E945E2788237A
:100E700009F4A4C4AE014F585F4F60E070E0CE01AA
:100E8000CD960E945E27882309F498C4AE01495983
:100E90005F4F60E070E0CE0189960E945E27882354
:100EA00009F48CC4AE01435A5F4F60E070E0C801A2
:100EB0000E945E27882309F481C420E030E044EBDF
:100EC00052E4E5966CAD7DAD8EAD9FADE5970E9489
:100ED000796A21EE3EE245E652E40E945A6B6B01CC
:100EE0007C01E5966CAF7DAF8EAF9FAFE5970E941A
:100EF000576BEF968CAC9DACAEACBFACEF97A50139
:100F000094010E94AC6D69837A838B839C83C701B3
:100F1000B6010E940F6E9B01AC01C501B4010E9495
:100F2000AC6D6D837E838F839887AB968CAD9DADC2
:100F3000AEADBFADAB9789879A87AB87BC87A196CB
:100F40002CAD3DAD4EAD5FADA19700E0BE016F5F32
:100F50007F4F2CC4E5961CAE1DAE1EAE1FAEE597AE
:100F6000AB961CAE1DAE1EAE1FAEAB97E1E0F0E03F
:100F7000EC0FFD1FFF93EF938E010B5E1F4F1F932E
:100F80000F932E01FBE74F0E511C5F924F9222E40C
:100F900032E03F932F939F938F930E94206F0FB661
:100FA000F894DEBF0FBECDBF03970CF427C2AE018D
:100FB0004F585F4F60E070E0C8010E945E278823B1
:100FC00009F4FCC3AE0149595F4F60E070E0CE0107
:100FD00001960E945E27882309F4F0C3A1961CAEF7
:100FE0001DAE1EAE1FAEA19765961CAE1DAE1EAE09
:100FF0001FAE659721961CAE1DAE1EAE1FAE21978B
:101000003E0139E2630E711C8CE0D3011D928A957A
:10101000E9F76091280D7091290D80912A0D90912A
:101020002B0D0E94F56BC255DF4F688379838A834D
:101030009B83CE5AD0406091240D7091250D8091F4
:10104000260D9091270D0E94F56BC153DF4F6883E9
:1010500079838A839B83CF5CD0406091200D70910F
:10106000210D8091220D9091230D0E94F56BFE01C0
:10107000FD964F019E012F5A3F4F5901DE01A35AA1
:10108000BF4F6D01C255DF4FE880F9800A811B8197
:10109000CE5AD040C153DF4F288139814A815B81CC
:1010A000CF5CD0400E943B42F2018081918181302F
:1010B000910509F44BC0DCF5892B09F0ACC120E0A7
:1010C00030E044EB52E4E5966CAD7DAD8EAD9FAD66
:1010D000E5970E94796A7B018C01E5966CAF7DAF44
:1010E0008EAF9FAFE59765962CAD3DAD4EAD5FAD34
:1010F0006597A1966CAD7DAD8EAD9FADA197DE01DC
:10110000D1964D01FE01BD965F0118976D010E94B9
:101110005641A401B501C6010E94A93EAB962CAD73
:101120003DAD4EAD5FADAB9700E0B6014AC0823039
:101130009105F9F0039709F06EC1E5966CAD7DADB0
:101140008EAD9FADE5970E94183B38C32196ECAC5D
:10115000FDAC0EAD1FAD219765962CAD3DAD4EADEE
:101160005FAD6597E5966CAD7DAD8EAD9FADE597B6
:1011700012C02196ECACFDAC0EAD1FAD2197E596EB
:101180002CAD3DAD4EAD5FADE597A1966CAD7DAD9F
:101190008EAD9FADA197FE01F1964F01DE019D96A8
:1011A0005D0163010E945641A401B501C3010E9483
:1011B000A93EAB962CAD3DAD4EAD5FADAB9700E01B
:1011C000B30180E0F4C29E012B5E3F4F3F932F930B
:1011D0008E01075D1F4F1F930F93C355DF4FB881DB
:1011E000CD5AD040BF93C455DF4FE881CC5AD04090
:1011F000EF93C555DF4FF881CB5AD040FF93C655CA
:10120000DF4F2881CA5AD0402F932AE532E03F931E
:101210002F939F938F930E94206F0FB6F894DEBF99
:101220000FBECDBF04970CF4E9C0EF961CAE1DAE07
:101230001EAE1FAEEF97E5961CAE1DAE1EAE1FAEE6
:10124000E597AB961CAE1DAE1EAE1FAEAB97A1963A
:101250001CAE1DAE1EAE1FAEA197AE0145585F4F2E
:1012600060E070E0CE018F5A9F4F0E945E27882376
:1012700009F4A4C2AE014F585F4F60E070E0CE01A8
:10128000CD960E945E27882309F498C2AE01495981
:101290005F4F60E070E0C8010E945E27882309F478
:1012A0008DC2AE01435A5F4F60E070E0CE014596BB
:1012B0000E945E27882309F481C26091280D7091F5
:1012C000290D80912A0D90912B0D0E94F56BC2552E
:1012D000DF4F688379838A839B83CE5AD0406091A5
:1012E000240D7091250D8091260D9091270D0E945F
:1012F000F56B2B013C016091200D7091210D8091C7
:10130000220D9091230D0E94F56BFE0139964F013D
:101310009E012B5F3F4F5901DE0111966D01C255B1
:10132000DF4FE880F9800A811B81CE5AD040A301AB
:1013300092010E94523FA401B501C6010E94A93E3C
:10134000EF962CAD3DAD4EAD5FADEF9769817A81E3
:101350008B819C810E947A6A69837A838B839C83C8
:10136000E5962CAD3DAD4EAD5FADE5976D817E81CF
:101370008F8198850E947A6A6D837E838F83988798
:10138000AB962CAD3DAD4EAD5FADAB9769857A8523
:101390008B859C850E947A6A69877A878B879C8770
:1013A000A1962CAD3DAD4EAD5FADA19700E0B6016D
:1013B000FDC19E01235A3F4F3F932F938E01095940
:1013C0001F4F1F930F937E01B1E7EB0EF11CFF92AD
:1013D000EF926E01EBE7CE0ED11CDF92CF9229E1A6
:1013E00032E03F932F939F938F930E94206F0FB60D
:1013F000F894DEBF0FBECDBF049784F41F9281E046
:101400008F938DE092E09F938F930E949D1F0F908A
:101410000F900F900F9082E390E0D2C1C356DF4F40
:10142000188219821A821B82CD59D040C756DF4FCD
:10143000188219821A821B82C959D040CB56DF4FBD
:10144000188219821A821B82C559D040CF56DF4FAD
:10145000188219821A821B82C159D0408CE0C6556D
:10146000DF4FA881B981CA5AD0401D928A95E9F709
:10147000AE0143565F4F60E070E0C6010E945E27F8
:10148000882309F49BC1AE0147565F4F60E070E0CE
:10149000C7010E945E27882309F490C1AE014B5614
:1014A0005F4F60E070E0C8010E945E27882309F466
:1014B00085C1AE014F565F4F60E070E0CE01835AA8
:1014C0009F4F0E945E27882309F478C1C357DF4FDE
:1014D000188219821A821B82CD58D040C757DF4F1D
:1014E000188219821A821B82C958D040CB57DF4F0D
:1014F000188219821A821B82C558D0406091280D2B
:101500007091290D80912A0D90912B0D0E94F56B01
:10151000C255DF4F688379838A839B83CE5AD0403C
:101520006091240D7091250D8091260D9091270DCD
:101530000E94F56B2B013C016091200D7091210DF3
:101540008091220D9091230D0E94F56BFE01EB57C7
:10155000FF4F4F019E0127573F4F5901DE01A3570F
:10156000BF4F6D01C255DF4FE880F9800A811B81B2
:10157000CE5AD040A30192010E943B426091280DB7
:101580007091290D80912A0D90912B0D0E94F56B81
:10159000C153DF4F688379838A839B83CF5CD040BC
:1015A0006091240D7091250D8091260D9091270D4D
:1015B0000E94F56B2B013C016091200D7091210D73
:1015C0008091220D9091230D0E94F56BC553DF4F42
:1015D00088809980CB5CD040E1E5F0E0EC0FFD1F06
:1015E0003496C255DF4FF983E883CE5AD0405F016D
:1015F0009E012F5A3F4F6901C153DF4FE880F980A8
:101600000A811B81CF5CD040A30192010E94523F0E
:10161000C553DF4F48815981CB5CD040C255DF4F65
:1016200068817981CE5AD040C6010E94A93E659654
:101630006CAD7DAD8EAD9FAD65976996CCACDDACE4
:10164000EEACFFAC69979B01AC010E94AC6D4B0105
:101650005C01A7019601C701B6010E94AC6D9B0118
:10166000AC01C501B4010E947A6A0E94196EC3568A
:10167000DF4F288139814A815B81CD59D0400E945A
:101680007A6A6B017C01C356DF4F688379838A8352
:101690009B83CD59D040C756DF4F288139814A817D
:1016A0005B81C959D040CB57DF4F688179818A81EE
:1016B0009B81C558D0400E947A6A21EE3EE245E601
:1016C00052E40E945A6B2B013C010E94576B9B0114
:1016D000AC01C701B6010E94AC6D4B015C0165967F
:1016E0006CAF7DAF8EAF9FAF6597C301B2010E9413
:1016F0000F6E9B01AC01C701B6010E94AC6D6996EB
:101700006CAF7DAF8EAF9FAF6997CB56DF4F28810F
:1017100039814A815B81C559D0406D966CAD7DADF4
:101720008EAD9FAD6D970E947A6A6D966CAF7DAF5E
:101730008EAF9FAF6D978E01035C1F4F24E045E095
:10174000C501B4010E94FE6769966CAD7DAD8EAD9A
:101750009FAD69970451110924E045E00E94FE679E
:101760006D966CAD7DAD8EAD9FAD6D970451110939
:1017700024E045E00E94FE67C356DF4F688179810F
:101780008A819B81CD59D0400451110924E045E064
:101790000E94FE67CF56DF4F288139814A815B81E5
:1017A000C159D04000E0BE016F5A7F4F81E00E94D6
:1017B000045290E005C081E090E002C080E090E03B
:1017C0009C01215031092230310510F00C949E1EED
:1017D00038E22316310409F445C280F594E1291654
:1017E000310498F4A1E12A16310408F079C1B4E07B
:1017F0002B16310409F479C008F4F4C0FAE02F166E
:10180000310409F45EC00C94401E2CE12216310410
:1018100009F457C038F486E12816310408F4BEC133
:101820000C94401E9EE12916310409F44AC0A6E238
:101830002A16310409F4D6C00C94401EBDE32B16C1
:10184000310409F4FEC110F5F5E32F16310409F453
:101850004CC060F43BE22316310409F4B6C181E3C5
:101860002816310409F4B1C10C94401E9CE32916DA
:10187000310410F00C94401ECF53DF4F8881C15CBF
:10188000D04086538093071399E0D5C1ACE52A1662
:10189000310460F4BAE52B16310408F03CC1E0E5F0
:1018A0002E16310409F4ACC00C94401EFCE52F1632
:1018B000310439F02FE52216310408F462C10C948A
:1018C000401ECE54DF4F88819981C25BD040892B66
:1018D00011F00C94541EC654DF4F9881CA5BD0405F
:1018E000992309F450C00C94361EACE12A16310439
:1018F000D1F148F4E4E02E16310481F0FAE02F161D
:101900003104E9F01FC02EE12216310409F445C06C
:1019100035E32316310409F463C014C081E010C01C
:10192000FFE12F16310408F04FC02AE022163104DF
:1019300079F481E0C654DF4F8883CA5BD04082E0EF
:1019400080930013C255DF4F1882CE5AD04097C102
:101950003CE12316310409F09CC191E0C654DF4FED
:101960009883CA5BD040CE54DF4FA881B981C25B57
:10197000D040109731F01A9711F00C94401E84E07B
:1019800015C083E013C0EEE12E16310449F6B1E034
:10199000C654DF4FB883CA5BD040CE54DF4FE881D6
:1019A000F981C25BD040309749F485E08093001301
:1019B000C255DF4F1882CE5AD04076C13A9711F007
:1019C0000C94401E86E0F2CF85E32816310411F016
:1019D0000C94691EF1E0C654DF4FF883CA5BD04017
:1019E00087E0AECFC654DF4F9881CA5BD0409111DB
:1019F0000C94361EA2E0C654DF4FA883CA5BD040C9
:101A0000B2E02B16310421F160F421143104E1F02D
:101A10002A94232809F02DC181E080930113A1E0CD
:101A200074C026E222163104E9F030E523163104B1
:101A300009F452C083E02816310409F01AC183E08A
:101A400080930113E1E00FC11092011391E0F3C004
:101A500082E080930113B1E0C255DF4FB883CE5AC4
:101A6000D0400DC1CE54DF4F28813981C25BD040B8
:101A70002E31310539F178F42431310511F00C940F
:101A8000401E84E08093011391E0C255DF4F98839C
:101A9000CE5AD04009C1CE54DF4F88819981C25BB4
:101AA000D0408832910599F0C29711F00C94401EF5
:101AB00087E080930113E1E0C255DF4FE883CE5AFF
:101AC000D040F2C085E080930113A1E054C086E0CD
:101AD00080930113B1E0C0C088E080930113C9C0B6
:101AE00022E12216310441F033E12316310449F09A
:101AF0001092051382E063C081E08093051392E0A9
:101B00009AC082E080930513A2E0C255DF4FA883FC
:101B1000CE5AD040B4C0CE54DF4FE881F981C25BC9
:101B2000D040EF2BB9F4FAE52F16310449F41092A6
:101B3000041323E0C255DF4F2883CE5AD040B4C0EF
:101B400081E08093041333E0C255DF4F3883CE5ACF
:101B5000D040AAC0CE54DF4F88819981C25BD0406B
:101B60000A9711F00C94401E9AE52916310411F4DD
:101B70000C94401EA4E0C255DF4FA883CE5AD0403B
:101B800093C0BDE52B16310429F481E08093021344
:101B9000E5E069C010920213F5E06CC024E1221662
:101BA000310451F481E08093031336E0C255DF4FD6
:101BB0003883CE5AD04063C01092031386E0C255DA
:101BC000DF4F8883CE5AD0405AC0C654DF4F988129
:101BD000CA5BD04091110C94361EA1E32A16310441
:101BE00079F410920613B8E0C255DF4FB883CE5A8D
:101BF000D040E3E0C654DF4FE883CA5BD04054C016
:101C0000CE54DF4F28813981C25BD0402A30310564
:101C100011F00C94401E81E08093061338E0C25509
:101C2000DF4F3883CE5AD04083E0C654DF4F8883DD
:101C3000CA5BD04039C0C255DF4F9883CE5AD040DE
:101C40001EC0CE54DF4FA881B981C25BD040AB2B00
:101C500011F00C94401EBAE0C255DF4FB883CE5A43
:101C6000D04022C0E7E0C255DF4FE883CE5AD040D3
:101C700006C0F1E0C255DF4FF883CE5AD040CE54B3
:101C8000DF4F28813981C25BD040232B69F00C944F
:101C9000671EC255DF4F1882CE5AD04031E0C6547D
:101CA000DF4F3883CA5BD040C554DF4FE881F981EC
:101CB000CB5BD040CF01A0E0B0E0C255DF4F088041
:101CC000CE5AD04004C0B695A795979587950A94AB
:101CD000D2F780FF03C085E10C949E1E81E090E066
:101CE000A0E0B0E0C255DF4F0880CE5AD04004C01B
:101CF000880F991FAA1FBB1F0A94D2F7C554DF4F44
:101D000028813981CB5BD040282B392BC554DF4F3C
:101D100039832883CB5BD0400C94F905CE54DF4F38
:101D200088819981C25BD040892B11F00C94671E89
:101D3000CB55DF4F8881C55AD040C753DF4F6881EC
:101D40007981C95CD040680F711DAE014B555F4F62
:101D5000CF53DF4F88819981C15CD0400E942A28EF
:101D60009C01215031092230310510F00C949E1E47
:101D700096E02916310428F4A3E02A16310490F0E5
:101D800026C0B8E02B16310410F40C94401EEAE093
:101D90002E16310408F440C0FEE12F16310411F074
:101DA0000C94401E22E02216310461F03EE123161D
:101DB000310441F0232809F046C081E080930813E4
:101DC0008BE032C082E0809308139BE036C0A4E031
:101DD0002A16310471F0B5E02B163104A1F081E030
:101DE00080930A13ECE0C255DF4FE883CE5AD0400F
:101DF000AFC482E080930A13FCE0C255DF4FF88342
:101E0000CE5AD040A5C410920A132CE0C255DF4F21
:101E10002883CE5AD0409CC439E02316310451F0B7
:101E200082E0809309138DE0C255DF4F8883CE5A3C
:101E3000D0408EC4109209139DE0C255DF4F9883A5
:101E4000CE5AD04085C4ABE0C255DF4FA883CE5AEE
:101E5000D0407EC4CE54DF4F28813981C25BD04050
:101E6000232B11F00C94671ECB55DF4F8881C55A88
:101E7000D040C753DF4FE881F981C95CD040E80FFB
:101E8000F11D37EB231638E0330609F46EC308F072
:101E900061C19CE9291698E0390609F49CC108F053
:101EA00078C0B9E92B16B8E03B0609F48EC108F0FA
:101EB00061C0F8E92F16F8E03F0609F03FC484E15D
:101EC0001E01A9E22A0E311CF101282F11922A9538
:101ED000E9F7DE015596CA55DF4FB983A883C65A84
:101EE000D040E82F1D92EA95E9F7C855DF4FA88149
:101EF000B981C85AD0401D928A95E9F780E090E0F8
:101F00000E94EE432B013C0181E090E00E94EE43F1
:101F10004B015C0182E090E00E94EE436B017C018A
:101F2000810124E045E0C301B2010E94FE67045133
:101F3000110924E045E0C501B4010E94FE67045187
:101F4000110924E045E0C701B6010E94FE67C955AA
:101F5000DF4FB881C75AD040BF93CA55DF4FE881E1
:101F6000C65AD040EF933F922F921F930F9383E86E
:101F700092E0C2C32AE9221628E0320609F428C1F9
:101F80003BE9231638E0330609F0D8C38FE992E025
:101F900024C18EE9281688E0380609F42AC108F41D
:101FA00021C1ACEA2A16A8E03A0609F43DC2BDEA0E
:101FB0002B16B8E03B0609F0C1C3A1961CAE1DAEBE
:101FC0001EAE1FAEA19765961CAE1DAE1EAE1FAE17
:101FD000659721961CAE1DAE1EAE1FAE219784E103
:101FE0001E0199E2290E311CD101E82F1D92EA95BC
:101FF000E9F79E012B5E3F4FCA55DF4F3983288397
:10200000C65AD040D901E82F1D92EA95E9F7C85584
:10201000DF4FA881B981C85AD0401D928A95E9F74F
:1020200080E090E00E94EE43CE54DF4F68837983D6
:102030008A839B83C25BD04081E090E00E94EE43A4
:10204000CF53DF4F688379838A839B83C15CD04001
:1020500082E090E00E94EE4320E030E044EB52E466
:102060000E94796A2B013C01FE01FD964F019E0101
:102070002F5A3F4F5901CE01835A9F4F6C01830164
:102080007201CF53DF4F288139814A815B81C15C66
:10209000D040CE54DF4F688179818A819B81C25BB9
:1020A000D0400E945641A401B501C6010E94A93E3C
:1020B000A1966CAD7DAD8EAD9FADA1976596CCAC74
:1020C000DDACEEACFFAC65979B01AC010E94AC6D42
:1020D0004B015C01A7019601C701B6010E94AC6DDE
:1020E0009B01AC01C501B4010E947A6A0E94196E7D
:1020F000810124E045E00E94FE6720E030E044EBEF
:1021000052E4C301B2010E947A6A0451110924E029
:1021100045E00E94FE6721966CAD7DAD8EAD9FAD12
:1021200021970451110924E045E00E94FE671F93A6
:102130000F93C955DF4FB881C75AD040BF93CA55D6
:10214000DF4FE881C65AD040EF933F922F9281EC47
:1021500092E0D2C220EC221628E0320609F431C205
:10216000D0F489EB281688E0380609F415C208F483
:1021700008C2AAEB2A16A8E03A0609F415C2BBEB7E
:102180002B16B8E03B0609F0D9C28091020185FB0D
:10219000882780F914C222EC221628E0320609F4BE
:1021A00081C208F450C283EC281688E0380609F48E
:1021B0008BC290E6291699E0390609F0BFC28091DA
:1021C000070D8F938091060DA5C281E992E005C0AD
:1021D00088E69EE002C086EA92E09F938F938AE9A8
:1021E00092E09BC28EE394E09F938F938DEA92E0FE
:1021F00094C280818E3409F04AC2818190ED292EEB
:10220000280E93E0921508F442C2AB961CAE1DAEA8
:102210001EAE1FAEAB97A1961CAE1DAE1EAE1FAE7E
:10222000A19765961CAE1DAE1EAE1FAE659784E1EC
:10223000C455DF4FA881B981CC5AD040E82F1D92F8
:10224000EA95E9F7FE01B996DF01282F1D922A953C
:10225000E9F77497DF01282F1D922A95E9F7C855F1
:10226000DF4FA881B981C85AD0401D928A95E9F7FD
:102270006091EE127091EF128091F0129091F11234
:102280000E94F56BCE54DF4F688379838A839B83EA
:10229000C25BD0406091EA127091EB128091EC1217
:1022A0009091ED120E94F56B2B013C016091E612BA
:1022B0007091E7128091E8129091E9120E94F56BFB
:1022C000FE01EF5AFF4F4F019E01235A3F4F590124
:1022D000DE01A959BF4F6D01CE54DF4FE880F98070
:1022E0000A811B81C25BD040A30192010E943B4244
:1022F00020E030E044EB52E465966CAD7DAD8EADF0
:102300009FAD65970E947A6A65966CAF7DAF8EAF80
:102310009FAF65978091060D9091070D04970297E6
:1023200048F48090620E9090630EA090640EB0907E
:10233000650E24C020E030E040E05FE360910002E1
:102340007091010280910202909103020E94796AC9
:1023500020E030E040E05FE30E94AC6D20E030E040
:1023600044E353E40E94AC6D9B01AC0160E070E07B
:1023700084E393E40E94796A4B015C01AB966CADF7
:102380007DAD8EAD9FADAB978E01035C1F4F24E0FA
:1023900045E00E94FE677E01B9E2EB0EF11CA196BA
:1023A0006CAD7DAD8EAD9FADA197870124E045E07A
:1023B0000E94FE676E01E5E1CE0ED11C65966CAD04
:1023C0007DAD8EAD9FAD6597860124E045E00E940E
:1023D000FE670451110924E045E0C501B4010E94E3
:1023E000FE67F2E02F16B1F023E02216B1F031E0E3
:1023F000231619F0DF92CF92F2CEC355DF4F8881BA
:10240000CD5AD0408F93C455DF4F9881CC5AD040DD
:102410009F93E5CEFF92EF92E2CEA1E0B0E0AC0F49
:10242000BD1FBF93AF93DBCEA1961CAE1DAE1EAEFB
:102430001FAEA19765961CAE1DAE1EAE1FAE659772
:1024400021961CAE1DAE1EAE1FAE219784E11E016B
:10245000B9E22B0E311CF101282F11922A95E9F7D0
:10246000DE015596CA55DF4FB983A883C65AD040BE
:10247000E82F1D92EA95E9F7C855DF4FA881B98189
:10248000C85AD0401D928A95E9F780E090E00E94FA
:10249000EE432B013C0181E090E00E94EE43CE54DC
:1024A000DF4F688379838A839B83C25BD04082E05D
:1024B00090E00E94EE4320E030E044EB52E40E94C2
:1024C000796AFE01FD964F019E012F5A3F4F590137
:1024D000DE01A35ABF4F6D017B018C01CE54DF4F4B
:1024E000288139814A815B81C25BD040C301B2013E
:1024F0000E945641A401B501C6010E94A93EA196C1
:102500006CAD7DAD8EAD9FADA197810124E045E01E
:102510000E94FE6765966CAD7DAD8EAD9FAD6597F3
:102520000451110924E045E00E94FE6721966CAD3C
:102530007DAD8EAD9FAD21970451110924E045E09A
:102540000E94FE671F930F93C955DF4FF881C75A4A
:10255000D040FF93CA55DF4F2881C65AD0402F93F1
:102560003F922F9283EB92E0C7C0A49B11C08FE3F0
:102570000E9402518A30910558F08734910530F05D
:1025800009C0479905C00898009904C082E017C0A7
:1025900080E015C081E013C082B38695869586954C
:1025A00091E0892781700BC08BE30E94025121E0EA
:1025B0008536910508F420E01F922F93ACC01F923E
:1025C000A9C081E090E08C0F9D1F9F938F938FECAB
:1025D00092E09F938F93FF93EF930E94206F0F9051
:1025E0000F900F900F900F900F90181619060CF087
:1025F00041C029813A812634310508F048C0F901EB
:10260000EA57F54F8491F901E05CF54F1491F90117
:10261000E650F64F0491002391F081110E947E5004
:10262000E02FF0E0EE0FFF1FEE5EFC4FA591B4919E
:10263000EC911E2381E090E021F480E002C080E074
:1026400090E09F9367C0A1E0B0E0AC0FBD1FBF93C7
:10265000AF938FEC92E09F938F93FF93EF930E9441
:10266000206F0F900F900F900F900F900F901816F3
:10267000190684F01F9281E08F938DE092E09F9382
:102680008F930E949D1F0F900F900F900F9082E3E9
:1026900090E056C089819A8180319105C0F70E94EF
:1026A0000251CFCF8091450D8F938091440D8F9330
:1026B0008091430D8F938091420D8F938091410DB6
:1026C0008F938091400D15C080E090E00E949C4364
:1026D000182F092F81E090E00E949C43F82EE92EEC
:1026E00082E090E00E949C43EF92FF920F931F9331
:1026F0009F938F9383ED92E09F938F9384ED9CE063
:102700009F938F930E94F26E0FB6F894DEBF0FBEB8
:10271000CDBF11C08F9386E793E09F938F9384ED95
:102720009CE09F938F930E94F26E0F900F900F90FA
:102730000F900F900F9080E090E002C081E090E059
:102740009C01215031092230310510F00C949E1E5D
:10275000C554DF4FE881F981CB5BD040CF01A0E0C9
:10276000B0E0C255DF4F0880CE5AD04004C0B695C5
:10277000A795979587950A94D2F780FDACCA81E01A
:1027800090E0A0E0B0E0C255DF4F0880CE5AD040C4
:1027900004C0880F991FAA1FBB1F0A94D2F7E82B09
:1027A000F92BC554DF4FF983E883CB5BD0400C9401
:1027B000F905812F110F990BAA0BBB0BFC01E654F5
:1027C000F109E531F10510F00C94401E8827EE5810
:1027D000FF4F8F4F0C94BF6EC0920B13D0920C130F
:1027E000E0920D13F0920E13C255DF4F1882CE5AAD
:1027F000D040D2C0C0920F13D0921013E0921113A8
:10280000F0921213CB53DF4FF881C55CD040F160DA
:10281000CB53DF4FF883C55CD04021E04FC0C0925E
:102820001313D0921413E0921513F0921613CB5396
:10283000DF4F3881C55CD0403260CB53DF4F3883E7
:10284000C55CD04082E053C0C0921713D0921813D9
:10285000E0921913F0921A13CB53DF4F9881C55CA5
:10286000D0409460CB53DF4F9883C55CD040A3E049
:1028700058C0CF53DF4FB881C15CD040B0931B1319
:10288000E4E069C0C701B6010E94C26B60931C13EB
:1028900070931D1380931E1390931F13F5E0C25580
:1028A000DF4FF883CE5AD04077C0C0922013D09229
:1028B0002113E0922213F092231326E0C255DF4F3A
:1028C0002883CE5AD04068C0C0922413D0922513DA
:1028D000E0922613F092271337E059C0C0922813D4
:1028E000D0922913E0922A13F0922B1388E0C2555C
:1028F000DF4F8883CE5AD0404FC0C0922D13D09264
:102900002E13E0922F13F0923013CA54DF4F9881A8
:10291000C65BD0409160CA54DF4F9883C65BD040FD
:10292000AAE0C255DF4FA883CE5AD04035C0C0922E
:102930003113D0923213E0923313F0923413CA540D
:10294000DF4FB881C65BD040B260CA54DF4FB88356
:10295000C65BD040EBE0C255DF4FE883CE5AD04093
:102960001BC0C0923513D0923613E0923713F09209
:102970003813CA54DF4FF881C65BD040F460CA54A4
:10298000DF4FF883C65BD0402CE098CF39E0C255CA
:10299000DF4F3883CE5AD040C255DF4F8881CE5AA0
:1029A000D040082FC154DF4FE881F981CF5BD04080
:1029B000CF01A0E0B0E0C255DF4F0880CE5AD04032
:1029C00004C0B695A795979587950A94D2F780FF8E
:1029D00002C00C94381E81E693E0A0E0B0E0C2553E
:1029E000DF4F0880CE5AD04004C0B695A795979582
:1029F00087950A94D2F780FF0BC020E030E0A90150
:102A0000C701B6010E94536B87FF02C00C943A1EA7
:102A100081E090E0A0E0B0E004C0880F991FAA1FF9
:102A2000BB1F0A95D2F7C154DF4F28813981CF5B94
:102A3000D040282B392BC154DF4F39832883CF5BFB
:102A4000D0400C94F905CA54DF4F3881C65BD040A2
:102A5000332369F0C654DF4F8881CA5BD0408111AF
:102A600006C092E0C654DF4F9883CA5BD040C15481
:102A7000DF4FA881CF5BD040A5FF0FC080911C1312
:102A800090911D13A0911E13B0911F138038964989
:102A9000A849B10514F00C943C1E809102138130BA
:102AA00091F4C654DF4FF881CA5BD040F23009F090
:102AB00040C0C154DF4F2881CF5BD04020FD02C011
:102AC0000C94461E36C080913A13811132C0C15415
:102AD000DF4F3881CF5BD04030FF1BC080910313A4
:102AE000813039F523E333E34BEC51E460910B1370
:102AF00070910C1380910D1390910E130E94AC6D88
:102B000060930B1370930C1380930D1390930E131B
:102B100010C08091471390914813A0914913B09130
:102B20004A1380930B1390930C13A0930D13B0933F
:102B30000E13C154DF4F88819981CF5BD04090FD47
:102B400010C08091431390914413A0914513B0910C
:102B500046138093281390932913A0932A13B093BC
:102B60002B13809100138130B9F4C154DF4F988149
:102B7000CF5BD04096FD03C08CE10C949E1EC154E7
:102B8000DF4FA881B981CF5BD040AF7BC154DF4F0D
:102B9000B983A883CF5BD04080910513882331F19E
:102BA000813091F4B1E0C753DF4FB883C95CD040A6
:102BB000CE54DF4F1882C25BD040E2E0C255DF4FF7
:102BC000E883CE5AD04023C0C753DF4F1882C95C78
:102BD000D040F2E0CE54DF4FF883C25BD04021E01A
:102BE000C255DF4F2883CE5AD04011C032E0C753C0
:102BF000DF4F3883C95CD04081E0CE54DF4F8883FB
:102C0000C25BD040C255DF4F1882CE5AD04080916F
:102C10000313813049F0C654DF4F9881CA5BD0401E
:102C2000933009F043C036C0B0E0EB2EB3E1FB2E89
:102C300000E010E0CA54DF4FA881C65BD0408A2E66
:102C4000912CA12CB12CD501C401002E04C0B69545
:102C5000A795979587950A94D2F780FF12C023E332
:102C600033E34BEC51E4F70165A576A587A590A960
:102C70000E94AC6DD7019D966D937D938D939C932F
:102C8000D0970F5F1F4FB4E0EB0EF11C033011051E
:102C9000D1F6C1CF80910613813041F4CA54DF4F81
:102CA000E881C65BD040E43009F0E8C78CE0ECE591
:102CB000F3E1DE01119601900D928A95E1F7C5547A
:102CC000DF4F28813981CB5BD04031FD08C01091A6
:102CD00000131230C1F0183009F4EAC058C18091D5
:102CE0000713873018F08DE10C949E1E90913F13CE
:102CF000891769F3BE016F5F7F4F0E9451348823AB
:102D000009F4D0C7E4CFCA54DF4F3881C65BD04046
:102D1000311103C08AE10C949E1EC154DF4F88819B
:102D20009981CF5BD04080759927892B09F424CFF6
:102D3000609120137091211380912213909123139D
:102D40000E945A6E0E94C76B673068F680911B1311
:102D5000843151F0823009F093C7C154DF4F88812C
:102D6000CF5BD04087FD8CC7C154DF4FA881B981AC
:102D7000CF5BD040AF7AC154DF4FB983A883CF5B1C
:102D8000D040662321F022242A94260E02C02090EF
:102D90000713BE016B5E7F4F822D0E945134882342
:102DA00009F480C730901B138090741390907513B2
:102DB000A0907613B0907713A0E0CA2EA3E1DA2E8C
:102DC0008E010B5E1F4FE9E3F3E1C554DF4FF9833A
:102DD000E883CB5BD040E12CF12CCA54DF4FF88163
:102DE000C65BD0404F2E512C612C712CD301C201F7
:102DF0000E2C04C0B695A795979587950A94D2F79F
:102E000080FF3BC024E132122EC0C554DF4FA881A1
:102E1000B981CB5BD0409F962D913D914D915C91B6
:102E2000D29757966D917D918D919C915A970E9462
:102E3000796AF60125A536A547A550A90E94796AA9
:102E4000D8016D937D938D939C931397B2E0EB1211
:102E500014C0A50194010E94796AF801608371830E
:102E6000828393830AC0F60185A596A5A7A5B0A97C
:102E7000F80180839183A283B383FFEFEF1AFF0AE7
:102E800024E0C20ED11C0C5F1F4FC554DF4F888158
:102E90009981CB5BD0400496C554DF4F99838883DA
:102EA000CB5BD04093E0E916F10409F09FCF4CC111
:102EB000CA54DF4FA881C65BD040AA2309F42ACFA9
:102EC0008090741390907513A0907613B090771340
:102ED000F9E3CF2EF3E1DF2EFE0131961F0100E072
:102EE00013E1E12CF12C4A2E512C612C712CD301D1
:102EF000C2010E2C04C0B695A795979587950A94A4
:102F0000D2F780FF29C0D1012D913D914D915C9167
:102F1000F6016789708D818D928D0E94796AD80142
:102F20009D962D913D914D915C91D0970E94796A2B
:102F3000F80165A776A787A790ABF2E0EF1216C05D
:102F4000A50194010E94796AD8019D966D937D93A5
:102F50008D939C93D0970AC0F60187A590A9A1A94B
:102F6000B2A9F80185A796A7A7A7B0ABFFEFEF1A04
:102F7000FF0A24E0C20ED11C34E0230E311C0C5F8A
:102F80001F4F83E0E816F10409F0B1CFDCC0C6544E
:102F9000DF4F9881CA5BD040933009F49DC0CA547A
:102FA000DF4FA881C65BD040AA2309F4BDC60091BB
:102FB00004134090741350907513609076137090C2
:102FC000771379E3A72E73E1B72EE0E0EE2EE3E16D
:102FD000FE2EFE0131964F01C12CD12C8A2F90E09C
:102FE000A0E0B0E0C554DF4F88839983AA83BB83F8
:102FF000CB5BD040C554DF4F88819981AA81BB81CA
:10300000CB5BD0400C2C04C0B695A79597958795BF
:103010000A94D2F780FD0BC0F5018789908DA18DB0
:10302000B28DF70185A796A7A7A7B0AB43C017300D
:1030300009F440C001112BC0D5019F962D913D91FF
:103040004D915C91D297F40160817181828193816D
:103050000E947A6AD7019D962D913D914D915C9188
:10306000D0970E947A6AF70165A776A787A790ABE9
:10307000F2E0CF121FC0A30192010E947A6AD70129
:103080009D966D937D938D939C93D09713C0F5017E
:103090002789308D418D528DD7019D966D917D91FF
:1030A0008D919C91D0970E947A6AF70165A776A7C7
:1030B00087A790ABFFEFCF1ADF0A24E0A20EB11C66
:1030C00034E0E30EF11C84E0880E911C93E0C916F5
:1030D000D10409F08FCF2DC01530A9F0173071F150
:1030E000133089F5CA54DF4FA881C65BD040A111C7
:1030F00005C0C654DF4F1882CA5BD040BE016B5E6C
:103100007F4F86E010C0CA54DF4FB881C65BD04005
:10311000B11105C0C654DF4F1882CA5BD040BE0152
:103120006B5E7F4F87E00E945134882309F4BAC553
:103130000AC01530A1F3173009F0F2C580910113D0
:10314000823008F09FC5212C30900113E8E03E1238
:1031500011C0CA54DF4FF881C65BD040FF2309F489
:1031600005C3C654DF4F2881CA5BD040213009F027
:103170008BC511C3C654DF4F3881CA5BD040323093
:1031800009F0F4C2311009C0CA54DF4F8881C65B10
:10319000D040882309F4F1C2FEC220E030E0A9014A
:1031A00060910B1370910C1380910D1390910E137D
:1031B0000E94536B882309F469C593E0931538F096
:1031C000A2E03A1690F4B1E03B1631F0E4C2E7E039
:1031D000E31508F0BEC2DFC2CA54DF4FF881C65BF8
:1031E000D040FF2309F4C9C2D6C2CA54DF4F288198
:1031F000C65BD040222309F48DCDC255DF4F9881A4
:10320000CE5AD040892F90E0C554DF4F99838883F0
:10321000CB5BD040CE54DF4FB881C25BD040AB2FE8
:10322000B0E0CF53DF4FB983A883C15CD04081E0C9
:1032300090E0A0E0B0E06C017D01C255DF4F088056
:10324000CE5AD04004C0CC0CDD1CEE1CFF1C0A94EE
:10325000D2F7CE54DF4F0880C25BD04004C0880F45
:10326000991FAA1FBB1F0A94D2F7C82AD92AEA2A93
:10327000FB2A822F90E0A0E0B0E08C219D21AE21BE
:10328000BF21892B8A2B8B2B09F402C5C554DF4F34
:1032900088819981CB5BD040880F991F880F991F37
:1032A000FC01E050FD4EDC01A75CBC4E57962D9111
:1032B0003D914D915C915A9765A576A587A590A9FA
:1032C0000E94796A4B015C01CF53DF4F888199815D
:1032D000C15CD040880F991F880F991FFC01E050F6
:1032E000FD4EDC01A75CBC4E57962D913D914D9152
:1032F0005C915A9765A576A587A590A90E94796AE1
:10330000CA54DF4F688379838A839B83C65BD0402E
:10331000C154DF4F08811981CF5BD040007811275D
:10332000C154DF4FE881CF5BD040E7FF15C1C154E6
:10333000DF4F28813981CF5BD0402F77C154DF4FD9
:1033400039832883CF5BD0400E949864882311F092
:1033500081E2F4C4809103138130B1F423E333E3B9
:103360004BEC51E460912413709125138091261346
:10337000909127130E94AC6D6093241370932513D2
:103380008093261390932713409024135090251375
:103390006090261370902713A5019401C501B40114
:1033A0000E94AC6DCB53DF4F688379838A839B8304
:1033B000C55CD040CA54DF4F288139814A815B8186
:1033C000C65BD040CA01B9010E94AC6DC553DF4F46
:1033D000688379838A839B83CB5CD04020E030E094
:1033E00040E850E4C301B2010E94AC6DA301920118
:1033F0000E94AC6DCB53DF4F288139814A815B81BC
:10340000C55CD0400E94796AC553DF4F288139815D
:103410004A815B81CB5CD0400E94796A6B017C0160
:1034200020E030E0A9010E94536B87FD33C4C7013F
:10343000B6010E94196E6B017C01C553DF4F2881D4
:1034400039814A815B81CB5CD040CB53DF4F6881AF
:1034500079818A819B81C55CD0400E947A6A0E94F2
:10346000196E9B01AC01C701B60190580E945A6BBE
:103470006B017C0133E0331204C0F7FAF094F7F8E3
:10348000F09420E030E0A901C301B2010E94536B27
:1034900087FF0FC0F7FAF094F7F8F094D301C20158
:1034A000B0588093241390932513A0932613B093C0
:1034B0002713C554DF4F08811981CB5BD040000F23
:1034C000111F000F111F0C5F1C4ECA54DF4F2881C3
:1034D00039814A815B81C65BD040C701B6010E9439
:1034E000AC6D9B01AC01C501B4010E94796A20E07A
:1034F00030E040E05FE30E94AC6DD8011B966D9315
:103500007D938D939C931E97CF53DF4F0881198134
:10351000C15CD040000F111F000F111F0C5F1C4E2B
:10352000A5019401C701B6010E94AC6DCA54DF4FDA
:10353000288139814A815B81C65BD0400E947A6ACA
:1035400020E030E040E05FE30E94AC6DF80163876B
:103550007487858796871FC1CB53DF4FF881C55C81
:10356000D0404F2E512C612C712CC420D520E62048
:10357000F720CD28CE28CF2809F48EC3C154DF4FC1
:1035800028813981CF5BD040217FC154DF4F3983FF
:103590002883CF5BD04080910313813009F491C020
:1035A000C554DF4FE881F981CB5BD040EE0FFF1FA0
:1035B000EE0FFF1FEC5FFC4EC384D484E584F684D9
:1035C000A7019601C501B4010E94796A2B013C0153
:1035D000CF53DF4FE881F981C15CD040EE0FFF1F70
:1035E000EE0FFF1FEC5FFC4E83859485A585B685A5
:1035F000C554DF4F88839983AA83BB83CB5BD040BC
:103600009C01AD01CA54DF4F688179818A819B8119
:10361000C65BD0400E94796A4B015C01A301920114
:10362000C301B2010E94AC6D2B013C01A5019401C4
:10363000C501B4010E94AC6D9B01AC01C301B20194
:103640000E947A6A0E94196E4B015C01A7019601E3
:10365000C701B6010E94AC6D6B017C01C554DF4F00
:10366000288139814A815B81CB5BD040CA01B90195
:103670000E94AC6D9B01AC01C701B6010E947A6A41
:103680000E94196E6B017C016093241370932513C3
:1036900080932613909327139B01AC01C501B401BD
:1036A0000E94796A4B015C01E894B7F82AE037ED93
:1036B00043EA5BE3C501B4010E94716D181664F121
:1036C0006AC080E0E82E83E1F82ED301C201002E0B
:1036D00004C0B695A795979587950A94D2F780FF71
:1036E00012C023E333E34BEC51E4D7011F966D91F5
:1036F0007D918D919C9152970E94AC6DF7016787E7
:10370000708B818B928B0F5F1F4FF4E0EF0EF11CDB
:1037100003301105D1F644CF20E030E040E05FE314
:10372000C501B4010E94716D18160CF411CE2FE67C
:1037300032E143E85AE3C701B6010E94AC6D9B0138
:10374000AC01C501B4010E94716D18160CF400CED5
:1037500022C0CA54DF4F2881C65BD040222309F41F
:10376000D9CA0E9498648111F3CD15C0C654DF4FA9
:103770003881CA5BD04031110EC0C154DF4F8881FF
:103780009981CF5BD0408E7D9C7FC654DF4F1882DD
:10379000CA5BD04008C0C154DF4F88819981CF5B9C
:1037A000D0408E7D907E892B09F078C280911C13C9
:1037B00090911D13A0911E13B0911F1380934C1371
:1037C00090934D13A0934E13B0934F138091021317
:1037D00080933A1380910B1390910C13A0910D13C9
:1037E000B0910E138093471390934813A0934913FD
:1037F000B0934A13C0902813D0902913E0902A1355
:10380000F0902B13A701960160914313709144131C
:1038100080914513909146130E94536B8823F9F0D1
:1038200010914213112359F08091E312823039F044
:103830000E947B64B701A601812F0E94E332809130
:10384000281390912913A0912A13B0912B138093E0
:10385000431390934413A0934513B0934613809160
:103860002C1380934B1310910A13809142138117EC
:10387000B9F08091E312823079F0C0904313D09078
:103880004413E0904513F09046130E947B64B70107
:10389000A601812F0E94E33280910A138093421384
:1038A0001091091380914113811781F08091E312E7
:1038B000823041F00E947B64123011F45C9A02C0A5
:1038C0000E94DC588091091380934113809100136A
:1038D000813089F08091051380933D13809103130B
:1038E00080933B13C654DF4F8881CA5BD04083303E
:1038F00009F074C054C08091E312823059F3809073
:10390000201390902113A0902213B090231320E055
:1039100030E040EA51E4C501B4010E94AC6D0E9460
:10392000306C0E94C76B6B017C010E947B6420E0BD
:1039300030E04AE754E4C501B4010E94AC6D4B018C
:103940005C0182E38C9DB0018D9D700D112480E09F
:1039500090E00E94F36B9B01AC01C501B4010E9491
:10396000796A0E94306C0E94C76BCB010E940025CF
:1039700086010115110509F4ADCF0E940B250150F8
:1039800011098091E2128111A5CF9FEFA0E7B2E06B
:103990009150A040B040E1F700C00000EACF809114
:1039A000061380933E13813089F4809135139091F2
:1039B0003613A0913713B0913813809374139093FA
:1039C0007513A0937613B093771308C010927413F5
:1039D000109275131092761310927713809107133B
:1039E00090913F13981759F080933F138CE0FE019C
:1039F0003196ACE5B3E101900D928A95E1F78091A3
:103A0000041380933C13E09100138E2F90E0FC018F
:103A10003297E830F10508F060C08827E957FF4F7A
:103A20008F4F0C94BF6EBE016B5E7F4F822D0E9444
:103A3000483480913F13281250C08CE0FE017596E7
:103A4000ACE5B3E13EC0C654DF4FE881CA5BD0406D
:103A5000EE2371F0209147133091481340914913A0
:103A600050914A1300E06DE273E181E00E9404523C
:103A700020914713309148134091491350914A13B4
:103A800000E0BE016B5E7F4F81E00E940452182F60
:103A90008CE0FE017596A0E5B3E101900D928A9548
:103AA000E1F71CC060E573E186E003C060E573E107
:103AB00087E00E94483411C08CE0EDE2F3E1A8E613
:103AC000B3E101900D928A95E1F707C08CE0E8E63A
:103AD000F3E1DF011D928A95E9F710E0809101136F
:103AE00080933913883009F470C0C654DF4FB88111
:103AF000CA5BD040B23009F068C090E088309105D0
:103B000008F05AC0FC014090471350904813609051
:103B1000491370904A138827E157FF4F8F4F0C9439
:103B2000BF6E00E0A30192016DE273E180E007C087
:103B300000913A13A30192016DE273E181E00E94CA
:103B40000452182F39C0609124137091251380916D
:103B50002613909127138824839409C0609124131D
:103B6000709125138091261390912713812CC753B0
:103B7000DF4FA880C95CD040CE54DF4FC880C25B05
:103B8000D040C255DF4FE880CE5AD04000913A1362
:103B9000A30192010E946C650FC000E001C001E02A
:103BA00020E004C000E001C001E021E040913A13B0
:103BB000C301B2010E94D6648CE0EDE2F3E1A0E51E
:103BC000B3E101900D928A95E1F7809108138093FB
:103BD0004013882309F464C00E947B6490914013D1
:103BE0008091E312913061F48230C9F19FB7F8946B
:103BF000809191128860809391129FBF0CD72FC043
:103C000091E09093391310923D1310923C1310924F
:103C10003A1310923F1310924213109241138230C4
:103C2000A9F0BE016F5F7F4F80E00E94513488236E
:103C3000C9F18CE0FE013196ACE5B3E101900D9243
:103C40008A95E1F70E94DC320E94DC588CEB98E008
:103C5000D0D180E698E0CDD189E498E0CAD1109225
:103C600040131EC081E06AC082E068C088E166C07F
:103C700089E164C084E062C08BE160C085E25EC01F
:103C800084E15CC08EE15AC08FE158C086E156C025
:103C900080E254C082E252C083E250C084E24EC04F
:103CA000812F4CC087E04AC0AEE12A16310411F4DE
:103CB0000C94CD0C50F5EAE02E16310411F40C945E
:103CC0009F0CFCE12F16310411F40C94B30C87E126
:103CD00035C09CE52916310411F00C94490E21E001
:103CE000C654DF4F2883CA5BD040CE54DF4F888153
:103CF0009981C25BD040009729F00A9709F689E0C4
:103D00000C94D60C88E00C94D60C25E322163104D2
:103D100011F40C94F00C3CE52316310431F3D7CFA9
:103D2000133009F010CAEAC9153009F4F3C9173085
:103D300009F404CA133009F006CADBC9CE52DF4FBA
:103D40000FB6F894DEBF0FBECDBFDF91CF911F91AC
:103D50000F91FF90EF90DF90CF90BF90AF909F902A
:103D60008F907F906F905F904F903F902F9008952D
:103D70008F929F92AF92BF92CF92DF92EF92FF927B
:103D80000F931F93CF93DF93CDB7DEB72A970FB66C
:103D9000F894DEBF0FBECDBF6B017C01042F20E085
:103DA00030E0A9010E94536B87FF07C08DE20E949B
:103DB0003937F7FAF094F7F8F094102F123060F0DA
:103DC00020E030E048EC52E4C701B6010E94AC6D3F
:103DD0006B017C011250F2CF00FF0AC020E030E0FE
:103DE00040E251E4C701B6010E94AC6D6B017C0159
:103DF00020E030E040E05FE3C701B6010E947A6A4C
:103E00000E94C26BE1E0F0E0EC0FFD1FE00FF11D3E
:103E10002EE2208310E03AE0832E912CA12CB12CCD
:103E20006115710581059105A9F0101301C01F5F8F
:103E3000EE24E394F12CEC0EFD1EE10EF11CA50125
:103E400094010E949D6E605DF7016083B901CA0113
:103E50001F5FE6CF80E3101748F4E1E0F0E0EC0FDD
:103E6000FD1FE10FF11D80831F5FF5CF10130BC005
:103E700081E0810FE1E0F0E0EC0FFD1FE80FF11DA4
:103E80001E5F80E38083112341F0FE01E10FF11DED
:103E900080810E9439371150F6CF2A960FB6F894D8
:103EA000DEBF0FBECDBFDF91CF911F910F91FF906D
:103EB000EF90DF90CF90BF90AF909F908F9008953C
:103EC000CF92DF92EF92FF921F93CF93DF93CDB704
:103ED000DEB7362F142FCDB6DEB64DB75EB7411B19
:103EE00051090FB6F8945EBF0FBE4DBF4F5F5F4FD5
:103EF0007A01242FFA019E2F921B911728F4632F29
:103F00000E947D6E9193F7CF112351F0F701E10FDD
:103F1000F11D31978081805D0E9439371150F4CFB7
:103F20000FB6F894DEBE0FBECDBEDF91CF911F91CC
:103F3000FF90EF90DF90CF9008951F93CF93DF9382
:103F4000CDB7DEB7C058D1090FB6F894DEBF0FBEAB
:103F5000CDBFAE0149575F4FFA0161917191AF0139
:103F6000CE0101960E94416F10E0E1E0F0E0EC0F1D
:103F7000FD1FE10FF11D8081882321F00E94393758
:103F80001F5FF3CFC058DF4F0FB6F894DEBF0FBEF0
:103F9000CDBFDF91CF911F91089543E0E9CE2091ED
:103FA000D01220FF08C02BE832E441E25DE30E941A
:103FB000AC6D41E001C040E0DBCE2091D01220FF8B
:103FC00008C02BE832E441E25DE30E94AC6D44E0BE
:103FD00001C043E0CDCE8A3020F0843620F043E0AB
:103FE00003C041E001C042E06AE06ACF48E062E01D
:103FF00067CFCF93DF93FC018491EF012196882353
:1040000021F00E943937FE01F7CFDF91CF9108955B
:10401000CF93DF93EC018991882319F00E943937FF
:10402000FACFDF91CF910895A6EEB2E1E4EBFCE088
:104030004D915D916D917D914193519361937193F8
:104040008CE0E03CF807A1F708958CE1E4EBFCE09C
:10405000DF011D928A95E9F7109281111092821169
:1040600081E08093B30C10929E0E08952F923F92A0
:104070004F925F926F927F928F929F92AF92BF9278
:10408000CF92DF92EF92FF920F931F93CF93DF9324
:10409000C0918211C11101C0C2E1C150D0919E0EE8
:1040A000DC1709F41DC1EC2EF12C29E2C29F80011E
:1040B00011240156114FF801A588B688C788D08C05
:1040C00061A172A183A194A19B01AC010E947A6AB3
:1040D000F80125A136A147A150A50E94AC6D4B0166
:1040E0008C019B01AC01B501C6010E94536B87FD99
:1040F00002C05401680189E28E9DF0018F9DF00D90
:104100001124E156F14FC501D601818B928BA38B0F
:10411000B48BC11101C0C2E1C150DC1761F029E2CA
:104120002E9DC0012F9D900D11249C012156314FD1
:104130007901D9E233C080918111D81360C00E9407
:104140004A455DC0AC2EB12CDA9DC001DB9D900DBF
:104150001124FC01E156F14F6F01C11101C0C2E110
:10416000C150809181118C1302C00E944A45DA9D92
:104170008001DB9D100D11240156114FF801858837
:104180009688A788B08CA50194016189728983897A
:1041900094890E94536B811106C0760180919E0E16
:1041A000C813D0CF2CC0F80161A172A183A194A142
:1041B0009B01AC010E947A6AF80125A136A147A1B2
:1041C00050A50E94AC6DF701218932894389548939
:1041D0000E947A6A2B013C019B01AC01C501B4012C
:1041E0000E94716DF80118162CF4418A528A638A74
:1041F000748AD3CF818A928AA38AB48ACECFD0918F
:104200009E0EF9E2DF9F800111240156114FC1E09B
:10421000CD0FC23109F4C0E02090821189E2382E1E
:10422000C21509F45BC0CC2ED12C3C9CC0013D9C36
:10423000900D11249C012156314F7901F8014188DC
:10424000528863887488F90181889288A388B48829
:10425000A5019401C301B2010E94536B87FF24C0E2
:10426000F80161A172A183A194A19B01AC010E94FC
:104270007A6AF80125A136A147A150A50E94AC6D2C
:10428000A30192010E947A6A2B013C019B01AC01BF
:10429000C501B4010E94716D181634F4F701418A0A
:1042A000528A638A748ADC2F3C9CF0013D9CF00D9D
:1042B0001124E156F14F258936894789508D61894E
:1042C0007289838994890E94536B811101C0DC2F0C
:1042D000CF5FC23109F4C0E08701A2CFD0939E0E18
:1042E000DF91CF911F910F91FF90EF90DF90CF90D2
:1042F000BF90AF909F908F907F906F905F904F9006
:104300003F902F9008952F923F924F925F926F921D
:104310007F928F929F92AF92BF92CF92DF92EF9255
:10432000FF920F931F93CF93DF93CDB7DEB7E5973F
:104330000FB6F894DEBF0FBECDBF4B8F5C8F6D8F75
:10434000072F2DAB209182112EA3422F50E05BA3AB
:104350004AA339E2239FF0011124E156F14F15865B
:1043600016861786108A15A216A217A210A610820A
:1043700049E956E766E97EE741A352A363A374A324
:104380001C0143E952E158A74FA3CE0101969AAB15
:1043900089AB24EB3CE03EA72DA74EA139E2439F19
:1043A000C00111249C012056314F3AA729A7AE0124
:1043B000435F5F4F5DA34CA359A348A384EB9CE0EC
:1043C00098AB8FA723E932E13F8F2E8F10E03F019A
:1043D000AF01435F5F4F5CAB4BAB2F0155E2450E26
:1043E000511CF10161917191819191911F01EE8DAB
:1043F000FF8D81909190A190B190FF8FEE8FA501DC
:1044000094010E94AC6D0E947C6DE9A9FAA96193A8
:10441000719381939193FAABE9ABEFA5F8A9C190A1
:10442000D190E190F190F8ABEFA76C197D098E095E
:104430009F099B01AC0197FF07C022273327A901E1
:10444000261B370B480B590BE9A5FAA5219331938D
:1044500041935193FAA7E9A7EBA9FCA9C080D180A9
:10446000E280F380C216D306E406F50610F4690173
:104470007A01EBA9FCA9C082D182E282F3820E9478
:10448000F56BA50194010E945A6B4B015C01E8A1F8
:10449000F9A16193719381939193F9A3E8A320E02B
:1044A00030E0A9010E94536B87FF0DC0112321F05A
:1044B000113021F084E003C081E001C082E0F3010B
:1044C0009081892B8083A5019401C501B4010E94CC
:1044D000AC6DF20120813181428153810E947A6A60
:1044E000F20160837183828393831F5F133009F02D
:1044F00078CF0E94196E4B015C01F20160837183D9
:1045000082839383CD28CE28CF2809F422C220E0CD
:1045100030E0A9016B8D7C8D8D8D902F0E94536BA7
:1045200087FD21C0FDA9FF2361F0A50194016B8DDA
:104530007C8D8D8D902F0E94AC6D6B8F7C8F8D8FBD
:10454000092F20E030E040E85FE36B8D7C8D8D8D9E
:10455000902F0E94536B87FF0DC01B8E1C8E20E88E
:104560002D8F0FE307C039E93B8F46E74C8F56E9A3
:104570005D8F0EE7A501940160E070E080E89FE3A5
:104580000E945A6B69A77AA78BA79CA7CE01499670
:104590009A8F898FC12CD12C760129E2EAA1FBA147
:1045A0002E9FC0012F9F900D11249C012054314F4C
:1045B00039A328A3ECA1FDA180809180A280B380C3
:1045C00020E030E0A901C501B4010E94536B8823AB
:1045D00009F472C0A501940169A57AA58BA59CA5D3
:1045E0000E94AC6D2B013C01ECA1FDA160837183A5
:1045F000828393839B01AC0160E070E080E89FE3DD
:104600000E945A6B4B015C01E894B7F8EFA1F8A542
:104610002485358546855785C501B4010E94AC6D5A
:104620001B018E8F192F2B8D3C8D4D8D502F0E948D
:10463000716D18162CF02B8E3C8EFE8DFD8F012F88
:10464000E8A1F9A1F081FE8FE8A1F9A111812280F2
:104650003380EFA1F8A5208D318D428D538DC5019A
:10466000B4010E94AC6D5B014C019B01AC016E8DED
:10467000712FC1010E94536B87FD03C0AE8E1B2DAD
:1046800014018E8D912FD101E8A1F9A1808391832E
:10469000A283B383EDA5FEA5248535854685578580
:1046A000C301B2010E94AC6D9B01AC01C701B60110
:1046B0000E94796A6B017C012CA13DA12C5F3F4FC8
:1046C0003DA32CA34DA55EA54C5F5F4F5EA74DA7F4
:1046D0008FA198A5049698A78FA3E98DFA8DE2176C
:1046E000F30709F067CF80918111FEA1F8130FC085
:1046F00089E22AA13BA1829FF001839FF00D112442
:10470000E156F14F118A128A138A148A14C02FEECF
:104710003FEF4FE75FE3C701B6010E94716D1816C6
:104720007CF489E24AA15BA1849FF001859FF00D92
:104730001124E156F14F118E128E138E148E6AC021
:104740002FEE3FEF4FE75FEBC701B6010E94716D9F
:10475000181644F08FEEC82EDD24DA948FE7E82E89
:104760008FEBF82EA701960160E070E080E89FE3F0
:104770000E94796A20E030E040E05FE30E94AC6D87
:104780000E94196E6B017C0189E22AA13BA1829FE4
:10479000F001839FF00D1124E156F14F2091C812D2
:1047A0003091C9124091CA125091CB1261A172A1ED
:1047B00083A194A10E94AC6DA70196010E94AC6DEB
:1047C0004B015C01A701960160E070E080E89FE387
:1047D0000E94796A9B01AC01C501B4010E945A6B29
:1047E0006B017C0120E030E0A9010E94536B87FF40
:1047F00003C0C12CD12C760189E24AA15BA1849F20
:10480000F001859FF00D1124E156F14FC18ED28E3B
:10481000E38EF48E2B8D3C8D4D8D502F6B8D7C8DCA
:104820008D8D902F0E94AC6D7B018C0189E22AA1B5
:104830003BA1829FF001839FF00D1124E156F14FBF
:10484000C701D801858F968FA78FB0A3A18CB28C9A
:10485000C38CD48C6090CC0C7090CD0C8090CE0C1E
:104860009090CF0C9301A401B701C8010E94536B33
:1048700087FD05C0B62DA72DF82DE92D04C0BE2D4E
:10488000AF2DF02FE12F9501A6016B2F7A2F8F2FDF
:104890009E2F0E94716D18166CF09301A401B70150
:1048A000C8010E94536B87FD03C05301640102C01D
:1048B0005701680189E24AA15BA1849FF001859FAD
:1048C000F00D1124E156F14FC501D601858B968B71
:1048D000A78BB08F8CE0FE013D96A0ECBCE0019070
:1048E0000D928A95E1F7C701D8018093CC0C909383
:1048F000CD0CA093CE0CB093CF0C8CE0FE01319682
:10490000A4EBBCE001900D928A95E1F78091B30C85
:10491000809382118F5F823109F480E08093B30C21
:10492000E5960FB6F894DEBF0FBECDBFDF91CF91F5
:104930001F910F91FF90EF90DF90CF90BF90AF90BD
:104940009F908F907F906F905F904F903F902F90AF
:104950008DCBE5960FB6F894DEBF0FBECDBFDF91CD
:10496000CF911F910F91FF90EF90DF90CF90BF906C
:10497000AF909F908F907F906F905F904F903F90FF
:104980002F9008956115710581059105C1F16A3077
:1049900071058105910548F425E02A95F1F700009D
:1049A0006150710981099109EDCF64367105810566
:1049B000910548F4E5E3EA95F1F700006A507109C2
:1049C00081099109DFCF683EF3E07F0781059105FA
:1049D00058F4EFE8F1E03197F1F700C000006456B9
:1049E000710981099109CECFEFE9FFE03197F1F725
:1049F00000C00000685E734081099109C3CF08952B
:104A0000009741F0EFE9FFE03197F1F700C00000B7
:104A10000197F6CF08953F924F925F926F927F92E7
:104A20008F929F92AF92BF92CF92DF92EF92FF92BE
:104A30000F931F93CF93DF93CDB7DEB768970FB671
:104A4000F894DEBF0FBECDBF01E099E2A92E28E0A9
:104A5000722E30E2632E40E1B42E50E4552E62E017
:104A6000462E1091E112112309F450C00093E31275
:104A700011FF06C08FEE97E0BCDA84EE97E01FC00E
:104A800012FF06C08FEE97E0B4DA89ED97E017C009
:104A900013FF06C08FEE97E0ACDA86EC97E00FC00C
:104AA00014FF06C08FEE97E0A4DA8BEB97E007C007
:104AB00015FF0CC08FEE97E09CDA8FEA97E099DA49
:104AC0008CEA97E096DA84EF91E09ADF10FD08C057
:104AD0008FB7F8949091E1121092E1128FBF16C037
:104AE0008CEB98E086DA8AEA98E083DA89E498E049
:104AF00080DA9FB7F894809191128F7E8093911203
:104B00009FBF8091911284FFFCCFE2CF1091911250
:104B1000112309F4AAC114FF04C081E08093E212BA
:104B2000B5C110FFE2C08CE0E6EEF2E1DE011D96B9
:104B300001900D928A95E1F78091E3128430E9F0BB
:104B400040F48130E9F080F0823001F584E298E0B1
:104B50001CC0803179F018F4883049F017C08032D9
:104B600091F0803421F012C083E498E00EC08EE30F
:104B700098E00BC088E398E008C082E398E005C0A5
:104B80008BE298E002C08EE198E033DA8091C712A0
:104B9000837039F0BE01635F7F4FCE0101960E94A2
:104BA000DF448091C71280FD05C08091C71281FF4C
:104BB00065C019C087E198E01CDACE0101967C013E
:104BC000D12CF70161917191819191917F01F5D97A
:104BD000F2E0DF1619F085E198E00BDAD39423E0D8
:104BE000D212EFCFE2CF8EE098E003DA8CE5C82E48
:104BF00083E1D82ECE0101967C01312C4701F601CC
:104C000061917191819191916F01208531854285EA
:104C100053850E947A6A9B01AC01F7016081718122
:104C2000828193810E94796AF70160837183828314
:104C30009383F2E03F120FC02091741330917513EB
:104C400040917613509177130E94796AF70160833F
:104C5000718382839383F4E0EF0EF11CF401608191
:104C6000718182819381A9D9F2E03F1619F08CE01D
:104C700098E0BFD9339423E03212C0CF8091C7129D
:104C800082FF0CC086E098E0B4D9809182119091A7
:104C90008111891708F48E5E891B9DD98091C712F6
:104CA00083FF0CC081E098E0A4D99091D80D809149
:104CB000D90D891708F48058891B8DD98091C712A6
:104CC00084FF08C08BEF97E094D90E94265643E0FA
:104CD00062E0F6D887EF97E08CD99FB7F89480917F
:104CE00091128E7F809391129FBF812F887609F455
:104CF00041C08091E312882349F0982F9C7791F16D
:104D0000883021F40E944A450093E4128091E31216
:104D1000811102C04092E41216FF09C0883011F4DC
:104D20005092E3128091E41288608093E41213FFA2
:104D300005C08091E31285FFB092E31215FF12C007
:104D40008CEB98E056D988E698E053D989E498E04E
:104D500050D98091E41281FD146084608093E41244
:104D60006092E3129FB7F8948091911287798093B3
:104D700091129FBF11FF55C0812F887609F049C05D
:104D80008091E312882339F0807509F442C0809144
:104D9000E41281FF3EC08091E41282FF1EC0809128
:104DA0004213882369F0409143135091441360915A
:104DB0004513709146130E94E33280EA9FE020DEA3
:104DC00080914113882349F0823011F45C9A02C02B
:104DD0000E94DC5888EE93E013DE8091811190915F
:104DE0008211981791F0A89EC00111248156914F0D
:104DF000892B59F08091E41283FD07C07092E31271
:104E00000E946C450E94B03202C01092E3121092D0
:104E1000E4129FB7F894809191128D7F8093911244
:104E20009FBF12FF22C08091E312807391F08091A6
:104E3000E51281110EC08091E41282FF04C00E942D
:104E4000DC320E94DC588091E41282608093E4128C
:104E500004C01092E4121092E3129FB7F89480916C
:104E600091128B7F809391129FBF8091E3128C7778
:104E700011F00E946C459091E3128091E4129032FF
:104E800019F481FDB092E3128111EBCD68960FB653
:104E9000F894DEBF0FBECDBFDF91CF911F910F9170
:104EA000FF90EF90DF90CF90BF90AF909F908F904A
:104EB0007F906F905F904F903F9008954F925F92D8
:104EC0006F927F92AF92BF92CF92DF92EF92FF925A
:104ED0000F931F93CF93DF936C01FB015A0130971F
:104EE00029F08081D601A80FB11D01C0DC018C9191
:104EF000ED018D3229F4229611968C9101E008C0C3
:104F00008B3211F0219603C0229611968C9100E00D
:104F1000512C612C10E020E030E0A9017E0160ED11
:104F2000762E780E89E08715D8F06394A8E0A61550
:104F300098F051101150A5E0B0E00E94D66EDC014F
:104F4000CB01880F991FAA1FBB1F9C01AD01270D24
:104F5000311D411D511D0BC0511009C01F5F07C0FD
:104F6000BEEF7B1208C0511006C055245394219601
:104F7000D7018C91D3CF662009F450C07F01CA01BC
:104F8000B9010E94F36B2B013C0120E030E0A90144
:104F90000E94536B882349F11F3F64F42AE037EDE8
:104FA00043E25CE3C301B2010E94AC6D2B013C0102
:104FB0001E5FF2CF1F3F59F42DEC3CEC4CEC5DE34F
:104FC000C301B2010E94AC6D2B013C010EC0112344
:104FD00061F020E030E040E251E4C301B2010E9400
:104FE000AC6D2B013C011150F2CF002351F077FA48
:104FF000709477F87094F5014082518262827382D6
:1050000006C0D5014D925D926D927C921397CC199A
:10501000DD09C150F701C08381E001C080E0DF916C
:10502000CF911F910F91FF90EF90DF90CF90BF90A5
:10503000AF907F906F905F904F9008958A98E8E0CE
:10504000F1E080818E7F80835F980E940A3B1092FE
:10505000380D08952F923F924F925F926F927F92F8
:105060008F929F92AF92BF92CF92DF92EF92FF9278
:105070000F931F93CF93DF93CDB7DEB7CA55D109F6
:105080000FB6F894DEBF0FBECDBFFB018E3A28E00D
:10509000920708F048C08C3A38E0930708F01EC722
:1050A0008B34A8E09A0709F4AFC1F0F4833E27E0FF
:1050B000920709F470C160F48231910509F46BC163
:1050C0008C3C910509F408C1419709F070C072C089
:1050D0008934A8E09A0709F47FC108F084C18834B4
:1050E000984009F435C163C0823A38E0930709F467
:1050F00007C278F48A39B8E09B0709F4BCC18B3940
:1051000028E0920709F4DFC18939984009F04FC0BF
:105110008CC1863AA8E09A0708F4E0C6873A98401E
:1051200009F429C244C0813C28E0920709F48CC3E9
:10513000E0F4883BA8E09A0709F427C350F48E3ABC
:1051400028E0920709F41DC2873B984009F40AC37E
:105150002EC08A3BA8E09A0709F4C0C608F426C30B
:10516000803C984009F445C322C08B3639E0930750
:1051700009F41FC570F48136B9E09B0709F4B7C480
:105180008A3629E0920709F4CBC48036994079F435
:10519000BFC38437A9E09A0709F481C58537B9E010
:1051A0009B0709F4D4C58C36994009F430C581E0D9
:1051B00090E096C68A9A80910801816080930801E8
:1051C0005F9A0E94BC3B8FE08093380D8EE1E2EE47
:1051D000F2E1DF011D928A95E9F70E9414200E94F6
:1051E0002F5880E090E00E94EE436093140D70937E
:1051F000150D8093160D9093170D81E090E00E949D
:10520000EE436093180D7093190D80931A0D9093CF
:105210001B0D82E090E00E94EE4360931C0D7093A2
:105220001D0D80931E0D90931F0D0091E61210919D
:10523000E7122091E8123091E9120093200D1093AB
:10524000210D2093220D3093230D0091EA1210912D
:10525000EB122091EC123091ED120093240D10937B
:10526000250D2093260D3093270D0091EE121091FD
:10527000EF122091F0123091F1120093280D10934B
:10528000290D20932A0D30932B0D20E030E044EBC4
:1052900052E40E94796A7B018C012091180D3091B3
:1052A000190D40911A0D50911B0D6091140D7091C4
:1052B000150D8091160D9091170DE4E38E2EEDE003
:1052C0009E2EF0E3AF2EFDE0BF2EACE2CA2EADE085
:1052D000DA2E0E94564102C68E010F5F1F4F1F93A8
:1052E0000F938BE893E09F938F93FF936F930E94AC
:1052F000206F0F900F900F900F900F900F90181637
:1053000019060CF0A3C41D8A1E8A1F8A188EAE01CE
:105310004B5E5F4F60E070E0C801D0DD8823C1F1D3
:105320004D895E896F89788D88E70E9446334D8963
:105330005E896F89788D89E70E9446334D895E8941
:105340006F89788D8AE70E9446330E94CC37C6C5A4
:105350008E010F5F1F4F1F930F9386E993E09F937A
:105360008F93FF936F930E94206F0F900F900F9079
:105370000F900F900F90181619060CF067C4AE012D
:105380004B5E5F4F60E070E0C80198DD811105C0A1
:1053900082E390E0A5C552DEA1C520E030E04AE7F7
:1053A00054E46D897E898F89988D0E94AC6D0E942E
:1053B000C26B1616170684F47093D20C6093D10C4E
:1053C00011E01093D30C8091D00C811187C50E94FD
:1053D0005C3A1093D00C82C51092D30C1092D20C70
:1053E0001092D10C7BC58081863591F681818053E6
:1053F000823070F610923C0D813019F010923B0D06
:105400006DC580933B0D6AC58081863509F0C0CF9C
:1054100081818053823008F0BBCF813019F0109227
:105420003F0D5CC580933F0D59C580818E3409F0D6
:10543000AFCF91819053943008F0AACF923061F0B1
:10544000933099F08091380D913019F05F9A846013
:1054500025C08A9A816022C0809108018160809372
:1054600008018091380D826019C00E94BC3B809178
:10547000380D886013C080818E3409F089CF918106
:105480009053943008F084CF923071F09330A9F0AB
:105490008091380D913029F05F988B7F8093380D83
:1054A0001DC58A988E7FFACF809108018E7F8093E8
:1054B00008018091380D8D7FF1CF0E940A3B8091C9
:1054C000380D877FEBCF80818E3409F061CF8181E9
:1054D0008053843008F05CCF9091380D823051F0C9
:1054E000833059F0813019F090FF35C131C191FD01
:1054F0002FC131C192FD2CC12EC193FF2CC128C1F7
:105500001AA619A61D8A1E8A1F8A188E8E010F5F81
:105510001F4F8AE0D8011D928A95E9F7CE0189963E
:105520009F938F931F930F938FE993E09F938F9394
:10553000FF936F930E94206F0FB6F894DEBF0FBEEB
:10554000CDBF02970CF482C3AE014B5E5F4F60E0AB
:1055500070E0C801B3DC882309F41ACF2D893E8995
:105560004F89588D69A57AA5072E000C880B990BD9
:105570000E94773AB3C48FEF0E9471340E94F839C9
:10558000ADC465961CAE1DAE1EAE1FAE659761968E
:105590001CAE1DAE1EAE1FAE61972D961CAE1DAE8D
:1055A0001EAE1FAE2D9784E16E0129E2C20ED11C02
:1055B000D601282F1D922A95E9F77E0135E1E30EE9
:1055C000F11CD701282F1D922A95E9F7DE011196CB
:1055D0005D011D928A95E9F78E010B5A1F4F8FEFDF
:1055E00090E0D8018D939C931F930F93BF92AF923D
:1055F000FF92EF92DF92CF928BEA93E09F938F938B
:10560000FF936F930E94206F0FB6F894DEBF0FBE1A
:10561000CDBF03970CF41AC3AE014F5A5F4F60E041
:1056200070E0C6014BDC882309F4B2CEAE01435BC7
:105630005F4F60E070E0C70141DC882309F4A8CE29
:10564000AE01475B5F4F60E070E0C50137DC882347
:1056500009F49ECED8018D919C910097D9F10197C4
:1056600009F096CE6596CCACDDACEEACFFAC6597A0
:1056700020E030E044EB52E461966CAD7DAD8EAD40
:105680009FAD61970E94796A21EE3EE245E652E4C1
:105690000E945A6B4B015C010E94576B9B01AC014D
:1056A000C701B6010E94AC6D65966CAF7DAF8EAF41
:1056B0009FAF6597C501B4010E940F6E9B01AC01BD
:1056C000C701B6010E94AC6D61966CAF7DAF8EAF25
:1056D0009FAF6197AE01475B5F4FBE01635B7F4F3A
:1056E000CE018F5A9F4F0E94FE3D2D96ECACFDAC33
:1056F0000EAD1FAD2D9761962CAD3DAD4EAD5FAD9E
:10570000619765966CAD7DAD8EAD9FAD6597FE01E1
:10571000FD964F01DE01AF5BBF4F5D0138966F0113
:105720000E94A03F2196ECACFDAC0EAD1FAD2197C1
:1057300025962CAD3DAD4EAD5FAD259729966CAD50
:105740007DAD8EAD9FAD29970E94B842882319F098
:105750006AE973E002C066E873E084ED9CE00E94B1
:10576000EB6EBCC38081863509F012CE81818053F7
:10577000823008F00DCE813019F00E94F339AEC3AB
:105780009C9A9D9AA49AA598A9C38081863509F010
:10579000FFCD81818053823008F0FACD813019F03D
:1057A0000E94F0399BC33F9A479898C38081863501
:1057B00009F0EECD81818053823008F0E9CD81304F
:1057C00019F00E94DF398AC38091010180628093C1
:1057D00001018091010180648093010180910201A7
:1057E00080628093020180910201806480930201B3
:1057F00075C3CE0101969F938F9344969F938F9389
:105800008DEC93E09F938F93FF936F930E94206F93
:105810000FB6F894DEBF0FBECDBF02970CF416C2D0
:105820008D899E898634910508F0B2CD29813A810F
:105830002230310508F0ACCD232B11F061E001C01E
:1058400060E00E94D4504AC3CE0101969F938F938B
:1058500044969F938F938DEC93E09F938F93FF9348
:105860006F930E94206F0FB6F894DEBF0FBECDBFBE
:1058700002970CF4EBC18D899E898634910508F05E
:1058800087CD29813A812230310508F081CDFC0194
:10589000E05CF54F8650964F232BD1F02491FC010C
:1058A0008491882309F41AC390E0880F991FFC01A2
:1058B000E254F74FA591B491FC01E052F64F859167
:1058C00094918FB7F894EC91E22BEC938FBF06C3C1
:1058D0002491FC018491882309F400C390E0880F8F
:1058E000991FFC01E254F74F45915491FC01E0529D
:1058F000F64FA591B4919FB7F894FA018081209555
:10590000822380838C91E22FE823EC939FBFE6C231
:105910008081833509F03CCD8181E0EDE80FE830EE
:1059200008F036CD8E2F90E0FC013197E730F1057D
:1059300030F48827E956FF4F8F4F0C94BF6E0E94BA
:105940000A3B1092070D1092060D8AE999E1A5E92C
:10595000B2E480930C0D90930D0DA0930E0DB093B7
:105960000F0D8AE999E9A2E6B2E4B8C00E940A3BA9
:1059700081E090E09093070D8093060D86EF98E20A
:10598000ACE4B2E480930C0D90930D0DA0930E0D3A
:10599000B0930F0D8DEC9CECA0E8B2E49FC00E9488
:1059A0000A3B82E090E09093070D8093060D89E218
:1059B0009CEDA4E9B2E480930C0D90930D0DA0939F
:1059C0000E0DB0930F0D80E090E0A2E6B2E486C029
:1059D0000E940A3B83E090E09093070D8093060DB0
:1059E00080E090E0ACE2B2E480930C0D90930D0D5A
:1059F000A0930E0DB0930F0D80E090E0ABE8B2E401
:105A00006DC00E940A3B84E090E09093070D809364
:105A1000060D80E090E0ACE1B2E480930C0D909331
:105A20000D0DA0930E0DB0930F0D80E090E0A9E94D
:105A3000B2E418C00E940A3B85E090E09093070D05
:105A40008093060D8DEC9CECA2E9B2E480930C0DE2
:105A500090930D0DA0930E0DB0930F0D80E090E08C
:105A6000A8E9B2E48093080D9093090DA0930A0D64
:105A7000B0930B0D0E94E33A99C00E940A3B86E066
:105A800090E09093070D8093060D86E696E6AAE9CE
:105A9000B2E480930C0D90930D0DA0930E0DB09376
:105AA0000F0D80E090E0AAE5B2E418C00E940A3B26
:105AB00087E090E09093070D8093060D85E89BEEBC
:105AC000ABECB1E480930C0D90930D0DA0930E0DF3
:105AD000B0930F0D80E090E0A2E3B2E48093080D54
