:10000000C3C40000E2C40000E0C40000DEC400007D
:10001000DCC40000DAC40000D8C40000D6C400006C
:10002000D4C400000C942A51D0C400000C94423077
:10003000CCC40000CAC40000C8C400000C94F2463E
:10004000C4C400000C94763AC0C40000BEC40000D2
:10005000BCC40000BAC40000B8C400000C94013A4B
:10006000B4C400000C94A23F0C940440AEC4000041
:10007000ACC40000AAC40000A8C40000A6C40000CC
:10008000A4C40000A2C40000A0C400000C94DC467C
:100090009CC400009AC4000098C4000096C40000EC
:1000A00094C4000092C4000090C400008EC40000FC
:1000B0008CC400000C94A14688C4000086C40000D3
:1000C00084C4000082C400000C946C467EC400000E
:1000D0007CC400007AC4000078C4000076C400002C
:1000E00074C40000FC0B150C2E0C470C600C830C28
:1000F0009C0CBA13AA1DAA1DC613DB13F3130B1411
:10010000AA1D0F14AA1D2014AA1D2A1434147D142C
:10011000AA1DAA1DAA1D4114551469147A1C8F1C0E
:10012000BC1C8F1CC01CD71CC61CD01CF91C001D7D
:100130000B1D161D331D351D381D3A1DD83DDE3DE6
:10014000E13DE43DE83DF03DF83D653E653E653E00
:10015000003E033E0C3E153E653E653E653E653EF7
:10016000653E653E1D3E273E333E3D3E403E493E98
:10017000523E583E084AD73B3BCE016E84BCBFFD81
:10018000C12F3D6C74319ABD56833DDA3D00C77F67
:1001900011BED9E4BB4C3E916BAAAABE0000008000
:1001A0003F072C7AA5BA6CC590DA3B9365FC8BBCF3
:1001B00053F810FD3C5692834DBD879D3AB63DCB1A
:1001C000C9BF5BBE73DA0FC93F05A84CCDB2D44E90
:1001D000B93836A9020C50B9918688083CA6AAAA5B
:1001E0002ABE000000803F0000407A10F35A00A0B1
:1001F000724E18090010A5D4E80000E876481700F0
:1002000000E40B54020000CA9A3B000000E1F5052F
:10021000000080969800000040420F000000A08679
:1002200001000000102700000000E80300000000AB
:100230006400000000000A0000000000010000004F
:1002400000002C76D888DC674F0823DFC1DFAE5969
:10025000E1B1B796E5E3E453C63AE651997696E8FC
:10026000E6C28426EB898C9B62ED407C6FFCEFBC80
:100270009C9F40F2BAA56FA5F490055A2AF75C93AB
:100280006B6CF9676DC11BFCE0E40D47FEF520E6E1
:10029000B500D0ED902E0300943577050080841EC4
:1002A000080000204E0A000000C80C333333330F1F
:1002B000986E12831141EF8D2114893BE65516CFBC
:1002C000FEE6DB18D1844B381BF77C1D901DA4BBC8
:1002D000E424203284725E228100C9F124ECA1E57D
:1002E0003D276364696E6F70737578585B000D0A03
:1002F000003D00244E005D0D0A005B302E396A2E51
:1003000032303136303732363A005D0D0A005B54F8
:100310004C4F3A005D0D0A002C005B4739323A0021
:100320005D0D0A002C003A003330003238005B4784
:10033000005D0D0A00205300204600205400204D8F
:100340003800204D3900204D3500204D3400204D1F
:100350003300204D3200204D3100204D3000204729
:1003600039340020473933002047393100204739DC
:1003700030002047323000204732310020473139E9
:1003800000204731380020473137002047004733ED
:10039000382E0047383000473300473200473100DD
:1003A0004730005B00290D0A00206D6178207472CF
:1003B0006176656C2C206D6D0020616363656C2C2B
:1003C000206D6D2F7365635E3200206D6178207241
:1003D0006174652C206D6D2F6D696E002C20737417
:1003E00065702F6D6D007A00790078002028003D3F
:1003F0000024002028686F6D696E672070756C6C32
:100400002D6F66662C206D6D290D0A002028686FFF
:100410006D696E67206465626F756E63652C206D13
:10042000736563290D0A2432373D002028686F6DFB
:10043000696E67207365656B2C206D6D2F6D696E1D
:10044000290D0A2432363D002028686F6D696E67D9
:1004500020666565642C206D6D2F6D696E290D0A0F
:100460002432353D00290D0A2432343D002028680D
:100470006F6D696E672064697220696E766572744B
:10048000206D61736B3A002028686F6D696E67207C
:100490006379636C652C20626F6F6C290D0A2432BE
:1004A000333D00202868617264206C696D69747343
:1004B0002C20626F6F6C290D0A2432323D002028F7
:1004C000736F6674206C696D6974732C20626F6F32
:1004D0006C290D0A2432313D0020287265706F723C
:1004E0007420696E636865732C20626F6F6C290DD0
:1004F0000A2432303D00202861726320746F6C65DD
:1005000072616E63652C206D6D290D0A2431333DB7
:100510000020286A756E6374696F6E206465766961
:100520006174696F6E2C206D6D290D0A2431323D86
:1005300000290D0A2431313D00202873746174753F
:1005400073207265706F7274206D61736B3A002056
:100550002870726F62652070696E20696E766572B0
:10056000742C20626F6F6C290D0A2431303D0020FD
:10057000286C696D69742070696E7320696E766588
:1005800072742C20626F6F6C290D0A24363D002096
:10059000287374657020656E61626C6520696E7683
:1005A0006572742C20626F6F6C290D0A24353D0032
:1005B000290D0A24343D00202864697220706F726E
:1005C0007420696E76657274206D61736B3A0029D0
:1005D0000D0A24333D0020287374657020706F72FB
:1005E0007420696E76657274206D61736B3A0020B9
:1005F00028737465702069646C652064656C61792A
:100600002C206D736563290D0A24323D0020287368
:100610007465702070756C73652C20757365632923
:100620000D0A24313D0024303D0024242028766921
:100630006577204772626C2073657474696E6773A6
:10064000290D0A24232028766965772023207061EC
:1006500072616D6574657273290D0A2447202876CE
:100660006965772070617273657220737461746557
:10067000290D0A2449202876696577206275696CFE
:100680006420696E666F290D0A244E2028766965FC
:1006900077207374617274757020626C6F636B7312
:1006A000290D0A24783D76616C7565202873617682
:1006B00065204772626C2073657474696E67290DDA
:1006C0000A244E783D6C696E65202873617665203A
:1006D0007374617274757020626C6F636B290D0A9C
:1006E00024432028636865636B2067636F6465201B
:1006F0006D6F6465290D0A245820286B696C6C2085
:10070000616C61726D206C6F636B290D0A24482047
:100710002872756E20686F6D696E67206379636CEF
:1007200065290D0A7E20286379636C6520737461E6
:100730007274290D0A2120286665656420686F6C33
:1007400064290D0A3F202863757272656E742073E8
:100750007461747573290D0A6374726C2D78202886
:100760007265736574204772626C290D0A005D0D15
:100770000A003A002C005B5052423A000D0A004930
:100780006E76616C69642067636F64652049443AE2
:1007900000556E646566696E6564206665656420F3
:1007A00072617465004D6F64616C2067726F757063
:1007B0002076696F6C6174696F6E00486F6D696E49
:1007C00067206E6F7420656E61626C656400416CB9
:1007D00061726D206C6F636B004E6F742069646C86
:1007E0006500454550524F4D207265616420666139
:1007F000696C2E205573696E672064656661756C3F
:1008000074730056616C7565203C203320757365E8
:10081000630053657474696E672064697361626C08
:1008200065640056616C7565203C203000496E7629
:10083000616C69642073746174656D656E740042E7
:100840006164206E756D62657220666F726D617491
:1008500000457870656374656420636F6D6D616ECB
:1008600064206C6574746572006572726F723A20F0
:10087000006F6B0D0A000D0A00486F6D696E6720EE
:100880006661696C0050726F6265206661696C0018
:1008900041626F727420647572696E672063796358
:1008A0006C6500536F6674206C696D6974004861F3
:1008B0007264206C696D697400414C41524D3A205C
:1008C000003E0D0A002C4C696D3A002C52583A003B
:1008D0002C4275663A002C002C57506F733A002C4E
:1008E000002C4D506F733A003C446F6F72003C43D4
:1008F0006865636B003C416C61726D003C486F6DD4
:1009000065003C486F6C64003C52756E003C496465
:100910006C65005D0D0A00526573746F72696E67D5
:100920002064656661756C74730050676D20456E58
:100930006400436865636B20446F6F7200446973A1
:1009400061626C656400456E61626C656400436160
:100950007574696F6E3A20556E6C6F636B656400D9
:10096000272448277C2724582720746F20756E6C15
:100970006F636B00526573657420746F20636F6ED4
:1009800074696E7565005B0011241FBECFEFD1E264
:10099000DEBFCDBF00E00CBF14E0A0E0B2E0E4EBAE
:1009A000F0EE00E00BBF02C007900D92AA33B10732
:1009B000D9F723E1AAE3B4E001C01D92A736B2073C
:1009C000E1F70E9426540C9458701ACB2F923F9254
:1009D0004F925F926F927F928F929F92AF92BF924F
:1009E000CF92DF92EF92FF920F931F93CF93DF93FB
:1009F000CDB7DEB7C159D1090FB6F894DEBF0FBE2F
:100A0000CDBFC158DF4F99838883CF57D04089E34A
:100A1000E2EFF2E1DF011D928A95E9F78AE0E3E671
:100A2000F2E1A3EFB2E101900D928A95E1F7FE01A8
:100A3000E559FF4F1082E9961FAE1EAEE997EF967B
:100A40001FAE1EAEEF97CF57DF4F1882C158D04070
:100A5000E3961FAEE397E7961FAEE797AC968FAD90
:100A6000AC97C158DF4FE881F981CF57D040E80FEC
:100A7000F11D1081112311F40C94B8149FEB910F08
:100A80009A3110F00C949C1D8F5FAC968FAFAC9791
:100A9000AE014B595F4FBE0165597F4FC158DF4FC3
:100AA00088819981CF57D0400E944E4C882311F401
:100AB0000C949E1DA996CCACDDACEEACFFACA99716
:100AC000C701B6010E9479690E94C6664B015C01AC
:100AD0001B0180E090E00E94F2669B01AC01C7011F
:100AE000B6010E94786520E030E048EC52E40E94B4
:100AF000AB680E940E690E94C6663B011D3409F472
:100B00003FC2103511F40C94490F173411F00C94B6
:100B1000A713AC968FADAC97C158DF4F6881798130
:100B2000CF57D040680F711DAE0145595F4FC401CA
:100B30000E944F219C01215031092230310510F0D3
:100B40000C94F91DB8E28B16910409F4E1C180F50B
:100B5000F4E18F16910498F421E18216910408F0D3
:100B600046C134E08316910409F46EC008F4D2C083
:100B70009AE08916910409F45AC00C94AA1DACE1BC
:100B80008A16910409F453C038F4E6E18E169104F4
:100B900008F47DC10C94AA1DFEE18F16910409F49E
:100BA00046C026E28216910409F4B4C00C94AA1D32
:100BB0003DE38316910409F4A2C1F0F495E389168C
:100BC000910409F441C060F4BBE28B16910409F46E
:100BD0006EC1E1E38E16910409F469C10C94AA1D5B
:100BE000FCE38F16910410F00C94AA1D8AEC880D7A
:100BF0008093F91289E07FC12CE58216910460F49C
:100C00003AE58316910408F008C180E5881691043E
:100C100009F48AC00C94AA1D9CE58916910439F048
:100C2000AFE58A16910408F41FC10C94AA1D611443
:100C3000710411F00C94BC1DE796BFADE797BB2380
:100C400009F440C00C94A01DECE12E16310469F1AA
:100C500048F424E02216310479F03AE023163104F6
:100C6000C9F05BC18EE128163104A1F195E3291684
:100C7000310409F44BC051C181E049C0BFE12B16DA
:100C80003104D0F5EAE02E16310431F4A1E0E79604
:100C9000AFAFE79782E03BC0FCE12F16310409F0CB
:100CA00048C1B1E0E796BFAFE7976114710441F026
:100CB000EAE06E16710411F00C94AA1D84E00EC0D7
:100CC00083E00CC0AEE12A163104C1F6F1E0E796EC
:100CD000FFAFE7976114710439F485E08093F21255
:100CE000E1961FAEE1972CC12AE06216710411F063
:100CF0000C94AA1D86E0F2CF25E32216310411F0F0
:100D00000C94EA1D31E0E7963FAFE79787E08093C8
:100D1000F21203C1E796AFADE797A1110C94A01DA5
:100D2000B2E0E796BFAFE797E2E02E16310419F183
:100D300058F421143104D9F02A94232809F0F1C081
:100D400081E08093F312EDC036E223163104C1F046
:100D500080E52816310409F445C093E029163104D2
:100D600009F0DFC083E08093F312F1E08CC01092B1
:100D7000F312A1E0CEC082E08093F312E1E07CC0E8
:100D80002EE162167104F1F070F484E168167104CA
:100D900011F00C94AA1D84E08093F312B1E0E19667
:100DA000BFAFE197CDC098E26916710499F0A2E354
:100DB0006A16710411F00C94AA1D87E08093F31257
:100DC00021E035C085E08093F312E1E0E196EFAFDA
:100DD000E197B6C086E08093F312F1E0E196FFAFB1
:100DE000E197AEC088E08093F31231E058C082E111
:100DF0008816910441F093E18916910449F010920C
:100E0000F712A2E086C081E08093F712B2E08AC0B8
:100E100082E08093F712E2E02FC06114710499F42C
:100E2000FAE58F16910439F41092F61223E0E19658
:100E30002FAFE19785C081E08093F61233E0E19611
:100E40003FAFE1977DC08AE06816710411F00C9401
:100E5000AA1D9AE58916910411F40C94AA1DA4E028
:100E6000E196AFAFE1976CC0BDE58B16910441F4FC
:100E700081E08093F412E5E0E196EFAFE19755C091
:100E80001092F412F5E0E196FFAFE1974EC024E135
:100E90008216910441F481E08093F51236E0E196E8
:100EA0003FAFE19742C01092F51286E024C0E7966A
:100EB0009FADE79791110C94A01DA1E32A16310470
:100EC00041F41092F812B8E0E196BFAFE197E3E089
:100ED00034C0FAE06F16710411F00C94AA1D81E081
:100EE0008093F81228E0E1962FAFE19733E0E79680
:100EF0003FAFE79725C0E1968FAFE19716C067280F
:100F000011F00C94AA1D9AE0E1969FAFE19718C0EA
:100F1000A7E0E196AFAFE19708C0E1961FAEE19779
:100F200004C0B1E0E196BFAFE197672849F00C94A7
:100F3000CF1DE1961FAEE197E1E0E796EFAFE797AF
:100F400081E090E0E1960FACE19702C0880F991F15
:100F50000A94E2F7EF962EAD3FADEF9728233923A1
:100F6000232B19F085E10C94F91DEF962EAD3FADC2
:100F7000EF97282B392BEF963FAF2EAFEF976ECD23
:100F8000672B11F00C94CF1DAC968FADAC97C15868
:100F9000DF4FE881F981CF57D040E80FF11D3EEADD
:100FA000831638E0930608F05AC08CEA881688E069
:100FB000980608F042C19BE4891698E0990609F466
:100FC000F4C130F5B3EE8B16B7E09B0609F433C1DC
:100FD00080F432E18316910409F42DC18CEC88165B
:100FE000910409F42DC191E18916910409F08EC094
:100FF00090C0A9E48A16A8E09A0609F4BCC108F0DA
:10100000C1C128E4821628E0920609F457C17EC0C7
:1010100032EA831638E0930609F449C298F49AE953
:10102000891698E0990609F4F7C1ABE98A16A8E099
:101030009A0609F419C2B9E98B16B8E09B0609F0C3
:1010400065C0C4C1E6EA8E16E8E09E0608F4F5C065
:10105000F7EA8F16F8E09F0609F465C257C022EC44
:10106000821628E0920638F530EC831638E09306B5
:1010700008F0E3C088EB881688E0980609F45AC3A4
:1010800068F4AEEA8A16A8E09A0609F452C2B7EBF1
:101090008B16B8E09B0609F43AC338C029EB8216D8
:1010A00028E0920609F457C33AEB831638E093061A
:1010B00009F4C3C02BC08BE6881689E0980609F4B2
:1010C000DAC490F4A1E68A16A9E09A0609F455C498
:1010D000BAE68B16B9E09B0609F468C420E68216CE
:1010E00029E0920699F45AC334E7831639E093064F
:1010F00009F439C585E7881689E0980609F48BC597
:101100009CE6891699E0990609F4E4C481E090E030
:1011100054C68A9A809108018160809308015F9A81
:101120000E94E1268FE08093F6118EE1ECE2F3E17C
:10113000DF011D928A95E9F70E943C470E94735394
:1011400080E090E00E940C2F6093D2117093D31135
:101150008093D4119093D51181E090E00E940C2FE0
:101160006093D6117093D7118093D8119093D911B1
:1011700082E090E00E940C2F6093DA117093DB11F3
:101180008093DC119093DD11009130131091311395
:1011900020913213309133130093DE111093DF113D
:1011A0002093E0113093E111009134131091351325
:1011B00020913613309137130093E2111093E3110D
:1011C0002093E4113093E5110091381310913913F5
:1011D00020913A1330913B130093E6111093E711DD
:1011E0002093E8113093E91120E030E044EB52E421
:1011F0000E9478657B018C012091D6113091D71126
:101200004091D8115091D9116091D2117091D311A0
:101210008091D4119091D511A2EF8A2EA1E19A2E3E
:10122000BEEEAB2EB1E1BB2EEAEECE2EE1E1DE2E1C
:101230000E942F2C02C00E94254780E090E0BDC58F
:101240008E010F5F1F4F1F930F938DE092E09F93CE
:101250008F93FF93EF930E94406A0F900F900F902F
:101260000F900F900F90181619060CF052C41D8A9B
:101270001E8A1F8A188EAE014B5E5F4F60E070E0E1
:10128000C8010E944E4C882309F495C54D895E899A
:101290006F89788D88E70E946F3D4D895E896F89DF
:1012A000788D89E70E946F3D4D895E896F89788DC1
:1012B0008AE70E946F3D0E94A840BFCF8E010F5F5A
:1012C0001F4F1F930F9384E292E09F938F93FF939E
:1012D000EF930E94406A0F900F900F900F900F9025
:1012E0000F90181619060CF014C4AE014B5E5F4F38
:1012F00060E070E0C8010E944E4C882309F45BC591
:1013000020E030E04AE754E46D897E898F89988D2A
:101310000E94AB680E94C1661616170664F57093AA
:10132000BE0C6093BD0C91E09093BC0C8091F90CC5
:10133000811183CF23E13EE1309306122093051201
:101340001092200185E08093210121EF3FEF30933F
:10135000081220930712209107123091081230933F
:101360002501209324018091730081608093730094
:101370009093F90C62CF1092BC0C1092BE0C10929C
:10138000BD0C5BCF8081863509F015C58181805306
:10139000823008F010C51092FA11813019F01092C5
:1013A000F9114BCF8093F91148CF8081863509F030
:1013B00002C581818053823008F0FDC4813019F06C
:1013C0001092FD113ACF8093FD1137CF80818E347A
:1013D00009F0F1C491819053943008F0ECC492303C
:1013E00061F0933099F08091F611913019F05F9A85
:1013F000846031C08A9A81602EC08091080181602A
:10140000809308018091F611826025C00E94E12638
:101410008091F61188601FC080818E3409F0CBC4A2
:1014200091819053943008F0C6C4923061F09330AB
:10143000A9F08091F611913019F05F988B7F0BC065
:101440008A988E7F08C0809108018E7F8093080162
:101450008091F6118D7F8093F611EFCE0E949D2032
:101460008091F611877FF7CF80818E3409F0A3C475
:1014700081818053843008F09EC49091F6118230AF
:1014800081F0833089F0813019F090FF03C03CC1B6
:1014900091FD3AC169E873E087EC9CE00E940A6A1A
:1014A000CCCE92FD31C1F6CF93FFF4CF2DC11AA659
:1014B00019A61D8A1E8A1F8A188E8E010F5F1F4F64
:1014C0008AE0D8011D928A95E9F7CE0189969F930B
:1014D0008F931F930F938DE292E09F938F93FF93CF
:1014E000EF930E94406A0FB6F894DEBF0FBECDBFE7
:1014F00002970CF40EC3AE014B5E5F4F60E070E0EC
:10150000C8010E944E4C882309F455C42D893E8998
:101510004F89588D69A57AA5072E000C880B990B69
:101520000E940A208ACE8FEF0E949A3E0E94A81F36
:1015300084CEA5961CAE1DAE1EAE1FAEA597A1967D
:101540001CAE1DAE1EAE1FAEA1976D961CAE1DAE9D
:101550001EAE1FAE6D9784E15E0129E2A20EB11CA2
:10156000D501282F1D922A95E9F77E0135E1E30E7A
:10157000F11CD701282F1D922A95E9F7DE0111965B
:101580006D011D928A95E9F78E0107591F4F8FEF64
:1015900090E0D8018D939C931F930F93DF92CF928D
:1015A000FF92EF92BF92AF9289E392E09F938F9365
:1015B000FF93EF930E94406A0FB6F894DEBF0FBE10
:1015C000CDBF03970CF4A5C2AE014F595F4F60E049
:1015D00070E0C5010E944E4C882309F4ECC3AE01B3
:1015E000435A5F4F60E070E0C7010E944E4C882371
:1015F00009F4E1C3AE01475A5F4F60E070E0C601F5
:101600000E944E4C882309F4D6C3D8018D919C9139
:101610000097D9F1019709F0CEC3A596CCACDDAC0B
:10162000EEACFFACA59720E030E044EB52E4A1968D
:101630006CAD7DAD8EAD9FADA1970E94786521EE1A
:101640003EE245E652E40E9459664B015C010E946D
:1016500056669B01AC01C701B6010E94AB68A59616
:101660006CAF7DAF8EAF9FAFA597C501B4010E944F
:101670002E699B01AC01C701B6010E94AB68A1961F
:101680006CAF7DAF8EAF9FAFA197AE01475A5F4F52
:10169000BE01635A7F4FCE018F599F4F0E9423296D
:1016A0006D96ECACFDAC0EAD1FAD6D97A1962CAD5B
:1016B0003DAD4EAD5FADA197A5966CAD7DAD8EAD48
:1016C0009FADA597FE01FD964F01DE01AF5ABF4FBA
:1016D0005D0178966F010E94792A2196ECACFDACF1
:1016E0000EAD1FAD219765962CAD3DAD4EAD5FADF6
:1016F000659769966CAD7DAD8EAD9FAD69970E9483
:10170000DF2D882309F4C6CE68E272E0C5CE808161
:10171000863509F050C381818053823008F04BC375
:10172000813019F00E94841F88CD9C9A9D9AA49ABA
:10173000A59883CD8081863509F03DC38181805392
:10174000823008F038C3813019F00E94811F75CDB6
:101750003F9A479872CD8081863509F02CC38181EC
:101760008053823008F027C3813019F00E94701F27
:1017700064CD80910101806280930101809101011B
:101780008064809301018091020180628093020154
:10179000809102018064809302014FCD8081833566
:1017A00009F009C38181E0EDE80FE83008F003C3D8
:1017B0008E2F90E0FC013197E730F10530F4882757
:1017C000EE58FF4F8F4F0C94DE690E949D201092BF
:1017D000C5111092C4118AE999E1A5E9B2E4809398
:1017E000CA119093CB11A093CC11B093CD118AE97B
:1017F00099E9A2E6B2E4B8C00E949D2081E090E0A1
:101800009093C5118093C41186EF98E2ACE4B2E4E2
:101810008093CA119093CB11A093CC11B093CD11AA
:101820008DEC9CECA0E8B2E49FC00E949D2082E079
:1018300090E09093C5118093C41189E29CEDA4E9D6
:10184000B2E48093CA119093CB11A093CC11B093C2
:10185000CD1180E090E0A2E6B2E486C00E949D2017
:1018600083E090E09093C5118093C41180E090E0F4
:10187000ACE2B2E48093CA119093CB11A093CC1147
:10188000B093CD1180E090E0ABE8B2E46DC00E946F
:101890009D2084E090E09093C5118093C41180E076
:1018A00090E0ACE1B2E48093CA119093CB11A09385
:1018B000CC11B093CD1180E090E0A9E9B2E418C05A
:1018C0000E949D2085E090E09093C5118093C41103
:1018D0008DEC9CECA2E9B2E48093CA119093CB11F9
:1018E000A093CC11B093CD1180E090E0A8E9B2E4D0
:1018F0008093C6119093C711A093C811B093C911DA
:101900000E947620B5C00E949D2086E090E09093D2
:10191000C5118093C41186E696E6AAE9B2E48093E5
:10192000CA119093CB11A093CC11B093CD1180E04C
:1019300090E0AAE5B2E418C00E949D2087E090E004
:101940009093C5118093C41185E89BEEABECB1E494
:101950008093CA119093CB11A093CC11B093CD1169
:1019600080E090E0A2E3B2E48093C6119093C711A7
:10197000A093C811B093C9117BC080E090E00E9491
:10198000BF2E90938D1080938C1081E090E00E9488
:10199000BF2E90938F1080938E1082E090E00E9473
:1019A000BF2E90938B1080938A1002C260913813DF
:1019B0007091391380913A1390913B130E94F46611
:1019C0002B013C01609134137091351380913613D3
:1019D000909137130E94F4669B01AC016091301323
:1019E000709131138091321390913313C357DF4FAD
:1019F0002883CD58D040C257DF4F3883CE58D040CF
:101A0000C057DF4F4883C059D040CF56DF4F58836F
:101A1000C159D0400E94F466DE0111964D01FE01CD
:101A200075965F0198966D0183017201C357DF4F70
:101A30002881CD58D040C257DF4F3881CE58D04092
:101A4000C057DF4F4881C059D040CF56DF4F588133
:101A5000C159D0400E94912D89819A81AB81BC816E
:101A60008093CA119093CB11A093CC11B093CD1158
:101A70000E94CF1FE2CB1D8A1E8A1F8A188E8E01FC
:101A80000F5F1F4F84E1D8011D928A95E9F71F93DC
:101A90000F938BE592E09F938F93FF93EF930E94B8
:101AA000406A0F900F900F900F900F900F901816A4
:101AB00019067CF5AE014B5E5F4F60E070E0C80137
:101AC0000E944E4C882309F476C18D899E89AF8986
:101AD000B88D4ACF1D8A1E8A1F8A188E8E010F5F0D
:101AE0001F4F84E1D8011D928A95E9F71F930F9348
:101AF00086E692E09F938F93FF93EF930E94406A54
:101B00000F900F900F900F900F900F9018161906CE
:101B100074F01F9281E08F9388E192E09F938F93FE
:101B20000E9411420F900F900F900F9044C1AE0190
:101B30004B5E5F4F60E070E0C8010E944E4C88230E
:101B400009F439C18D899E89AF89B88D8093CE11F2
:101B50009093CF11A093D011B093D1110E94CF1FB9
:101B60000E9476206ACB8081803509F024C1818172
:101B70008053833008F01FC18130D9F0823091F159
:101B800080E090E00E94BF2E90934704809346042B
:101B900081E090E00E94BF2E909349048093480416
:101BA00082E090E00E94BF2E90934B0480934A0401
:101BB00044CB80E090E00E94BF2E9093410480933C
:101BC000400481E090E00E94BF2E909343048093F4
:101BD000420482E090E00E94BF2E909345048093DF
:101BE00044042BCB80E090E00E94BF2E90933B04F6
:101BF00080933A0481E090E00E94BF2E90933D04D0
:101C000080933C0482E090E00E94BF2E90933F04BA
:101C100080933E0412CB6091460470914704E0909B
:101C20004804F09049049701262B372B80914A04F1
:101C300090914B04822B932B892B19F481E792E02E
:101C40002FC0C0904004D0904104809042049090F6
:101C50004304E0914404F0914504E296FFAFEEAFF7
:101C6000E297C4018C299D298E2B9F2B892B19F477
:101C700087E792E015C0A0903A04B0903B04009131
:101C80003C0410913D0498012A293B2980913E048F
:101C900090913F04822B932B892B49F48DE792E09E
:101CA0009F938F930E9411420F900F9084C080E009
:101CB00090E00E94F26624EE35E24EE652E40E9485
:101CC00079652B013C01B50180E090E00E94F2664D
:101CD00020E33CE44AEB52E40E9479659B01AC01AD
:101CE000C301B2010E9479652B013C01B60180E07D
:101CF00090E00E94F2669B01AC01C301B2010E9418
:101D0000796520E030E040E450E40E94596620E02C
:101D100030E040E05FE30E9479650E94C666709300
:101D20008D1060938C10B70180E090E00E94F26605
:101D30002CE93DE241E853E40E9478656B017C01A7
:101D4000B80180E090E00E94F26624E53AE146E9BD
:101D500053E40E9479659B01AC01C701B6010E9462
:101D600079656B017C01B40180E090E00E94F2662D
:101D70009B01AC01C701B6010E94796520E030E00B
:101D800040E450E40E94596620E030E040E05FE328
:101D90000E9479650E94C66670938F1060938E10C2
:101DA000E2962EAD3FADE29730938B1020938A10D0
:101DB0000E94BC2F42CA82E390E09C01215031096D
:101DC0002230310510F00C94F91D36E02316310451
:101DD00028F483E02816310488F024C098E02916FE
:101DE000310410F40C94AA1DAAE02A163104C8F19B
:101DF000BEE12B16310411F00C94AA1DE2E02E1660
:101E0000310459F0FEE12F16310439F02328E1F5B1
:101E100081E08093FA122BE02CC082E08093FA12CA
:101E20003BE02EC084E02816310461F095E02916CD
:101E3000310481F081E08093FC12ACE0E196AFAF19
:101E4000E19765C482E08093FC12BCE0E196BFAFED
:101E5000E1975DC41092FC12ECE0E196EFAFE197E0
:101E600056C4F9E02F16310441F082E08093FB1252
:101E70002DE0E1962FAFE1974AC41092FB123DE0AE
:101E8000E1963FAFE19743C48BE0E1968FAFE197D6
:101E90003EC4672B11F00C94CF1DAC968FADAC9760
:101EA000B7EB8B16B8E09B0609F45DC3B8F5FCE907
:101EB0008F16F8E09F0609F4C2C0D8F439E98316FA
:101EC00038E0930609F4AEC038F498E9891698E032
:101ED000990609F454C050C0AAE98A16A8E09A06E7
:101EE00009F4A3C0BBE98B16B8E09B0609F4A0C0B7
:101EF00043C0EEE98E16E8E09E0609F4A6C008F499
:101F0000A1C02CEA821628E0920609F4CEC13DEA6F
:101F1000831638E0930609F462C22EC082EC88165C
:101F200088E09806D8F490EC891698E0990608F0B5
:101F3000E1C3A9EB8A16A8E09A0609F473C308F472
:101F400066C3EAEB8E16E8E09E0609F473C3FBEB6A
:101F50008F16F8E09F0609F478C30EC023EC8216B2
:101F600028E0920609F48AC308F476C380E688164E
:101F700089E0980609F4A8C381E090E0C0C384E139
:101F80007E0199E2E90EF11CD701E82F1D92EA9536
:101F9000E9F76E01F5E1CF0ED11CD601E82F1D92B5
:101FA000EA95E9F79E012F5F3F4F1901D9011D9274
:101FB0008A95E9F780E090E00E940C2FED966CAFD7
:101FC0007DAF8EAF9FAFED9781E090E00E940C2F28
:101FD0002B013C0182E090E00E940C2F4B015C0140
:101FE000870124E045E0ED966CAD7DAD8EAD9FADF3
:101FF000ED970E94E662860124E045E0C301B2014C
:102000000E94E662810124E045E0C501B4010E941E
:10201000E662DF92CF92FF92EF923F922F9283E897
:1020200092E044C381E992E005C08FEB9CE002C0DE
:102030008FE992E09F938F938AE992E04DC386EAFD
:1020400092E0F8CF8DEA92E0F5CFC158DF4FE881FA
:10205000F981CF57D040E80FF11D80818E3409F00F
:102060004CC381818053EA968FAFEA97843008F0A1
:1020700044C36D961CAE1DAE1EAE1FAE6D97699625
:102080001CAE1DAE1EAE1FAE699765961CAE1DAE92
:102090001EAE1FAE659784E11E01FDE32F0E311CBD
:1020A000D101E82F1D92EA95E9F7FE01B996DF010B
:1020B000282F1D922A95E9F77497DF01282F1D928A
:1020C0002A95E9F7DE011196AE96BFAFAEAFAE9797
:1020D0001D928A95E9F760913813709139138091B8
:1020E0003A1390913B130E94F4662B013C016091DE
:1020F00034137091351380913613909137130E94E9
:10210000F4669B01AC0160913013709131138091A2
:10211000321390913313C357DF4F2883CD58D040EB
:10212000C257DF4F3883CE58D040C057DF4F488367
:10213000C059D040CF56DF4F5883C159D0400E947C
:10214000F466FE01EF5AFF4F4F01DE01AB5ABF4F5D
:102150005D0138966F0183017201C357DF4F2881FB
:10216000CD58D040C257DF4F3881CE58D040C057ED
:10217000DF4F4881C059D040CF56DF4F5881C159F9
:10218000D0400E94142D20E030E044EB52E46596EC
:102190006CAD7DAD8EAD9FAD65970E9479656596FE
:1021A0006CAF7DAF8EAF9FAF65978091C41190915A
:1021B000C5110497029748F48090B80C9090B90C20
:1021C000A090BA0CB090BB0C24C023E333E343E3EC
:1021D0005FE3609100027091010280910202909190
:1021E00003020E94786520E030E040E05FE30E9457
:1021F000AB6820E030E044E353E40E94AB689B010D
:10220000AC0160E070E084E393E40E9478654B01E8
:102210005C016D966CAD7DAD8EAD9FAD6D9781010E
:1022200024E045E00E94E6627E01F9E2EF0EF11C37
:1022300069966CAD7DAD8EAD9FAD6997870124E049
:1022400045E00E94E6626E0125E1C20ED11C659652
:102250006CAD7DAD8EAD9FAD6597860124E045E008
:102260000E94E6620451110924E045E0C501B40171
:102270000E94E662EA963FADEA97323051F0333081
:1022800059F0313019F0DF92CF920CC03F922F926B
:1022900009C0FF92EF9206C081E090E08C0F9D1F75
:1022A0009F938F9386EB92E017C269961CAE1DAE8A
:1022B0001EAE1FAE699765961CAE1DAE1EAE1FAE5C
:1022C000659721961CAE1DAE1EAE1FAE219784E110
:1022D000DE019996AE96BFAFAEAFAE97E82F1D92D6
:1022E000EA95E9F71E01F5E12F0E311CD101E82F27
:1022F0001D92EA95E9F79E012F5F3F4FE0963FAFB1
:102300002EAFE097D9011D928A95E9F780E090E021
:102310000E940C2F2B013C0181E090E00E940C2FC9
:10232000ED966CAF7DAF8EAF9FAFED9782E090E002
:102330000E940C2F20E030E044EB52E40E947865CC
:10234000FE01FD964F019E012F5A3F4F5901DE01BC
:10235000AB5ABF4F6D017B018C01ED962CAD3DADAD
:102360004EAD5FADED97C301B2010E942F2CA401C9
:10237000B501C6010E94CE2969966CAD7DAD8EADCA
:102380009FAD69978E01075D1F4F24E045E00E94D5
:10239000E66265966CAD7DAD8EAD9FAD65978101B2
:1023A00024E045E00E94E66221966CAD7DAD8EADE5
:1023B0009FAD21970451110924E045E00E94E66297
:1023C0001F930F933F922F92AE96FFADAE97FF9360
:1023D000AD962FADAD972F938AEB92E067C16996CA
:1023E0001CAE1DAE1EAE1FAE699765961CAE1DAE2F
:1023F0001EAE1FAE659721961CAE1DAE1EAE1FAE63
:10240000219784E1DE019996AE96BFAFAEAFAE974D
:10241000E82F1D92EA95E9F71E01F5E12F0E311C18
:10242000D101E82F1D92EA95E9F79E012F5F3F4FFA
:10243000E0963FAF2EAFE097D9011D928A95E9F75C
:1024400080E090E00E940C2FED966CAF7DAF8EAFD8
:102450009FAFED9781E090E00E940C2FCB57DF4FAC
:10246000688379838A839B83C558D04082E090E05B
:102470000E940C2F20E030E044EB52E40E9478658B
:102480002B013C01FE01FD964F019E012F5A3F4F4B
:102490005901CE018B5A9F4F6C0183017201CB57BA
:1024A000DF4F288139814A815B81C558D040ED9644
:1024B0006CAD7DAD8EAD9FADED970E942F2CA4012C
:1024C000B501C6010E94CE2969966CAD7DAD8EAD79
:1024D0009FAD69976596CCACDDACEEACFFAC659773
:1024E0009B01AC010E94AB684B015C01A701960106
:1024F000C701B6010E94AB689B01AC01C501B401E4
:102500000E9479650E9438698E01075D1F4F24E0A3
:1025100045E00E94E66220E030E044EB52E4C30173
:10252000B2010E947965810124E045E00E94E662E3
:1025300021966CAD7DAD8EAD9FAD219704511109F3
:1025400024E045E00E94E6621F930F933F922F9292
:10255000AE96BFADAE97BF93AD96EFADAD97EF938F
:1025600088EC92E0A3C0A49B59C0CE0101967C01E7
:102570006E0191E1C90ED11C87018FE30E94891F72
:10258000D7018D939D937D01AC15BD05B1F720E07A
:1025900030E040E0842F90E0B901680F791F673088
:1025A0007105BCF4880F991FD801A80FB91F6D9150
:1025B0007C9111970296F801E80FF91F80819181B3
:1025C0008617970720F48D939C93718360834F5FE8
:1025D000E1CF2F5F3F4F28303105D9F62F81388565
:1025E0008D819E81820F931F29853A85820F931FCB
:1025F0002B853C85820F931F969587959695879599
:102600008A30910558F08734910530F009C0479918
:1026100005C00898009904C082E01CC080E01AC080
:1026200081E018C082B386958695869591E08927CA
:10263000817010C08BE30E94891F21E085369105CF
:1026400008F420E01F922F9345C08091020185FB82
:10265000882780F91F923DC080918F108F938091C1
:102660008E108F9380918D108F9380918C108F930B
:1026700080918B108F9380918A1015C080E090E03C
:102680000E94BF2E182F092F81E090E00E94BF2EDC
:10269000F82EE92E82E090E00E94BF2EEF92FF928A
:1026A0000F931F939F938F9386ED92E09F938F9349
:1026B00087EC9CE09F938F930E94116A0FB6F89469
:1026C000DEBF0FBECDBF16C08091C5118F93809124
:1026D000C4118F9389E793E09F938F9387EC9CE0DD
:1026E0009F938F930E94116A0F900F900F900F90FD
:1026F0000F900F9080E090E002C082E390E09C0198
:10270000215031092230310510F00C94F91D81E07F
:1027100090E0E1960FACE19702C0880F991F0A94F0
:10272000E2F7EF962EAD3FADEF9728233923232B09
:1027300011F00C94B207EF96AEADBFADEF97A82B9A
:10274000B92BEF96BFAFAEAFEF970C942E05812F4C
:10275000110F990BAA0BBB0BFC01E654F109E531F3
:10276000F10510F00C94AA1D8827E758FF4F8F4FF2
:102770000C94DE69C092FD12D092FE12E092FF121C
:10278000F0920013E1961FAEE197BBC0C092011317
:10279000D0920213E0920313F0920413CF57DF4F4D
:1027A000B881C158D040B160CF57DF4FB883C1580E
:1027B000D040E1E0A3C0C0920513D0920613E0928E
:1027C0000713F0920813CF57DF4FF881C158D0405C
:1027D000F260CF57DF4FF883C158D04022E0E19636
:1027E0002FAFE1978EC0C0920913D0920A13E092E6
:1027F0000B13F0920C13CF57DF4F3881C158D040E4
:102800003460CF57DF4F3883C158D04083E0E19622
:102810008FAFE19776C080920D1394E056C0C70148
:10282000B6010E94C16660930E1370930F138093DC
:10283000101390931113A5E0E196AFAFE19761C03B
:10284000C0921213D0921313E0921413F092151346
:10285000B6E04FC0C0921613D0921713E09218132F
:10286000F0921913E7E04AC0C0921A13D0921B13DA
:10287000E0921C13F0921D13F8E0E196FFAFE19790
:1028800040C0C0921F13D0922013E0922113F09207
:102890002213E3962FADE3972160E3962FAFE397E2
:1028A0003AE0E1963FAFE1972CC0C0922313D0925B
:1028B0002413E0922513F0922613E3968FADE3974D
:1028C0008260E3968FAFE3979BE0E1969FAFE1973D
:1028D00018C0C0922713D0922813E0922913F092C7
:1028E0002A13E396AFADE397A460E396AFAFE39707
:1028F000BCE0E196BFAFE19704C0E9E0E196EFAF3D
:10290000E19701E010E0E1960FACE19702C0000F03
:10291000111F0A94E2F7E9968EAD9FADE9978023E7
:102920009123892B11F00C94A21D81E693E0E1968E
:102930000FACE19702C0959587950A94E2F780FF66
:102940000BC020E030E0A901C701B6010E94526629
:1029500087FF02C00C94A41DE9962EAD3FADE99708
:10296000202B312BE9963FAF2EAFE9970C942E0523
:10297000E3963FADE397332349F0E7968FADE797B2
:10298000811104C092E0E7969FAFE797E896AFAD5C
:10299000E897A5FF0FC080910E1390910F13A0919F
:1029A0001013B091111380389649A849B10514F05D
:1029B0000C94A61D8091F412813069F4E796FFAD66
:1029C000E797F230E1F5E8962FADE89720FD02C0D9
:1029D0000C94B01D34C080916412811130C0E8960F
:1029E0003FADE89730FF1BC08091F512813039F57B
:1029F00023E333E34BEC51E46091FD127091FE123E
:102A00008091FF12909100130E94AB686093FD12B9
:102A10007093FE128093FF129093001310C0809168
:102A2000711290917212A0917312B09174128093EE
:102A3000FD129093FE12A093FF12B0930013E9963B
:102A40008EAD9FADE99790FD10C080916D12909171
:102A50006E12A0916F12B091701280931A1390931E
:102A60001B13A0931C13B0931D138091F21281309D
:102A700089F4E8969FADE89796FD03C08CE10C942D
:102A8000F91DE996AEADBFADE997AF7BE996BFAF53
:102A9000AEAFE9978091F712882311F1813081F46C
:102AA000B1E0CB57DF4FB883C558D040EA961FAE90
:102AB000EA97E2E0C158DF4FE883CF57D0401FC00C
:102AC000CB57DF4F1882C558D040F2E0EA96FFAFEF
:102AD000EA9721E0C158DF4F2883CF57D0400FC07D
:102AE00032E0CB57DF4F3883C558D04081E0EA96BB
:102AF0008FAFEA97C158DF4F1882CF57D0408091EF
:102B0000F512813031F0E7969FADE7979330C9F524
:102B10002EC07FE1E72E73E1F72E00E010E0E39690
:102B2000AFADE397CA2ED12CC601002E02C09595F9
:102B300087950A94E2F780FF11C023E333E34BEC5F
:102B400051E4F70160817181828193810E94AB68B9
:102B5000D7016D937D938D939C9313970F5F1F4FB8
:102B6000B4E0EB0EF11C03301105F1F6CCCF8091EF
:102B7000F812813031F4E396EFADE397E43009F0D9
:102B8000E7C78CE0E6E8F2E1DE01559601900D9290
:102B90008A95E1F7EF962EAD3FADEF9731FD0AC074
:102BA0009090F21232E09316C9F088E0981609F47A
:102BB000C8C02BC18091F912873018F08DE10C94B8
:102BC000F91D90916912981759F3BE016B5E7F4F02
:102BD0000E947A3E882309F4CDC7E2CFE3969FADE9
:102BE000E397911103C08AE10C94F91DE9968EAD2B
:102BF0009FADE99780759927892B09F43FCF6091A4
:102C000012137091131380911413909115130E9455
:102C100079690E94C666673088F680910D13843109
:102C200041F0823009F096C7E896AFADE897A7FD6E
:102C300091C7E996EEADFFADE997EF7AE996FFAF60
:102C4000EEAFE997662329F06150E1966FAFE19707
:102C500005C0F091F912E196FFAFE197BE016F5FF9
:102C60007F4FE1968FADE1970E947A3E882309F469
:102C700081C730900D1340909E1250909F1260902B
:102C8000A0127090A1128E010F5F1F4FC12CD12C8A
:102C9000E12CF12CE3962FADE397822E912CC40109
:102CA0000E2C02C0959587950A94E2F780FF3BC0F1
:102CB000C6018E509D4E5C0194E139122AC0F60186
:102CC000ED59FD4E27A530A941A952A96789708DFC
:102CD000818D928D0E947865D5019D962D913D91B3
:102CE0004D915C91D0970E947865F8016083718363
:102CF00082839383F2E0EF16F104A9F4A301920119
:102D00000E947865D8016D937D938D939C93139762
:102D10000AC0F50185A596A5A7A5B0A9F8018083ED
:102D20009183A283B383FFEFEF1AFF0A24E0C20E60
:102D3000D11C0C5F1F4F33E0E316F10409F0AFCF55
:102D400024C1E3968FADE397882309F44CCF4090DC
:102D50009E1250909F126090A0127090A1120FE1ED
:102D600013E1C12CD12CE12CF12CA82EB12CF601B1
:102D7000ED59FD4EC5010E2C02C0959587950A941C
:102D8000E2F780FF2BC0A5E1B0E0AC0FBD1FAC0D9A
:102D9000BD1D2D913D914D915C916789708D818D07
:102DA000928D0E947865D8012D913D914D915C9155
:102DB0000E947865F8016083718382839383F2E0D7
:102DC000EF16F104A1F4A30192010E947865D801E5
:102DD0006D937D938D939C93139709C087A590A9BC
:102DE000A1A9B2A9F80180839183A283B383FFEFE5
:102DF000EF1AFF0A24E0C20ED11C0C5F1F4F33E014
:102E0000E316F10409F0B3CFBDC0E7968FADE797A5
:102E1000833061F495E0991609F497C0A7E09A16FB
:102E200009F4ABC0B3E09B12ADC082C0E396EFAD36
:102E3000E397EE2309F49BC08090F61240909E1217
:102E400050909F126090A0127090A1126AE7C62E57
:102E500062E1D62E0FE113E15E01F5E1AF0EB11C88
:102E6000E12CF12C2E2E312CC1010E2C02C0959597
:102E700087950A94E2F780FD0BC0F601808191816D
:102E8000A281B381F80180839183A283B3833FC081
:102E9000F7E09F16E1F1811029C0D60158962D91D7
:102EA0003D914D915C915B97F501608171818281CB
:102EB00093810E947965D8012D913D914D915C914E
:102EC0000E947965F8016083718382839383F2E0C5
:102ED000EF16F104E1F4A30192010E947965D80193
:102EE0006D937D938D939C93139711C0F601208170
:102EF000318142815381D8016D917D918D919C9159
:102F00000E947965F8016083718382839383FFEF68
:102F1000EF1AFF0A24E0C20ED11C0C5F1F4F34E0F1
:102F2000A30EB11C83E0E816F10409F09DCF72CF27
:102F3000E3969FADE397911103C0E7961FAEE79725
:102F4000BE016F5F7F4F86E00CC0E396AFADE397A5
:102F5000A11103C0E7961FAEE797BE016F5F7F4FD9
:102F600087E00E947A3E882309F404C60BC085E0FE
:102F7000981681F397E0991238C68091F312823047
:102F800008F0EAC5E1961FAEE1971091F3121830F0
:102F900069F4E396BFADE397BB2309F420C2E7963B
:102FA000EFADE797E13009F0D9C527C3E796FFAD4C
:102FB000E797F23009F013C2111107C0E3962FAD65
:102FC000E397222309F410C218C320E030E0A901DE
:102FD0006091FD127091FE128091FF12909100138A
:102FE0000E945266882309F4BBC5143028F41230BD
:102FF00070F4113029F001C3183008F4ACC1FDC2DF
:10300000E3963FADE397332309F4EEC1F6C2E396AE
:103010008FADE397882309F4E6CDC158DF4F98813F
:10302000CF57D040692E712CEA96BFADEA97AB2FEF
:10303000B0E0EF96BFAFAEAFEF9781E090E07C01DC
:10304000EA960FACEA9702C0EE0CFF1C0A94E2F776
:10305000C158DF4F0880CF57D04002C0880F991F5A
:103060000A94E2F7E82AF92AE396EFADE3978E2F68
:1030700090E08E219F21892B09F474C5C301880F2C
:10308000991F880F991FFC01EE50FD4EDC01AD59D0
:10309000BD4E57962D913D914D915C915A9765A5E6
:1030A00076A587A590A90E9478651B012C01EF9653
:1030B0008EAD9FADEF97880F991F880F991FFC0168
:1030C000EE50FD4EDC01AD59BD4E57962D913D9110
:1030D0004D915C915A9765A576A587A590A90E9408
:1030E00078654B015C01E996CEACDFACE997F0E87E
:1030F000CF22DD24E8962FADE89727FF47C0E99659
:103100008EAD9FADE9978F77E9969FAF8EAFE99728
:1031100020911F13309120134091211350912213BD
:1031200060917A1270917B1280917C1290917D1245
:103130000E945266811162C12091231330912413A1
:10314000409125135091261360917E1270917F1249
:1031500080918012909181120E94526681114EC11D
:1031600020912713309128134091291350912A134D
:1031700060918212709183128091841290918512D5
:103180000E94526681113AC181E233C5CF57DF4FA9
:103190003881C158D040232F30E0E4963FAF2EAFA6
:1031A000E497E222F322EF2809F4DEC4E9968EAD1B
:1031B0009FADE997817FE9969FAF8EAFE9978091A8
:1031C000F512813009F480C0F301EE0FFF1FEE0FFE
:1031D000FF1FEA50FD4EC384D484E584F684A70122
:1031E0009601C201B1010E9478652B013C01EF9666
:1031F000EEADFFADEF97EE0FFF1FEE0FFF1FEA5092
:10320000FD4E83859485A585B685E6968CAF9DAFEA
:10321000AEAFBFAFE6979C01AD01C501B4010E94FE
:1032200078654B015C01A3019201C301B2010E94C8
:10323000AB682B013C01A5019401C501B4010E94BA
:10324000AB689B01AC01C301B2010E9479650E9489
:1032500038694B015C01A7019601C701B6010E94C4
:10326000AB686B017C01E6962CAD3DAD4EAD5FAD1C
:10327000E697CA01B9010E94AB689B01AC01C70186
:10328000B6010E9479650E9438696B017C016093E8
:1032900016137093171380931813909319139B01AF
:1032A000AC01C501B4010E9478654B015C01E89452
:1032B000B7F82AE037ED43EA5BE3C501B4010E94A9
:1032C000706818165CF199C102EF12E1E4968EADB8
:1032D0009FADE4970C2C02C0959587950A94E2F770
:1032E00080FF12C023E333E34BEC51E4D8011F9677
:1032F0006D917D918D919C9152970E94AB68F801E0
:103300006787708B818B928BFFEFCF1ADF0A0C5F80
:103310001F4F23E0C216D104C9F656CF20E030E09B
:1033200040E05FE3C501B4010E94706818160CF418
:103330002BCF2FE632E143E85AE3C701B6010E94E2
:10334000AB689B01AC01C501B4010E9470681816FE
:103350000CF41ACF52C1E3963FADE397332309F43F
:1033600042CC20911F133091201340912113509192
:10337000221360917A1270917B1280917C1290914D
:103380007D120E945266811138C120912313309121
:103390002413409125135091261360917E12709151
:1033A0007F1280918012909181120E945266811149
:1033B00024C1209127133091281340912913509153
:1033C0002A136091821270918312809184129091DD
:1033D00085120E945266882309F4D6CE0EC1E79664
:1033E0008FADE797811109C1E9968EAD9FADE99741
:1033F0008E7D9C7FE7961FAEE79705C18091F51201
:103400008130B1F423E333E34BEC51E460911613C4
:103410007091171380911813909119130E94AB6843
:1034200060931613709317138093181390931913C6
:103430008091161390911713A0911813B09119133E
:10344000E6968CAF9DAFAEAFBFAFE697A2019101FC
:10345000C201B1010E94AB68CF57DF4F6883798307
:103460008A839B83C158D040A5019401C501B40152
:103470000E94AB68C757DF4F688379838A839B8339
:10348000C958D04020E030E040E850E4E6966CAD0A
:103490007DAD8EAD9FADE6970E94AB68E6962CADF4
:1034A0003DAD4EAD5FADE6970E94AB68CF57DF4FA5
:1034B000288139814A815B81C158D0400E9478655A
:1034C000C757DF4F288139814A815B81C958D04075
:1034D0000E9478656B017C0120E030E0A9010E9428
:1034E000526687FD5EC3C701B6010E9438696B0151
:1034F0007C01C757DF4F288139814A815B81C958D8
:10350000D040CF57DF4F688179818A819B81C15834
:10351000D0400E9479650E9438699B01AC01C701C7
:10352000B60190580E9459666B017C01133021F45A
:10353000F7FAF094F7F8F09420E030E0A901E6966D
:103540006CAD7DAD8EAD9FADE6970E94526687FF54
:1035500013C0F7FAF094F7F8F094E6968CAD9DADB1
:10356000AEADBFADE697B058809316139093171386
:10357000A0931813B09319138301000F111F000FAC
:10358000111F0A501D4EA7019601C501B4010E94EA
:10359000AB689B01AC01C201B1010E94786520E0DB
:1035A00030E040E05FE30E94AB68D8011B966D936A
:1035B0007D938D939C931E97EF960EAD1FADEF9765
:1035C000000F111F000F111F0A501D4EA701960179
:1035D000C201B1010E94AB689B01AC01C501B401FD
:1035E0000E94796520E030E040E05FE30E94AB6834
:1035F000F8016387748785879687E9968EAD9FADBE
:10360000E9978E7D907E892B09F0B0C280910E13D0
:1036100090910F13A0911013B09111138093761213
:1036200090937712A0937812B09379128091F4124C
:10363000809364128091FD129091FE12A091FF126E
:10364000B09100138093711290937212A093731231
:10365000B0937412C0901A13D0901B13E0901C13F7
:10366000F0901D13A701960160916D1270916E127A
:1036700080916F12909170120E945266882341F1DE
:1036800080916C128823A1F090912D13923081F0DB
:10369000C157DF4F8883CF58D0400E948A5FB7015F
:1036A000A601C157DF4F8881CF58D0400E940C3D02
:1036B00080911A1390911B13A0911C13B0911D13AC
:1036C00080936D1290936E12A0936F12B09370124C
:1036D00080911E13809375128091FC1290916C1250
:1036E000981709F446C040916D1250916E12609186
:1036F0006F127091701290912D139230B1F1C057EA
:10370000DF4F4883C059D040CF56DF4F5883C1594F
:10371000D040C357DF4F6883CD58D040C257DF4FEA
:103720007883CE58D040C157DF4F8883CF58D040E0
:103730000E948A5FC057DF4F4881C059D040CF56A2
:10374000DF4F5881C159D040C357DF4F6881CD58F2
:10375000D040C257DF4F7881CE58D040C157DF4F9D
:103760008881CF58D0400E940C3D8091FC128093FC
:103770006C121091FB1280916B12811781F0809175
:103780002D13823041F00E948A5F123011F45C9A4E
:1037900002C00E9424548091FB1280936B1280918E
:1037A000F212813079F08091F71280936712809144
:1037B000F51280936512E7969FADE797933009F075
:1037C00074C054C08090121390901313A0901413DF
:1037D000B090151380912D13823029F320E030E052
:1037E00040EA51E4C501B4010E94AB680E942F6712
:1037F0000E94C6666B017C010E948A5F20E030E077
:103800004AE754E4C501B4010E94AB684B015C0176
:1038100082E38C9DB0018D9D700D112480E090E0BD
:103820000E94F2669B01AC01C501B4010E9478655B
:103830000E942F670E94C666CB010E94434CC114B0
:10384000D10409F4B0CF0E947A42A1E0CA1AD1088B
:1038500080912C138111A7CFBFEFE0E7F2E0B150C8
:10386000E040F040E1F700C00000E9CF8091F8129D
:1038700080936812813089F48091271390912813E6
:10388000A0912913B0912A1380939E1290939F12B6
:10389000A093A012B093A11208C010929E12109291
:1038A0009F121092A0121092A1128091F912909181
:1038B0006912981759F0809369128CE0FE01759691
:1038C000A6E8B2E101900D928A95E1F78091F61297
:1038D00080936612E091F2128E2F90E0FC013297F5
:1038E000E830F10508F063C08827E257FF4F8F4F9B
:1038F0000C94DE69BE016F5F7F4FE1968FADE1975B
:103900000E94713E80916912E1962FADE19782137A
:103910004EC08CE0FE013196A6E8B2E13CC0E796CD
:103920003FADE797332371F02091711230917212FD
:10393000409173125091741200E06FE173E181E0E5
:103940000E943C4D2091711230917212409173127D
:103950005091741200E0BE016F5F7F4F81E00E94C2
:103960003C4D182F8CE0FE013196AAE7B2E10190A0
:103970000D928A95E1F71CC06AE772E186E003C008
:103980006AE772E187E00E94713E11C08CE0EFE1CE
:10399000F3E1A2E9B2E101900D928A95E1F707C047
:1039A0008CE0E2E9F2E1DF011D928A95E9F710E08F
:1039B0008091F31280936312883009F46CC0E7960B
:1039C000BFADE797B23009F066C090E0883091054E
:1039D00008F058C0FC014090711250907212609033
:1039E0007312709074128827EA56FF4F8F4F0C9411
:1039F000DE6900E0A30192016FE173E180E007C09E
:103A000000916412A30192016FE173E181E00E94D1
:103A10003C4D182F37C06091161370911713809189
:103A20001813909119138824839409C06091161378
:103A3000709117138091181390911913812CCB5703
:103A4000DF4FA880C558D040EA96CFACEA97C1585E
:103A5000DF4FE880CF57D04000916412A30192015C
:103A60000E9452600FC000E001C001E020E004C0ED
:103A700000E001C001E021E040916412C301B20105
:103A80000E94A75F8CE0EFE1F3E1AAE7B2E10190C9
:103A90000D928A95E1F78091FA1280936A12882339
:103AA00009F466C00E948A5F90916A1280912D137A
:103AB000913069F48230E9F19FB7F8948091A212B5
:103AC00088608093A2129FBF0E947A4232C091E028
:103AD0009093631210926712109266121092641201
:103AE0001092691210926C1210926B128230A9F02F
:103AF000BE016B5E7F4F80E00E947A3E8823D1F149
:103B00008CE0FE017596A6E8B2E101900D928A95CF
:103B1000E1F70E94053D0E94245486E899E00E9446
:103B20006C428AE299E00E946C4283E199E00E9433
:103B30006C4210926A121CC081E05BC082E059C0E6
:103B400088E157C089E155C084E053C08BE151C082
:103B500085E24FC084E14DC08EE14BC08FE149C08A
:103B600086E147C080E245C083E243C084E241C0B1
:103B7000812F3FC087E03DC0EEE12E16310411F4E5
:103B80000C946A0680F42AE02216310411F40C9495
:103B90004A063CE12316310411F40C94550687E1E2
:103BA00028C082E226C085E32816310411F40C9463
:103BB00086069CE52916310491F76114710439F0E9
:103BC0009AE06916710431F689E00C946E0688E07B
:103BD0000C946E063CE52316310411F00C94990701
:103BE00081E0E7968FAFE797E8CFA3E09A12CAC9C2
:103BF000A4C9CF56DF4F0FB6F894DEBF0FBECDBFBE
:103C0000DF91CF911F910F91FF90EF90DF90CF90B8
:103C1000BF90AF909F908F907F906F905F904F90EC
:103C20003F902F9008952091020D3091030D2115A2
:103C30003105B9F08091000D9091010D8217930725
:103C400034F401969093010D8093000D0AC01092F8
:103C5000010D1092000D1092030D1092020D1092A2
:103C6000F7112091BD0C3091BE0C21153105A1F04A
:103C70008091FE0C9091FF0C8217930734F401960B
:103C80009093FF0C8093FE0C07C01092FF0C1092D3
:103C9000FE0C81E08093F8118091F71181111BC017
:103CA0008091BC0C811117C0809173008E7F80932E
:103CB00073001092F90C1092030D1092020D1092E5
:103CC000BE0C1092BD0C1092010D1092000D1092BE
:103CD000FF0C1092FE0C08958091FD0C811107C01D
:103CE00081E08093FD0C80910B01806205C01092F1
:103CF000FD0C80910B018F7D80930B018091FB0C5B
:103D00009091FC0C9C012F5F3F4F3093FC0C209353
:103D1000FB0C20910402309105022817390748F462
:103D20001092FC0C1092FB0C809170008E7F80939F
:103D3000700008952091C4113091C51124303105CF
:103D400029F426E636E646E65FE307C0253031056E
:103D500039F526E636E646EE5FE30E94596620E036
:103D600030E040E852E40E94AB680E94C166609374
:103D7000B40C7093B50C8093B60C9093B70C8EED89
:103D80009EE190935D1280935C121092A00085E0FA
:103D90008093A1008DEF9FEF90935F1280935E124E
:103DA00080915E1290915F129093A5008093A40081
:103DB0008091720081608093720008958091B40CAC
:103DC0009091B50CA091B60CB091B70C18161906CD
:103DD0001A061B06F4F42091FA0C222389F01092A3
:103DE000FA0C0197A109B1098093B40C9093B50C1A
:103DF000A093B60CB093B70C80910201806406C00A
:103E000081E08093FA0C809102018F7B8093020104
:103E100008950E94D6461092B40C1092B50C1092E0
:103E2000B60C1092B70C0895CF93DF93EB01843159
:103E3000D1F028F4882361F08C30A8F437C08233A5
:103E4000E9F018F4873190F10EC0833311F10BC003
:103E50008881882329F06EE873E0CE010E94FF6913
:103E600060E973E020C08881882329F06EE873E060
:103E7000CE010E94FF6963E973E015C08881882341
:103E800029F06EE873E0CE010E94FF6967E973E0F4
:103E90000AC08881882329F06EE873E0CE010E9471
:103EA000FF696BE973E0CE010E94FF698091C70C46
:103EB000882379F067EC7CE0CE010E94FF6982E301
:103EC000E7ECFCE0DF011D928A95E9F7DF91CF91E5
:103ED000089560E473E0CE01DF91CF910C94FF6907
:103EE000E1E0F1E080818062808380818064808372
:103EF000E2E0F1E080818F7D808380818F7B808311
:103F000008953F9A479A08959C9A9D9AA498A59AD5
:103F10000895863308F0865390917B00282F2870EF
:103F2000977F922B90937B008770806480937C00B6
:103F300080917A00806480937A0080917A0086FF75
:103F4000FCCF809178002091790090E0922B089529
:103F50008091040187788093040180910301887720
:103F6000803451F46FE973E08FEB9CE00E940A6AA1
:103F700040E050E0BA010EC080910301887769F4F7
:103F800066EA73E08FEB9CE00E940A6A40E050E032
:103F900060EE70E483E00E946F3D0C94A840CF93E4
:103FA000DF936091C41184E893E00E94795360919B
:103FB000C51185E893E00E94795388E993E0EC010C
:103FC0002196FC01E25DF14F60810E947953CE01A0
:103FD000CC39D340A1F78EE893E0EC012196FC01A7
:103FE000E45CF14F60810E947953CE01C239D34025
:103FF000A1F782E89CE0EC012196FC01E45BFA4F1A
:1040000060810E947953CE01C638DC40A1F7DF9170
:10401000CF910895CF92DF92EF92FF920F931F936B
:10402000CF93DF9369017A01EAE0F1E02081206219
:104030002083EBE0F1E020812F7D2083660F771F46
:1040400070930502609304020EEF11E18CE69EE18D
:10405000F80191838083C0E7D0E088818E7F8883D8
:10406000E0EBF0E080818C7F8083E1EBF0E0808109
:10407000877F8083A6EBB0E08C918F7D8C938881C5
:104080008D7F888380818460808380818C7F808322
:1040900020E034E244EF59E4C701B6010E945966BA
:1040A00020E034E244E75BE40E94AB6820E030E0CB
:1040B00040E85CE30E94AB680E94C16620E031E00A
:1040C000C901861B970BF8019383828382819381B8
:1040D0008093B200888181608883DF91CF911F91A6
:1040E0000F91FF90EF90DF90CF9008958091C411D1
:1040F0009091C51104970297F8F41092B80C1092A1
:10410000B90C1092BA0C1092BB0C809107018F7DF4
:10411000809307018091080180628093080180915B
:10412000020180628093020160E070E084EB93E41E
:1041300001DE81E08093FB1108951092B40C10927F
:10414000B50C1092B60C1092B70C0E94D646109285
:10415000FB110C94D6468F929F92AF92BF92CF9252
:10416000DF92EF92FF926B017C0120E030E044EBA4
:1041700053E40E94706818160CF488C020E030E008
:10418000A901C701B6010E94526687FD7FC08091D8
:10419000C4119091C5110497029790F52091B80C25
:1041A0003091B90C4091BA0C5091BB0CC701B601CB
:1041B0000E9478654B015C01C092B80CD092B90C9A
:1041C000E092BA0CF092BB0C20E030E0A9010E9412
:1041D0007068181624F4809102018F7D03C08091CD
:1041E0000201806280930201C501B4019F77FF90B4
:1041F000EF90DF90CF90BF90AF909F908F909ACD2F
:1042000020E030E044E353E4C701B6010E94706847
:1042100018161CF4C12CD12C7601A701960160E080
:1042200070E084E393E40E94786520E030E044E3AA
:1042300053E40E9459669B01AC010E94796523E317
:1042400033E343E35FE30E94796560930002709378
:104250000102809302029093030220E030E048EADA
:1042600051E40E94596620E030EC4FE754E40E948C
:10427000AB680E94C666CB01FF90EF90DF90CF90B5
:10428000BF90AF909F908F900C942946FF90EF9035
:10429000DF90CF90BF90AF909F908F9008952F9216
:1042A0003F924F925F926F927F928F929F92AF92C6
:1042B000BF92CF92DF92EF92FF920F931F93CF9313
:1042C000DF93CDB7DEB7CA5AD1090FB6F894DEBF77
:1042D0000FBECDBF8A3928E0920709F41AC148F40D
:1042E000843DE7E09E0779F08939984009F451C090
:1042F00049C58C3928E0920709F42FC28D399840BE
:1043000009F428C33FC51A821982CE0101969F93F2
:104310008F9387E592E09F938F937F936F930E9493
:10432000406A0F900F900F900F900F900F901816FB
:1043300019060CF035C389819A819093030D8093FF
:10434000020D91E09093F7118091F90C81111DC538
:1043500023E13EE1309306122093051210922001D2
:1043600085E08093210121EF3FEF309308122093E5
:1043700007122091071230910812309325012093E3
:104380002401809173008160809373009093F90CF5
:10439000FCC48E010B5E1F4F1F930F933E0189E2F9
:1043A000680E711C7F926F922E019DE3490E511C85
:1043B0005F924F921E01E1E52E0E311C3F922F922B
:1043C0008DEA93E09F938F937F936F930E94406A4F
:1043D0000FB6F894DEBF0FBECDBF04970CF4E0C259
:1043E000EF961CAE1DAE1EAE1FAEEF97E5961CAE4F
:1043F0001DAE1EAE1FAEE597AB961CAE1DAE1EAE3B
:104400001FAEAB97A1961CAE1DAE1EAE1FAEA19700
:10441000CE0101967C018CE0F70111928A95E9F7B3
:10442000AE0145585F4F60E070E0C1010E944E4C04
:10443000882309F4AAC4AE014F585F4F60E070E0D2
:10444000C2010E944E4C882309F49FC4AE01495911
:104450005F4F60E070E0C3010E944E4C882309F476
:1044600094C4AE01435A5F4F60E070E0C8010E94FF
:104470004E4C882309F489C420E030E044EB52E438
:10448000E5966CAD7DAD8EAD9FADE5970E947865EC
:1044900021EE3EE245E652E40E9459662B013C01C2
:1044A000E5966CAF7DAF8EAF9FAFE597EF968CAC86
:1044B0009DACAEACBFACEF970E9456669B01AC01C1
:1044C000C501B4010E94AB6869837A838B839C83A6
:1044D000C301B2010E942E699B01AC01C501B40168
:1044E0000E94AB686D837E838F839887AB968CAD7B
:1044F0009DADAEADBFADAB9789879A87AB87BC87C3
:10450000A1962CAD3DAD4EAD5FADA19700E0B701DA
:1045100034C4E5961CAE1DAE1EAE1FAEE597AB963D
:104520001CAE1DAE1EAE1FAEAB979E012F5F3F4F60
:1045300079013F932F938E010B5E1F4F1F930F93B3
:10454000CE0185589F4FCF55DF4F99838883C15A3D
:10455000D0409F938F9386ED93E09F938F937F93AB
:104560006F930E94406A0FB6F894DEBF0FBECDBFB6
:1045700003970CF415C2AE014F585F4F60E070E036
:10458000C8010E944E4C882309F4FFC3AE0149596B
:104590005F4F60E070E0C7010E944E4C882309F431
:1045A000F4C3A1961CAE1DAE1EAE1FAEA1976596BC
:1045B0001CAE1DAE1EAE1FAE659721961CAE1DAE85
:1045C0001EAE1FAE21971E01F9E22F0E311C8CE0AA
:1045D000F10111928A95E9F76091E6117091E71166
:1045E0008091E8119091E9110E94F4662B013C0141
:1045F0006091E2117091E3118091E4119091E511C5
:104600000E94F4669B01AC016091DE117091DF1194
:104610008091E0119091E111C955DF4F2883C75A6D
:10462000D040C855DF4F3883C85AD040C755DF4FF8
:104630004883C95AD040C655DF4F5883CA5AD04024
:104640000E94F466FE01FD964F0174965F013C9650
:104650006F0183017201C955DF4F2881C75AD040CD
:10466000C855DF4F3881C85AD040C755DF4F488101
:10467000C95AD040C655DF4F5881CA5AD0400E940F
:10468000142DED968EAD9FADED978130910569F1BA
:10469000F4F4892B09F091C120E030E044EB52E4BE
:1046A000E5966CAD7DAD8EAD9FADE5970E947865CA
:1046B0007B018C01E5966CAF7DAF8EAF9FAFE59728
:1046C00065962CAD3DAD4EAD5FAD65972DC082308A
:1046D0009105F1F0039709F070C1E5966CAD7DADE1
:1046E0008EAD9FADE59737DD50C32196ECACFDACA8
:1046F0000EAD1FAD219765962CAD3DAD4EAD5FADB6
:104700006597E5966CAD7DAD8EAD9FADE59712C01A
:104710002196ECACFDAC0EAD1FAD2197E5962CAD0E
:104720003DAD4EAD5FADE597A1966CAD7DAD8EAD67
:104730009FADA197FE01F1964F0134975F01610192
:104740000E942F2CA401B501C10128D6AB962CAD37
:104750003DAD4EAD5FADAB970EC38E010B5E1F4FEF
:104760001F930F937E01F9E2EF0EF11CFF92EF927F
:104770003E012DE3620E711C7F926F922E0131E596
:10478000430E511C5F924F928EEE93E09F938F9356
:104790007F936F930E94406A0FB6F894DEBF0FBEFE
:1047A000CDBF04970CF4FCC0EF961CAE1DAE1EAE40
:1047B0001FAEEF97E5961CAE1DAE1EAE1FAEE59781
:1047C000AB961CAE1DAE1EAE1FAEAB97A1961CAE37
:1047D0001DAE1EAE1FAEA197AE0145585F4F60E003
:1047E00070E0C2010E944E4C882309F4CEC2AE0193
:1047F0004F585F4F60E070E0C3010E944E4C882329
:1048000009F4C3C2AE0149595F4F60E070E0C701CF
:104810000E944E4C882309F4B8C2AE01435A5F4F40
:1048200060E070E0C8010E944E4C882309F4ADC2DC
:104830006091E6117091E7118091E8119091E91172
:104840000E94F4662B013C016091E2117091E3112A
:104850008091E4119091E5110E94F4669B01AC01F6
:104860006091DE117091DF118091E0119091E11162
:10487000C955DF4F2883C75AD040C855DF4F38830A
:10488000C85AD040C755DF4F4883C95AD040C65593
:10489000DF4F5883CA5AD0400E94F466FE01399611
:1048A0004F0134975F0134976F0183017201C9553D
:1048B000DF4F2881C75AD040C855DF4F3881C85ACA
:1048C000D040C755DF4F4881C95AD040C655DF4F49
:1048D0005881CA5AD0400E94912DA401B501C60149
:1048E0005DD5EF962CAD3DAD4EAD5FADEF976981D7
:1048F0007A818B819C810E94796569837A838B831D
:104900009C83E5962CAD3DAD4EAD5FADE5976D81D9
:104910007E818F8198850E9479656D837E838F83E8
:104920009887AB962CAD3DAD4EAD5FADAB9769852D
:104930007A858B859C850E94796569877A878B87C4
:104940009C87A1962CAD3DAD4EAD5FADA19700E02B
:10495000B60113C23E01FDE56F0E711C7F926F928E
:104960002E0127E6420E511C5F924F928E010F5886
:104970001F4F1F930F937E013BE7E30EF11CFF9245
:10498000EF928DEA93E09F938F937F936F930E94B2
:10499000406A0FB6F894DEBF0FBECDBF049784F413
:1049A0001F9281E08F9388E192E09F938F930E9402
:1049B00011420F900F900F900F9082E390E0E7C1AB
:1049C000C356DF4F188219821A821B82CD59D040FC
:1049D000C756DF4F188219821A821B82C959D040EC
:1049E000CB56DF4F188219821A821B82C559D040DC
:1049F000CF56DF4F188219821A821B82C159D040CC
:104A00001E01F1E52F0E311C8CE0F10111928A9507
:104A1000E9F7AE0143565F4F60E070E0C7010E94C6
:104A20004E4C882309F4B1C1AE0147565F4F60E098
:104A300070E0C8010E944E4C882309F4A6C1AE0163
:104A40004B565F4F60E070E0C2010E944E4C8823DD
:104A500009F49BC1AE014F565F4F60E070E0C301A7
:104A60000E944E4C882309F490C1C357DF4F18822F
:104A700019821A821B82CD58D040C757DF4F188247
:104A800019821A821B82C958D040CB57DF4F188237
:104A900019821A821B82C558D0406091E61170912C
:104AA000E7118091E8119091E9110E94F4662B01C1
:104AB0003C016091E2117091E3118091E4119091B9
:104AC000E5110E94F4669B01AC016091DE117091CA
:104AD000DF118091E0119091E111C955DF4F2883DA
:104AE000C75AD040C855DF4F3883C85AD040C75541
:104AF000DF4F4883C95AD040C655DF4F5883CA5A42
:104B0000D0400E94F466FE01EB57FF4F4F013496F0
:104B10005F0134966F0183017201C955DF4F28810F
:104B2000C75AD040C855DF4F3881C85AD040C75502
:104B3000DF4F4881C95AD040C655DF4F5881CA5A05
:104B4000D04072D72101F8E04F0E511C310124E012
:104B5000620E711C6091E6117091E7118091E8116D
:104B60009091E9110E94F466CD55DF4F68837983F7
:104B70008A839B83C35AD0406091E2117091E31104
:104B80008091E4119091E5110E94F4669B01AC01C3
:104B90006091DE117091DF118091E0119091E1112F
:104BA000C955DF4F2883C75AD040C855DF4F3883D7
:104BB000C85AD040C755DF4F4883C95AD040C65560
:104BC000DF4F5883CA5AD0400E94F4664201530115
:104BD0006101CD55DF4FE880F9800A811B81C35AFE
:104BE000D040C955DF4F2881C75AD040C855DF4F44
:104BF0003881C85AD040C755DF4F4881C95AD04084
:104C0000C655DF4F5881CA5AD0408BD7A201B30195
:104C1000C101C4D3F1016081718182819381C4801B
:104C2000D580E680F7809B01AC010E94AB684B0108
:104C30005C01A7019601C701B6010E94AB689B0108
:104C4000AC01C501B4010E9479650E943869C35660
:104C5000DF4F288139814A815B81CD59D0400E9444
:104C600079652B013C01C356DF4F688379838A83C2
:104C70009B83CD59D040C756DF4F288139814A8167
:104C80005B81C959D040CB57DF4F688179818A81D8
:104C90009B81C558D0400E94796521EE3EE245E6F1
:104CA00052E40E9459664B015C010E9456669B01CA
:104CB000AC01C301B2010E94AB686B017C01F10140
:104CC0006083718382839383C501B4010E942E693E
:104CD0009B01AC01C301B2010E94AB68F101648386
:104CE000758386839783CB56DF4F288139814A812C
:104CF0005B81C559D04060857185828593850E940E
:104D00007965F10160877187828793878E01035CE3
:104D10001F4F24E045E0C701B6010E94E662F101A1
:104D200064817581868197810451110924E045E0F1
:104D30000E94E662F1016085718582859385045148
:104D4000110924E045E00E94E662C356DF4F688106
:104D500079818A819B81CD59D0400451110924E089
:104D600045E00E94E662CF56DF4F288139814A81B3
:104D70005B81C159D04000E0B10180E00E943C4D10
:104D800090E005C081E090E002C080E090E0C65570
:104D9000DF4F0FB6F894DEBF0FBECDBFDF91CF91CE
:104DA0001F910F91FF90EF90DF90CF90BF90AF9049
:104DB0009F908F907F906F905F904F903F902F903B
:104DC00008958091C4119091C5110497029780F4C1
:104DD00080910101806280930101809101018064D2
:104DE0008093010180910201806280930201089505
:104DF00080E18093A1001092A00082E08093621273
:104E000080E29EE490936112809360129093A700D9
:104E10008093A60082E18093A10020E030E048EA80
:104E200051E4609100027091010280910202909120
:104E300003020E94596620E030EC4FE754E40E94E0
:104E4000AB680E94C666CB010C942946CF93DF93D2
:104E5000D82FC8E05E98559AD7FF02C05D9A01C06E
:104E60005D9865E070E080E090E00E94054C5E9AFD
:104E700065E070E080E090E00E94054C5E98DD0FF8
:104E800065E070E080E090E00E94054CC15011F7B1
:104E900062E070E080E090E00E94054C559A5D9AD7
:104EA00062E070E080E090E0DF91CF910C94054CDF
:104EB0005E98559A5D9865E070E080E090E00E9411
:104EC000054C5E9A65E070E080E090E00E94054C41
:104ED000559A5D9A65E070E080E090E00C94054C96
:104EE000CF93559A5D9A62E070E080E090E00E9476
:104EF000054C5E9A62E070E080E090E00E94054C14
:104F000055989BEF89B1C82FC07285FF05C091509D
:104F1000C9F7CEDFC1E007C05E9862E070E080E0D4
:104F200090E00E94054C8C2FCF910895559A5D9A80
:104F30005E9A65E070E080E090E00E94054C559A32
:104F40005D9865E070E080E090E00E94054C5E981E
:104F500062E070E080E090E00C94054CCF93DF932A
:104F6000D82FC8E0809102018F7780930201809151
:104F7000010184608093010180910201D7FF02C08A
:104F8000846001C08B7F8093020165E070E080E067
:104F900090E00E94054C809102018068809302019C
:104FA00065E070E080E090E00E94054C8091020195
:104FB0008F7780930201DD0F65E070E080E090E084
:104FC0000E94054CC15071F662E070E080E090E014
:104FD0000E94054C809101018460809301018091C1
:104FE000020184608093020162E070E080E090E062
:104FF000DF91CF910C94054C0F931F93CF93DF93C8
:10500000C2E0D1E088818F77888301E011E0F80168
:1050100080818460808388818B7F888365E070E0F5
:1050200080E090E00E94054C88818068888365E07C
:1050300070E080E090E00E94054CF801808184607F
:10504000808388818460888365E070E080E090E000
:10505000DF91CF911F910F910C94054CCF938091CC
:10506000010184608093010180910201846080933A
:10507000020162E070E080E090E00E94054C8091C7
:10508000020180688093020162E070E080E090E0BD
:105090000E94054C809101018B7F809301019BEF61
:1050A00080910001C82FC47082FF05C09150C1F7E4
:1050B000A3DFC1E00BC0909102019F7790930201A2
:1050C00062E070E080E090E00E94054C8C2FCF9170
:1050D00008950F931F93CF93DF9301E011E0F80140
:1050E000808184608083C2E0D1E08881846088838D
:1050F00088818068888365E070E080E090E00E94AD
:10510000054CF80180818460808388818B7F88834F
:1051100065E070E080E090E00E94054C88818F7728
:10512000888362E070E080E090E0DF91CF911F9192
:105130000F910C94054CCF93DF93D82FC8E0439880
:10514000399AD7FF02C0419A01C0419865E070E0EA
:1051500080E090E00E94054C439A65E070E080E0BA
:1051600090E00E94054C4398DD0F65E070E080E020
:1051700090E00E94054CC15011F762E070E080E0C1
:1051800090E00E94054C399A419A62E070E080E01C
:1051900090E0DF91CF910C94054C4398399A419857
:1051A00065E070E080E090E00E94054C439A65E085
:1051B00070E080E090E00E94054C399A419A65E0E9
:1051C00070E080E090E00C94054CCF93399A419ABE
:1051D00062E070E080E090E00E94054C439A62E05B
:1051E00070E080E090E00E94054C39989BEF86B11A
:1051F000C82FC27081FF05C09150C9F7CEDFC1E052
:1052000007C0439862E070E080E090E00E94054CA7
:105210008C2FCF910895399A419A439A65E070E0B6
:1052200080E090E00E94054C399A419865E070E07A
:1052300080E090E00E94054C439862E070E080E0DE
:1052400090E00C94054C4F925F926F927F92AF92D8
:10525000BF92CF92DF92EF92FF920F931F93CF9363
:10526000DF935C01EB018A01FC0140805180628088
:10527000738020E030E0A901C301B2010E945266B0
:1052800020E030E0A901811111C0688179818A8113
:105290009B810E9470681816E4F02AEDC22E2FE060
:1052A000D22E29ECE22E2FEBF22E22C0C301B20146
:1052B0000E94526687FD16C0A30192016881798120
:1052C0008A819B810E9459660E9417666B017C014E
:1052D0000FC09AEDC92E9FE0D92E99ECE92E9FE3DD
:1052E000F92E06C0C12CD12C80ECE82E8FE7F82EC9
:1052F000C701B6010E9456662091C6113091C711B0
:105300004091C8115091C9110E94AB689B01AC013A
:10531000C301B2010E947865F501608371838283C5
:105320009383C701B6010E942E692091C611309166
:10533000C7114091C8115091C9110E94AB689B01DF
:10534000AC01688179818A819B810E94786568833C
:1053500079838A839B832091CA113091CB1140912C
:10536000CC115091CD11F8016081718182819381BE
:105370000E947965F8016083718382839383DF9152
:10538000CF911F910F91FF90EF90DF90CF90BF9042
:10539000AF907F906F905F904F9008954F925F9283
:1053A0006F927F92AF92BF92CF92DF92EF92FF9275
:1053B0000F931F93CF93DF935C01EB018A01FC01F4
:1053C000408051806280738020E030E0A901C301F9
:1053D000B2010E94526620E030E0A901811111C0A3
:1053E000688179818A819B810E9470681816E4F037
:1053F0002AEDC22E2FE0D22E29ECE22E2FEBF22E38
:1054000022C0C301B2010E94526687FD16C0A301EB
:105410009201688179818A819B810E9459660E94EC
:1054200017666B017C010FC09AEDC92E9FE0D92E43
:1054300099ECE92E9FE3F92E06C0C12CD12C80EC0B
:10544000E82E8FE7F82EC701B6010E94566620911C
:10545000C6113091C7114091C8115091C9110E94D5
:10546000AB689B01AC01C301B2010E947965F501F3
:105470006083718382839383C701B6010E942E6982
:105480002091C6113091C7114091C8115091C91196
:105490000E94AB689B01AC01688179818A819B8104
:1054A0000E947965688379838A839B832091CA11DE
:1054B0003091CB114091CC115091CD11F801608108
:1054C0007181828193810E947865F8016083718384
:1054D00082839383DF91CF911F910F91FF90EF9083
:1054E000DF90CF90BF90AF907F906F905F904F9084
:1054F00008952F923F924F925F926F927F928F9278
:105500009F92AF92BF92CF92DF92EF92FF920F9352
:105510001F93CF93DF93CDB7DEB766970FB6F8949E
:10552000DEBF0FBECDBF69837A838B839C832D83BF
:105530003E834F835887270138011601BA8AA98A0A
:1055400084019B01AC010E94AB686B017C012D8141
:105550003E814F815885CA01B9010E94AB689B0109
:10556000AC01C701B6010E9479650E94386923E346
:1055700033E343E551E40E94786569877A878B8736
:105580009C872DEC3CEC46ED52E4C301B2010E9435
:1055900078652B013C0129853A854B855C85CA01DC
:1055A000B9010E94AB686B017C01A3019201C301A8
:1055B000B2010E94AB689B01AC01C701B6010E9419
:1055C00079656B017C0124ED35E64DE955E40E94D7
:1055D00078654B015C0126EC3FEA4DE957E4C701D1
:1055E000B6010E94AB686D877E878F87988BA50177
:1055F0009401C501B4010E94AB689B01AC016D85AB
:105600007E858F8598890E9478650E9438696B8BAA
:105610007C8B8D8B9E8BA7019601C701B6010E94E2
:1056200079656D877E878F87988BA5019401698541
:105630007A858B859C850E94AB684B015C012B8928
:105640003C894D895E89C301B2010E94AB689B0110
:10565000AC01C501B4010E9478654B015C012CEEE0
:1056600031E14EE053E46D857E858F8598890E94F7
:10567000AB689B01AC01C501B4010E9459660E9450
:105680006A6521EE3EE245E652E40E94AB68F10114
:10569000608371838283938324ED35E64DE955E47D
:1056A000C701B6010E9479654B015C012BE339E02B
:1056B00045EC57E4C701B6010E94AB686B017C0161
:1056C000A5019401C501B4010E94AB689B01AC0126
:1056D000C701B6010E9478650E9438696B017C01A0
:1056E000A501940169857A858B859C850E94AB68AC
:1056F0004B015C01A7019601C301B2010E94AB6896
:105700009B01AC01C501B4010E9479656B017C016C
:105710002CE53FEC4EE153E46D857E858F859889BD
:105720000E94AB689B01AC01C701B6010E9459669B
:105730000E946A6521EE3EE245E652E40E94AB68B3
:105740006B017C01E989FA89608371838283938389
:1057500021EE3EE245E652E4F101608171818281F1
:1057600093810E9459660E942E692CEE31E14EE031
:1057700053E40E94AB689B01AC01C301B2010E94DB
:105780007068181654F4F7FAF094F7F8F094E98971
:10579000FA89C082D182E282F38220E030E0A9015E
:1057A00069817A818B819C810E94526620E030E081
:1057B000A901811112C06D817E818F8198850E941F
:1057C000706818162CF480E090E0A4EBB2E411C0ED
:1057D00080E090E0A4EBB2EC0CC069817A818B810F
:1057E0009C810E94526687FF0AC080E090E0A0EC96
:1057F000BFE7F80180839183A283B38317C0298117
:105800003A814B815C816D817E818F8198850E9478
:1058100059660E94176621EE3EE245E652E40E9478
:10582000AB68F801608371838283938366960FB6B9
:10583000F894DEBF0FBECDBFDF91CF911F910F91C6
:10584000FF90EF90DF90CF90BF90AF909F908F90A0
:105850007F906F905F904F903F902F9008952F9280
:105860003F924F925F926F927F928F929F92AF92F0
:10587000BF92CF92DF92EF92FF920F931F93CF933D
:10588000DF93CDB7DEB72E970FB6F894DEBF0FBE0D
:10589000CDBF29833A834B835C83ED82FE820F83E5
:1058A0001887860115019E868D8621EE3EE245E62B
:1058B00052E40E9459662B013C0121EE3EE245E68E
:1058C00052E469817A818B819C810E9459664B01E7
:1058D0005C0121EE3EE245E652E46D817E818F81DE
:1058E00098850E9459666B017C01C301B2010E9438
:1058F000566669837A838B839C83C501B4010E94B9
:1059000056666D837E838F839887C301B2010E94A0
:105910002E692B013C01C501B4010E942E696987E3
:105920007A878B879C872CEE31E14EE053E46981C6
:105930007A818B819C810E94AB684B015C012CE5D4
:105940003FEC4EE153E46D817E818F8198850E940A
:10595000AB689B01AC01C501B4010E94796523E3EA
:1059600033E343E551E40E9479654B015C01C701D3
:10597000B6010E9456669B01AC01C501B4010E94AC
:10598000AB68F8016083718382839383C701B6019A
:105990000E942E699B01AC01C501B4010E94AB6855
:1059A000F10160837183828393832CEE31E14EE0B9
:1059B00053E4C301B2010E94AB686B017C012CE58A
:1059C0003FEC4EE153E469857A858B859C850E9486
:1059D000AB689B01AC01C701B6010E9478652DEC54
:1059E0003CEC46ED52E40E947965ED85FE856083CE
:1059F0007183828393832E960FB6F894DEBF0FBE19
:105A0000CDBFDF91CF911F910F91FF90EF90DF906D
:105A1000CF90BF90AF909F908F907F906F905F904E
:105A20004F903F902F9008954F925F926F927F9288
:105A30008F929F92AF92BF92CF92DF92EF92FF929E
:105A40000F931F93CF93DF9300D01F92CDB7DEB794
:105A500029013A01E982FA820B831C8304EC11E1EB
:105A600020E030E040E253E40E9459669B01AC0123
:105A7000F80166857785808991890E947965F601AC
:105A8000608371838283938320E030E040E253E4BB
:105A9000C301B2010E9459669B01AC01F801628901
:105AA0007389848995890E947965F5016083718382
:105AB0008283938320E030E044EB52E4F80166896E
:105AC0007789808D918D0E9478652B013C0120E0C3
:105AD00030E040E253E469817A818B819C810E94AD
