:100000006DC500008CC500008AC5000088C50000D1
:1000100086C5000084C5000082C5000080C50000C0
:100020007EC500000C9473607AC500000C941A56CB
:1000300076C5000074C5000072C500000C94F54D33
:100040006EC500000C94AE456AC5000068C500008E
:1000500066C5000064C5000062C500000C94DB4466
:100060005EC500000C94BE590C94AD5A58C50000F2
:1000700056C5000054C5000052C5000050C5000020
:100080004EC500004CC500004AC500000C94DF4D71
:100090000C9457590C947F5A42C5000040C500008B
:1000A0003EC500003CC500000C943D4838C500002A
:1000B00036C500000C94A44D32C5000030C50000C8
:1000C0002EC500002CC500000C946F4D0C94F05808
:1000D0000C94515A24C500000C9489580C94235A4E
:1000E0001EC50000CF13D213E813EB13EE13F11368
:1000F000F413C314031F031FD114E614FB141015CB
:10010000031F1915031F2C15031F3B154515A515B6
:10011000031F031F031F5C1576159015D21DE21DEA
:10012000111EE21D151E2C1E1B1E251E501E571EC5
:10013000621E6D1E8C1E8E1E911E931E46275F270B
:1001400078279127A927CA27E2271028E74CEA4CED
:10015000D94CDD4CE34C214DEE4CF24CF84CFC4CB0
:10016000004D064D0A4D0E4D214D144D184D1C4DA0
:10017000BE56C456C756CA56CF56D756DF564C57EA
:100180004C574C57E756EA56F356FC564C574C57CB
:100190004C574C574C574C5704570E571A57245727
:1001A0002757305739573F57084AD73B3BCE016E48
:1001B00084BCBFFDC12F3D6C74319ABD56833DDABE
:1001C0003D00C77F11BED9E4BB4C3E916BAAAABECD
:1001D000000000803F072C7AA5BA6CC590DA3B93EB
:1001E00065FC8BBC53F810FD3C5692834DBD879D3A
:1001F0003AB63DCBC9BF5BBE73DA0FC93F05A84C09
:10020000CDB2D44EB93836A9020C50B991868808BF
:100210003CA6AAAA2ABE000000803F0000407A1037
:10022000F35A00A0724E18090010A5D4E80000E8A7
:100230007648170000E40B54020000CA9A3B000005
:1002400000E1F505000080969800000040420F0094
:100250000000A08601000000102700000000E80355
:10026000000000006400000000000A000000000020
:100270000100000000002C76D888DC674F0823DFDF
:10028000C1DFAE59E1B1B796E5E3E453C63AE651B2
:10029000997696E8E6C28426EB898C9B62ED407CD9
:1002A0006FFCEFBC9C9F40F2BAA56FA5F490055A75
:1002B0002AF75C936B6CF9676DC11BFCE0E40D479A
:1002C000FEF520E6B500D0ED902E030094357705BD
:1002D0000080841E080000204E0A000000C80C3375
:1002E0003333330F986E12831141EF8D2114893B04
:1002F000E65516CFFEE6DB18D1844B381BF77C1D84
:10030000901DA4BBE424203284725E228100C9F1D6
:1003100024ECA1E53D276364696E6F7073757858AE
:100320005B00000020002300260029002C002F0085
:100330003200000100000301060109010D0A003D21
:1003400000244E005D0D0A005B302E396A2E3230DB
:100350003136303732363A005D0D0A005B544C4F6F
:100360003A005D0D0A002C005B4739323A005D0D02
:100370000A002C003A003330003238005B47005D41
:100380000D0A00205300204600205400204D380064
:10039000204D3900204D3500204D3400204D3300D4
:1003A000204D3200204D3100204D3000204739349F
:1003B00000204739330020473931002047393000C9
:1003C00020473230002047323100204731390020A9
:1003D0004731380020473137002047004733382E57
:1003E000004738300047330047320047310047307C
:1003F000005B00290D0A00206D617820747261761F
:10040000656C2C206D6D0020616363656C2C206D24
:100410006D2F7365635E3200206D617820726174A8
:10042000652C206D6D2F6D696E002C2073746570C6
:100430002F6D6D007A00790078002028003D00249F
:10044000002028686F6D696E672070756C6C2D6F69
:1004500066662C206D6D290D0A002028686F6D6975
:100460006E67206465626F756E63652C206D7365C1
:1004700063290D0A2432373D002028686F6D696EAC
:1004800067207365656B2C206D6D2F6D696E290D6E
:100490000A2432363D002028686F6D696E67206639
:1004A0006565642C206D6D2F6D696E290D0A2432EF
:1004B000353D00290D0A2432343D002028686F6D37
:1004C000696E672064697220696E76657274206D4A
:1004D00061736B3A002028686F6D696E67206379DD
:1004E000636C652C20626F6F6C290D0A2432333DDA
:1004F00000202868617264206C696D6974732C2017
:10050000626F6F6C290D0A2432323D002028736F10
:100510006674206C696D6974732C20626F6F6C292E
:100520000D0A2432313D0020287265706F727420EC
:10053000696E636865732C20626F6F6C290D0A24E5
:1005400032303D00202861726320746F6C657261E7
:100550006E63652C206D6D290D0A2431333D00201A
:10056000286A756E6374696F6E206465766961745C
:10057000696F6E2C206D6D290D0A2431323D0029E2
:100580000D0A2431313D0020287374617475732085
:100590007265706F7274206D61736B3A0020287001
:1005A000726F62652070696E20696E766572742C58
:1005B00020626F6F6C290D0A2431303D0020286CB9
:1005C000696D69742070696E7320696E76657274E6
:1005D0002C20626F6F6C290D0A24363D0020287391
:1005E00074657020656E61626C6520696E766572F7
:1005F000742C20626F6F6C290D0A24353D00290D83
:100600000A24343D00202864697220706F727420BF
:10061000696E76657274206D61736B3A00290D0AFC
:1006200024333D0020287374657020706F7274202D
:10063000696E76657274206D61736B3A0020287361
:100640007465702069646C652064656C61792C2028
:100650006D736563290D0A24323D0020287374658B
:10066000702070756C73652C2075736563290D0A95
:1006700024313D0024303D0024242028766965770C
:10068000204772626C2073657474696E6773290DFC
:100690000A242320287669657720232070617261FF
:1006A0006D6574657273290D0A2447202876696583
:1006B0007720706172736572207374617465290D9F
:1006C0000A2449202876696577206275696C642060
:1006D000696E666F290D0A244E2028766965772099
:1006E0007374617274757020626C6F636B73290D23
:1006F0000A24783D76616C756520287361766520E3
:100700004772626C2073657474696E67290D0A24E0
:100710004E783D6C696E6520287361766520737430
:10072000617274757020626C6F636B290D0A2443CB
:100730002028636865636B2067636F6465206D6F55
:100740006465290D0A245820286B696C6C20616C43
:1007500061726D206C6F636B290D0A24482028722A
:10076000756E20686F6D696E67206379636C6529AB
:100770000D0A7E20286379636C652073746172743E
:10078000290D0A2120286665656420686F6C64293C
:100790000D0A3F202863757272656E742073746150
:1007A000747573290D0A6374726C2D782028726534
:1007B000736574204772626C290D0A0000002100E5
:1007C000240027002A002D00300033000101000022
:1007D000040107010A010D0A00486F6D696E672068
:1007E0006661696C0050726F6265206661696C00B9
:1007F00041626F727420647572696E6720637963F9
:100800006C6500536F6674206C696D697400486193
:100810007264206C696D697400414C41524D3A20FC
:10082000003E0D0A002C4C696D3A002C52583A00DB
:100830002C4275663A002C002C57506F733A002CEE
:10084000002C4D506F733A003C446F6F72003C4374
:100850006865636B003C416C61726D003C486F6D74
:1008600065003C486F6C64003C52756E003C496406
:100870006C65005D0D0A00526573746F72696E6776
:100880002064656661756C74730050676D20456EF9
:100890006400436865636B20446F6F720044697342
:1008A00061626C656400456E61626C656400436101
:1008B0007574696F6E3A20556E6C6F636B6564007A
:1008C000272448277C2724582720746F20756E6CB6
:1008D0006F636B00526573657420746F20636F6E75
:1008E00074696E7565005B00000022002500280019
:1008F0002B002E0031003400020100000501080128
:100900000B01050505050705080808080202020293
:100910000A0A08080404040401010101010101019B
:100920000303030303030303040707070C0C0C0C66
:100930000C0C0C0C0202020206060606060606064F
:100940000B0B0B0B0B0B0B0B0102102020080810DC
:10095000204010204080020102010804020101022F
:100960000408102040808040201008040201800408
:100970000201804020100804020108040201010263
:10098000040810204080010204081020408000006C
:100990000A0B02090C0D0E080703040100000000F9
:1009A0000000000000000000000000000000000047
:1009B0000000000000000000000012111000000004
:1009C0000000000000000000000000000000000027
:1009D000000000005D0D0A003A002C005B505242FE
:1009E0003A000D0A00496E76616C69642067636F96
:1009F00064652049443A00556E646566696E6564B5
:100A000020666565642072617465004D6F64616C79
:100A10002067726F75702076696F6C6174696F6E94
:100A200000486F6D696E67206E6F7420656E61623D
:100A30006C656400416C61726D206C6F636B004E7D
:100A40006F742069646C6500454550524F4D2072AB
:100A5000656164206661696C2E205573696E67203C
:100A600064656661756C74730056616C7565203CD5
:100A7000203320757365630053657474696E672055
:100A800064697361626C65640056616C7565203CD5
:100A9000203000496E76616C6964207374617465FE
:100AA0006D656E7400426164206E756D62657220C2
:100AB000666F726D6174004578706563746564205B
:100AC000636F6D6D616E64206C6574746572006532
:100AD00072726F723A20006F6B0D0A0011241FBEF4
:100AE000CFEFD1E2DEBFCDBF00E00CBF14E0A0E04D
:100AF000B2E0ECE6F0E001E00BBF02C007900D921F
:100B0000A43EB107D9F725E1A4EEB4E001C01D92DF
:100B1000A83FB207E1F70E9462630C94348070CA68
:100B20002F923F924F925F926F927F928F929F92FD
:100B3000AF92BF92CF92DF92EF92FF920F931F93EB
:100B4000CF93DF93CDB7DEB7CE5CD1090FB6F89463
:100B5000DEBF0FBECDBFC754DF4F99838883C95B0B
:100B6000D04089E3EAE7F4E1DF011D928A95E9F7D5
:100B70008AE0E3EBF4E1ABE7B4E101900D928A95F2
:100B8000E1F7FE01E756FF4F1082CD54DF4F198287
:100B90001882C35BD040C155DF4F19821882CF5AEB
:100BA000D040C554DF4F1882CB5BD040C655DF4FD5
:100BB0001882CA5AD040C255DF4F1882CE5AD04050
:100BC000E859F1093F019E01235A3F4FC456DF4FB8
:100BD00039832883CC59D0402E0131E5430E511C76
:100BE000CE0189599F4FC256DF4F99838883CE59D2
:100BF000D040DE01AF58BF4FC056DF4FB983A88346
:100C0000C05AD040E85AFF4FCD53DF4FF983E883F5
:100C1000C35CD040C756DF4F8881C959D040C75404
:100C2000DF4FE881F981C95BD040E80FF11D1081E9
:100C3000112311F40C9408169FEB910F9A3110F0C8
:100C40000C94F51E8F5FC756DF4F8883C959D0407B
:100C5000AE014B565F4FBE0167567F4FC754DF4F03
:100C600088819981C95BD0400E94C03A882311F4E1
:100C70000C94F71ECB56DF4FC880D980EA80FB80EA
:100C8000C559D040C701B6010E9417790E948476E9
:100C9000CB54DF4F688379838A839B83C55BD040C5
:100CA000CB54DF4F28803980C55BD040B10180E054
:100CB00090E00E94B0769B01AC01C701B6010E9492
:100CC000367520E030E048EC52E40E9469784B0130
:100CD0005C0120E030E0A9010E942E7820E030E0A5
:100CE00040E05FE387FD05C0C501B4010E94377590
:100CF00004C0C501B4010E9436750E947F76CA55B2
:100D0000DF4F79836883C65AD0401D3411F40C94A8
:100D1000080F24F4173461F00C94B014103511F45A
:100D20000C94A40F133511F40C9436140C94B014D5
:100D3000C756DF4F8881C959D040C754DF4F28813B
:100D40003981C95BD040280F311DC9013AE923160A
:100D500038E0330609F4F6C058F4B4ED2B16B7E0CA
:100D60003B06C9F0E9E92E16E8E03E06E1F1A0C530
:100D7000FDE92F16F8E03F0609F406C32EE9221616
:100D800028E0320609F4E4C43CE9231638E03306CF
:100D900009F08EC50DC21A8219827F926F922EE6DB
:100DA00034E03F932F939F938F930E94087A0F9084
:100DB0000F900F900F900F900F90181619060CF0CF
:100DC000E9C489819A819093A30F8093A20F11E0C7
:100DD0001093CD0D80914F0D8111F6C40E94C82E45
:100DE00010934F0DF1C48E010B5E1F4F1F930F9395
:100DF0009E01275D3F4F3F932F937E01ADE3EA0EA7
:100E0000F11CFF92EF925F924F922DE132E03F93FF
:100E10002F939F938F930E94087A0FB6F894DEBFAA
:100E20000FBECDBF04970CF4B5C4EF961CAE1DAE3B
:100E30001EAE1FAEEF97E5961CAE1DAE1EAE1FAEEA
:100E4000E597AB961CAE1DAE1EAE1FAEAB97A1963E
:100E50001CAE1DAE1EAE1FAEA1978CE0D3011D923D
:100E60008A95E9F7AE0145585F4F60E070E0C20136
:100E70000E94C03A882309F4A7C4AE014F585F4FBF
:100E800060E070E0C7010E94C03A882309F49CC466
:100E9000AE0149595F4F60E070E0CE0189960E9433
:100EA000C03A882309F490C4AE01435A5F4F60E012
:100EB00070E0C8010E94C03A882309F485C420E08C
:100EC00030E044EB52E4E5966CAD7DAD8EAD9FAD68
:100ED000E5970E94367521EE3EE245E652E40E9417
:100EE00017766B017C01E5966CAF7DAF8EAF9FAF3F
:100EF000E5970E941476EF968CAC9DACAEACBFAC7F
:100F0000EF97A50194010E94697869837A838B83A6
:100F10009C83C701B6010E94CC789B01AC01C5013E
:100F2000B4010E9469786D837E838F839887AB9626
:100F30008CAD9DADAEADBFADAB9789879A87AB87C2
:100F4000BC8719C2F201108211821282138221968B
:100F50001CAE1DAE1EAE1FAE21977F926F928E010A
:100F60000B5E1F4F1F930F93C356DF4FF881CD5970
:100F7000D040FF93C456DF4F2881CC59D0402F93E7
:100F800026E432E03F932F939F938F930E94087A39
:100F90000FB6F894DEBF0FBECDBF03970CF4FAC3B3
:100FA000A20160E070E0C8010E94C03A882309F401
:100FB0000BC4AE01435C5F4F60E070E0C3010E9470
:100FC000C03A882309F400C4FE01B996C656DF4F23
:100FD000F983E883CA59D0408CE011928A95E9F7E9
:100FE0006091B40D7091B50D8091B60D9091B70DD3
:100FF0000E94B27620E030E040EA52E40E94177688
:101000002091A80D3091A90D4091AA0D5091AB0DE2
:101010000E943775CE55DF4F688379838A839B831F
:10102000C25AD0406091B80D7091B90D8091BA0D3F
:101030009091BB0D0E94B27620E030E040EA52E48D
:101040000E9417762091AC0D3091AD0D4091AE0D00
:101050005091AF0D0E943775C154DF4F688379837B
:101060008A839B83CF5BD0406091BC0D7091BD0D96
:101070008091BE0D9091BF0D0E94B27620E030E0CD
:1010800040EA52E40E9417766B017C0120E030E0D8
:1010900044EB52E46091B00D7091B10D8091B20DAE
:1010A0009091B30D0E9436759B01AC01C701B6014A
:1010B0000E9437757B018C016F968EAD9FAD6F9747
:1010C00081309105B9F144F5892B09F070C320E016
:1010D00030E044EB52E4D2016D917D918D919C9171
:1010E0000E943675F20160837183828393839E012F
:1010F0002F5C3F4F4901DE019D965D01FE01B996CF
:101100006F017B018C01C154DF4F288139814A81F5
:101110005B81CF5BD04034C08230910519F10397D9
:1011200009F045C3D2016D917D918D919C910E94F2
:10113000A32F4AC3D2016D917D918D919C91FE01A7
:10114000F1964F019E01235D3F4F5901DE019996B3
:101150006D01C154DF4F288139814A815B81CF5BAA
:10116000D04016C0F2012081318142815381CE01ED
:10117000C1964C01DE019D965D01FE01B9966F019D
:10118000CE55DF4F688179818A819B81C25AD040D8
:101190000E946F52A401B501C6010E94E04F219642
:1011A0002CAD3DAD4EAD5FAD219700E0B6017BC3E8
:1011B0008E010B5E1F4F1F930F937E01B9E2EB0E62
:1011C000F11CFF92EF926E01EDE3CE0ED11CDF9287
:1011D000CF925F924F922EE532E03F932F939F93F1
:1011E0008F930E94087A0FB6F894DEBF0FBECDBF72
:1011F00004970CF4CFC2EF961CAE1DAE1EAE1FAE10
:10120000EF97E5961CAE1DAE1EAE1FAEE597AB96F2
:101210001CAE1DAE1EAE1FAEAB97A1961CAE1DAE92
:101220001EAE1FAEA197AE0145585F4F60E070E063
:10123000C2010E94C03A882309F4C6C2AE014F58C9
:101240005F4F60E070E0C6010E94C03A882309F455
:10125000BBC2AE0149595F4F60E070E0C7010E9418
:10126000C03A882309F4B0C2AE01435A5F4F60E030
:1012700070E0C8010E94C03A882309F4A5C26091B9
:10128000BC0D7091BD0D8091BE0D9091BF0D0E945F
:10129000B276CE55DF4F688379838A839B83C25AA7
:1012A000D0406091B80D7091B90D8091BA0D9091B8
:1012B000BB0D0E94B276C154DF4F688379838A8365
:1012C0009B83CF5BD0406091B40D7091B50D809140
:1012D000B60D9091B70D0E94B276DE0119964D01C0
:1012E000FE0135965F016301CE55DF4FE880F9803E
:1012F0000A811B81C25AD040C154DF4F28813981F5
:101300004A815B81CF5BD0400E945453A401B50158
:10131000C3010E94E04FEF962CAD3DAD4EAD5FADE9
:10132000EF9769817A818B819C810E9437756983EF
:101330007A838B839C83E5962CAD3DAD4EAD5FAD3E
:10134000E5976D817E818F8198850E9437756D83C9
:101350007E838F839887AB962CAD3DAD4EAD5FAD50
:10136000AB9769857A858B859C850E9437756987DF
:101370007A878B879C87A1962CAD3DAD4EAD5FAD36
:10138000A19700E0B301E2C1C356DF4FF881CD5908
:10139000D040FF93C456DF4F2881CC59D0402F93C3
:1013A000C156DF4F3881CF59D0403F93C256DF4FEF
:1013B000A881CE59D040AF93CF55DF4FB881C15AE5
:1013C000D040BF93C056DF4FE881C05AD040EF9362
:1013D0008E0105581F4F1F930F932DE132E03F936D
:1013E0002F939F938F930E94087A0FB6F894DEBFD5
:1013F0000FBECDBF04970CF4CDC1CF56DF4F18827E
:1014000019821A821B82C159D040C357DF4F1882FC
:1014100019821A821B82CD58D040C757DF4F1882DD
:1014200019821A821B82C958D040CB57DF4F1882CD
:1014300019821A821B82C558D0408CE0D2011D92BD
:101440008A95E9F7AE014F565F4F60E070E0C80142
:101450000E94C03A882309F4B7C1AE0143575F4FD9
:1014600060E070E0CE018F589F4F0E94C03A882301
:1014700009F4AAC1AE0147575F4F60E070E0CE01AA
:1014800089599F4F0E94C03A882309F49DC1AE013B
:101490004B575F4F60E070E0CE01835A9F4F0E9430
:1014A000C03A882309F490C16091BC0D7091BD0DC4
:1014B0008091BE0D9091BF0D0E94B276C154DF4F56
:1014C000688379838A839B83CF5BD04020E030E0C0
:1014D00044EB52E46091B00D7091B10D8091B20D6A
:1014E0009091B30D0E9436756B017C0120E030E0D5
:1014F00040EA52E4C154DF4F688179818A819B813F
:10150000CF5BD0400E9417769B01AC01C701B601AA
:101510000E943775C953DF4F688379838A839B8321
:10152000C75CD0406091B80D7091B90D8091BA0D33
:101530009091BB0D0E94B276C553DF4F68837983CB
:101540008A839B83CB5CD0406091B40D7091B50DC4
:101550008091B60D9091B70D0E94B276CD53DF4FBA
:1015600088809980C35CD040F2013496CE55DF4F1D
:10157000F983E883C25AD0405F016201C154DF4F52
:10158000E880F9800A811B81CF5BD040C553DF4FD3
:10159000288139814A815B81CB5CD0400E945453C1
:1015A000CD53DF4F48815981C35CD040CE55DF4FCA
:1015B00068817981C25AD040C2010E94E04FD201B5
:1015C0006D917D918D919C9113971496CD90DD90A6
:1015D000ED90FC9017979B01AC010E9469784B013C
:1015E0005C01A7019601C701B6010E9469789B01C1
:1015F000AC01C501B4010E9437750E94D678CF5660
:10160000DF4F288139814A815B81C159D0400E94D6
:1016100037756B017C01CF56DF4F688379838A83EE
:101620009B83C159D040C357DF4F288139814A81FC
:101630005B81CD58D040C953DF4F688179818A8161
:101640009B81C75CD0400E94377521EE3EE245E6A3
:1016500052E40E941776CE55DF4F688379838A83E0
:101660009B83C25AD0400E9414769B01AC01C701F3
:10167000B6010E9469784B015C01F20160837183BD
:1016800082839383CE55DF4F688179818A819B81E4
:10169000C25AD0400E94CC789B01AC01C701B60170
:1016A0000E946978D20114966D937D938D939C93DB
:1016B0001797C757DF4F288139814A815B81C95805
:1016C000D04018966D917D918D919C911B970E94B1
:1016D0003775F20160877187828793878E01035C7B
:1016E0001F4F24E045E0C501B4010E94BB72D20146
:1016F00014966D917D918D919C91179704511109CC
:1017000024E045E00E94BB72F2016085718582850C
:1017100093850451110924E045E00E94BB72CF5625
:10172000DF4F688179818A819B81C159D0408301D3
:1017300024E045E00E94BB72CB57DF4F28813981FE
:101740004A815B81C558D04000E0B20181E0ACC065
:101750007F926F928E010B5E1F4F1F930F937E013E
:10176000F9E2EF0EF11CFF92EF926E012DE3C20E33
:10177000D11CDF92CF9227E832E03F932F939F93C3
:101780008F930E94087A0FB6F894DEBF0FBECDBFCC
:10179000049784F41F9281E08F9381E192E09F93FC
:1017A0008F930E941B330F900F900F900F9082E346
:1017B00090E080C0AE0145585F4F60E070E0C60128
:1017C0000E94C03A811103C080E090E073C0AE0176
:1017D0004F585F4F60E070E0C7010E94C03A882315
:1017E00099F3AE0149595F4F60E070E0C8010E9473
:1017F000C03A882349F3AE01435A5F4F60E070E07E
:10180000C3010E94C03A8823F9F220E030E044EBA3
:1018100052E4EF966CAD7DAD8EAD9FADEF970E941B
:1018200036757B018C01EF966CAF7DAF8EAF9FAFAD
:10183000EF978CE0F20111928A95E9F7AB962CAD07
:101840003DAD4EAD5FADAB97E5966CAD7DAD8EAD6C
:101850009FADE597CD53DF4F88809980C35CD04022
:10186000D2011496CE55DF4FB983A883C25AD04017
:101870005D0162010E946F52CD53DF4F4881598153
:10188000C35CD040CE55DF4F68817981C25AD040C9
:10189000C2010E94E04FA1962CAD3DAD4EAD5FADB3
:1018A000A19700E0B20180E00E945D5C90E002C080
:1018B00081E090E09C01215031092230310510F087
:1018C0000C94611FB8E22B16310409F445C280F56F
:1018D000F4E12F16310498F421E12216310408F0C6
:1018E0007AC134E02316310409F479C008F4F6C053
:1018F0009AE02916310409F45EC00C94031FACE190
:101900002A16310409F457C038F4E6E12E163104E2
:1019100008F4BFC10C94031FFEE12F16310409F433
:101920004AC026E22216310409F4D8C00C94031FE1
:101930003DE32316310409F4FEC110F595E32916A1
:10194000310409F44CC060F4BBE22B16310409F4F5
:10195000B7C1E1E32E16310409F4B2C10C94031FA0
:10196000FCE32F16310410F00C94031FCB54DF4F0F
:101970008881C55BD040865380938114F9E0D5C13E
:101980002CE52216310460F43AE52316310408F000
:101990003DC180E52816310409F4AEC00C94031F44
:1019A0009CE52916310439F0AFE52A16310408F414
:1019B00063C10C94031FCA55DF4FE881F981C65AF1
:1019C000D040EF2B11F00C94171FC255DF4FF88158
:1019D000CE5AD040FF2309F452C00C94F91E2CE1DA
:1019E00022163104D1F148F484E02816310481F044
:1019F0009AE029163104E9F01FC0AEE12A1631043D
:101A000009F447C0B5E32B16310409F465C014C0CE
:101A100081E010C0FFE12F16310408F051C02AE028
:101A20002216310479F4E1E0C255DF4FE883CE5A43
:101A3000D04082E080937A14CE55DF4F1882C25A8C
:101A4000D04097C13CE12316310409F09CC1F1E07C
:101A5000C255DF4FF883CE5AD040CA55DF4F288198
:101A60003981C65AD0402115310539F02A30310567
:101A700011F00C94031F84E015C083E013C0EEE165
:101A80002E16310439F631E0C255DF4F3883CE5A75
:101A9000D040CA55DF4F88819981C65AD0400097FF
:101AA00049F485E080937A14CE55DF4F1882C25AEC
:101AB000D04074C10A9711F00C94031F86E0F2CF56
:101AC00085E32816310411F00C942C1F91E0C255C7
:101AD000DF4F9883CE5AD04087E0ACCFC255DF4F5E
:101AE000F881CE5AD040F1110C94F91E22E0C25573
:101AF000DF4F2883CE5AD04032E02316310421F143
:101B000060F421143104E1F02A94232809F02BC158
:101B100081E080937B1421E073C0A6E22A16310491
:101B2000E9F0B0E52B16310409F451C0E3E02E16BC
:101B3000310409F018C183E080937B1481E00DC16A
:101B400010927B14F1E0F1C082E080937B1431E0CD
:101B5000CE55DF4F3883C25AD0400BC1CA55DF4F34
:101B6000A881B981C65AD040AE31B10531F170F4C7
:101B7000549711F00C94031F84E080937B14F1E0E0
:101B8000CE55DF4FF883C25AD04008C1CA55DF4F47
:101B9000E881F981C65AD040E832F10599F0F29710
:101BA00011F00C94031F87E080937B1481E0CE55E5
:101BB000DF4F8883C25AD040F1C085E080937B1408
:101BC00021E054C086E080937B1431E0BFC088E000
:101BD00080937B14C8C0A2E12A16310441F0B3E11E
:101BE0002B16310449F010927F14E2E063C081E0CB
:101BF00080937F14F2E099C082E080937F1422E00A
:101C0000CE55DF4F2883C25AD040B3C0CA55DF4FEC
:101C100088819981C65AD040892BB9F49AE5291652
:101C2000310449F410927E14A3E0CE55DF4FA8830F
:101C3000C25AD040B3C081E080937E14B3E0CE5549
:101C4000DF4FB883C25AD040A9C0CA55DF4FE881E0
:101C5000F981C65AD0403A9711F00C94031FFAE567
:101C60002F16310411F40C94031F24E0CE55DF4FDE
:101C70002883C25AD04092C03DE52316310429F48E
:101C800081E080937C1485E068C010927C1495E01C
:101C90006BC0A4E12A16310451F481E080937D14D5
:101CA000B6E0CE55DF4FB883C25AD04062C0109222
:101CB0007D14E6E0CE55DF4FE883C25AD04059C0CC
:101CC000C255DF4FF881CE5AD040F1110C94F91E65
:101CD00021E32216310479F41092801438E0CE55B5
:101CE000DF4F3883C25AD04083E0C255DF4F88832C
:101CF000CE5AD04053C0CA55DF4FA881B981C65AC9
:101D0000D0401A9711F00C94031F81E08093801447
:101D1000B8E0CE55DF4FB883C25AD040E3E0C25599
:101D2000DF4FE883CE5AD04039C0CE55DF4FF8831D
:101D3000C25AD0401EC0CA55DF4F28813981C65AC9
:101D4000D040232B11F00C94031F3AE0CE55DF4F07
:101D50003883C25AD04022C087E0CE55DF4F8883F7
:101D6000C25AD04006C091E0CE55DF4F9883C25A88
:101D7000D040CA55DF4FA881B981C65AD040AB2B9D
:101D800069F00C942A1FCE55DF4F1882C25AD040FA
:101D9000B1E0C255DF4FB883CE5AD040C155DF4FB6
:101DA000E881F981CF5AD040CF01A0E0B0E0CE5514
:101DB000DF4F0880C25AD04004C0B695A7959795CA
:101DC00087950A94D2F780FF03C085E10C94611FC8
:101DD00081E090E0A0E0B0E0CE55DF4F0880C25A2D
:101DE000D04004C0880F991FAA1FBB1F0A94D2F7C6
:101DF000C155DF4F28813981CF5AD040282B392B4C
:101E0000C155DF4F39832883CF5AD0400C940A063E
:101E1000CA55DF4F88819981C65AD040892B11F06D
:101E20000C942A1FC756DF4F8881C959D040C75428
:101E3000DF4F68817981C95BD040680F711DAE01A9
:101E400047565F4FCB54DF4F88819981C55BD040A7
:101E50000E947B1F9C01215031092230310510F076
:101E60000C94611F96E02916310428F4A3E02A1689
:101E7000310490F026C0B8E02B16310410F40C9415
:101E8000031FEAE02E16310408F440C0FEE12F16CD
:101E9000310411F00C94031F22E02216310461F08A
:101EA0003EE12316310441F0232809F046C081E0C9
:101EB000809382148BE032C082E0809382149BE096
:101EC00036C0A4E02A16310471F0B5E02B163104B7
:101ED000A1F081E080938414ECE0CE55DF4FE883DD
:101EE000C25AD04092C482E080938414FCE0CE5564
:101EF000DF4FF883C25AD04088C4109284142CE07B
:101F0000CE55DF4F2883C25AD0407FC439E0231614
:101F1000310451F082E0809383148DE0CE55DF4F81
:101F20008883C25AD04071C4109283149DE0CE556C
:101F3000DF4F9883C25AD04068C4ABE0CE55DF4F24
:101F4000A883C25AD04061C4CA55DF4F2881398165
:101F5000C65AD040232B11F00C942A1FC756DF4FCE
:101F60008881C959D040C754DF4FE881F981C95BE6
:101F7000D040E80FF11D37EB231638E0330609F4A3
:101F800016C308F066C19CE9291698E0390609F4E1
:101F9000D2C108F07CC0B9E92B16B8E03B0609F4C1
:101FA000B0C108F065C0F8E92F16F8E03F0609F067
:101FB00022C484E16E01E9E2CE0ED11CD601E82FE5
:101FC0001D92EA95E9F77E01F5E1EF0EF11CD701CC
:101FD000E82F1D92EA95E9F7D3011D928A95E9F75A
:101FE00080E090E00E94FD54CA55DF4F68837983FA
:101FF0008A839B83C65AD04081E090E00E94FD54C2
:10200000CB54DF4F688379838A839B83C55BD04041
:1020100082E090E00E94FD544B015C01860124E0C7
:1020200045E0CA55DF4F688179818A819B81C65A14
:10203000D0400E94BB72870124E045E0CB54DF4FC3
:10204000688179818A819B81C55BD0400E94BB7287
:10205000830124E045E0C501B4010E94BB72FF92F8
:10206000EF92DF92CF927F926F9280EB92E04CC31F
:102070002AE9221628E0320609F45AC13BE9231660
:1020800038E0330609F0B7C38CEC92E03CC18EE92E
:10209000281688E0380609F456C108F44FC1ACEAA6
:1020A0002A16A8E03A0609F4DDC1BDEA2B16B8E00D
:1020B0003B0609F0A0C3A1961CAE1DAE1EAE1FAE1E
:1020C000A197D2011D921D921D921C9213972196E9
:1020D0001CAE1DAE1EAE1FAE219784E1FE01B99667
:1020E000C656DF4FF983E883CA59D040282F119292
:1020F0002A95E9F71E0135E1230E311CD101E82FA5
:102100001D92EA95E9F7D3011D928A95E9F780E0DF
:1021100090E00E94FD54CB54DF4F688379838A831B
:102120009B83C55BD04081E090E00E94FD54C15488
:10213000DF4F688379838A839B83CF5BD04082E0C3
:1021400090E00E94FD5420E030E044EB52E40E9415
:102150003675CA55DF4F688379838A839B83C65A55
:10216000D040FE01FD964F0152019E01235A3F4F80
:1021700069017B018C01C154DF4F288139814A817B
:102180005B81CF5BD040CB54DF4F688179818A81FE
:102190009B81C55BD0400E946F52A401B201C60171
:1021A0000E94E04FA1966CAD7DAD8EAD9FADA19725
:1021B000D201CD90DD90ED90FC909B01AC010E948E
:1021C00069784B015C01A7019601C701B6010E9425
:1021D00069789B01AC01C501B4010E9437750E946A
:1021E000D6788E01075D1F4F24E045E00E94BB7248
:1021F00020E030E044EB52E4CA55DF4F688179813A
:102200008A819B81C65AD0400E943775810124E0A3
:1022100045E00E94BB7221966CAD7DAD8EAD9FAD49
:102220002197830124E045E00E94BB727F926F9268
:102230003F922F92C556DF4FB881CB59D040BF9304
:10224000C656DF4FE881CA59D040EF938EEE92E038
:102250005BC220EC221628E0320609F4D4C1D0F487
:1022600089EB281688E0380609F4B8C108F4ABC138
:10227000AAEB2A16A8E03A0609F4B8C1BBEB2B1664
:10228000B8E03B0609F0B7C28091020185FB8827C0
:1022900080F9B7C123EC221628E0320609F41CC2EB
:1022A000F0F481EC281688E0380609F4EAC192ECD3
:1022B000291698E0390609F09EC28091990D8F93F6
:1022C0008091980D8F938091970D8F938091960DAB
:1022D0008F938091950D8F938091940D12C2A4ECF1
:1022E0002A16A8E03A0609F41DC2B0E62B16B9E09A
:1022F0003B0609F080C280919B0D8F9380919A0DCF
:1023000076C28EEB92E09F938F9387EC92E09F933F
:102310008F9380E69DE09F938F930E94DA790F90D0
:102320000F900F900F900F900F9080E090E065C29B
:1023300084EA9FE0E8CF83ED92E0E5CF83E59DE07E
:102340009F938F938CC080818E3409F0BAC18181B4
:102350008053843008F0B5C194E16E01FDE3CF0EE7
:10236000D11CD601E92F1D92EA95E9F77E01F9E229
:10237000EF0EF11CD701E92F1D92EA95E9F75E01F6
:10238000F5E1AF0EB11CD501E92F1D92EA95E9F7F1
:10239000D3011D929A95E9F78230E1F0833031F153
:1023A000813061F082E090E00E94FD54850124E0DC
:1023B00045E00E94BB72BF92AF9251C080E090E0B6
:1023C0000E94FD54860124E045E00E94BB72DF922A
:1023D000CF9245C081E090E00E94FD54870124E047
:1023E00045E00E94BB72FF92EF9239C080919A0D36
:1023F00090919B0D0497029748F460919E0F709105
:102400009F0F8091A00F9091A10F22C020E030E09B
:1024100040E05FE36091000270910102809102024E
:10242000909103020E94367520E030E040E05FE3C7
:102430000E94697820E030E044E353E40E94697828
:102440009B01AC0160E070E084E393E40E94367588
:10245000830124E045E00E94BB727F926F928AED77
:1024600092E055CFA1961CAE1DAE1EAE1FAEA19739
:10247000F201108211821282138221961CAE1DAECF
:102480001EAE1FAE219784E19E01275D3F4FC656C9
:10249000DF4F39832883CA59D040D901E82F1D92D4
:1024A000EA95E9F71E01F5E12F0E311CD101E82F65
:1024B0001D92EA95E9F7D3011D928A95E9F780E02C
:1024C00090E00E94FD54CA55DF4F688379838A8368
:1024D0009B83C65AD04081E090E00E94FD54CB54CB
:1024E000DF4F688379838A839B83C55BD04082E01A
:1024F00090E00E94FD5420E030E044EB52E40E9462
:102500003675FE01FD964F0152019E01235A3F4F41
:1025100069017B018C01CB54DF4F288139814A81CD
:102520005B81C55BD040CA55DF4F688179818A8164
:102530009B81C65AD0400E946F52A401B201C601CD
:102540000E94E04FA1966CAD7DAD8EAD9FADA19781
:102550008E01075D1F4F24E045E00E94BB72D2014F
:102560006D917D918D919C91810124E045E00E94C7
:10257000BB7221966CAD7DAD8EAD9FAD2197830171
:1025800024E045E00E94BB727F926F923F922F92AF
:10259000C556DF4FB881CB59D040BF93C656DF4FE9
:1025A000E881CA59D040EF9380EE92E0ADC0A49B81
:1025B00011C08FE30E94504D8A30910558F0873446
:1025C000910550F005C0479905C00898009B04C0CC
:1025D00081E017C080E015C082E013C082B3869509
:1025E0008695869591E0892781700BC08BE30E94C8
:1025F000504D21E08536910508F420E01F922F937D
:10260000F7C01F92F4C07F926F928CEF92E09F937D
:102610008F93FF93EF930E94087A0F900F900F9083
:102620000F900F900F90181619060CF03DC02981DD
:102630003A812634310508F044C0F901E257F64FDB
:102640008491F901E85BF64F1491F901EE5FF64FC2
:102650000491002391F081110E94CC4CE02FF0E016
:10266000EE0FFF1FEE5DFC4FA591B491EC911E2380
:1026700081E090E021F480E002C080E090E09F9350
:10268000B6C07F926F928CEF92E09F938F93FF93EF
:10269000EF930E94087A0F900F900F900F900F9079
:1026A0000F901816190684F01F9281E08F9381E134
:1026B00092E09F938F930E941B330F900F900F9087
:1026C0000F9082E390E099C089819A8180319105D1
:1026D000C0F70E94504DD3CF80E090E00E94AB54F1
:1026E000182F092F81E090E00E94AB54F82EE92EBC
:1026F00082E090E00E94AB54EF92FF920F931F9301
:102700009F938F9380E093E09F938F9380E69DE06B
:102710009F938F930E94DA790FB6F894DEBF0FBEB5
:10272000CDBF03CE6BE080E00E94144B182F6BE00E
:1027300081E00E94144B1871E1E0F0E0183111F0D3
:10274000E0E0F0E09F01220F331F220F331F88715A
:10275000E1E0F0E0883111F0E0E0F0E0EE0FFF1F83
:10276000122F1E2B6BE082E00E94144B8871E1E077
:10277000883109F0E0E0E12B8E2FEE0F990BAA0BC8
:10278000BB0BFC013197E730F10530F48827EE5898
:10279000FF4F8F4F0C94A7791F921F9229C01F9251
:1027A00081E002C01F9282E08F9386EB93E09F93BB
:1027B0008F9380E69DE09F938F930E94DA790F902C
:1027C0000F900F900F900F900F9084E390E015C042
:1027D0001F9283E0E9CF1F9284E0E6CF1F9285E04D
:1027E000E3CF1F9286E0E0CF1F9287E0DDCF8F938B
:1027F00086EB93E08CCD81E090E09C012150310983
:102800002230310510F00C94611FC155DF4FE88173
:10281000F981CF5AD040CF01A0E0B0E0CE55DF4FD4
:102820000880C25AD04004C0B695A7959795879561
:102830000A94D2F780FDC9CA81E090E0A0E0B0E040
:10284000CE55DF4F0880C25AD04004C0880F991F70
:10285000AA1FBB1F0A94D2F7E82BF92BC155DF4FF3
:10286000F983E883CF5AD0400C940A06CA55DF4F4B
:1028700028813981C65AD040232B11F00C942A1F8D
:1028800038EE231633E0330641F08CE4281684E05A
:10289000380649F50E94335C23C0C756DF4F888154
:1028A000C959D040C754DF4FE881F981C95BD04096
:1028B000E80FF11D80818635C9F481818053823013
:1028C000A8F49FB7813029F0F89480910B148860A8
:1028D00004C0F89480910B14826080930B149FBF06
:1028E00080E090E005C081E090E002C082E390E0EB
:1028F0009C01215031092230310510F00C94611FE8
:10290000C155DF4FE881F981CF5AD040CF01A0E017
:10291000B0E0CE55DF4F0880C25AD04004C0B69513
:10292000A795979587950A94D2F780FD4ECA81E0C6
:1029300090E0A0E0B0E0CE55DF4F0880C25AD04012
:1029400004C0880F991FAA1FBB1F0A94D2F7E82B57
:10295000F92BC155DF4FF983E883CF5AD04095C09A
:10296000812F110F990BAA0BBB0BFC01E654F10947
:10297000E531F10510F00C94031F8827E758FF4F4D
:102980008F4F0C94A779C0928514D0928614E09250
:102990008714F0928814CE55DF4F1882C25AD04067
:1029A000DAC0C0928914D0928A14E0928B14F0920B
:1029B0008C14C554DF4FF881CB5BD040F160C55417
:1029C000DF4FF883CB5BD04021E04FC0C0928D1425
:1029D000D0928E14E0928F14F0929014C554DF4F71
:1029E0003881CB5BD0403260C554DF4F3883CB5B3E
:1029F000D04082E05BC0C0929114D0929214E092D9
:102A00009314F0929414C554DF4F9881CB5BD0405F
:102A10009460C554DF4F9883CB5BD040A3E060C087
:102A2000CB54DF4FB881C55BD040B0939514E4E040
:102A300071C0C701B6010E947F76609396147093AF
:102A400097148093981490939914F5E0CE55DF4F26
:102A5000F883C25AD0407FC0C0929A14D0929B147F
:102A6000E0929C14F0929D1426E0CE55DF4F28830F
:102A7000C25AD04070C0C0929E14D0929F14E0926F
:102A8000A014F092A11437E061C0CB56DF4F8881CB
:102A90009981AA81BB81C559D0408093A21490939B
:102AA000A314A093A414B093A51488E0CE55DF4FCF
:102AB0008883C25AD0404FC0C092A714D092A814A5
:102AC000E092A914F092AA14C655DF4F9881CA5A11
:102AD000D0409160C655DF4F9883CA5AD040AAE0D3
:102AE000CE55DF4FA883C25AD04035C0C092AB1438
:102AF000D092AC14E092AD14F092AE14C655DF4FF4
:102B0000B881CA5AD040B260C655DF4FB883CA5A9E
:102B1000D040EBE0CE55DF4FE883C25AD0401BC017
:102B2000C092AF14D092B014E092B114F092B214EB
:102B3000C655DF4FF881CA5AD040F460C655DF4F02
:102B4000F883CA5AD0402CE090CF39E0CE55DF4F01
:102B50003883C25AD040CE55DF4F8881C25AD04008
:102B6000082FCD54DF4FE881F981C35BD040CF01FE
:102B7000A0E0B0E0CE55DF4F0880C25AD04004C07C
:102B8000B695A795979587950A94D2F780FF02C0CE
:102B90000C94FB1E81E693E0A0E0B0E0CE55DF4F41
:102BA0000880C25AD04004C0B695A79597958795DE
:102BB0000A94D2F780FF11C020E030E0A901CB5683
:102BC000DF4F688179818A819B81C559D0400E94FD
:102BD000107687FF02C00C94FD1E81E090E0A0E01B
:102BE000B0E004C0880F991FAA1FBB1F0A95D2F737
:102BF000CD54DF4F28813981C35BD040282B392B3E
:102C0000CD54DF4F39832883C35BD0400C940A0630
:102C1000C655DF4F3881CA5AD040332369F0C255B8
:102C2000DF4F8881CE5AD040811106C092E0C25554
:102C3000DF4F9883CE5AD040CD54DF4FA881C35B7D
:102C4000D040A5FF0FC08091961490919714A09149
:102C50009814B091991480389649A849B10514F098
:102C60000C94FF1E80917C14813091F4C255DF4F8B
:102C7000F881CE5AD040F23009F040C0CD54DF4F39
:102C80002881C35BD04020FD02C00C94091F36C0D0
:102C90008091B414811132C0CD54DF4F3881C35BB1
:102CA000D04030FF1BC080917D14813039F523E383
:102CB00033E34BEC51E4609185147091861480915C
:102CC0008714909188140E9469786093851470939A
:102CD0008614809387149093881410C08091C11437
:102CE0009091C214A091C314B091C4148093851420
:102CF00090938614A0938714B0938814CD54DF4F1B
:102D000088819981C35BD04090FD10C08091BD1433
:102D10009091BE14A091BF14B091C0148093A214DE
:102D20009093A314A093A414B093A51480917A1443
:102D30008130B9F4CD54DF4F9881C35BD04096FD0C
:102D400003C08CE10C94611FCD54DF4FA881B98181
:102D5000C35BD040AF7BCD54DF4FB983A883C35B47
:102D6000D04080917F148823A1F0813021F1C75495
:102D7000DF4F1882C95BD040F2E0CA55DF4FF883BD
:102D8000C65AD04021E0CE55DF4F2883C25AD040EA
:102D900023C0B2E0C754DF4FB883C95BD040E1E045
:102DA000CA55DF4FE883C65AD040CE55DF4F188250
:102DB000C25AD04011C031E0C754DF4F3883C95BDD
:102DC000D040CA55DF4F1882C65AD04082E0CE5557
:102DD000DF4F8883C25AD04080917D14813049F002
:102DE000C255DF4F9881CE5AD040933009F043C08E
:102DF00036C0BAE7EB2EB4E1FB2E00E010E0C6557A
:102E0000DF4FA881CA5AD0408A2E912CA12CB12C18
:102E1000D501C401002E04C0B695A7959795879556
:102E20000A94D2F780FF12C023E333E34BEC51E462
:102E3000F70165A576A587A590A90E946978D701B5
:102E40009D966D937D938D939C93D0970F5F1F4FAD
:102E5000B4E0EB0EF11C03301105D1F6C1CF809127
:102E60008014813041F4C655DF4FE881CA5AD04002
:102E7000E43009F0C6C78CE0E6EDF4E1DE0111961E
:102E800001900D928A95E1F7C155DF4F2881398174
:102E9000CF5AD04031FD08C010917A141230C1F0E1
:102EA000183009F4E9C057C180918114873018F0B7
:102EB0008DE10C94611F9091B914891769F3BE01DB
:102EC0006F5F7F4F0E946157882309F4AEC7E4CF3C
:102ED000C655DF4F3881CA5AD040311102C08AE14D
:102EE000F0C7CD54DF4F88819981C35BD040807596
:102EF0009927892B09F425CF60919A1470919B141E
:102F000080919C1490919D140E9417790E94847660
:102F1000673070F680919514843151F0823009F059
:102F200072C7CD54DF4F8881C35BD04087FD6BC72C
:102F3000CD54DF4FA881B981C35BD040AF7ACD5467
:102F4000DF4FB983A883C35BD040662321F02224DE
:102F50002A94260E02C020908114BE016B5E7F4F22
:102F6000822D0E946157882309F45FC73090951421
:102F70008090EE149090EF14A090F014B090F114A3
:102F8000AAE7CA2EA4E1DA2E8E010B5E1F4FE3EBF7
:102F9000F4E1C155DF4FF983E883CF5AD040E12CEB
:102FA000F12CC655DF4FF881CA5AD0404F2E512C14
:102FB000612C712CD301C2010E2C04C0B695A795CB
:102FC000979587950A94D2F780FF3BC024E132128F
:102FD0002EC0C155DF4FA881B981CF5AD0409F96EE
:102FE0002D913D914D915C91D29757966D917D9128
:102FF0008D919C915A970E943675F60125A536A5AC
:1030000047A550A90E943675D8016D937D938D9385
:103010009C931397B2E0EB1214C0A50194010E9497
:103020003675F80160837183828393830AC0F60149
:1030300085A596A5A7A5B0A9F80180839183A28351
:10304000B383FFEFEF1AFF0A24E0C20ED11C0C5F1E
:103050001F4FC155DF4F88819981CF5AD0400496C8
:10306000C155DF4F99838883CF5AD04093E0E9164A
:10307000F10409F09FCF22C1C655DF4FA881CA5A7B
:10308000D040AA2309F42BCF8090EE149090EF1437
:10309000A090F014B090F114F3EBCF2EF4E1DF2EFA
:1030A000FE0131961F010AE714E1E12CF12C4A2EB2
:1030B000512C612C712CD301C2010E2C04C0B69589
:1030C000A795979587950A94D2F780FF29C0D101DB
:1030D0002D913D914D915C91F6016789708D818DA7
:1030E000928D0E943675D8019D962D913D914D91FE
:1030F0005C91D0970E943675F80165A776A787A7DF
:1031000090ABF2E0EF1216C0A50194010E94367553
:10311000D8019D966D937D938D939C93D0970AC013
:10312000F60187A590A9A1A9B2A9F80185A796A73C
:10313000A7A7B0ABFFEFEF1AFF0A24E0C20ED11C25
:1031400034E0230E311C0C5F1F4F83E0E816F104BE
:1031500009F0B1CFB2C0C255DF4F9881CE5AD040EE
:10316000933009F473C0C655DF4FA881CA5AD040C6
:10317000AA2309F49CC600917E144090EE1450904E
:10318000EF146090F0147090F11473EB272E74E13B
:10319000372EEAE7EE2EE4E1FE2EC12CD12C8A2E4A
:1031A000912CA12CB12CD501C4010C2C04C0B695D6
:1031B000A795979587950A94D2F780FD0BC0F101EA
:1031C0008789908DA18DB28DF70185A796A7A7A7B6
:1031D000B0AB2DC0173059F1011114C0F2E0CF127D
:1031E00026C0A3019201D7019D966D917D918D918D
:1031F0009C91D0970E943775F70165A776A787A79E
:1032000090AB15C0D10157962D913D914D915C9198
:103210005A97F70165A576A587A590A90E943775ED
:10322000D7019D966D937D938D939C93D097BFEF1F
:10323000CB1ADB0AE4E02E0E311CF4E0EF0EF11C99
:1032400023E0C216D10409F0AECF2DC01530A9F08D
:10325000173071F1133089F5C655DF4F3881CA5ADE
:10326000D040311105C0C255DF4F1882CE5AD04030
:10327000BE016B5E7F4F86E010C0C655DF4F888170
:10328000CA5AD040811105C0C255DF4F1882CE5AAC
:10329000D040BE016B5E7F4F87E00E94615788235C
:1032A00009F4C3C50AC01530A1F3173009F0FBC5F6
:1032B00080917B14823008F0A8C5212C30907B14BB
:1032C00098E0391211C0C655DF4FA881CA5AD040C4
:1032D000AA2309F40AC3C255DF4FB881CE5AD040A1
:1032E000B13009F094C516C3C255DF4FE881CE5AFC
:1032F000D040E23009F0F9C2311009C0C655DF4FA5
:10330000F881CA5AD040FF2309F4F6C203C320E073
:1033100030E0A90160918514709186148091871422
:10332000909188140E941076882309F472C523E0D6
:10333000231538F032E0331690F481E0381631F07E
:10334000E9C297E0931508F0C3C2E4C2C655DF4F47
:10335000A881CA5AD040AA2309F4CEC2DBC2C655FE
:10336000DF4FB881CA5AD040BB2309F4B8CDCE553F
:10337000DF4FF881C25AD040EF2FF0E0C155DF4F48
:10338000F983E883CF5AD040CA55DF4F3881C65AF7
:10339000D040232F30E0CB54DF4F39832883C55BE7
:1033A000D04081E090E0A0E0B0E06C017D01CE551E
:1033B000DF4F0880C25AD04004C0CC0CDD1CEE1C8C
:1033C000FF1C0A94D2F7CA55DF4F0880C65AD04076
:1033D00004C0880F991FAA1FBB1F0A94D2F7C82ADE
:1033E000D92AEA2AFB2AC655DF4FE881CA5AD040BB
:1033F0008E2F90E0A0E0B0E08C219D21AE21BF2176
:10340000892B8A2B8B2B09F406C5C155DF4F888188
:103410009981CF5AD040880F991F880F991FFC01BE
:10342000E658FB4EDC01AD54BB4E57962D913D91B5
:103430004D915C915A9765A576A587A590A90E94A4
:1034400036754B015C01CB54DF4F88819981C55B98
:10345000D040880F991F880F991FFC01E658FB4E3A
:10346000DC01AD54BB4E57962D913D914D915C9131
:103470005A9765A576A587A590A90E943675C65569
:10348000DF4F688379838A839B83CA5AD040CD54A7
:10349000DF4F08811981C35BD04000781127CD54DC
:1034A000DF4FF881C35BD040F7FF15C1CD54DF4F2C
:1034B00028813981C35BD0402F77CD54DF4F3983CA
:1034C0002883C35BD0400E94556F882311F081E2AE
:1034D000F8C480917D148130B1F423E333E34BECE5
:1034E00051E460919E1470919F148091A01490916A
:1034F000A1140E94697860939E1470939F14809326
:10350000A0149093A11440909E1450909F1460902A
:10351000A0147090A114A5019401C501B4010E94EA
:103520006978C554DF4F688379838A839B83CB5B3B
:10353000D040C655DF4F288139814A815B81CA5A04
:10354000D040CA01B9010E946978CD53DF4F68832A
:1035500079838A839B83C35CD04020E030E040E8DD
:1035600050E4C301B2010E946978A30192010E9454
:103570006978C554DF4F288139814A815B81CB5BF3
:10358000D0400E943675CD53DF4F288139814A8162
:103590005B81C35CD0400E9436756B017C0120E0EA
:1035A00030E0A9010E94107687FD37C4C701B6013B
:1035B0000E94D6786B017C01CD53DF4F2881398181
:1035C0004A815B81C35CD040C554DF4F68817981FB
:1035D0008A819B81CB5BD0400E9437750E94D67850
:1035E0009B01AC01C701B60190580E9417766B0190
:1035F0007C0133E0331204C0F7FAF094F7F8F0944A
:1036000020E030E0A901C301B2010E94107687FFDB
:103610000FC0F7FAF094F7F8F094D301C201B05854
:1036200080939E1490939F14A093A014B093A11420
:10363000C155DF4F08811981CF5AD040000F111FAB
:10364000000F111F02581B4EC655DF4F28813981CC
:103650004A815B81CA5AD040C701B6010E9469788D
:103660009B01AC01C501B4010E94367520E030E039
:1036700040E05FE30E946978D8011B966D937D93CB
:103680008D939C931E97CB54DF4F08811981C55BA6
:10369000D040000F111F000F111F02581B4EA50133
:1036A0009401C701B6010E946978C655DF4F288191
:1036B00039814A815B81CA5AD0400E94377520E027
:1036C00030E040E05FE30E946978F8016387748727
:1036D000858796871FC1C554DF4FF881CB5BD040EB
:1036E0004F2E512C612C712CC420D520E620F720C0
:1036F000CD28CE28CF2809F492C3CD54DF4F28819E
:103700003981C35BD040217FCD54DF4F398328837B
:10371000C35BD04080917D14813009F491C0C155C4
:10372000DF4FE881F981CF5AD040EE0FFF1FEE0F37
:10373000FF1FE258FB4EC384D484E584F684A701BE
:103740009601C501B4010E9436752B013C01CB5492
:10375000DF4FE881F981C55BD040EE0FFF1FEE0F10
:10376000FF1FE258FB4E83859485A585B685C1551C
:10377000DF4F88839983AA83BB83CF5AD0409C01B3
:10378000AD01C655DF4F688179818A819B81CA5A14
:10379000D0400E9436754B015C01A3019201C30128
:1037A000B2010E9469782B013C01A5019401C50179
:1037B000B4010E9469789B01AC01C301B2010E946F
:1037C00037750E94D6784B015C01A7019601C701AD
:1037D000B6010E9469786B017C01C155DF4F2881D9
:1037E00039814A815B81CF5AD040CA01B9010E9418
:1037F00069789B01AC01C701B6010E9437750E9430
:10380000D6786B017C0160939E1470939F14809313
:10381000A0149093A1149B01AC01C501B4010E94B6
:1038200036754B015C01E894B7F82AE037ED43EABE
:103830005BE3C501B4010E942E78181664F16AC0DA
:103840008AE7E82E84E1F82ED301C201002E04C0DD
:10385000B695A795979587950A94D2F780FF12C0E1
:1038600023E333E34BEC51E4D7011F966D917D9137
:103870008D919C9152970E946978F7016787708BB0
:10388000818B928B0F5F1F4FF4E0EF0EF11C033022
:103890001105D1F644CF20E030E040E05FE3C50100
:1038A000B4010E942E7818160CF411CE2FE632E1E6
:1038B00043E85AE3C701B6010E9469789B01AC0155
:1038C000C501B4010E942E7818160CF400CE22C057
:1038D000C655DF4F2881CA5AD040222309F4FFCAB7
:1038E0000E94556F8111F3CD15C0C255DF4F38814D
:1038F000CE5AD04031110EC0CD54DF4F888199810E
:10390000C35BD0408E7D9C7FC255DF4F1882CE5A5C
:10391000D04008C0CD54DF4F88819981C35BD0402F
:103920008E7D907E892B09F07CC2809196149091B7
:103930009714A0919814B09199148093C614909301
:10394000C714A093C814B093C91480917C148093B9
:10395000B4148091851490918614A0918714B0912D
:1039600088148093C1149093C214A093C314B0938D
:10397000C414C090A214D090A314E090A414F090AA
:10398000A514A70196016091BD147091BE14809199
:10399000BF149091C0140E9410768823F9F0109102
:1039A000BC14112359F080915D14823039F00E94CB
:1039B000386FB701A601812F0E94B14A8091A214ED
:1039C0009091A314A091A414B091A5148093BD1458
:1039D0009093BE14A093BF14B093C0148091A6140A
:1039E0008093C514109184148091BC148117B9F090
:1039F00080915D14823079F0C090BD14D090BE14D7
:103A0000E090BF14F090C0140E94386FB701A60177
:103A1000812F0E94B14A809184148093BC1410912C
:103A200083148091BB14811781F080915D148230E2
:103A300041F00E94386F123011F45C9A02C00E946B
:103A40006063809183148093BB1480917A148130D9
:103A500089F080917F148093B71480917D148093B6
:103A6000B514C255DF4F8881CE5AD040833009F05B
:103A700074C054C080915D14823059F380909A14C0
:103A800090909B14A0909C14B0909D1420E030E086
:103A900040EA51E4C501B4010E9469780E94ED76C4
:103AA0000E9484766B017C010E94386F20E030E038
:103AB0004AE754E4C501B4010E9469784B015C01F6
:103AC00082E38C9DB0018D9D700D112480E090E00B
:103AD0000E94B0769B01AC01C501B4010E9436750D
:103AE0000E94ED760E948476CB010E947C3886018C
:103AF0000115110509F4ADCF0E9487380150110955
:103B000080915C148111A5CF9FEFA0E7B2E09150A6
:103B1000A040B040E1F700C00000EACF80918014DF
:103B20008093B814813089F48091AF149091B014CF
:103B3000A091B114B091B2148093EE149093EF144D
:103B4000A093F014B093F11408C01092EE141092E8
:103B5000EF141092F0141092F1148091811490914E
:103B6000B914981759F08093B9148CE0FE0131967E
:103B7000A6EDB4E101900D928A95E1F780917E1453
:103B80008093B614E0917A148E2F90E0FC01329766
:103B9000E830F10508F060C08827E257FF4F8F4FEB
:103BA0000C94A779BE016B5E7F4F822D0E945857FF
:103BB0008091B914281250C08CE0FE017596A6EDD4
:103BC000B4E13EC0C255DF4FE881CE5AD040EE236B
:103BD00071F02091C1143091C2144091C3145091DE
:103BE000C41400E067EA74E181E00E945D5C20910A
:103BF000C1143091C2144091C3145091C41400E018
:103C0000BE016B5E7F4F81E00E945D5C182F8CE0EF
:103C1000FE017596AAECB4E101900D928A95E1F748
:103C20001CC06AEC74E186E003C06AEC74E187E0D2
:103C30000E94585711C08CE0E7EAF4E1A2EEB4E12B
:103C400001900D928A95E1F707C08CE0E2EEF4E175
:103C5000DF011D928A95E9F710E080917B14809333
:103C6000B314883009F470C0C255DF4FB881CE5A02
:103C7000D040B23009F068C090E08830910508F07B
:103C80005AC0FC014090C1145090C2146090C314FB
:103C90007090C4148827EA56FF4F8F4F0C94A77971
:103CA00000E0A301920167EA74E180E007C000919F
:103CB000B414A301920167EA74E181E00E945D5CA3
:103CC000182F39C060919E1470919F148091A01498
:103CD0009091A1148824839409C060919E147091DE
:103CE0009F148091A0149091A114812CC754DF4F90
:103CF000A880C95BD040CA55DF4FC880C65AD040A3
:103D0000CE55DF4FE880C25AD0400091B414A301D1
:103D100092010E9429700FC000E001C001E020E084
:103D200004C000E001C001E021E04091B414C301EF
:103D3000B2010E94936F8CE0E7EAF4E1AAECB4E1EF
:103D400001900D928A95E1F7809182148093BA14C4
:103D5000882309F468C00E94386F9091BA1480914A
:103D60005D14913069F48230E9F19FB7F894809145
:103D70000B14886080930B149FBF0E94873832C059
:103D800091E09093B3141092B7141092B61410925D
:103D9000B4141092B9141092BC141092BB14823057
:103DA000A9F0BE016F5F7F4F80E00E9461578823BA
:103DB000E1F18CE0FE013196A6EDB4E101900D92A7
:103DC0008A95E1F70E94AA4A0E94606386EE98E015
:103DD0000E9477338AE898E00E94773383E798E07F
:103DE0000E9477331092BA141EC081E06AC082E04C
:103DF00068C088E166C089E164C084E062C08BE18C
:103E000060C085E25EC084E15CC08EE15AC08FE193
:103E100058C086E156C080E254C082E252C083E2BC
:103E200050C084E24EC0812F4CC087E04AC0AEE152
:103E30002A16310411F40C94490D50F5EAE02E16BF
:103E4000310411F40C94190DFCE12F16310411F416
:103E50000C942D0D87E135C09CE52916310411F035
:103E60000C94C30EA1E0C255DF4FA883CE5AD040B8
:103E7000CA55DF4FE881F981C65AD040309729F002
:103E80003A9709F689E00C94520D88E00C94520D93
:103E900025E32216310411F40C946C0D3CE5231635
:103EA000310431F3D7CF133009F007CAE1C9153017
:103EB00009F4EAC9173009F4FBC9133009F0FDC948
:103EC000D2C9C253DF4F0FB6F894DEBF0FBECDBFCD
:103ED000DF91CF911F910F91FF90EF90DF90CF90E6
:103EE000BF90AF909F908F907F906F905F904F901A
:103EF0003F902F9008952F923F924F925F926F9232
:103F00007F928F929F92AF92BF92CF92DF92EF9269
:103F1000FF920F931F93CF93DF93CDB7DEB7C459B2
:103F2000D1090FB6F894DEBF0FBECDBFFB01873AB3
:103F300028E0920709F47CC308F04FC08B34A8E056
:103F40009A0709F45BC1F0F4833E27E0920709F475
:103F500015C160F48231910509F410C18C3C9105C2
:103F600009F4A7C0419709F089C08CC08934A8E042
:103F70009A0709F428C108F02EC18834984009F442
:103F8000D7C07CC08D3938E0930709F403C278F4B8
:103F90008A39B8E09B0709F49EC18B3928E0920763
:103FA00009F4D4C18939984009F068C03AC1833A0C
:103FB000A8E09A0709F45FC228F4823A984009F40D
:103FC0001DC25CC0843A38E0930709F4CFC2853A39
:103FD000984011F40C94ED2A51C0803CB8E09B0746
:103FE00009F497C608F5873B38E0930709F440C603
:103FF00070F48D3AB8E09B0709F42DC48E3A28E09E
:10400000920709F436C58C3A9840C1F517C3893B2D
:10401000A8E09A0709F45BC608F449C68A3B9840B1
:1040200011F40C94ED2A2AC08A3629E0920711F483
:104030000C94882878F48036A9E09A0709F4F8C629
:104040008136B9E09B0711F40C943128813C9840EB
:10405000A9F48AC68C3639E0930711F40C94FA2837
:1040600010F40C94C1288D36B9E09B0711F40C9420
:104070003429843C994011F40C947D2981E090E02E
:104080000C94EF2A80914A1482FF08C08A9A80918A
:1040900008018160809308015F9A07C08A98809127
:1040A00008018E7F809308015F980E9447308FE05F
:1040B0000EC18E010F5F1F4F1F930F938BEC93E088
:1040C0009F938F93FF936F930E94087A0F900F90A6
:1040D0000F900F900F900F901816190614F00C9473
:1040E00053291D8A1E8A1F8A188EAE014B5E5F4FB0
:1040F00060E070E0C8010E94C03A8823D9F14D8980
:104100005E896F89788D88E70E9455564D895E8952
:104110006F89788D89E70E9455564D895E896F8930
:10412000788D8AE70E9455560E947B5B0C94ED2A9D
:104130008E010F5F1F4F1F930F9386ED93E09F93A8
:104140008F93FF936F930E94087A0F900F900F90B8
:104150000F900F900F901816190614F00C94532915
:10416000AE014B5E5F4F60E070E0C8010E94C03A54
:10417000811108C082E390E00C94EF2A0E948C2FFA
:104180000C94ED2A20E030E04AE754E46D897E8902
:104190008F89988D0E9469780E947F76161617067F
:1041A00094F47093510D6093500D11E01093520DE3
:1041B00080914F0D81110C94ED2A0E94C82E10930E
:1041C0004F0D0C94ED2A1092520D1092510D109239
:1041D000500D0C94ED2A8081863561F681818053E3
:1041E000823040F61092D00D813021F01092CF0D28
:1041F0000C94ED2A8093CF0D0C94ED2A80818635A6
:1042000009F0B8CF81818053823008F0B3CF81307C
:1042100021F01092D50D0C94ED2A8093D50D0C94BD
:10422000ED2A80818E3409F0A5CF9181905394308E
:1042300008F0A0CF923079F1933009F443C0209177
:104240004A148091CC0D913099F022FF08C08A9ACF
:10425000909108019160909308015F9A07C08A9835
:10426000909108019E7F909308015F9884602FC011
:1042700022FF08C08A9A90910801916090930801EA
:104280005F9A07C08A98909108019E7F90930801D9
:104290005F9881601CC080914A1482FF08C08A9A8E
:1042A000809108018160809308015F9A07C08A9815
:1042B000809108018E7F809308015F988091CC0DDA
:1042C000826005C00E9447308091CC0D8860809349
:1042D000CC0D0C94EC2A80818E3409F04BCF918167
:1042E0009053943008F046CF9230B1F0933041F1C2
:1042F00020914A148091CC0D913039F022FF02C0F8
:104300005F9801C05F9A8B7F17C022FF02C08A9816
:1043100001C08A9A8E7F10C080914A1482FF04C027
:10432000809108018E7F03C0809108018160809395
:1043300008018091CC0D8D7F8093CC0D0C94ED2ADB
:104340000E947E2F8091CC0D877FF6CF80818E34A6
:1043500009F010CF81818053843008F00BCF909109
:10436000CC0D823089F0833091F0813019F090FFCC
:1043700003C07BC491FD79C466EC73E080E69DE0E8
:104380000E94D3790C94ED2A92FD6FC4F5CF93FF70
:10439000F3CF6BC48E010F5F1F4F1F930F938FEDF1
:1043A00093E09F938F93FF936F930E94087A0F90EF
:1043B0000F900F900F900F900F90181619060CF099
:1043C00072C78CE0F801A3E5BDE001900D928A95DB
:1043D000E1F703E51DE08AEE93E0D8016D918D01D0
:1043E0007C01BFEFEB1AFB0A0E94B962C701E6EF3E
:1043F000EE16E3E0FE0689F70C94ED2A1AA619A63C
:104400001D8A1E8A1F8A188E8E010F5F1F4F8AE039
:10441000D8011D928A95E9F7CE0189969F938F93D3
:104420001F930F938AEE93E09F938F93FF936F9365
:104430000E94087A0FB6F894DEBF0FBECDBF029778
:104440000CF431C7AE014B5E5F4F60E070E0C80115
:104450000E94C03A882309F48DCE2D893E894F8968
:10446000588D69A57AA5072E000C880B990B0E9420
:10447000E32E0C94ED2A9E012F5F3F4F390184E11A
:10448000D9011D928A95E9F7CE0189969F938F9362
:1044900044979F938F9388969F938F9386EF93E093
:1044A0009F938F93FF936F930E94087A0FB6F894AF
:1044B000DEBF0FBECDBF03970CF4F5C68DAD8130C6
:1044C00009F058CE6D897E89653FFFEF7F0708F0C0
:1044D00051CE89A58230C9F0843059F1813009F07C
:1044E00049CE41E00E94522D6B017C01830120E006
:1044F00045E00E94BB72C701B6010E947F76862FFD
:10450000062E000C990B9F9310C042E081E00E94A0
:10451000522D6B017C01830120E045E00E94BB72BB
:10452000C701B6010E947F767F936F9386EB93E07D
:104530000DC044E081E00E94522D830124E045E05B
:104540000E94BB727F926F928AED92E09F938F934D
:1045500080E69DE09F938F930E94DA790F900F90F1
:104560000F900F900F900F900C94ED2A8E010F5F1B
:104570001F4F1F930F93CE01CD969F938F93449718
:104580009F938F933E0121E5620E711C7F926F9283
:1045900080E094E09F938F93FF936F930E94087A3B
:1045A0000FB6F894DEBF0FBECDBF04970CF47BC6E8
:1045B000F3018081813009F0DDCD89A59AA5853F81
:1045C0009F4F08F0D7CDAE014B5E5F4F60E070E0CB
:1045D000C8010E94C03A882309F4CCCD8DAD823049
:1045E00069F08430A9F0813009F0C4CD0D891E89AD
:1045F0002F89388D69A57AA541E011C00D891E89E2
:104600002F89388D69A57AA542E0F301808109C020
:104610000D891E892F89388D69A57AA544E0D301BB
:104620008C910E94F02D83E090E00E947C38D5C7E9
:104630008FEF0E9481570E94082DCFC72E01B5E64B
:104640004B0E511C84E1D201282F1D922A95E9F7C7
:104650003E0131E5630E711CD301282F1D922A956E
:10466000E9F78E01035C1F4FD8011D928A95E9F787
:10467000C357DF4F188219821A821B82CD58D0404F
:10468000C757DF4F188219821A821B82C958D0403F
:10469000CB57DF4F188219821A821B82C558D0402F
:1046A0001F930F937F926F925F924F9282E194E0FB
:1046B0009F938F93FF936F930E94087A0FB6F8949D
:1046C000DEBF0FBECDBF03970CF4EDC5AE0143575F
:1046D0005F4F60E070E0C2010E94C03A882309F495
:1046E00049CDAE0147575F4F60E070E0C3010E94C3
:1046F000C03A882309F43ECDAE014B575F4F60E0CE
:1047000070E0C8010E94C03A882309F433CDCF5726
:10471000DF4F188219821A821B82C158D040C358B9
:10472000DF4F188219821A821B82CD57D040ED9636
:104730001CAE1DAE1EAE1FAEED9784E13E01F9E248
:104740006F0E711CD301E82F1D92EA95E9F72E0137
:10475000F5E14F0E511CD201E82F1D92EA95E9F7C1
:104760009E012F5F3F4F1901D9011D928A95E9F7EC
:10477000AE014B575F4FBE0167577F4FCE01835746
:104780009F4F0E94354FCB57DF4FE880F9800A8159
:104790001B81C558D040C757DF4F288139814A81D6
:1047A0005B81C958D040C357DF4F688179818A81C6
:1047B0009B81CD58D040FE01EF57FF4F4F01DE01E6
:1047C000A758BF4F5D0134976F010E94895020E0C8
:1047D00030E044EB52E4CF57DF4F688179818A8122
:1047E0009B81C158D0400E943775CF57DF4F6883F7
:1047F00079838A839B83C158D040C358DF4F688137
:1048000079818A819B81CD57D040820124E045E0A7
:104810000E94BB72ED966CAD7DAD8EAD9FADED97F8
:10482000810124E045E00E94BB72CF57DF4F6881D1
:1048300079818A819B81C158D040830124E045E081
:104840000E94BB723F922F925F924F927F926F9223
:1048500080EB92E000C12E0135E6430E511C84E14D
:10486000D201282F1D922A95E9F73E0131E5630E0A
:10487000711CD301282F1D922A95E9F78E01035C44
:104880001F4FD8011D928A95E9F7C357DF4F188251
:1048900019821A821B82CD58D040C757DF4F188229
:1048A00019821A821B82C958D040CB57DF4F188219
:1048B00019821A821B82C558D0401F930F937F9292
:1048C0006F925F924F9281E394E09F938F93FF9357
:1048D0006F930E94087A0FB6F894DEBF0FBECDBF6B
:1048E00003970CF4E0C4AE0143575F4F60E070E003
:1048F000C2010E94C03A882309F43CCCAE0147575C
:104900005F4F60E070E0C3010E94C03A882309F461
:1049100031CCAE014B575F4F60E070E0C8010E94A0
:10492000C03A882309F426CCCF57DF4F188219826A
:104930001A821B82C158D040C358DF4F1882198297
:104940001A821B82CD57D040ED961CAE1DAE1EAE16
:104950001FAEED9784E13E01F9E26F0E711CD301A9
:10496000E82F1D92EA95E9F72E01F5E14F0E511C53
:10497000D201E82F1D92EA95E9F79E012F5F3F4F84
:104980001901D9011D928A95E9F720E030E044EB46
:1049900052E4C357DF4F688179818A819B81CD586A
:1049A000D0400E9436757B018C01C357DF4F68836E
:1049B00079838A839B83CD58D040CB57DF4F2881A2
:1049C00039814A815B81C558D040C757DF4F688124
:1049D00079818A819B81C958D040FE01E758FF4FF9
:1049E0004F01DE01A358BF4F5D0138966F010E9451
:1049F0006F52A401B501C6010E94E04FCF57DF4FAF
:104A0000688179818A819B81C158D040830124E0EB
:104A100045E00E94BB72C358DF4F688179818A816B
:104A20009B81CD57D040820124E045E00E94BB72BB
:104A3000ED966CAD7DAD8EAD9FADED97810124E01F
:104A400045E00E94BB723F922F925F924F927F92FD
:104A50006F9280EE92E09F938F9380E69DE09F930C
:104A60008F930E94DA790FB6F894DEBF0FBECDBFE8
:104A7000B4C5CF57DF4F188219821A821B82C158E2
:104A8000D040C358DF4F188219821A821B82CD573B
:104A9000D040ED961CAE1DAE1EAE1FAEED9784E16C
:104AA0002E0139E2430E511CD201282F1D922A9566
:104AB000E9F73E0135E1630E711CD301282F1D92E9
:104AC0002A95E9F7DE0111967D011D928A95E9F795
:104AD0008E010B571F4F8FEF90E0D8018D939C9361
:104AE0001F930F93FF92EF927F926F925F924F927C
:104AF00080E594E09F938F93FF936F930E94087AD1
:104B00000FB6F894DEBF0FBECDBF04970CF4CBC335
:104B1000AE014F575F4F60E070E0C2010E94C03AA3
:104B2000882309F427CBAE0143585F4F60E070E063
:104B3000C3010E94C03A882309F41CCBAE01475838
:104B40005F4F60E070E0C7010E94C03A882309F41B
:104B500011CBD8018D919C91009709F443C0019726
:104B600009F008CBCF57DF4F488059806A807B809F
:104B7000C158D04020E030E044EB52E4C358DF4F4E
:104B8000688179818A819B81CD57D0400E9436759A
:104B900021EE3EE245E652E40E9417766B017C016D
:104BA0000E9414769B01AC01C301B2010E94697896
:104BB000CF57DF4F688379838A839B83C158D04066
:104BC000C701B6010E94CC789B01AC01C301B201C0
:104BD0000E946978C358DF4F688379838A839B83F7
:104BE000CD57D040AE0147585F4FBE0163587F4F4D
:104BF000CE018F579F4F0E94354FED96ECACFDAC28
:104C00000EAD1FADED97C358DF4F288139814A8122
:104C10005B81CD57D040CF57DF4F688179818A8142
:104C20009B81C158D040FE01FD964F01DE01AF5A75
:104C3000BF4F5D01B8966F010E9489502196ECAC80
:104C4000FDAC0EAD1FAD219765962CAD3DAD4EADC3
:104C50005FAD6597A9966CAD7DAD8EAD9FADA99703
:104C60000E94E553882309F487CB6AED73E086CB75
:104C70008081863509F07ECA81818053823008F0B8
:104C800079CA813049F08091920D9091930D0197EE
:104C900009F0A3C42AD6A1C49C9A9D9AA49AA59867
:104CA00081E090E09093930D8093920D96C4808163
:104CB000863509F05FCA81818053823008F05ACA74
:104CC000813011F0A2D689C43F9A479886C480816A
:104CD000863509F04FCA81818053823008F04ACA74
:104CE000813011F081D679C4809101018062809376
:104CF0000101809101018064809301018091020192
:104D0000806280930201809102018064809302019D
:104D100064C4CE0101969F938F9344969F938F9383
:104D200082E794E09F938F93FF936F930E94087A9A
:104D30000FB6F894DEBF0FBECDBF02970CF4B3C21E
:104D40008D899E898634910508F014CA29813A819B
:104D50002230310508F00ECA232B11F061E001C0AA
:104D600060E00E94224D39C4CE0101969F938F933B
:104D700044969F938F9382E794E09F938F93FF9342
:104D80006F930E94087A0FB6F894DEBF0FBECDBFB6
:104D900002970CF488C28D899E898634910508F0AB
:104DA000E9C929813A812230310508F0E3C9FC01C3
:104DB000E85BF64F8E5F964F232BD1F02491FC01D8
:104DC0008491882309F409C490E0880F991FFC019D
:104DD000E454F84FA591B491FC01E851F74F859147
:104DE00094918FB7F894EC91E22BEC938FBFF5C3BD
:104DF0002491FC018491882309F4EFC390E0880F8B
:104E0000991FFC01E454F84F45915491FC01E8517D
:104E1000F74FA591B4919FB7F894FA01808120953E
:104E2000822380838C91E22FE823EC939FBFD5C32C
:104E30008081833509F09EC98181E0EDE80FE9307A
:104E400008F098C98E2F90E0FC013197E830F10509
:104E500030F48827E256FF4F8F4F0C94A7790E94B9
:104E60007E2F10929B0D10929A0D8AE999E1A5E987
:104E7000B2E48093A00D9093A10DA093A20DB093E6
:104E8000A30D8AE999E9A2E6B2E4E1C00E947E2F6F
:104E900081E090E090939B0D80939A0D86EF98E2CD
:104EA000ACE4B2E48093A00D9093A10DA093A20D69
:104EB000B093A30D8DEC9CECA0E8B2E4C8C00E94B6
:104EC0007E2F82E090E090939B0D80939A0D89E273
:104ED0009CEDA4E9B2E48093A00D9093A10DA09362
:104EE000A20DB093A30D80E090E0A2E6B2E4AFC0C3
:104EF0000E947E2F83E090E090939B0D80939A0D0B
:104F000080E090E0ACE2B2E48093A00D9093A10D1C
:104F1000A093A20DB093A30D80E090E0ABE8B2E4C3
:104F200096C0ECD784E090E090939B0D80939A0D0F
:104F300080E090E0ACE1B2E48093A00D9093A10DED
:104F4000A093A20DB093A30D80E090E0A9E9B2E494
:104F500017C0D4D785E090E090939B0D80939A0D75
:104F60008DEC9CECA2E9B2E48093A00D9093A10D8E
:104F7000A093A20DB093A30D80E090E0A8E9B2E465
:104F800080939C0D90939D0DA0939E0DB0939F0DCB
:104F900088D765C0B3D786E090E090939B0D80934F
:104FA0009A0D86E696E6AAE9B2E48093A00D909366
:104FB000A10DA093A20DB093A30D80E090E0AAE50F
:104FC000B2E445C09BD787E090E090939B0D80931F
:104FD0009A0D0CE91DE08CEA93E07C01FFEFEF1ADB
:104FE000FF0A0E941663D8018D938D01C701B0EBB3
:104FF000EB16B3E0FB0689F700EA1DE082EA93E0D6
:105000007C01EFEFEE1AFE0A0E941663D8018D9321
:105010008D01C701B6EAEB16B3E0FB0689F71FC0A6
:105020006DD788E090E090939B0D80939A0D85E872
:105030009BEEABECB1E48093A00D9093A10DA093F7
:10504000A20DB093A30D80E090E0A2E3B2E48093C0
:105050009C0D90939D0DA0939E0DB0939F0D5FD6D8
:10506000BCC280E090E00E94AB549093970D809377
:10507000960D81E090E00E94AB549093990D80933F
:10508000980D82E090E00E94AB549093950D809330
:10509000940D04E91DE084E393E0F80161918F0130
:1050A0007C01FFEFEF1AFF0A0E94B962C7012AE3F1
:1050B000E21623E0F20689F76BEB82E393E00E94AD
:1050C000B9620E94815480E090E00E94FD54609398
:1050D000A80D7093A90D8093AA0D9093AB0D81E05C
:1050E00090E00E94FD546093AC0D7093AD0D8093E1
:1050F000AE0D9093AF0D82E090E00E94FD5460935E
:10510000B00D7093B10D8093B20D9093B30D65C245
:1051100080E090E00E94FD542B013C0181E090E092
:105120000E94FD54CF56DF4F688379838A839B8327
:10513000C159D04082E090E00E94FD5420E030E070
:1051400044EB52E40E943675DE0111964D01FE01DA
:1051500075965F019E01275D3F4F69017B018C01C0
:10516000CF56DF4F288139814A815B81C159D040B8
:10517000C301B2010E946F5289819A81AB81BC81C7
:10518000B1C01D8A1E8A1F8A188E8E010F5F1F4FA5
:1051900084E1D8011D928A95E9F71F930F9389E75F
:1051A00094E09F938F93FF936F930E94087A0F90E0
:1051B0000F900F900F900F900F90181619060CF08B
:1051C00072C0AE014B5E5F4F60E070E0C8010E94AC
:1051D000C03A882311F40C94BA208D899E89AF8936
:1051E000B88D80939C0D90939D0DA0939E0DB093D0
:1051F0009F0D80C01D8A1E8A1F8A188E8E010F5F28
:105200001F4F84E1D8011D928A95E9F71F930F93F0
:1052100084E894E09F938F93FF936F930E94087AA2
:105220000F900F900F900F900F900F901816190677
:10523000D4F5AE014B5E5F4F60E070E0C8010E94A4
:10524000C03A882311F40C94BA208D899E89AF89C5
:10525000B88D8093A40D9093A50DA093A60DB09347
:10526000A70D5DD51ED6B9C11D8A1E8A1F8A188E4C
:105270008E010F5F1F4F84E1D8011D928A95E9F7D7
:105280001F930F938FE894E09F938F93FF936F93F7
:105290000E94087A0F900F900F900F900F900F9030
:1052A000181619067CF01F9281E08F9381E192E03D
:1052B0009F938F930E941B330F900F900F900F902E
:1052C0000C94BA20AE014B5E5F4F60E070E0C80105
:1052D0000E94C03A882311F40C94BA208D899E89CB
:1052E000AF89B88D8093A00D9093A10DA093A20DCE
:1052F000B093A30D14D5EED470C1899860ED662EDD
:105300006EE0762E830182E090E00E94AB54F801BB
:10531000819391938F0150E9E52EFF24F394889AAD
:105320006AE070E080E090E00E943E3888986CE28D
:1053300071E080E090E00E943E38F1E0EF1AF10861
:1053400071F788EE93E00E947C382FE0083912074D
:10535000D1F682E090E00E94AB549093990F809335
:10536000980F899A00E21EE4889A6AE070E080E073
:1053700090E00E943E3888986CE271E080E090E016
:105380000E943E380150110979F78F984EE0E42EC3
:10539000F12C00E911E08E9A6AE070E080E090E084
:1053A0000E943E388E986CE271E080E090E00E94AE
:1053B0003E380150110979F731E0E31AF10849F755
:1053C00088EE93E00E947C388F9A30E5232E3EE0F1
:1053D000332E210100E010E080E090E00E94AB5409
:1053E000D2018D939D932D0120E9E22EFF24F394A9
:1053F0008E9A6AE070E080E090E00E943E388E98DD
:1054000064EF71E080E090E00E943E38B1E0EB1A7A
:10541000F10871F70E301105A9F088EE93E00E94B3
:105420007C380F5F1F4F0F331105B1F680E090E01D
:105430000E94AB549093CF0E8093CE0E8F9800E5D0
:105440001DE223C080910B018D7F80930B01E12C25
:1054500092E3F92E80910B01886080930B016AE042
:1054600070E080E090E00E943E3880910B01877FE1
:1054700080930B016CE271E080E090E00E943E3886
:10548000E1E0EE1AF10831F7C8CF8E9A6AE070E0D9
:1054900080E090E00E943E388E986CE271E080E0FF
:1054A00090E00E943E380150110979F788EE93E0B0
:1054B0000E947C3880910B01826080930B0100E98F
:1054C00013E380910B01886080930B016AE070E028
:1054D00080E090E00E943E3880910B01877F8093AE
:1054E0000B016CE271E080E090E00E943E380150D8
:1054F000110939F788EE93E00E947C3880910B0106
:105500008D7F80930B0106ED1DE0280181E090E086
:105510000E94AB54D2018D939D932D0180E9E82E1A
:10552000FF24F39480910B01886080930B016AE063
:1055300070E080E090E00E943E3880910B01877F10
:1055400080930B016CE271E080E090E00E943E38B5
:10555000B1E0EB1AF10831F788EE93E00E947C3855
:10556000EEE44E16EEE05E0689F681E090E00E94E1
:10557000AB5490934F0E80934E0E81E090E0D30198
:105580006D913D012C01BFEF4B1A5B0A0E94B9627D
:10559000C2018B3C910599F7F10161911F01320124
:1055A000FFEF6F1A7F0AC2010E94B96223012BE448
:1055B000621621E0720681F7D8016D918D017301A9
:1055C000BFEFEB1AFB0AC3010E94B9623701E5EC99
:1055D000EE16E1E0FE0681F793D180E090E0CC5634
:1055E000DF4F0FB6F894DEBF0FBECDBFDF91CF9176
:1055F0001F910F91FF90EF90DF90CF90BF90AF90F1
:105600009F908F907F906F905F904F903F902F90E2
:1056100008952091A20F3091A30F21153105B9F003
:105620008091B20F9091B30F8217930734F40196D3
:105630009093B30F8093B20F0AC01092B30F1092E1
:10564000B20F1092A30F1092A20F1092CD0D2091C5
:10565000500D3091510D21153105A1F08091B00F01
:105660009091B10F8217930734F401969093B10F84
:105670008093B00F07C01092B10F1092B00F81E06D
:105680008093CE0D8091CD0D81111BC08091520D64
:10569000811117C0809173008E7F809373001092E8
:1056A0004F0D1092A30F1092A20F1092510D109255
:1056B000500D1092B30F1092B20F1092B10F1092C2
:1056C000B00F08958091AF0F811107C081E08093E2
:1056D000AF0F80910B01806205C01092AF0F8091D7
:1056E0000B018F7D80930B018091AD0F9091AE0FD8
:1056F0009C012F5F3F4F3093AE0F2093AD0F209151
:105700000402309105022817390760F41092AE0F99
:105710001092AD0F809170008E7F8093700081E0B9
:105720008093D30D089520919A0D30919B0D2430D4
:10573000310529F426E636E646E65FE307C0253064
:10574000310539F526E636E646EE5FE30E94177628
:1057500020E030E040E852E40E9469780E947F76C1
:1057600060939A0F70939B0F80939C0F90939D0F63
:1057700087ED9BE290930514809304141092A0008F
:1057800085E08093A1008DEF9FEF909307148093A5
:10579000061480910614909107149093A5008093AD
:1057A000A4008091720081608093720008958091BE
:1057B0009A0F90919B0FA0919C0FB0919D0F18167E
:1057C00019061A061B06F4F42091AC0F222389F067
:1057D0001092AC0F0197A109B10980939A0F909391
:1057E0009B0FA0939C0FB0939D0F8091020180644A
:1057F00006C081E08093AC0F809102018F7B809383
:10580000020108950E94D94D10929A0F10929B0F99
:1058100010929C0F10929D0F81E08093D20D0895FD
:10582000CF93DF93EB01873140F4853108F043C01B
:105830008C30B0F4813048F03EC09881833329F138
:10584000843369F1823361F416C08881882329F09A
:105850006AE974E0CE010E94C8796CE974E028C05E
:105860008881882329F06AE974E0CE010E94C87912
:105870006FE974E01DC0992329F06AE974E0CE0154
:105880000E94C87963EA74E013C0992329F06AE999
:1058900074E0CE010E94C87967EA74E009C09923D8
:1058A00029F06AE974E0CE010E94C8796BEA74E0DD
:1058B000CE010E94C8798091600D882379F060E65E
:1058C0007DE0CE010E94C87982E3E0E6FDE0DF01E1
:1058D0001D928A95E9F7DF91CF9108956DE773E006
:1058E000CE01DF91CF910C94C8799C9A9D9AA4988F
:1058F000A59A82E090E09093930D8093920D089585
:105900008F929F92AF92BF92CF92DF92EF92FF92CF
:105910000F931F93CF93DF930CE514E18EE1F80111
:1059200011928A95E9F7FED60E94B36280E090E07A
:105930000E94FD54CAE9DDE06E877F87888B998BD2
:1059400081E090E00E94FD546A8B7B8B8C8B9D8B59
:1059500082E090E00E94FD546E8B7F8B888F998F40
:10596000F801C480D580E680F780CA8EDB8EEC8E8D
:10597000FD8EC084D184E284F384CE8EDF8EE8A2D3
:10598000F9A204851585268537850AA31BA32CA3B8
:105990003DA320E030E044EB52E40E9436757B01E9
:1059A0008C012A893B894C895D896E857F85888930
:1059B0009989E8EC8E2EEDE09E2EF4ECAF2EFDE002
:1059C000BF2EA0ECCA2EADE0DA2E0E946F52DF91FE
:1059D000CF911F910F91FF90EF90DF90CF90BF90EC
:1059E000AF909F908F900895E1E0F1E08081806218
:1059F0008083808180648083E2E0F1E080818F7D1C
:105A0000808380818F7B808308953F9A479A089591
:105A10008091040187788093040180910301887745
:105A2000803451F440E050E060E87FE384E00E947D
:105A300055566FEA74E02AC080910301887791F48B
:105A400040E050E060E87FE384E00E94555666EB5A
:105A500074E084EA9FE00E94D37940E050E060EE79
:105A600070E41BC080910301887740E050E060E85B
:105A70007FE3803231F484E00E9455566DEB74E090
:105A800005C084E00E94555664EC74E084EA9FE00F
:105A90000E94D37940E050E0BA0183E00E9455565D
:105AA0000C947B5B9F92AF92BF92CF92DF92EF926A
:105AB000FF920F931F93CF93DF9300D01F92CDB728
:105AC000DEB7813021F0823019F452EA01C050EA89
:105AD0008150823008F06FC0EFEFE40FE43028F41B
