:10000000CBC40000EAC40000E8C40000E6C400005D
:10001000E4C40000E2C40000E0C40000DEC400004C
:10002000DCC400000C94FF51D8C400000C94BE4105
:10003000D4C40000D2C40000D0C400000C94253603
:10004000CCC400000C941F25C8C40000C6C4000026
:10005000C4C40000C2C40000C0C400000C94704BB3
:10006000BCC400000C944C2A0C94AE2AB6C4000008
:10007000B4C40000B2C40000B0C40000AEC40000AC
:10008000ACC40000AAC40000A8C400000C940F3641
:10009000A4C40000A2C40000A0C400009EC40000CC
:1000A0009CC400009AC4000098C4000096C40000DC
:1000B00094C400000C94DA3590C400008EC4000093
:1000C0008CC400008AC400000C94A53586C40000CE
:1000D00084C4000082C4000080C400007EC400000C
:1000E0007CC40000C7196D246D24D519EA19FF19C5
:1000F000141A6D241D1A6D24301A6D243F1A491AE2
:10010000A11A6D246D246D24581A721A8C1A372383
:100110004F237E234F238223982387239123BC23BD
:10012000C323CE23D923F823FA23FD23FF238128D9
:1001300087288A288D2892289A28A2280F290F29F3
:100140000F29AA28AD28B628BF280F290F290F2963
:100150000F290F290F29C728D128DD28E728EA28E9
:10016000F328FC280229084AD73B3BCE016E84BC09
:10017000BFFDC12F3D6C74319ABD56833DDA3D0001
:10018000C77F11BED9E4BB4C3E916BAAAABE00004A
:1001900000803F072C7AA5BA6CC590DA3B9365FCCA
:1001A0008BBC53F810FD3C5692834DBD879D3AB6EB
:1001B0003DCBC9BF5BBE73DA0FC93F05A84CCDB2BA
:1001C000D44EB93836A9020C50B9918688083CA69D
:1001D000AAAA2ABE000000803F0000407A10F35A0D
:1001E00000A0724E18090010A5D4E80000E8764877
:1001F000170000E40B54020000CA9A3B000000E123
:10020000F505000080969800000040420F000000B5
:10021000A08601000000102700000000E803000095
:1002200000006400000000000A000000000001005F
:10023000000000002C76D888DC674F0823DFC1DF80
:10024000AE59E1B1B796E5E3E453C63AE651997683
:1002500096E8E6C28426EB898C9B62ED407C6FFCBD
:10026000EFBC9C9F40F2BAA56FA5F490055A2AF7FF
:100270005C936B6CF9676DC11BFCE0E40D47FEF508
:1002800020E6B500D0ED902E030094357705008070
:10029000841E080000204E0A000000C80C333333CF
:1002A000330F986E12831141EF8D2114893BE6556F
:1002B00016CFFEE6DB18D1844B381BF77C1D901D52
:1002C000A4BBE424203284725E228100C9F124ECB4
:1002D000A1E53D276364696E6F70737578585B00A4
:1002E0000D0A4772626C20302E396A205B27242762
:1002F00020666F722068656C705D0D0A000D0A0043
:100300003D00244E005D0D0A005B302E396A2E320E
:10031000303136303732363A005D0D0A005B544CCE
:100320004F3A005D0D0A002C005B4739323A005D00
:100330000D0A002C003A003330003238005B4700D1
:100340005D0D0A00205300204600205400204D3847
:1003500000204D3900204D3500204D3400204D3314
:1003600000204D3200204D3100204D300020473913
:1003700034002047393300204739310020473930D5
:100380000020473230002047323100204731390009
:1003900020473138002047313700204700473338A5
:1003A0002E004738300047330047320047310047BE
:1003B00030005B002424202876696577204772622C
:1003C0006C2073657474696E6773290D0A24232089
:1003D0002876696577202320706172616D65746588
:1003E0007273290D0A244720287669657720706189
:1003F00072736572207374617465290D0A24492033
:100400002876696577206275696C6420696E666F0D
:10041000290D0A244E20287669657720737461724D
:1004200074757020626C6F636B73290D0A24783DBC
:1004300076616C7565202873617665204772626C01
:100440002073657474696E67290D0A244E783D6CBB
:10045000696E6520287361766520737461727475A6
:100460007020626C6F636B290D0A24432028636837
:1004700065636B2067636F6465206D6F6465290D2C
:100480000A245820286B696C6C20616C61726D20A5
:100490006C6F636B290D0A2448202872756E2068E2
:1004A0006F6D696E67206379636C65290D0A7E2024
:1004B000286379636C65207374617274290D0A2155
:1004C00020286665656420686F6C64290D0A3F20EA
:1004D0002863757272656E74207374617475732904
:1004E0000D0A6374726C2D78202872657365742010
:1004F0004772626C290D0A00290D0A00206D61788F
:100500002074726176656C2C206D6D0020616363D0
:10051000656C2C206D6D2F7365635E3200206D61FC
:100520007820726174652C206D6D2F6D696E002CC2
:1005300020737465702F6D6D007A0079007800204B
:1005400028003D0024002028686F6D696E672070C8
:10055000756C6C2D6F66662C206D6D290D0A002060
:1005600028686F6D696E67206465626F756E63657C
:100570002C206D736563290D0A2432373D00202835
:10058000686F6D696E67207365656B2C206D6D2FCC
:100590006D696E290D0A2432363D002028686F6D82
:1005A000696E6720666565642C206D6D2F6D696EC0
:1005B000290D0A2432353D00290D0A2432343D002C
:1005C0002028686F6D696E672064697220696E7695
:1005D000657274206D61736B3A002028686F6D69D5
:1005E0006E67206379636C652C20626F6F6C290DD8
:1005F0000A2432333D00202868617264206C696DE2
:100600006974732C20626F6F6C290D0A2432323D9D
:10061000002028736F6674206C696D6974732C20D8
:10062000626F6F6C290D0A2432313D0020287265FB
:10063000706F727420696E636865732C20626F6FCF
:100640006C290D0A2432303D002028617263207429
:100650006F6C6572616E63652C206D6D290D0A24C7
:1006600031333D0020286A756E6374696F6E2064B3
:100670006576696174696F6E2C206D6D290D0A2491
:1006800031323D00290D0A2431313D002028737498
:1006900061747573207265706F7274206D61736B15
:1006A0003A00202870726F62652070696E20696E52
:1006B000766572742C20626F6F6C290D0A243130BC
:1006C0003D0020286C696D69742070696E73206923
:1006D0006E766572742C20626F6F6C290D0A243659
:1006E0003D0020287374657020656E61626C652022
:1006F000696E766572742C20626F6F6C290D0A2406
:10070000353D00290D0A24343D00202864697220FB
:10071000706F727420696E76657274206D61736B90
:100720003A00290D0A24333D002028737465702097
:10073000706F727420696E76657274206D61736B70
:100740003A002028737465702069646C65206465C4
:100750006C61792C206D736563290D0A24323D008C
:100760002028737465702070756C73652C20757308
:100770006563290D0A24313D0024303D005D0D0ADA
:10078000003A002C005B5052423A000D0A00496EBC
:1007900076616C69642067636F64652049443A0040
:1007A000556E646566696E65642066656564207271
:1007B000617465004D6F64616C2067726F757020A5
:1007C00076696F6C6174696F6E00486F6D696E67F2
:1007D000206E6F7420656E61626C656400416C61AF
:1007E000726D206C6F636B004E6F742069646C6572
:1007F00000454550524F4D20726561642066616925
:100800006C2E205573696E672064656661756C7423
:10081000730056616C7565203C20332075736563E9
:100820000053657474696E672064697361626C65F6
:10083000640056616C7565203C203000496E76611D
:100840006C69642073746174656D656E74004261D7
:1008500064206E756D62657220666F726D617400E2
:10086000457870656374656420636F6D6D616E6457
:10087000206C6574746572006572726F723A200044
:100880006F6B0D0A000D0A00486F6D696E67206678
:1008900061696C0050726F6265206661696C00412D
:1008A000626F727420647572696E67206379636C1D
:1008B0006500536F6674206C696D697400486172DD
:1008C00064206C696D697400414C41524D3A2000BE
:1008D0003E0D0A002C4C696D3A002C52583A002CFF
:1008E0004275663A002C002C57506F733A002C006A
:1008F0002C4D506F733A003C446F6F72003C43685C
:1009000065636B003C416C61726D003C486F6D65C6
:10091000003C486F6C64003C52756E003C49646C4E
:1009200065005D0D0A00526573746F72696E672011
:1009300064656661756C74730050676D20456E6404
:1009400000436865636B20446F6F72004469736194
:10095000626C656400456E61626C6564004361753C
:1009600074696F6E3A20556E6C6F636B6564002717
:100970002448277C2724582720746F20756E6C6FBD
:10098000636B00526573657420746F20636F6E74BF
:10099000696E7565005B000011241FBECFEFD1E2C8
:1009A000DEBFCDBF00E00CBF13E0A0E0B2E0ECEA98
:1009B000FDED00E00BBF02C007900D92A23CB10715
:1009C000D9F722E1A2ECB3E001C01D92AB3DB20722
:1009D000E1F70E94FA540C94D46E12CB2F923F92FE
:1009E0004F925F926F927F928F929F92AF92BF923F
:1009F000CF92DF92EF92FF920F931F93CF93DF93EB
:100A0000CDB7DEB7C15DD1090FB6F894DEBF0FBE1A
:100A1000CDBFC154DF4F99838883CF5BD04089E33A
:100A2000EAEBFEE0DF011D928A95E9F78AE0EBE24E
:100A3000FEE0ABEBBEE001900D928A95E1F7FE017E
:100A4000EB55FF4F1082C554DF4F19821882CB5BE4
:100A5000D040C354DF4F19821882CD5BD040CB53B6
:100A6000DF4F1882C55CD040CE54DF4F1882C25B86
:100A7000D040C654DF4F1882CA5BD040BA97C655E3
:100A8000DF4FF983E883CA5AD0409E012F5A3F4F67
:100A9000C455DF4F39832883CC5AD040C90108960A
:100AA000C753DF4F99838883C95CD040CB55DF4F54
:100AB0008881C55AD040C154DF4FE881F981CF5BAE
:100AC000D040E80FF11D1081112311F40C94E81AA5
:100AD0009FEB910F9A3110F00C945F248F5FCB55F0
:100AE000DF4F8883C55AD040AE014F555F4FBE01DE
:100AF0006B557F4FC154DF4F88819981CF5BD040C8
:100B00000E94534D882311F40C946124CF55DF4F7C
:100B1000C880D980EA80FB80C15AD040C701B601A5
:100B20000E94F5670E944265CF53DF4F6883798347
:100B30008A839B83C15CD040CF53DF4F28803980AC
:100B4000C15CD040B10180E090E00E946E659B01E5
:100B5000AC01C701B6010E94F46320E030E048EC2C
:100B600052E40E9427670E948A670E944265CA5425
:100B7000DF4F79836883C65BD0401D3411F40C9439
:100B8000670E103511F40C943515173411F00C94D0
:100B9000B419CB55DF4F8881C55AD040C154DF4FBF
:100BA00028813981CF5BD040280F311D9AE9291661
:100BB00098E0390609F428C160F4B4ED2B16B7E0CB
:100BC0003B06A1F0E9E92E16E8E03E0609F454C020
:100BD000DCC5FCE92F16F8E03F0609F498C28DE960
:100BE000281688E0380609F495C3CFC51A82198201
:100BF000CE0101969F938F9381EC92E09F938F9308
:100C00003F932F930E94BC680F900F900F900F900E
:100C10000F900F90181619060CF0A8C389819A81BD
:100C20009093170F8093160F91E09093C10D8091D0
:100C3000120F8111ADC524E837E33093CE0D209318
:100C4000CD0D1092200185E08093210121EF3FEF2F
:100C50003093D00D2093CF0D2091CF0D3091D00D3A
:100C6000309325012093240180917300816080934B
:100C700073009093120F8CC58E010B5E1F4F1F9354
:100C80000F937E0199E2E90EF11CFF92EF926E0143
:100C9000ADE3CA0ED11CDF92CF92C355DF4FB881AE
:100CA000CD5AD040BF93C455DF4FE881CC5AD040D5
:100CB000EF9389E192E09F938F933F932F930E944C
:100CC000BC680FB6F894DEBF0FBECDBF04970CF41E
:100CD0004DC3EF961CAE1DAE1EAE1FAEEF97E59650
:100CE0001CAE1DAE1EAE1FAEE597AB961CAE1DAE84
:100CF0001EAE1FAEAB97A1961CAE1DAE1EAE1FAEB4
:100D0000A197CE0101965C018CE0D5011D928A95D8
:100D1000E9F7AE0145585F4F60E070E0CE018F5AB1
:100D20009F4F0E94534D882309F432C5AE014F589E
:100D30005F4F60E070E0C6010E94534D882309F4C4
:100D400027C5AE0149595F4F60E070E0C7010E94BE
:100D5000534D882309F41CC5AE01435A5F4F60E030
:100D600070E0C8010E94534D882309F411C520E0AA
:100D700030E044EB52E4E5966CAD7DAD8EAD9FADB9
:100D8000E5970E94F46321EE3EE245E652E40E94BC
:100D9000D5646B017C01E5966CAF7DAF8EAF9FAFE4
:100DA000E597EF964CAC5DAC6EAC7FACEF970E94D4
:100DB000D2649B01AC01C301B2010E942767698321
:100DC0007A838B839C83C701B6010E94AA679B012B
:100DD000AC01C301B2010E9427676D837E838F83BC
:100DE0009887AB968CAD9DADAEADBFADAB97898707
:100DF0009A87AB87BC87A1962CAD3DAD4EAD5FAD5C
:100E0000A19700E0B501BCC4E5961CAE1DAE1EAEB8
:100E10001FAEE597AB961CAE1DAE1EAE1FAEAB97D8
:100E2000FE0131967F01FF93EF938E010B5E1F4F02
:100E30001F930F93C555DF4FF881CB5AD040FF93D6
:100E4000C655DF4F8881CA5AD0408F9382E492E022
:100E50009F938F933F932F930E94BC680FB6F89493
:100E6000DEBF0FBECDBF03970CF480C2AE014F585A
:100E70005F4F60E070E0C8010E94534D882309F481
:100E800087C4AE0149595F4F60E070E0C7010E941E
:100E9000534D882309F47CC4A1961CAE1DAE1EAE32
:100EA0001FAEA19765961CAE1DAE1EAE1FAE659718
:100EB00021961CAE1DAE1EAE1FAE21973E01B9E2BB
:100EC0006B0E711C8CE0F30111928A95E9F7609129
:100ED000B00D7091B10D8091B20D9091B30D0E9443
:100EE0007065C255DF4F688379838A839B83CE5AAE
:100EF000D0406091AC0D7091AD0D8091AE0D909190
:100F0000AF0D0E9470659B01AC016091A80D7091BE
:100F1000A90D8091AA0D9091AB0DC353DF4F28838B
:100F2000CD5CD040C253DF4F3883CE5CD040C0533D
:100F3000DF4F4883C05DD040CF52DF4F5883C15D43
:100F4000D0400E947065DE01DD964D01FE01EF5A32
:100F5000FF4F5F0190966D01C255DF4FE880F98029
:100F60000A811B81CE5AD040C353DF4F2881CD5C0C
:100F7000D040C253DF4F3881CE5CD040C053DF4FEA
:100F80004881C05DD040CF52DF4F5881C15DD04015
:100F90000E94103FED968EAD9FADED97813091058B
:100FA00029F1F4F4892B09F0EEC120E030E044EBA4
:100FB00052E4E5966CAD7DAD8EAD9FADE5970E9498
:100FC000F4637B018C01E5966CAF7DAF8EAF9FAF74
:100FD000E59765962CAD3DAD4EAD5FAD659725C0EF
:100FE00082309105B1F00397E9F1CDC12196ECACC7
:100FF000FDAC0EAD1FAD219765962CAD3DAD4EAD50
:101000005FAD6597E5966CAD7DAD8EAD9FADE59717
:1010100012C02196ECACFDAC0EAD1FAD2197E5964C
:101020002CAD3DAD4EAD5FADE597A1966CAD7DAD00
:101030008EAD9FADA197FE01F1964F01DE019D9609
:101040005D0163010E942B3EA401B501C3010E9412
:101050007C3BAB962CAD3DAD4EAD5FADAB9700E0AC
:10106000B3018EC3E596CCACDDACEEACFFACE5973E
:1010700020E030E044E353E4C701B6010E94EC668F
:10108000181684F020E030E0A901C701B6010E94E3
:10109000CE6487FF0AC0C12CD12CB4E3EB2EB3E49D
:1010A000FB2E03C0C12CD12C7601A701960160E074
:1010B00070E084E393E40E94F46320E030E044E3D2
:1010C00053E40E94D5649B01AC010E94F56323E3C5
:1010D00033E343E35FE30E94F563609300027093A0
:1010E0000102809302029093030220E030E048EA7C
:1010F00051E40E94D56420E030EC4FE754E40E94B4
:1011000027670E944265CB010E94623541C3CE0130
:1011100045969F938F9344969F938F9344969F9366
:101120008F93C355DF4FB881CD5AD040BF93C4557C
:10113000DF4FE881CC5AD040EF938AE592E09F934D
:101140008F933F932F930E94BC680FB6F894DEBF35
:101150000FBECDBF04970CF409C1EF961CAE1DAEB7
:101160001EAE1FAEEF97E5961CAE1DAE1EAE1FAEB7
:10117000E597AB961CAE1DAE1EAE1FAEAB97A1960B
:101180001CAE1DAE1EAE1FAEA197AE0145585F4FFF
:1011900060E070E0CE018F5A9F4F0E94534D88232C
:1011A00009F4F6C2AE014F585F4F60E070E0CE0127
:1011B000CD960E94534D882309F4EAC2AE014959E5
:1011C0005F4F60E070E0CE0189960E94534D882306
:1011D00009F4DEC2AE01435A5F4F60E070E0CE0119
:1011E00045960E94534D882309F4D2C26091B00DF8
:1011F0007091B10D8091B20D9091B30D0E94706508
:101200002B013C016091AC0D7091AD0D8091AE0D44
:101210009091AF0D0E9470659B01AC016091A80D8B
:101220007091A90D8091AA0D9091AB0DC353DF4F22
:101230002883CD5CD040C253DF4F3883CE5CD04092
:10124000C053DF4F4883C05DD040CF52DF4F58833B
:10125000C15DD0400E947065DE0119964D01FE010E
:1012600035965F0118976D0183017201C353DF4FFB
:101270002881CD5CD040C253DF4F3881CE5CD04056
:10128000C053DF4F4881C05DD040CF52DF4F5881FF
:10129000C15DD0400E94273CA401B501C6010E9457
:1012A0007C3BEF962CAD3DAD4EAD5FADEF976981C8
:1012B0007A818B819C810E94F56369837A838B8319
:1012C0009C83E5962CAD3DAD4EAD5FADE5976D8150
:1012D0007E818F8198850E94F5636D837E838F83E5
:1012E0009887AB962CAD3DAD4EAD5FADAB976985A4
:1012F0007A858B859C850E94F56369877A878B87C1
:101300009C87A1962CAD3DAD4EAD5FADA19700E0A1
:10131000B60136C28E01035A1F4F1F930F937E01F1
:10132000B7E6EB0EF11CFF92EF926E01E1E7CE0EF5
:10133000D11CDF92CF92C555DF4FF881CB5AD040F8
:10134000FF93C655DF4F8881CA5AD0408F9389E1F9
:1013500092E09F938F933F932F930E94BC680FB6A8
:10136000F894DEBF0FBECDBF049784F41F9281E0D6
:101370008F938DE092E09F938F930E94C92D0F90E1
:101380000F900F900F9082E390E004C2C356DF4F9E
:10139000188219821A821B82CD59D040C756DF4F5E
:1013A000188219821A821B82C959D040CB56DF4F4E
:1013B000188219821A821B82C559D040CF56DF4F3E
:1013C000188219821A821B82C159D0408CE0C45500
:1013D000DF4FE881F981CC5AD04011928A95E9F724
:1013E000AE0143565F4F60E070E0CE0185589F4FDD
:1013F0000E94534D882309F4CBC1AE0147565F4F7D
:1014000060E070E0C6010E94534D882309F4C0C11A
:10141000AE014B565F4F60E070E0C7010E94534D34
:10142000882309F4B5C1AE014F565F4F60E070E00C
:10143000C8010E94534D882309F4AAC1C357DF4F46
:10144000188219821A821B82CD58D040C757DF4FAD
:10145000188219821A821B82C958D040CB57DF4F9D
:10146000188219821A821B82C558D0406091B00D33
:101470007091B10D8091B20D9091B30D0E94706585
:101480002B013C016091AC0D7091AD0D8091AE0DC2
:101490009091AF0D0E9470659B01AC016091A80D09
:1014A0007091A90D8091AA0D9091AB0DC353DF4FA0
:1014B0002883CD5CD040C253DF4F3883CE5CD04010
:1014C000C053DF4F4883C05DD040CF52DF4F5883B9
:1014D000C15DD0400E947065DE01AB57BF4F4D012A
:1014E000FE01E757FF4F5F0118966D0183017201FE
:1014F000C353DF4F2881CD5CD040C253DF4F3881CA
:10150000CE5CD040C053DF4F4881C05DD040CF5249
:10151000DF4F5881C15DD0400E94103F6091B00DF7
:101520007091B10D8091B20D9091B30D0E947065D4
:101530002B013C016091AC0D7091AD0D8091AE0D11
:101540009091AF0D0E9470659B01AC016091A80D58
:101550007091A90D8091AA0D9091AB0DC353DF4FEF
:101560002883CD5CD040C253DF4F3883CE5CD0405F
:10157000C053DF4F4883C05DD040CF52DF4F588308
:10158000C15DD0400E947065C753DF4F888099804D
:10159000C95CD040E1E5F0E0EC0FFD1F3496C25588
:1015A000DF4FF983E883CE5AD0405F01DE01AF5AA6
:1015B000BF4F6D0183017201C353DF4F2881CD5CA2
:1015C000D040C253DF4F3881CE5CD040C053DF4F94
:1015D0004881C05DD040CF52DF4F5881C15DD040BF
:1015E0000E94273CC753DF4F48815981C95CD040D6
:1015F000C255DF4F68817981CE5AD040C6010E9422
:101600007C3B65966CAD7DAD8EAD9FAD6597699663
:10161000CCACDDACEEACFFAC69979B01AC010E9499
:1016200027674B015C01A7019601C701B6010E9423
:1016300027679B01AC01C501B4010E94F5630E94BC
:10164000B467C356DF4F288139814A815B81CD5908
:10165000D0400E94F5636B017C01C356DF4F688365
:1016600079838A839B83CD59D040C756DF4F288129
:1016700039814A815B81C959D040CB57DF4F68819E
:1016800079818A819B81C558D0400E94F56321EE03
:101690003EE245E652E40E94D5642B013C010E94E3
:1016A000D2649B01AC01C701B6010E9427674B01C0
:1016B0005C0165966CAF7DAF8EAF9FAF6597C30140
:1016C000B2010E94AA679B01AC01C701B6010E944A
:1016D000276769966CAF7DAF8EAF9FAF6997CB568A
:1016E000DF4F288139814A815B81C559D0406D9691
:1016F0006CAD7DAD8EAD9FAD6D970E94F5636D961F
:101700006CAF7DAF8EAF9FAF6D978E01035C1F4FA7
:1017100024E045E0C501B4010E94626169966CADA8
:101720007DAD8EAD9FAD69970451110924E045E070
:101730000E9462616D966CAD7DAD8EAD9FAD6D9773
:101740000451110924E045E00E946261C356DF4F55
:10175000688179818A819B81CD59D04004511109DA
:1017600024E045E00E946261CF56DF4F2881398135
:101770004A815B81C159D04000E0BE016F5A7F4F62
:1017800080E00E94414E90E005C081E090E002C000
:1017900080E090E09C01215031092230310510F0A9
:1017A0000C94C124B8E22B16310409F445C280F52B
:1017B000F4E12F16310498F421E12216310408F0E7
:1017C0007AC134E02316310409F479C008F4F6C074
:1017D0009AE02916310409F45EC00C946D24ACE142
:1017E0002A16310409F457C038F4E6E12E16310404
:1017F00008F4BFC10C946D24FEE12F16310409F4E6
:101800004AC026E22216310409F4D8C00C946D2493
:101810003DE32316310409F4FEC110F595E32916C2
:10182000310409F44CC060F4BBE22B16310409F416
:10183000B7C1E1E32E16310409F4B2C10C946D2452
:10184000FCE32F16310410F00C946D24CF53DF4FBE
:101850008881C15CD04086538093C10EF9E0D5C128
:101860002CE52216310460F43AE52316310408F021
:101870003DC180E52816310409F4AEC00C946D24F6
:101880009CE52916310439F0AFE52A16310408F435
:1018900063C10C946D24CA54DF4FE881F981C65BA3
:1018A000D040EF2B11F00C947F24C654DF4FF88109
:1018B000CA5BD040FF2309F452C00C9463242CE18E
:1018C00022163104D1F148F484E02816310481F065
:1018D0009AE029163104E9F01FC0AEE12A1631045E
:1018E00009F447C0B5E32B16310409F465C014C0F0
:1018F00081E010C0BFE12B16310408F051C0EAE0CE
:101900002E16310479F4E1E0C654DF4FE883CA5B58
:10191000D04082E08093BA0EC255DF4F1882CE5A73
:10192000D04097C1FCE12F16310409F09CC1F1E0D1
:10193000C654DF4FF883CA5BD040CA54DF4F2881BA
:101940003981C65BD0402115310539F02A30310587
:1019500011F00C946D2484E015C083E013C0AEE157
:101960002A16310439F631E0C654DF4F3883CA5B9A
:10197000D040CA54DF4F88819981C65BD040009720
:1019800049F485E08093BA0EC255DF4F1882CE5AD3
:10199000D04074C10A9711F00C946D2486E0F2CF08
:1019A00025E32216310411F00C94B02491E0C654C2
:1019B000DF4F9883CA5BD04087E0ACCFC654DF4F7F
:1019C000F881CA5BD040F1110C94632422E0C65424
:1019D000DF4F2883CA5BD04032E02316310421F167
:1019E00060F421143104E1F02A94232809F02BC17A
:1019F00081E08093BB0E21E073C0A6E22A16310479
:101A0000E9F0B0E52B16310409F451C0E3E02E16DD
:101A1000310409F018C183E08093BB0E81E00DC151
:101A20001092BB0EF1E0F1C082E08093BB0E31E07A
:101A3000C255DF4F3883CE5AD0400BC1CA54DF4F56
:101A4000A881B981C65BD040AE31B10531F170F4E7
:101A5000549711F00C946D2484E08093BB0EF1E058
:101A6000C255DF4FF883CE5AD04008C1CA54DF4F69
:101A7000E881F981C65BD040E832F10599F0F29730
:101A800011F00C946D2487E08093BB0E81E0C25569
:101A9000DF4F8883CE5AD040F1C085E08093BB0EE3
:101AA00021E054C086E08093BB0E31E0BFC088E0E7
:101AB0008093BB0EC8C0A2E12A16310441F0B3E105
:101AC0002B16310449F01092BF0EE2E063C081E0B2
:101AD0008093BF0EF2E099C082E08093BF0E22E0B7
:101AE000C255DF4F2883CE5AD040B3C0CA54DF4F0F
:101AF00088819981C65BD040892BB9F49AE5291673
:101B0000310449F41092BE0EA3E0C255DF4FA88302
:101B1000CE5AD040B3C081E08093BE0EB3E0C25530
:101B2000DF4FB883CE5AD040A9C0CA54DF4FE881F6
:101B3000F981C65BD0403A9711F00C946D24FAE518
:101B40002F16310411F40C946D2424E0C255DF4F9C
:101B50002883CE5AD04092C03DE52316310429F4A3
:101B600081E08093BC0E85E068C01092BC0E95E0C9
:101B70006BC0A4E12A16310451F481E08093BD0EBC
:101B8000B6E0C255DF4FB883CE5AD04062C0109243
:101B9000BD0EE6E0C255DF4FE883CE5AD04059C0B3
:101BA000C654DF4FF881CA5BD040F1110C94632416
:101BB00021E32216310479F41092C00E38E0C255A8
:101BC000DF4F3883CE5AD04083E0C654DF4F88833E
:101BD000CA5BD04053C0CA54DF4FA881B981C65BED
:101BE000D0401A9711F00C946D2481E08093C00EC0
:101BF000B8E0C255DF4FB883CE5AD040E3E0C654B8
:101C0000DF4FE883CA5BD04039C0C255DF4FF8834D
:101C1000CE5AD0401EC0CA54DF4F28813981C65BDE
:101C2000D040232B11F00C946D243AE0C255DF4FC5
:101C30003883CE5AD04022C087E0C255DF4F888318
:101C4000CE5AD04006C091E0C255DF4F9883CE5A9D
:101C5000D040CA54DF4FA881B981C65BD040AB2BBE
:101C600069F00C949224C255DF4F1882CE5AD040AE
:101C7000B1E0C654DF4FB883CA5BD04081E090E04A
:101C8000C255DF4F0880CE5AD04002C0880F991F3E
:101C90000A94E2F7C354DF4F28813981CD5BD040ED
:101CA00028233923232B19F085E10C94C124C35434
:101CB000DF4FE881F981CD5BD040E82BF92BC3548D
:101CC000DF4FF983E883CD5BD0400C945605CA54AE
:101CD000DF4F28813981C65BD040232B11F00C9453
:101CE0009224CB55DF4F8881C55AD040C154DF4F75
:101CF000E881F981CF5BD040E80FF11D3EEA231661
:101D000038E0330608F054C08CEA281688E038061C
:101D100008F037C19AE4291698E0390609F4D6C1CB
:101D200000F5BCEC2B16310409F42EC158F431E156
:101D30002316310409F491C082E12816310409F414
:101D40001EC188C098E4291698E0390609F45AC1E2
:101D500008F0B5C1B3EE2B16B7E03B0609F40FC18E
:101D600079C022EA221628E0320609F432C298F439
:101D70008AE9281688E0380609F4E1C19BE92916AA
:101D800098E0390609F402C2A9E92A16A8E03A0641
:101D900009F060C0AEC1B6EA2B16B8E03B0608F405
:101DA000F0C0E7EA2E16E8E03E0609F44EC252C043
:101DB00022EC221628E0320638F530EC231638E003
:101DC000330608F0DEC088EB281688E0380609F4F0
:101DD00043C368F4AEEA2A16A8E03A0609F43BC207
:101DE000B7EB2B16B8E03B0609F423C333C029EB4D
:101DF000221628E0320609F440C33AEB231638E0F5
:101E0000330609F4BEC026C08AE6281689E03806E3
:101E100009F4E1C368F4A0E62A16A9E03A0609F439
:101E20004FC3B1E62B16B9E03B0609F4BBC312C0A1
:101E300024E7221629E0320609F46FC435E7231699
:101E400039E0330609F4C1C48BE6281689E0380668
:101E500009F426C481E090E08EC58A9A8091080139
:101E60008160809308015F9A0E94A4388FE080937C
:101E7000C00D8EE1E4EFFEE0DF011D928A95E9F7E7
:101E80000E9497300E94475480E090E00E948D406D
:101E900060939C0D70939D0D80939E0D90939F0D6C
:101EA00081E090E00E948D406093A00D7093A10DA1
:101EB0008093A20D9093A30D82E090E00E948D404C
:101EC0006093A40D7093A50D8093A60D9093A70D1C
:101ED0000091F80E1091F90E2091FA0E3091FB0E40
:101EE0000093A80D1093A90D2093AA0D3093AB0D6C
:101EF0000091FC0E1091FD0E2091FE0E3091FF0E10
:101F00000093AC0D1093AD0D2093AE0D3093AF0D3B
:101F10000091000F1091010F2091020F3091030FDB
:101F20000093B00D1093B10D2093B20D3093B30D0B
:101F300020E030E044EB52E40E94F4637B018C012A
:101F40002091A00D3091A10D4091A20D5091A30DB3
:101F500060919C0D70919D0D80919E0D90919F0DB3
:101F6000ECEB8E2EEDE09E2EF8EBAF2EFDE0BF2EBB
:101F7000A4EBCA2EADE0DA2E0E942B3E02C00E94D6
:101F8000583680E090E0F7C48E010F5F1F4F1F931B
:101F90000F9383E892E09F938F93FF93EF930E94B8
:101FA000BC680F900F900F900F900F900F90181625
:101FB00019060CF094C31D8A1E8A1F8A188EAE0162
:101FC0004B5E5F4F60E070E0C8010E94534D882374
:101FD00009F4CFC44D895E896F89788D88E70E94A6
:101FE00018284D895E896F89788D89E70E941828A5
:101FF0004D895E896F89788D8AE70E9418280E9432
:10200000C62CBFCF8E010F5F1F4F1F930F938EE81B
:1020100092E09F938F93FF93EF930E94BC680F9081
:102020000F900F900F900F900F90181619060CF04C
:1020300056C3AE014B5E5F4F60E070E0C8010E9486
:10204000534D882309F495C420E030E04AE754E476
:102050006D897E898F89988D0E9427670E943D65D2
:102060001616170664F57093150F6093140F91E020
:102070009093130F8091120F811183CF24E837E3DF
:102080003093CE0D2093CD0D1092200185E08093EA
:10209000210121EF3FEF3093D00D2093CF0D209100
:1020A000CF0D3091D00D30932501209324018091E4
:1020B00073008160809373009093120F62CF10922F
:1020C000130F1092150F1092140F5BCF808186357D
:1020D00009F04FC481818053823008F04AC41092C5
:1020E000C40D813019F01092C30D4BCF8093C30DF6
:1020F00048CF80818E3409F03CC491819053943054
:1021000008F037C4923061F0933099F08091C00D9F
:10211000913019F05F9A846025C08A9A816022C04C
:10212000809108018160809308018091C00D8260D8
:1021300019C00E94A4388091C00D886013C08081AE
:102140008E3409F016C491819053943008F011C474
:102150008091C00D923061F0933089F0913029F078
:102160005F988B7F8093C00D0CCF8A988E7FFACFBB
:10217000909108019E7F909308018D7FF3CF9091FD
:1021800072009E7F90937200877FECCF80818E34A7
:1021900009F0EFC381818053843008F0EAC3909145
:1021A000C00D823081F0833089F0813019F090FFCA
:1021B00003C03CC191FD3AC16EE873E080E69DE04A
:1021C0000E948668DECE92FD31C1F6CF93FFF4CF38
:1021D0002DC11AA619A61D8A1E8A1F8A188E8E0165
:1021E0000F5F1F4F8AE0D8011D928A95E9F7CE0153
:1021F00089969F938F931F930F9387E992E09F9304
:102200008F93FF93EF930E94BC680FB6F894DEBFE4
:102210000FBECDBF02970CF462C2AE014B5E5F4FA2
:1022200060E070E0C8010E94534D882309F4A1C307
:102230002D893E894F89588D69A57AA5072E000CF6
:10224000880B990B0E9438389CCE8FEF0E9444294E
:102250000E945D3796CEEF961CAE1DAE1EAE1FAE31
:10226000EF97E5961CAE1DAE1EAE1FAEE597AB9682
:102270001CAE1DAE1EAE1FAEAB9784E15E0129E21F
:10228000A20EB11CD501282F1D922A95E9F77E01D7
:1022900035E1E30EF11CD701282F1D922A95E9F7AD
:1022A000DE0111966D011D928A95E9F78E010B579B
:1022B0001F4F8FEF90E0D8018D939C931F930F9346
:1022C000DF92CF92FF92EF92BF92AF9283EA92E0B9
:1022D0009F938F93FF93EF930E94BC680FB6F8947F
:1022E000DEBF0FBECDBF03970CF4F9C1AE01455858
:1022F0005F4F60E070E0C5010E94534D882309F4F0
:1023000038C3AE014F585F4F60E070E0C7010E94D4
:10231000534D882309F42DC3AE0149595F4F60E046
:1023200070E0C6010E94534D882309F422C3D801EE
:102330008D919C910097D9F1019709F01AC3EF96FE
:10234000CCACDDACEEACFFACEF9720E030E044EB82
:1023500052E4E5966CAD7DAD8EAD9FADE5970E94E4
:10236000F46321EE3EE245E652E40E94D5644B015F
:102370005C010E94D2649B01AC01C701B6010E94BE
:102380002767EF966CAF7DAF8EAF9FAFEF97C5011C
:10239000B4010E94AA679B01AC01C701B6010E946B
:1023A0002767E5966CAF7DAF8EAF9FAFE597AE0127
:1023B00049595F4FBE016F587F4FCE0185589F4FDF
:1023C0000E94D13AAB96ECACFDAC0EAD1FADAB9715
:1023D000E5962CAD3DAD4EAD5FADE597EF966CAD9E
:1023E0007DAD8EAD9FADEF97FE01FD964F01DE01F5
:1023F000AF5ABF4F5D01B0966F010E94753C2196A8
:10240000ECACFDAC0EAD1FAD219765962CAD3DAD8E
:102410004EAD5FAD6597A1966CAD7DAD8EAD9FADB8
:10242000A1970E948D3F882309F4C6CE62E972E02D
:10243000C5CE8081863509F09CC28181805382306F
:1024400008F097C2813019F00E94D7369ACD9C9A35
:102450009D9AA49AA59895CD8081863509F089C268
:1024600081818053823008F084C2813019F00E944B
:10247000D43687CD3F9A479884CD8081863509F040
:1024800078C281818053823008F073C2813019F0A4
:102490000E94C33676CD8091010180628093010154
:1024A000809101018064809301018091020180622A
:1024B000809302018091020180648093020161CDCA
:1024C0008081833509F055C281818053843008F0C2
:1024D00050C2823089F1833009F445C08130A9F0BF
:1024E0001092930D1092920D8AE999E1A5E9B2E458
:1024F0008093980D9093990DA0939A0DB0939B0D96
:102500008AE999E9A2E6B2E444C081E090E09093C0
:10251000930D8093920D86EF98E2ACE4B2E4809341
:10252000980D9093990DA0939A0DB0939B0D8DECFF
:102530009CECA0E8B2E42DC082E090E09093930D73
:102540008093920D89E29CEDA4E9B2E48093980D0A
:102550009093990DA0939A0DB0939B0D80E090E01D
:10256000A2E6B2E416C083E090E09093930D8093CE
:10257000920D80E090E0ACE2B2E48093980D9093ED
:10258000990DA0939A0DB0939B0D80E090E0ABE87D
:10259000B2E48093940D9093950DA093960DB09313
:1025A000970D7BC080E090E00E9440409093A8127D
:1025B0008093A71281E090E00E9440409093AA127D
:1025C0008093A91282E090E00E9440409093A6126E
:1025D0008093A512CBC16091000F7091010F809183
:1025E000020F9091030F0E9470652B013C016091D6
:1025F000FC0E7091FD0E8091FE0E9091FF0E0E94D8
:1026000070659B01AC016091F80E7091F90E80919C
:10261000FA0E9091FB0EC353DF4F2883CD5CD04060
:10262000C253DF4F3883CE5CD040C053DF4F488366
:10263000C05DD040CF52DF4F5883C15DD0400E9473
:102640007065DE0111964D01FE0175965F01989649
:102650006D0183017201C353DF4F2881CD5CD040EF
:10266000C253DF4F3881CE5CD040C053DF4F48812A
:10267000C05DD040CF52DF4F5881C15DD0400E9435
:10268000273C89819A81AB81BC818093980D90937E
:10269000990DA0939A0DB0939B0D0E940B3871CCAD
:1026A0001D8A1E8A1F8A188E8E010F5F1F4F84E1BC
:1026B000D8011D928A95E9F71F930F9385EC92E05C
:1026C0009F938F93FF93EF930E94BC680F900F909E
:1026D0000F900F900F900F901816190674F01F921C
:1026E00081E08F938DE092E09F938F930E94C92D9C
:1026F0000F900F900F900F903CC1AE014B5E5F4F5B
:1027000060E070E0C8010E94534D882309F431C194
:102710008D899E89AF89B88D3CCF8081803509F045
:1027200028C181818053833008F023C18130D9F0E2
:10273000823091F180E090E00E9440409093CF037E
:102740008093CE0381E090E00E9440409093D103BB
:102750008093D00382E090E00E9440409093D303A6
:102760008093D2030ECC80E090E00E944040909392
:10277000C9038093C80381E090E00E944040909399
:10278000CB038093CA0382E090E00E944040909384
:10279000CD038093CC03F5CB80E090E00E944040D5
:1027A0009093C3038093C20381E090E00E94404075
:1027B0009093C5038093C40382E090E00E94404060
:1027C0009093C7038093C603DCCB6091CE037091D6
:1027D000CF03E090D003F090D1039701262B372B45
:1027E0008091D2039091D303822B932B892B19F4E0
:1027F00080ED92E031C0C090C803D090C9038090B2
:10280000CA039090CB03E091CC03F091CD03C25565
:10281000DF4FF983E883CE5AD040C4018C299D292B
:102820008E2B9F2B892B19F486ED92E015C0A0907A
:10283000C203B090C3030091C4031091C503980173
:102840002A293B298091C6039091C703822B932BA1
:10285000892B49F48CED92E09F938F930E94C92DB0
:102860000F900F9086C080E090E00E946E652EE28F
:102870003DEA4AE352E40E94F5632B013C01B501B5
:1028800080E090E00E946E652CE337EC4EEC52E461
:102890000E94F5639B01AC01C301B2010E94F56384
:1028A0002B013C01B60180E090E00E946E659B0127
:1028B000AC01C301B2010E94F56320E030E040E4C6
:1028C00050E40E94D56420E030E040E05FE30E94E5
:1028D000F5630E9442657093A8126093A712B70136
:1028E00080E090E00E946E6529EE3AE64BE753E403
:1028F0000E94F4636B017C01B80180E090E00E94CB
:102900006E6527E33EE145E953E40E94F5639B01D0
:10291000AC01C701B6010E94F5636B017C01B401F3
:1029200080E090E00E946E659B01AC01C701B6019A
:102930000E94F56320E030E040E450E40E94D5645A
:1029400020E030E040E05FE30E94F5630E944265D2
:102950007093AA126093A912C255DF4F2881398162
:10296000CE5AD0403093A6122093A5120E943D412A
:1029700008CB82E390E09C012150310922303105DF
:1029800010F00C94C12436E02316310428F483E0BF
:102990002816310490F026C098E02916310410F46E
:1029A0000C946D24AAE02A16310408F440C0BEE15C
:1029B0002B16310411F00C946D24E2E02E16310434
:1029C00061F0FEE12F16310441F0232809F046C0E2
:1029D00081E08093C20E2BE032C082E08093C20E71
:1029E0003BE036C084E02816310471F095E02916EA
:1029F0003104A1F081E08093C40EACE0C255DF4FFA
:102A0000A883CE5AD04088C482E08093C40EBCE034
:102A1000C255DF4FB883CE5AD0407EC41092C40E48
:102A2000ECE0C255DF4FE883CE5AD04075C4F9E0E0
:102A30002F16310451F082E08093C30E2DE0C25571
:102A4000DF4F2883CE5AD04067C41092C30E3DE0BA
:102A5000C255DF4F3883CE5AD0405EC48BE0C2559A
:102A6000DF4F8883CE5AD04057C4CA54DF4FE88125
:102A7000F981C65BD040EF2B11F00C949224CB551A
:102A8000DF4F8881C55AD040FDEA2F16F8E03F0697
:102A900009F4EDC258F53BE9231638E0330609F492
:102AA00039C178F4A9E92A16A8E03A0609F42CC13C
:102AB00008F02DC1E8E92E16E8E03E0609F44FC003
:102AC0004BC0FDE92F16F8E03F0609F42DC108F4CC
:102AD00028C13EE9231638E0330609F428C18CEA00
:102AE000281688E0380609F41CC236C09BEB29166C
:102AF00098E0390609F4C4C3D8F4B8EB2B16B8E053
:102B00003B0609F49EC338F4F7EB2F16F8E03F06B6
:102B100009F47DC321C029EB221628E0320609F40E
:102B20009BC33AEB231638E0330609F49DC314C067
:102B300082EC281688E0380609F4A9C338F4A0EC22
:102B40002A16A8E03A0608F0DAC306C0B0E62B164B
:102B5000B9E03B0609F4BDC381E090E0D5C3A1967E
:102B60001CAE1DAE1EAE1FAEA19765961CAE1DAE6F
:102B70001EAE1FAE659721961CAE1DAE1EAE1FAEDB
:102B8000219784E1FE01B996CA55DF4FF983E883A6
:102B9000C65AD040282F11922A95E9F71E0135E137
:102BA000230E311CD101E82F1D92EA95E9F79E0111
:102BB0002F5F3F4FC855DF4F39832883C85AD04015
:102BC000D9011D928A95E9F76091000F7091010F6C
:102BD0008091020F9091030F0E9470652B013C01C0
:102BE0006091FC0E7091FD0E8091FE0E9091FF0E93
:102BF0000E9470659B01AC016091F80E7091F90E16
:102C00008091FA0E9091FB0EC353DF4F2883CD5C69
:102C1000D040C253DF4F3883CE5CD040C053DF4F2B
:102C20004883C05DD040CF52DF4F5883C15DD04054
:102C30000E947065FE01FD964F01DE01AF5ABF4F45
:102C40005D01B0966F0183017201C353DF4F28818C
:102C5000CD5CD040C253DF4F3881CE5CD040C053F2
:102C6000DF4F4881C05DD040CF52DF4F5881C15DFA
:102C7000D0400E94103F20E030E044EB52E4219627
:102C80006CAD7DAD8EAD9FAD21970E94F563219611
:102C90006CAF7DAF8EAF9FAF2197A1966CAD7DAD30
:102CA0008EAD9FADA1978E01075D1F4F24E045E0DB
:102CB0000E94626165966CAD7DAD8EAD9FAD6597EE
:102CC000810124E045E00E94626121966CAD7DADFA
:102CD0008EAD9FAD21970451110924E045E00E947B
:102CE00062613F922F92C955DF4FF881C75AD04099
:102CF000FF93CA55DF4F2881C65AD0402F931F93A8
:102D00000F9382EE92E0D7C280EF92E005C088E593
:102D10009DE002C08EEF92E09F938F9389EF92E047
:102D2000E0C285E093E0F8CF8CE093E0F5CFC154AA
:102D3000DF4FE881F981CF5BD040E80FF11D808142
:102D40008E3409F0DFC281818053CA54DF4F8883FB
:102D5000C65BD040833008F0D5C2A1961CAE1DAE34
:102D60001EAE1FAEA19765961CAE1DAE1EAE1FAE69
:102D7000659721961CAE1DAE1EAE1FAE219784E155
:102D8000FE01B996CA55DF4FF983E883C65AD04091
:102D9000282F11922A95E9F71E0135E1230E311CE7
:102DA000D101E82F1D92EA95E9F79E012F5F3F4F71
:102DB000C855DF4F39832883C85AD040D9011D92A6
:102DC0008A95E9F76091000F7091010F8091020FD1
:102DD0009091030F0E9470652B013C016091FC0EE5
:102DE0007091FD0E8091FE0E9091FF0E0E94706515
:102DF0009B01AC016091F80E7091F90E8091FA0E72
:102E00009091FB0EC353DF4F2883CD5CD040C2535B
:102E1000DF4F3883CE5CD040C053DF4F4883C05D66
:102E2000D040CF52DF4F5883C15DD0400E947065C3
:102E3000FE01FD964F01DE01AF5ABF4F5D01B09616
:102E40006F0183017201C353DF4F2881CD5CD040F5
:102E5000C253DF4F3881CE5CD040C053DF4F488132
:102E6000C05DD040CF52DF4F5881C15DD0400E943D
:102E7000103F20E030E044EB52E421966CAD7DAD94
:102E80008EAD9FAD21970E94F56321966CAF7DAF0B
:102E90008EAF9FAF2197A1966CAD7DAD8EAD9FADEE
:102EA000A1978E01075D1F4F24E045E00E946261FB
:102EB00065966CAD7DAD8EAD9FAD6597810124E0CB
:102EC00045E00E94626121966CAD7DAD8EAD9FADF7
:102ED00021970451110924E045E00E946261CA541F
:102EE000DF4FF881C65BD040F13079F0F23081F0ED
:102EF000C955DF4F2881C75AD0402F93CA55DF4F9D
:102F00003881C65AD0403F9309C03F922F9206C0E5
:102F100081E090E08C0F9D1F9F938F9385E193E05C
:102F2000E0C1A1961CAE1DAE1EAE1FAEA197659668
:102F30001CAE1DAE1EAE1FAE659721961CAE1DAE1B
:102F40001EAE1FAE219784E1DE019996CA55DF4F70
:102F5000B983A883C65AD040E82F1D92EA95E9F7B5
:102F60001E01F5E12F0E311CD101E82F1D92EA95CB
:102F7000E9F79E012F5F3F4FC855DF4F3983288304
:102F8000C85AD040D9011D928A95E9F780E090E0B7
:102F90000E948D402B013C0181E090E00E948D4019
:102FA000CA54DF4F688379838A839B83C65BD04092
:102FB00082E090E00E948D4020E030E044EB52E45B
:102FC0000E94F463FE01FD964F019E012F5A3F4F70
:102FD0005901DE01A35ABF4F6D017B018C01CA5418
:102FE000DF4F288139814A815B81C65BD040C301B4
:102FF000B2010E942B3EA401B501C6010E947C3B98
:10300000A1966CAD7DAD8EAD9FADA1978E01075D94
:103010001F4F24E045E00E94626165966CAD7DAD76
:103020008EAD9FAD6597810124E045E00E9462610D
:1030300021966CAD7DAD8EAD9FAD219704511109E8
:1030400024E045E00E9462611F930F933F922F920C
:10305000C955DF4FF881C75AD040FF93CA55DF4F9B
:103060002881C65AD0402F9389E193E024C1A196CC
:103070001CAE1DAE1EAE1FAEA19765961CAE1DAE5A
:103080001EAE1FAE659721961CAE1DAE1EAE1FAEC6
:10309000219784E1DE019996CA55DF4FB983A88351
:1030A000C65AD040E82F1D92EA95E9F71E01F5E1D6
:1030B0002F0E311CD101E82F1D92EA95E9F79E01F0
:1030C0002F5F3F4FC855DF4F39832883C85AD04000
:1030D000D9011D928A95E9F780E090E00E948D4029
:1030E000CA54DF4F688379838A839B83C65BD04051
:1030F00081E090E00E948D40CF53DF4F6883798359
:103100008A839B83C15CD04082E090E00E948D4026
:1031100020E030E044EB52E40E94F4632B013C01D8
:10312000FE01FD964F019E012F5A3F4F5901CE01DE
:10313000835A9F4F6C0183017201CF53DF4F288167
:1031400039814A815B81C15CD040CA54DF4F6881BC
:1031500079818A819B81C65BD0400E942B3EA4016D
:10316000B501C6010E947C3BA1966CAD7DAD8EADD4
:103170009FADA1976596CCACDDACEEACFFAC65978E
:103180009B01AC010E9427674B015C01A7019601DE
:10319000C701B6010E9427679B01AC01C501B401BC
:1031A0000E94F5630E94B4678E01075D1F4F24E003
:1031B00045E00E94626120E030E044EB52E4C3014C
:1031C000B2010E94F563810124E045E00E94626142
:1031D00021966CAD7DAD8EAD9FAD21970451110947
:1031E00024E045E00E9462611F930F933F922F926B
:1031F000C955DF4FB881C75AD040BF93CA55DF4F7A
:10320000E881C65AD040EF9387E293E054C0A49B74
:103210001FC08FE390E00E94DC368C011F938F93D8
:1032200085E393E09F938F930E94C92D0F900F9099
:103230000F900F900A30110558F00734110530F047
:1032400009C0479905C00898009904C082E01DC0D4
:1032500080E01BC081E019C082B386958695869573
:1032600091E08927817011C08BE390E00E94DC36E9
:1032700021E08536910508F420E01F922F932FC09E
:103280008091020185FB882780F91F9227C08091D9
:10329000A6128F938091A5128F938091AA128F937B
:1032A0008091A9128F938091A8128F938091A71279
:1032B0008F938DE393E09F938F9380E69DE09F93A0
:1032C0008F930E948D680FB6F894DEBF0FBECDBFFE
:1032D00016C08091930D8F938091920D8F9386E805
:1032E00093E09F938F9380E69DE09F938F930E943E
:1032F0008D680F900F900F900F900F900F9080E0BF
:1033000090E002C082E390E09C012150310922301C
:10331000310510F00C94C12481E090E0C255DF4FDC
:103320000880CE5AD04002C0880F991F0A94E2F755
:10333000C354DF4F28813981CD5BD0402823392306
:10334000232B11F00C94540EC354DF4FA881B98184
:10335000CD5BD040A82BB92BC354DF4FB983A883D2
:10336000CD5BD0400C945605812F110F990BAA0B01
:10337000BB0BFC01E654F109E531F10510F00C94AA
:103380006D248827EE58FF4F8F4F0C945A68C092D7
:10339000C50ED092C60EE092C70EF092C80EC2556E
:1033A000DF4F1882CE5AD040D2C0C092C90ED09200
:1033B000CA0EE092CB0EF092CC0ECB53DF4FB88109
:1033C000C55CD040B160CB53DF4FB883C55CD04003
:1033D000E1E04FC0C092CD0ED092CE0EE092CF0E63
:1033E000F092D00ECB53DF4FF881C55CD040F26035
:1033F000CB53DF4FF883C55CD04022E053C0C0926E
:10340000D10ED092D20EE092D30EF092D40ECB53C6
:10341000DF4F3881C55CD0403460CB53DF4F3883F9
:10342000C55CD04083E058C0CF53DF4F9881C15C6A
:10343000D0409093D50EA4E069C0C701B6010E94A8
:103440003D656093D60E7093D70E8093D80E9093FF
:10345000D90EB5E0C255DF4FB883CE5AD04077C001
:10346000C092DA0ED092DB0EE092DC0EF092DD0E0E
:10347000E6E0C255DF4FE883CE5AD04068C0C09224
:10348000DE0ED092DF0EE092E00EF092E10EF7E059
:1034900059C0C092E20ED092E30EE092E40EF09298
:1034A000E50E28E0C255DF4F2883CE5AD0404FC0EA
:1034B000C092E70ED092E80EE092E90EF092EA0E8A
:1034C000CE54DF4F3881C25BD0403160CE54DF4FE5
:1034D0003883C25BD0408AE0C255DF4F8883CE5A22
:1034E000D04035C0C092EB0ED092EC0EE092ED0EC3
:1034F000F092EE0ECE54DF4F9881C25BD0409260C6
:10350000CE54DF4F9883C25BD040ABE0C255DF4F53
:10351000A883CE5AD0401BC0C092EF0ED092F00EBE
:10352000E092F10EF092F20ECE54DF4FB881C25B02
:10353000D040B460CE54DF4FB883C25BD040ECE0E3
:1035400098CFF9E0C255DF4FF883CE5AD04001E062
:1035500010E0C255DF4F0880CE5AD04002C0000FA5
:10356000111F0A94E2F7C554DF4F88819981CB5B24
:10357000D04080239123892B11F00C94652481E69F
:1035800093E0C255DF4F0880CE5AD04002C09595D7
:1035900087950A94E2F780FF0BC020E030E0A90194
:1035A000C701B6010E94CE6487FF02C00C94672455
:1035B000C554DF4F28813981CB5BD040202B312B84
:1035C000C554DF4F39832883CB5BD0400C9456051C
:1035D000CE54DF4F3881C25BD040332369F0C654EC
:1035E000DF4F8881CA5BD040811106C092E0C6548B
:1035F000DF4F9883CA5BD040C554DF4FA881CB5BB7
:10360000D040A5FF0FC08091D60E9091D70EA0910B
:10361000D80EB091D90E80389649A849B10514F05A
:103620000C9469248091BC0E813091F4C654DF4F14
:10363000F881CA5BD040F23009F040C0C554DF4F7A
:103640002881CB5BD04020FD02C00C94732436C08F
:1036500080912C0E811132C0C554DF4F3881CB5B75
:10366000D04030FF1BC08091BD0E813039F523E37F
:1036700033E34BEC51E46091C50E7091C60E80911E
:10368000C70E9091C80E0E9427676093C50E709375
:10369000C60E8093C70E9093C80E10C08091390E4D
:1036A00090913A0EA0913B0EB0913C0E8093C50EC6
:1036B0009093C60EA093C70EB093C80EC554DF4FAB
:1036C00088819981CB5BD04090FD10C08091350EF0
:1036D0009091360EA091370EB091380E8093E20E85
:1036E0009093E30EA093E40EB093E50E8091BA0E92
:1036F0008130B9F4C554DF4F9881CB5BD04096FD43
:1037000003C08CE10C94C124C554DF4FA881B9815A
:10371000CB5BD040AF7BC554DF4FB983A883CB5B75
:10372000D0408091BF0E882331F1813091F4B1E017
:10373000CF53DF4FB883C15CD040C154DF4F1882F4
:10374000CF5BD040E2E0CA54DF4FE883C65BD04095
:1037500023C0CF53DF4F1882C15CD040F2E0C15488
:10376000DF4FF883CF5BD04021E0CA54DF4F28837E
:10377000C65BD04011C032E0CF53DF4F3883C15C0D
:10378000D04081E0C154DF4F8883CF5BD040CA5422
:10379000DF4F1882C65BD0408091BD0E813041F072
:1037A000C654DF4F9881CA5BD0409330F1F530C0EA
:1037B00077EEE72E7EE0F72E00E010E0CE54DF4FEC
:1037C000A881C25BD040CA2ED12CC601002E02C0F7
:1037D000959587950A94E2F780FF11C023E333E3C0
:1037E0004BEC51E4F70160817181828193810E94E9
:1037F0002767D7016D937D938D939C9313970F5FEC
:103800001F4FB4E0EB0EF11C03301105F1F6C8CFE9
:103810008091C00E813049F4CE54DF4FE881C25B05
:10382000D040E43011F00C946B248CE0EEE4FEE028
:10383000DE01559601900D928A95E1F7C354DF4F52
:1038400028813981CD5BD04031FD0AC09090BA0EFD
:1038500032E09316D1F088E0981609F4DCC041C13B
:103860008091C10E873018F08DE10C94C1249091A5
:10387000310E981759F3BE016B5E7F4F0E942429C9
:10388000882311F40C947D24E1CFCE54DF4F98812E
:10389000C25BD040911103C08AE10C94C124C5548D
:1038A000DF4F88819981CB5BD04080759927892B28
:1038B00009F427CF6091DA0E7091DB0E8091DC0E57
:1038C0009091DD0E0E94F5670E944265673060F6B8
:1038D0008091D50E843159F0823009F0FEC7C5546D
:1038E000DF4FA881CB5BD040A7FF01C0F6C7C5540E
:1038F000DF4FE881F981CB5BD040EF7AC554DF4FD1
:10390000F983E883CB5BD040662339F06150C25520
:10391000DF4F6883CE5AD04007C0F091C10EC25528
:10392000DF4FF883CE5AD040BE016F5F7F4FC25544
:10393000DF4F8881CE5AD0400E942429882309F481
:10394000DCC73090D50E4090660E5090670E6090A8
:10395000680E7090690E8E010F5F1F4FC12CD12C25
:10396000E12CF12CCE54DF4F2881C25BD040822E57
:10397000912CC4010E2C02C0959587950A94E2F70C
:1039800080FF3BC0C6018654914F5C0194E139121F
:103990002AC0F601E55DF14F27A530A941A952A93A
:1039A0006789708D818D928D0E94F463D5019D96FB
:1039B0002D913D914D915C91D0970E94F463F80157
:1039C0006083718382839383F2E0EF16F104A9F49C
:1039D000A30192010E94F463D8016D937D938D93AE
:1039E0009C9313970AC0F50185A596A5A7A5B0A934
:1039F000F80180839183A283B383FFEFEF1AFF0A5C
:103A000024E0C20ED11C0C5F1F4F33E0E316F1041B
:103A100009F0AFCF34C1CE54DF4F8881C25BD040B4
:103A2000882309F439CF4090660E5090670E60905D
:103A3000680E7090690E07EE1EE0C12CD12CE12CAF
:103A4000F12CA82EB12CF601E55DF14FC5010E2C2D
:103A500002C0959587950A94E2F780FF2BC0A5E1F7
:103A6000B0E0AC0FBD1FAC0DBD1D2D913D914D9132
:103A70005C916789708D818D928D0E94F463D8016D
:103A80002D913D914D915C910E94F463F80160830A
:103A9000718382839383F2E0EF16F104A1F4A30112
:103AA00092010E94F463D8016D937D938D939C9352
:103AB000139709C087A590A9A1A9B2A9F80180838D
:103AC0009183A283B383FFEFEF1AFF0A24E0C20EB3
:103AD000D11C0C5F1F4F33E0E316F10409F0B3CFA4
:103AE000C9C0C654DF4F8881CA5BD040833061F4BF
:103AF00095E0991609F49DC0A7E09A1609F4B5C09F
:103B0000B3E09B12B7C084C0CE54DF4FE881C25BE4
:103B1000D040EE2309F4A3C08090BE0E4090660E04
:103B20005090670E6090680E7090690E62E4C62E29
:103B30006EE0D62E07EE1EE05E01F5E1AF0EB11C81
:103B4000E12CF12C2E2E312CC1010E2C02C09595AA
:103B500087950A94E2F780FD0BC0F6018081918180
:103B6000A281B381F80180839183A283B3833FC094
:103B7000F7E09F16E1F1811029C0D60158962D91EA
:103B80003D914D915C915B97F501608171818281DE
:103B900093810E94F563D8012D913D914D915C91E7
:103BA0000E94F563F8016083718382839383F2E05E
:103BB000EF16F104E1F4A30192010E94F563D8012C
:103BC0006D937D938D939C93139711C0F601208183
:103BD000318142815381D8016D917D918D919C916C
:103BE0000E94F563F8016083718382839383FFEF02
:103BF000EF1AFF0A24E0C20ED11C0C5F1F4F34E005
:103C0000A30EB11C83E0E816F10409F09DCF70CF3C
:103C1000CE54DF4F9881C25BD040911105C0C6548D
:103C2000DF4F1882CA5BD040BE016F5F7F4F86E0D6
:103C300010C0CE54DF4FA881C25BD040A11105C097
:103C4000C654DF4F1882CA5BD040BE016F5F7F4F02
:103C500087E00E942429882309F44FC60BC085E021
:103C6000981671F397E0991288C68091BB0E823046
:103C700008F035C6C255DF4F1882CE5AD040109199
:103C8000BB0E183089F4CE54DF4FB881C25BD040F0
:103C9000BB2309F44DC2C654DF4FE881CA5BD04054
:103CA000E13009F01EC664C3C654DF4FF881CA5B19
:103CB000D040F23009F03CC2111109C0CE54DF4FA0
:103CC0002881C25BD040222309F439C251C320E0CD
:103CD00030E0A9016091C50E7091C60E8091C70EAB
:103CE0009091C80E0E94CE64882309F4FCC514305C
:103CF00028F4123080F4113029F03AC3183008F457
:103D0000D1C136C3CE54DF4F3881C25BD04033239C
:103D100009F415C22DC3CE54DF4F8881C25BD04059
:103D2000882309F4B9CDCA54DF4F9881C65BD040CF
:103D3000692E712CC154DF4FB881CF5BD040AB2FBF
:103D4000B0E0C354DF4FB983A883CD5BD04081E09E
:103D500090E09C01C154DF4F0880CF5BD04002C08F
:103D6000220F331F0A94E2F77C01CA54DF4F088008
:103D7000C65BD04002C0EE0CFF1C0A94E2F7E22AB8
:103D8000F32ACE54DF4FE881C25BD0408E2F90E003
:103D90008E219F21892B09F4A8C5C301880F991F83
:103DA000880F991FFC01E654F14FDC01A55DB14F6E
:103DB00057962D913D914D915C915A9765A576A5A9
:103DC00087A590A90E94F4631B012C01C354DF4F07
:103DD00088819981CD5BD040880F991F880F991FEA
:103DE000FC01E654F14FDC01A55DB14F57962D91D2
:103DF0003D914D915C915A9765A576A587A590A9AF
:103E00000E94F4634B015C01C554DF4FC880D98028
:103E1000CB5BD040F0E8CF22DD24C554DF4F2881B2
:103E2000CB5BD04027FF4BC0C554DF4F88819981C1
:103E3000CB5BD0408F77C554DF4F99838883CB5BB2
:103E4000D0402091E70E3091E80E4091E90E50915C
:103E5000EA0E6091420E7091430E8091440E909153
:103E6000450E0E94CE64811178C12091EB0E3091F5
:103E7000EC0E4091ED0E5091EE0E6091460E709159
:103E8000470E8091480E9091490E0E94CE64811198
:103E900064C12091EF0E3091F00E4091F10E5091DF
:103EA000F20E60914A0E70914B0E80914C0E9091E3
:103EB0004D0E0E94CE64811150C181E262C5CB5388
:103EC000DF4F3881C55CD040232F30E0CE54DF4F28
:103ED00039832883C25BD040E222F322EF2809F421
:103EE00006C5C554DF4F88819981CB5BD040817F67
:103EF000C554DF4F99838883CB5BD0408091BD0E42
:103F0000813009F486C0F301EE0FFF1FEE0FFF1F93
:103F1000E254F14FC384D484E584F684A70196016A
:103F2000C201B1010E94F4632B013C01C354DF4F75
:103F3000E881F981CD5BD040EE0FFF1FEE0FFF1F30
:103F4000E254F14F83859485A585B685CE54DF4F25
:103F500088839983AA83BB83C25BD0409C01AD0157
:103F6000C501B4010E94F4634B015C01A3019201FD
:103F7000C301B2010E9427672B013C01A5019401F6
:103F8000C501B4010E9427679B01AC01C301B201C6
:103F90000E94F5630E94B4674B015C01A701960182
:103FA000C701B6010E9427676B017C01CE54DF4F29
:103FB000288139814A815B81C25BD040CA01B90145
:103FC0000E9427679B01AC01C701B6010E94F563FF
:103FD0000E94B4676B017C016093DE0E7093DF0E6C
:103FE0008093E00E9093E10E9B01AC01C501B401FA
:103FF0000E94F4634B015C01E894B7F82AE037EDC6
:1040000043EA5BE3C501B4010E94EC6618166CF14B
:10401000AFC10AEB1EE0CE54DF4F88819981C25BAD
:10402000D0400C2C02C0959587950A94E2F780FF4A
:1040300012C023E333E34BEC51E4D8011F966D919A
:104040007D918D919C9152970E942767F801678717
:10405000708B818B928BFFEFCF1ADF0A0C5F1F4FA3
:1040600023E0C216D104B9F64ECF20E030E040E0A4
:104070005FE3C501B4010E94EC6618160CF41DCF75
:104080002FE632E143E85AE3C701B6010E942767F1
:104090009B01AC01C501B4010E94EC6618160CF43A
:1040A0000CCF66C1CE54DF4F3881C25BD040332382
:1040B00009F4F2CB2091E70E3091E80E4091E90E21
:1040C0005091EA0E6091420E7091430E8091440E21
:1040D0009091450E0E94CE6481114AC12091EB0E51
:1040E0003091EC0E4091ED0E5091EE0E6091460E27
:1040F0007091470E8091480E9091490E0E94CE64B7
:10410000811136C12091EF0E3091F00E4091F10EE9
:104110005091F20E60914A0E70914B0E80914C0EB0
:1041200090914D0E0E94CE64882309F4C6CE20C122
:10413000C654DF4F8881CA5BD040811119C1C55474
:10414000DF4F88819981CB5BD0408E7D9C7FC654A8
:10415000DF4F1882CA5BD04013C18091BD0E813001
:10416000B1F423E333E34BEC51E46091DE0E709144
:10417000DF0E8091E00E9091E10E0E942767609320
:10418000DE0E7093DF0E8093E00E9093E10E80912F
:10419000DE0E9091DF0EA091E00EB091E10ECE54B4
:1041A000DF4F88839983AA83BB83C25BD040A2017F
:1041B0009101C201B1010E942767CB53DF4F688391
:1041C00079838A839B83C55CD040A5019401C50196
:1041D000B4010E942767C753DF4F688379838A83BE
:1041E0009B83C95CD04020E030E040E850E4CE54EE
:1041F000DF4F688179818A819B81C25BD0400E94B8
:104200002767CE54DF4F288139814A815B81C25BA9
:10421000D0400E942767CB53DF4F288139814A81E4
:104220005B81C55CD0400E94F463C753DF4F288197
:1042300039814A815B81C95CD0400E94F4636B0183
:104240007C0120E030E0A9010E94CE6487FD6CC3B0
:10425000C701B6010E94B4676B017C01C753DF4FF1
:10426000288139814A815B81C95CD040CB53DF4FC3
:10427000688179818A819B81C55CD0400E94F56309
:104280000E94B4679B01AC01C701B60190580E941F
:10429000D5646B017C01133021F4F7FAF094F7F840
:1042A000F09420E030E0A901CE54DF4F688179819D
:1042B0008A819B81C25BD0400E94CE6487FF15C07B
:1042C000F7FAF094F7F8F094CE54DF4F8881998193
:1042D000AA81BB81C25BD040B0588093DE0E909320
:1042E000DF0EA093E00EB093E10E8301000F111FCB
:1042F000000F111F0254114FA7019601C501B4010F
:104300000E9427679B01AC01C201B1010E94F463C6
:1043100020E030E040E05FE30E942767D8011B9671
:104320006D937D938D939C931E97C354DF4F0881AB
:104330001981CD5BD040000F111F000F111F0254D7
:10434000114FA7019601C201B1010E9427679B018D
:10435000AC01C501B4010E94F56320E030E040E00B
:104360005FE30E942767F8016387748785879687D4
:10437000C554DF4F88819981CB5BD0408E7D907E84
:10438000892B09F0B6C28091D60E9091D70EA091DC
:10439000D80EB091D90E80933E0E90933F0EA0930D
:1043A000400EB093410E8091BC0E80932C0E8091F4
:1043B000C50E9091C60EA091C70EB091C80E809305
:1043C000390E90933A0EA0933B0EB0933C0EC090E2
:1043D000E20ED090E30EE090E40EF090E50EA7011F
:1043E00096016091350E7091360E8091370E909146
:1043F000380E0E94CE64882339F18091340E8823D0
:1044000099F09091F50E923079F0C153DF4F888387
:10441000CF5CD0400E94065EB701A601C153DF4FBA
:104420008881CF5CD040A1D58091E20E9091E30EBF
:10443000A091E40EB091E50E8093350E9093360E68
:10444000A093370EB093380E8091E60E80933D0E08
:104450008091C40E9091340E981709F445C0409194
:10446000350E5091360E6091370E7091380E909146
:10447000F50E9230A9F1C053DF4F4883C05DD040A4
:10448000CF52DF4F5883C15DD040C353DF4F6883A5
:10449000CD5CD040C253DF4F7883CE5CD040C15357
:1044A000DF4F8883CF5CD0400E94065EC053DF4F51
:1044B0004881C05DD040CF52DF4F5881C15DD040B0
:1044C000C353DF4F6881CD5CD040C253DF4F78814A
:1044D000CE5CD040C153DF4F8881CF5CD04045D502
:1044E0008091C40E8093340E1091C30E8091330ED0
:1044F000811781F08091F50E823041F00E94065EB6
:10450000123011F45C9A02C00E94F8548091C30EDC
:104510008093330E8091BA0E813089F08091BF0E66
:1045200080932F0E8091BD0E80932D0EC654DF4FC9
:104530009881CA5BD040933009F074C054C0809019
:10454000DA0E9090DB0EA090DC0EB090DD0E809124
:10455000F50E823019F320E030E040EA51E4C50165
:10456000B4010E9427670E94AB650E9442656B01FF
:104570007C010E94065E20E030E04AE754E4C50179
:10458000B4010E9427674B015C0182E38C9DB0015E
:104590008D9D700D112480E090E00E946E659B015E
:1045A000AC01C501B4010E94F4630E94AB650E9496
:1045B0004265CB010E94484D86010115110509F4A1
:1045C000ADCF0E94322E015011098091F40E81115D
:1045D000A5CFAFEFB0E7E2E0A150B040E040E1F797
:1045E00000C00000EACF8091C00E8093300E813071
:1045F00089F48091EF0E9091F00EA091F10EB091A0
:10460000F20E8093660E9093670EA093680EB0939F
:10461000690E08C01092660E1092670E1092680E16
:104620001092690E8091C10E9091310E981759F039
:104630008093310E8CE0FE017596AEE4BEE00190F1
:104640000D928A95E1F78091BE0E80932E0EE09137
:10465000BA0E8E2F90E0FC013297E830F10508F099
:1046600067C08827E957FF4F8F4F0C945A68BE01E7
:104670006F5F7F4FC255DF4F8881CE5AD040DBD568
:104680008091310EC255DF4FF881CE5AD0408F1342
:104690004FC08CE0FE013196AEE4BEE03DC0C65492
:1046A000DF4F2881CA5BD040222371F02091390E60
:1046B00030913A0E40913B0E50913C0E00E067EE77
:1046C0007EE081E00E94414E2091390E30913A0EF9
:1046D00040913B0E50913C0E00E0BE016F5F7F4F5A
:1046E00081E00E94414E182F8CE0FE013196A2E439
:1046F000BEE001900D928A95E1F71BC062E47EE076
:1047000086E003C062E47EE087E095D511C08CE0CE
:10471000E7EEFEE0AAE5BEE001900D928A95E1F792
:1047200007C08CE0EAE5FEE0DF011D928A95E9F71B
:1047300010E08091BB0E80932B0E883009F470C07E
:10474000C654DF4FB881CA5BD040B23009F068C0B0
:1047500090E08830910508F05AC0FC014090390E75
:1047600050903A0E60903B0E70903C0E8827E157B7
:10477000FF4F8F4F0C945A6800E0A301920167EE3F
:104780007EE080E007C000912C0EA301920167EE4D
:104790007EE081E00E94414E182F39C06091DE0E0C
:1047A0007091DF0E8091E00E9091E10E8824839449
:1047B00009C06091DE0E7091DF0E8091E00E909145
:1047C000E10E812CCF53DF4FA880C15CD040C15493
:1047D000DF4FC880CF5BD040CA54DF4FE880C65B54
:1047E000D04000912C0EA30192010E94CE5E0FC01A
:1047F00000E001C001E020E004C000E001C001E0F1
:1048000021E040912C0EC301B2010E94235E8CE096
:10481000E7EEFEE0A2E4BEE001900D928A95E1F79A
:104820008091C20E8093320E882309F464C00E94E6
:10483000065E9091320E8091F50E913069F48230CF
:10484000D9F19FB7F89480916A0E886080936A0EC0
:104850009FBF0E94322E30C091E090932B0E109299
:104860002F0E10922E0E10922C0E1092310E1092CE
:10487000340E1092330E823099F0BE016B5E7F4F82
:1048800080E0E2D48823C9F18CE0FE017596AEE4A5
:10489000BEE001900D928A95E1F760D30E94F85432
:1048A00085E999E00E94242E89E399E00E94242E54
:1048B00082E299E00E94242E1092320E1CC081E008
:1048C00060C082E05EC088E15CC089E15AC084E0DB
:1048D00058C08BE156C085E254C084E152C08EE1DD
:1048E00050C08FE14EC086E14CC080E24AC083E2F6
:1048F00048C084E246C0812F44C087E042C0EEE158
:104900002E16310411F40C94B90C80F42AE022160E
:10491000310411F40C94890C3CE12316310411F498
:104920000C949D0C87E12DC082E22BC085E32816F4
:10493000310411F40C94DC0C9CE52916310491F738
:10494000CA54DF4FE881F981C65BD040309729F027
:104950003A9719F689E00C94C20C88E00C94C20CCA
:104960003CE52316310411F00C94330EA1E0C6543B
:10497000DF4FA883CA5BD040E3CFA3E09A127AC985
:104980004EC9CF52DF4F0FB6F894DEBF0FBECDBF7A
:10499000DF91CF911F910F91FF90EF90DF90CF901B
:1049A000BF90AF909F908F907F906F905F904F904F
:1049B0003F902F90089569E080E090E00E944D5470
:1049C0004DE450E06CE67EE081E098E00C946F549A
:1049D00080916F008D7F80936F0080918100887F30
:1049E0008160809381001092210F80919F0E8F3FF4
:1049F00021F49091F30E992349F09091F50E9430A3
:104A000029F090E00E94484D81E001C080E0909143
:104A1000A90E92FF02C091E08927882341F08A9A6B
:104A2000809108018160809308015F9A08958A98B7
:104A3000809108018E7F809308015F9808951F92EE
:104A40000F920FB60F9211240BB60F922F933F9334
:104A50004F935F936F937F938F939F93AF93BF9386
:104A6000EF93FF938091210F811139C28091310F13
:104A700080FD8F9A80FF8F9890910B01482F427094
:104A80009D7F942B90930B0141B3847090E095959A
:104A90008795942F9D7F892B81BB91B38091300F97
:104AA000282F217030E066E0220F331F6A95E1F76E
:104AB0009F7B292B21BB90910B01282F2270220F65
:104AC000220F977F922B90930B0121B382FB9927A2
:104AD00090F9822F8E7F892B81BB80912F0F86BD0D
:104AE00082E085BD81E08093210F78948091430F0F
:104AF0009091440F892B09F0ACC080912A129091BB
:104B00004F12981709F49BC0E0912A122E2F30E023
:104B100086E0E89FF0011124E55DFD4EF093440F1F
:104B2000E093430F83819481909389008093880060
:104B30008081918190933F0F80933E0FE28180911D
:104B4000400F8E1761F1E093400F81E1E89FF00183
:104B50001124E05BFD4EF093420FE093410F8585F9
:104B60009685A785B089B695A795979587958093E3
:104B70002A0F90932B0FA0932C0FB0932D0F80939F
:104B8000260F9093270FA093280FB093290F80939F
:104B9000220F9093230FA093240FB093250FE09141
:104BA000410FF091420F90911F0F808189278093D0
:104BB000310F86E0829FD001839FB00D1124A55D47
:104BC000BD4E15962C9181819281A381B481022ED4
:104BD00004C0B695A795979587950A94D2F78093C8
:104BE000320F9093330FA093340FB093350F85811C
:104BF0009681A781B085022E04C0B695A79597959A
:104C000087950A94D2F78093360F9093370FA0932D
:104C1000380FB093390F81859285A385B48504C080
:104C2000B695A795979587952A95D2F780933A0FD1
:104C300090933B0FA0933C0FB0933D0F0AC0C8DE8A
:104C40009FB7F89480916A0E846080936A0E9FBF2C
:104C500046C180916B0E8130B1F489B18071909121
:104C6000B90E891781F010926B0E8CE0E8EFFEE030
:104C7000A4E0BFE001900D928A95E1F780916A0E61
:104C8000806480936A0E1092300F4091320F5091E1
:104C9000330F6091340F7091350F8091220F9091F6
:104CA000230FA091240FB091250F840F951FA61FED
:104CB000B71F8093220F9093230FA093240FB093DC
:104CC000250FE091410FF091420F4585568567858C
:104CD0007089481759076A077B0768F521E0209318
:104CE000300F4585568567857089841B950BA60B0B
:104CF000B70B8093220F9093230FA093240FB093B0
:104D0000250F20818091F80E9091F90EA091FA0E56
:104D1000B091FB0E20FF04C00197A109B10903C0A7
:104D20000196A11DB11D8093F80E9093F90EA093EA
:104D3000FA0EB093FB0E4091360F5091370F6091F1
:104D4000380F7091390F8091260F9091270FA09105
:104D5000280FB091290F840F951FA61FB71F8093AE
:104D6000260F9093270FA093280FB093290F458506
:104D7000568567857089481759076A077B0778F554
:104D80002091300F22602093300F4585568567852E
:104D90007089841B950BA60BB70B8093260F9093FD
:104DA000270FA093280FB093290F20818091FC0E2C
:104DB0009091FD0EA091FE0EB091FF0E21FF04C058
:104DC0000197A109B10903C00196A11DB11D8093EE
:104DD000FC0E9093FD0EA093FE0EB093FF0E40913B
:104DE0003A0F50913B0F60913C0F70913D0F8091B5
:104DF0002A0F90912B0FA0912C0FB0912D0F840FA3
:104E0000951FA61FB71F80932A0F90932B0FA09377
:104E10002C0FB0932D0F45855685678570894817EF
:104E200059076A077B0778F52091300F246020939B
:104E3000300F4585568567857089841B950BA60BB9
:104E4000B70B80932A0F90932B0FA0932C0FB09346
:104E50002D0F20818091000F9091010FA091020FE2
:104E6000B091030F22FF04C00197A109B10903C04B
:104E70000196A11DB11D8093000F9093010FA09387
:104E8000020FB093030F8091F50E843039F49091A6
:104E9000110F8091300F89238093300F80913E0F46
:104EA00090913F0F019790933F0F80933E0F892B76
:104EB00069F41092440F1092430F80912A128F5F71
:104EC00080932A12863011F410922A129091200FAA
:104ED0008091300F89278093300F1092210FFF911E
:104EE000EF91BF91AF919F918F917F916F915F9162
:104EF0004F913F912F910F900BBE0F900FBE0F90CF
:104F00001F9018958091A90E82FF08C08A9A8091FF
:104F100008018160809308015F9A07C08A98809198
:104F200008018E7F809308015F988091F50E8C7048
:104F3000A1F080911F0F8093310F8091200F8093FB
:104F4000300F80919C0E880F8450819580932F0F95
:104F500080916F00826080936F000895E0EAF0E036
:104F600080818F7D80835C980895CF92DF92EF924D
:104F7000FF926A017B01811105C0FF90EF90DF90E5
:104F8000CF90ECCF813011F45C9801C05C9A83E241
:104F90008093A0008091A100807E8A618093A1000F
:104FA0008FEF9FEF9093A9008093A80020E030E05E
:104FB000A901C701B6010E94CE641816F4F620E0DC
:104FC00030E0A901C701B6010E94CE6487FD11C07F
:104FD00020E030E04AE754E4C701B6010E94EC66E5
:104FE000181654F4C12CD12C8AE7E82E84E4F82E4C
:104FF00003C0C12CD12C76012CEE31E143E852E400
:10500000C701B6010E94276720E030E040E05FE37F
:105010000E94F5630E94AB650E9442657093AB00ED
:105020006093AA005C9AFF90EF90DF90CF90089574
:10503000CF92DF92EF92FF92CF93DF93C82F6A0156
:105040007B0120E030E0A901C701B6010E94CE64D7
:1050500087FDE3C0C43608F441C08CE98C0F20E022
:10506000833098F590E0880F991F880F991F2230A0
:1050700079F0FC01233011F1213019F0E459F14F9E
:1050800002C0E858F14FC082D182E282F382C2C0EE
:10509000EC01CC57D14F20E030E040E752E4C701AB
:1050A000B6010E94276720E030E040E752E40E940A
:1050B0002767688379838A839B83ACC0E057F14F6D
:1050C000F7FAF094F7F8F094DECF2F5F8A3008F407
:1050D000A6C0243009F4A3C08A50C2CFC701B601CC
:1050E0000E94F5670E9442658C2F90E08C319105FB
:1050F00008F095C0FC018827E956FF4F8F4F0C94AC
:105100005A68633008F48DC060939C0E83C060932E
:105110009F0E80C060939D0E02C060939E0E0E9401
:10512000FA4A78C08091A90E662311F084604CC0C1
:105130008B7F4AC08091A90E662311F0806444C021
:105140008F7B42C08091A90E662311F080683CC01D
:105150008F773AC06093A00E5DC0C092A10ED0922E
:10516000A20EE092A30EF092A40E54C0C092A50E1F
:10517000D092A60EE092A70EF092A80E4BC080919E
:10518000A90E662311F081601FC08E7F1DC0809123
:10519000A90E662321F084FF46C0806215C08F7D72
:1051A00013C08091A90E662311F0886001C0877F2B
:1051B0008093A90E0E9435542DC08091A90E6623BC
:1051C00011F0806101C08F7C8093A90E23C0609391
:1051D000AA0E20C0C092AB0ED092AC0EE092AD0EE3
:1051E000F092AE0E17C0C092AF0ED092B00EE09209
:1051F000B10EF092B20E0EC070E07093B40E6093D8
:10520000B30E08C0C092B50ED092B60EE092B70EA3
:10521000F092B80ED0DB80E007C084E005C083E0E8
:1052200003C086E001C08AE0DF91CF91FF90EF904C
:10523000DF90CF9008952DE0829FC00111244CE0B3
:1052400050E0965F0C946F541F93CF93DF93182F09
:10525000EB018DE0189FB0011124765F4CE050E027
:10526000CE010E94B454892B51F48CE0FE011192BE
:105270008A95E9F7BE01812FDEDF80E001C081E081
:10528000DF91CF911F910895EF92FF920F931F939B
:10529000CF93DF93CDB7DEB72C970FB6F894DEBF70
:1052A0000FBECDBF182F80FFC6C08AE080939C0E32
:1052B0008FEF80939F0E10929D0E87E080939E0E3D
:1052C00083E08093A00E8AE097EDA3E2BCE3809395
:1052D000A10E9093A20EA093A30EB093A40E8FE6FE
:1052E00092E1A3E0BBE38093A50E9093A60EA0935A
:1052F000A70EB093A80E1092AA0E80E090E0A8EC42
:10530000B1E48093AB0E9093AC0EA093AD0EB0932E
:10531000AE0E80E090E0AAEFB3E48093AF0E9093DE
:10532000B00EA093B10EB093B20E8AEF90E09093BE
:10533000B40E8093B30E80E090E0A0E8BFE38093CA
:10534000B50E9093B60EA093B70EB093B80E84E04E
:105350008093A90E80E090E5A3E4B7E480936C0EFF
:1053600090936D0EA0936E0EB0936F0E8093700E9F
:105370009093710EA093720EB093730E8093740E7F
:105380009093750EA093760EB093770E80E090E523
:10539000A3ECB7E48093780E9093790EA0937A0EE5
:1053A000B0937B0E80937C0E90937D0EA0937E0E27
:1053B000B0937F0E8093800E9093810EA093820E07
:1053C000B093830E80E090E4A2E9B5E48093840E6C
:1053D0009093850EA093860EB093870E8093880ECF
:1053E0009093890EA0938A0EB0938B0E80938C0EAF
:1053F00090938D0EA0938E0EB0938F0E80E090E46C
:10540000ACE1B6EC8093900E9093910EA093920E27
:10541000B093930E8093940E9093950EA093960E56
:10542000B093970E8093980E9093990EA0939A0E36
:10543000B0939B0EC0DA11FF0FC0CE0101967C0124
:105440008CE0F70111928A95E9F700E0B701802F0F
:10545000F2DE0F5F0830D1F712FF0AC060E080E093
:105460009BE00E944D5460E081E59BE00E944D541A
:1054700013FF05C060E08EEA9BE00E944D542C961D
:105480000FB6F894DEBF0FBECDBFDF91CF911F9155
:105490000F91FF90EF9008951F920F920FB60F9209
:1054A00011240BB60F922F933F934F935F936F93FB
:1054B0007F938F939F93AF93BF93EF93FF938091CD
:1054C000C6008F33A9F050F4883109F1813211F50B
:1054D0009FB7F89480916A0E886015C0803471F08F
:1054E0008E37C1F49FB7F89480916A0E82600BC02A
:1054F0009FB7F89480916A0E816005C09FB7F894B9
:1055000080916A0E806280936A0E9FBF14C00E94D1
:10551000174E11C0E091B80C91E09E0F903809F43D
:1055200090E02091B70C921731F0F0E0E95CF34F76
:1055300080839093B80CFF91EF91BF91AF919F91B1
:105540008F917F916F915F914F913F912F910F902C
:105550000BBE0F900FBE0F901F9018951F920F92C9
:105560000FB60F9211240BB60F928F939F93EF9368
:10557000FF9380913A0DE82FF0E0E654F34F9081CD
:105580009093C6008F5F803809F480E080933A0DD5
:105590009091B90C891305C08091C1008F7D8093D3
:1055A000C100FF91EF919F918F910F900BBE0F90D3
:1055B0000FBE0F901F901895E091B90C91E09E0FCF
:1055C000903831F490E004C020916A0E24FD0FC0A1
:1055D00020913A0D9217C1F3F0E0E654F34F808327
:1055E0009093B90C8091C10080628093C1000895AE
:1055F000CF93C82F88E798E027D3C830B1F190F453
:10560000C43051F148F4C23001F118F5C13009F04D
:1056100040C080E698E01BC0C63009F118F581E271
:1056200098E015C0C43169F140F4CA3021F100F1AD
:10563000CB3079F583E993E02AC0C63129F1F0F047
:10564000C23339F58DE993E022C08EE498E0FCD2B4
:1056500025C08CE398E0FBCF82E398E0F8CF82E1AD
:1056600098E0F5CF81EF97E0F2CF88EE97E0EFCFAB
:105670008DED97E0ECCF8AEC97E0E9CF84EB97E0F3
:10568000E6CF88E993E003C080EA97E0E0CF44D515
:1056900005C08EE897E0D8D28C2FC8D28BE897E06F
:1056A000CF91D2C20F931F93CF93DF9385E897E0FA
:1056B000CBD2C4EFDEE0688979898A899B890E9410
:1056C00070650CE61EE0F801208131814281538132
:1056D0000E94D5649DD283E897E0B6D26C897D891B
:1056E0008E899F890E947065F801248135814681E9
:1056F00057810E94D5648CD283E897E0A5D2688D4B
:10570000798D8A8D9B8D0E947065F8012085318589
:10571000428553850E94D5647BD281E897E094D27C
:105720008C8D84D28DE797E0DF91CF911F910F91FF
:105730008BC2FF920F931F93CF93DF9389E797E07C
:1057400083D280919C0E72D280E697E07DD28091C8
:105750009F0E6CD282E497E077D280919D0E66D244
:1057600089E297E071D280919D0E6BD282E297E040
:105770006BD280919E0E5AD28AE097E065D28091DA
:105780009E0E5FD283E097E05FD28091A90E82FBEC
:10579000882780F94BD282EE96E056D28091A90EEE
:1057A00086FB882780F942D282EC96E04DD2809128
:1057B000A90E881F8827881F39D282EA96E044D232
:1057C0008091A00E33D28CE896E03ED28091A00E5C
:1057D00038D284E896E038D26091A10E7091A20E82
:1057E0008091A30E9091A40E03D284E696E02CD271
:1057F0006091A50E7091A60E8091A70E9091A80EB3
:10580000F7D189E496E020D28091A90E81700ED262
:105810008CE296E019D28091A90E85FB882780F949
:1058200005D281E196E010D28091A90E83FB8827F2
:1058300080F9FCD186EF95E007D28091A90E829580
:105840008170F4D18AED95E0FFD18091AA0EEED15E
:1058500080EC95E0F9D18091AA0EF3D188EB95E028
:10586000F3D16091AB0E7091AC0E8091AD0E909122
:10587000AE0EBED18BE995E0E7D16091AF0E70918D
:10588000B00E8091B10E9091B20EB2D18EE795E03C
:10589000DBD18091B30ECAD18FE595E0D5D160916F
:1058A000B50E7091B60E8091B70E9091B80EA0D142
:1058B00086E495E0C9D184E6F82EC0E00CE61EE04F
:1058C000D0E084E495E0C0D18D2F8F0DAFD182E47C
:1058D00095E0BAD1C23079F0F801C330C1F0C130DF
:1058E00029F0608171818281938118C064857585FA
:1058F0008685978513C020E030E041E655E4F80145
:10590000608D718D828D938D0E94D56407C084A1B6
:1059100095A1A6A1B7A1BC01CD01905869D18FE393
:1059200095E092D1D13029F0D23031F08DE395E07D
:1059300005C08BE395E002C089E395E085D1C230D4
:1059400051F0C33059F0C13019F08FE295E008C032
:105950008DE195E005C08CE095E002C08CEF94E00D
:1059600073D188EF94E070D1DF5F0C5F1F4FD330AD
:1059700009F0A7CFFAE0FF0ECF5F8CE8F8129ECFB8
:10598000DF91CF911F910F91FF90089580E090E0FB
:105990000E94AC54893051F44DE450E061E078E06D
:1059A0008CE69EE00E94B454892B29F487E020DE27
:1059B0008FEF6ADCBECE08959FB7F89480916A0E8F
:1059C000826080936A0E9FBF08958F929F92AF92DC
:1059D000BF92CF92DF92EF92FF920F931F93CF93DC
:1059E000DF93CDB7DEB72A970FB6F894DEBF0FBEB0
:1059F000CDBF6B017C01042F20E030E0A9010E94A3
:105A0000CE6487FF06C08DE2D7DDF7FAF094F7F891
:105A1000F094102F123060F020E030E048EC52E4B7
:105A2000C701B6010E9427676B017C011250F2CFBB
:105A300000FF0AC020E030E040E251E4C701B601B7
:105A40000E9427676B017C0120E030E040E05FE3CB
:105A5000C701B6010E94F5630E943D65E1E0F0E0F8
:105A6000EC0FFD1FE00FF11D2EE2208310E03AE065
:105A7000832E912CA12CB12C611571058105910506
:105A8000A9F0101301C01F5FEE24E394F12CEC0E7B
:105A9000FD1EE10EF11CA50194010E943868605DB5
:105AA000F7016083B901CA011F5FE6CF80E31017D9
:105AB00048F4E1E0F0E0EC0FFD1FE10FF11D808301
:105AC0001F5FF5CF10130BC012E0100F0F5FE1E066
:105AD000F0E0EC0FFD1FE00FF11D80E38083112348
