:10000000CBC40000EAC40000E8C40000E6C400005D
:10001000E4C40000E2C40000E0C40000DEC400004C
:10002000DCC400000C94AF51D8C400000C94B82E6E
:10003000D4C40000D2C40000D0C400000C94193114
:10004000CCC400000C94703CC8C40000C6C40000BE
:10005000C4C40000C2C40000C0C400000C949D3B96
:10006000BCC400000C9459450C94BB45B6C40000B8
:10007000B4C40000B2C40000B0C40000AEC40000AC
:10008000ACC40000AAC40000A8C400000C94033152
:10009000A4C40000A2C40000A0C400009EC40000CC
:1000A0009CC400009AC4000098C4000096C40000DC
:1000B00094C400000C94CE3090C400008EC40000A4
:1000C0008CC400008AC400000C94993086C40000DF
:1000D00084C4000082C4000080C400007EC400000C
:1000E0007CC40000661913241324741989199E19FD
:1000F000B3191324BC191324CF191324DE19E819DA
:10010000401A132413241324F719111A2B1AD92275
:10011000F2222123F22225233C232B2335236023A3
:10012000672372237D239C239E23A123A3238E4335
:10013000944397439A439F43A743AF431C441C44B3
:100140001C44B743BA43C343CC431C441C441C4423
:100150001C441C441C44D443DE43EA43F443F743A9
:10016000004409440F44084AD73B3BCE016E84BC8F
:10017000BFFDC12F3D6C74319ABD56833DDA3D0001
:10018000C77F11BED9E4BB4C3E916BAAAABE00004A
:1001900000803F072C7AA5BA6CC590DA3B9365FCCA
:1001A0008BBC53F810FD3C5692834DBD879D3AB6EB
:1001B0003DCBC9BF5BBE73DA0FC93F05A84CCDB2BA
:1001C000D44EB93836A9020C50B9918688083CA69D
:1001D000AAAA2ABE000000803F0000407A10F35A0D
:1001E00000A0724E18090010A5D4E80000E8764877
:1001F000170000E40B54020000CA9A3B000000E123
:10020000F505000080969800000040420F000000B5
:10021000A08601000000102700000000E803000095
:1002200000006400000000000A000000000001005F
:10023000000000002C76D888DC674F0823DFC1DF80
:10024000AE59E1B1B796E5E3E453C63AE651997683
:1002500096E8E6C28426EB898C9B62ED407C6FFCBD
:10026000EFBC9C9F40F2BAA56FA5F490055A2AF7FF
:100270005C936B6CF9676DC11BFCE0E40D47FEF508
:1002800020E6B500D0ED902E030094357705008070
:10029000841E080000204E0A000000C80C333333CF
:1002A000330F986E12831141EF8D2114893BE6556F
:1002B00016CFFEE6DB18D1844B381BF77C1D901D52
:1002C000A4BBE424203284725E228100C9F124ECB4
:1002D000A1E53D276364696E6F70737578585B00A4
:1002E0000D0A4772626C20302E396A205B27242762
:1002F00020666F722068656C705D0D0A000D0A0043
:100300003D00244E005D0D0A005B302E396A2E320E
:10031000303136303732363A005D0D0A005B544CCE
:100320004F3A005D0D0A002C005B4739323A005D00
:100330000D0A002C003A003330003238005B4700D1
:100340005D0D0A00205300204600205400204D3847
:1003500000204D3900204D3500204D3400204D3314
:1003600000204D3200204D3100204D300020473913
:1003700034002047393300204739310020473930D5
:100380000020473230002047323100204731390009
:1003900020473138002047313700204700473338A5
:1003A0002E004738300047330047320047310047BE
:1003B00030005B002424202876696577204772622C
:1003C0006C2073657474696E6773290D0A24232089
:1003D0002876696577202320706172616D65746588
:1003E0007273290D0A244720287669657720706189
:1003F00072736572207374617465290D0A24492033
:100400002876696577206275696C6420696E666F0D
:10041000290D0A244E20287669657720737461724D
:1004200074757020626C6F636B73290D0A24783DBC
:1004300076616C7565202873617665204772626C01
:100440002073657474696E67290D0A244E783D6CBB
:10045000696E6520287361766520737461727475A6
:100460007020626C6F636B290D0A24432028636837
:1004700065636B2067636F6465206D6F6465290D2C
:100480000A245820286B696C6C20616C61726D20A5
:100490006C6F636B290D0A2448202872756E2068E2
:1004A0006F6D696E67206379636C65290D0A7E2024
:1004B000286379636C65207374617274290D0A2155
:1004C00020286665656420686F6C64290D0A3F20EA
:1004D0002863757272656E74207374617475732904
:1004E0000D0A6374726C2D78202872657365742010
:1004F0004772626C290D0A000D0A00486F6D696E23
:1005000067206661696C0050726F62652066616980
:100510006C0041626F727420647572696E6720634B
:1005200079636C6500536F6674206C696D69740043
:1005300048617264206C696D697400414C41524D90
:100540003A20003E0D0A002C4C696D3A002C52589E
:100550003A002C4275663A002C002C57506F733AC3
:10056000002C002C4D506F733A003C446F6F7200AA
:100570003C436865636B003C416C61726D003C48B4
:100580006F6D65003C486F6C64003C52756E003CBA
:1005900049646C65005D0D0A00526573746F726981
:1005A0006E672064656661756C74730050676D20BA
:1005B000456E6400436865636B20446F6F7200444E
:1005C000697361626C656400456E61626C656400AC
:1005D00043617574696F6E3A20556E6C6F636B651D
:1005E0006400272448277C2724582720746F20750F
:1005F0006E6C6F636B00526573657420746F20635B
:100600006F6E74696E7565005B00290D0A00206DC0
:1006100061782074726176656C2C206D6D002061AC
:100620006363656C2C206D6D2F7365635E320020F3
:100630006D617820726174652C206D6D2F6D696E0F
:10064000002C20737465702F6D6D007A007900782E
:10065000002028003D0024002028686F6D696E6727
:100660002070756C6C2D6F66662C206D6D290D0ADF
:10067000002028686F6D696E67206465626F756E13
:1006800063652C206D736563290D0A2432373D00A4
:100690002028686F6D696E67207365656B2C206D0F
:1006A0006D2F6D696E290D0A2432363D00202868B1
:1006B0006F6D696E6720666565642C206D6D2F6DAA
:1006C000696E290D0A2432353D00290D0A24323481
:1006D0003D002028686F6D696E672064697220692B
:1006E0006E76657274206D61736B3A002028686FB6
:1006F0006D696E67206379636C652C20626F6F6C27
:10070000290D0A2432333D00202868617264206C70
:10071000696D6974732C20626F6F6C290D0A243225
:10072000323D002028736F6674206C696D697473A4
:100730002C20626F6F6C290D0A2432313D00202875
:100740007265706F727420696E636865732C2062C5
:100750006F6F6C290D0A2432303D002028617263CE
:1007600020746F6C6572616E63652C206D6D290D50
:100770000A2431333D0020286A756E6374696F6EF8
:1007800020646576696174696F6E2C206D6D290D2A
:100790000A2431323D00290D0A2431313D00202840
:1007A000737461747573207265706F7274206D61FB
:1007B000736B3A00202870726F62652070696E203A
:1007C000696E766572742C20626F6F6C290D0A2435
:1007D00031303D0020286C696D69742070696E733A
:1007E00020696E766572742C20626F6F6C290D0A19
:1007F00024363D0020287374657020656E61626C3C
:100800006520696E766572742C20626F6F6C290D9D
:100810000A24353D00290D0A24343D00202864694E
:100820007220706F727420696E76657274206D61CB
:10083000736B3A00290D0A24333D00202873746538
:100840007020706F727420696E76657274206D61AD
:10085000736B3A002028737465702069646C65209E
:1008600064656C61792C206D736563290D0A2432EF
:100870003D002028737465702070756C73652C20A2
:1008800075736563290D0A24313D0024303D005DF8
:100890000D0A003A002C005B5052423A000D0A004B
:1008A000496E76616C69642067636F6465204944B2
:1008B0003A00556E646566696E65642066656564B8
:1008C0002072617465004D6F64616C2067726F7592
:1008D000702076696F6C6174696F6E00486F6D6926
:1008E0006E67206E6F7420656E61626C6564004196
:1008F0006C61726D206C6F636B004E6F7420696465
:100900006C6500454550524F4D207265616420660C
:1009100061696C2E205573696E6720646566617528
:100920006C74730056616C7565203C2033207573C0
:1009300065630053657474696E67206469736162EE
:100940006C65640056616C7565203C203000496E12
:1009500076616C69642073746174656D656E740092
:10096000426164206E756D62657220666F726D61A2
:100970007400457870656374656420636F6D6D61A4
:100980006E64206C6574746572006572726F723A81
:1009900020006F6B0D0A000011241FBECFEFD1E2C3
:1009A000DEBFCDBF00E00CBF13E0A0E0B2E0EEED93
:1009B000FAED00E00BBF02C007900D92A23CB10718
:1009C000D9F722E1A2ECB3E001C01D92AA3DB20723
:1009D000E1F70E94A5540C946D6D12CB2F923F92BB
:1009E0004F925F926F927F928F929F92AF92BF923F
:1009F000CF92DF92EF92FF920F931F93CF93DF93EB
:100A0000CDB7DEB7C15DD1090FB6F894DEBF0FBE1A
:100A1000CDBFC154DF4F99838883CF5BD04089E33A
:100A2000EBEAFDE0DF011D928A95E9F78AE0ECE14F
:100A3000FDE0ACEABDE001900D928A95E1F7FE0180
:100A4000EB55FF4F1082C554DF4F19821882CB5BE4
:100A5000D040C354DF4F19821882CD5BD040CB53B6
:100A6000DF4F1882C55CD040CE54DF4F1882C25B86
:100A7000D040C654DF4F1882CA5BD040BA97C655E3
:100A8000DF4FF983E883CA5AD0409E012F5A3F4F67
:100A9000C455DF4F39832883CC5AD040C90108960A
:100AA000C753DF4F99838883C95CD040CB55DF4F54
:100AB0008881C55AD040C154DF4FE881F981CF5BAE
:100AC000D040E80FF11D1081112311F40C94871A06
:100AD0009FEB910F9A3110F00C9405248F5FCB554A
:100AE000DF4F8883C55AD040AE014F555F4FBE01DE
:100AF0006B557F4FC154DF4F88819981CF5BD040C8
:100B00000E94044D882311F40C940724CF55DF4F25
:100B1000C880D980EA80FB80C15AD040C701B601A5
:100B20000E948E660E94DB63CF53DF4F6883798318
:100B30008A839B83C15CD040CF53DF4F28803980AC
:100B4000C15CD040B10180E090E00E9407649B014D
:100B5000AC01C701B6010E948D6220E030E048EC94
:100B600052E40E94C0650E9423660E94DB63CA545F
:100B7000DF4F79836883C65BD0401D3411F40C9439
:100B8000670E103511F40C94D414173411F00C9432
:100B90005319CB55DF4F8881C55AD040C154DF4F20
:100BA00028813981CF5BD040280F311D9AE9291661
:100BB00098E0390609F428C160F4B4ED2B16B7E0CB
:100BC0003B06A1F0E9E92E16E8E03E0609F454C020
:100BD000DCC5FCE92F16F8E03F0609F498C28DE960
:100BE000281688E0380609F495C3CFC51A82198201
:100BF000CE0101969F938F9381EC92E09F938F9308
:100C00003F932F930E9455670F900F900F900F9076
:100C10000F900F90181619060CF0A8C389819A81BD
:100C20009093420C8093410C91E09093B30C80918F
:100C30003D0C8111ADC521E834E23093BF0C209307
:100C4000BE0C1092200185E08093210121EF3FEF3F
:100C50003093C10C2093C00C2091C00C3091C10C7A
:100C6000309325012093240180917300816080934B
:100C7000730090933D0C8CC58E010B5E1F4F1F932C
:100C80000F937E0199E2E90EF11CFF92EF926E0143
:100C9000ADE3CA0ED11CDF92CF92C355DF4FB881AE
:100CA000CD5AD040BF93C455DF4FE881CC5AD040D5
:100CB000EF9389E192E09F938F933F932F930E944C
:100CC00055670FB6F894DEBF0FBECDBF04970CF486
:100CD0004DC3EF961CAE1DAE1EAE1FAEEF97E59650
:100CE0001CAE1DAE1EAE1FAEE597AB961CAE1DAE84
:100CF0001EAE1FAEAB97A1961CAE1DAE1EAE1FAEB4
:100D0000A197CE0101965C018CE0D5011D928A95D8
:100D1000E9F7AE0145585F4F60E070E0CE018F5AB1
:100D20009F4F0E94044D882309F432C5AE014F58ED
:100D30005F4F60E070E0C6010E94044D882309F413
:100D400027C5AE0149595F4F60E070E0C7010E94BE
:100D5000044D882309F41CC5AE01435A5F4F60E07F
:100D600070E0C8010E94044D882309F411C520E0F9
:100D700030E044EB52E4E5966CAD7DAD8EAD9FADB9
:100D8000E5970E948D6221EE3EE245E652E40E9424
:100D90006E636B017C01E5966CAF7DAF8EAF9FAF4C
:100DA000E597EF964CAC5DAC6EAC7FACEF970E94D4
:100DB0006B639B01AC01C301B2010E94C0656983F2
:100DC0007A838B839C83C701B6010E9443669B0193
:100DD000AC01C301B2010E94C0656D837E838F8325
:100DE0009887AB968CAD9DADAEADBFADAB97898707
:100DF0009A87AB87BC87A1962CAD3DAD4EAD5FAD5C
:100E0000A19700E0B501BCC4E5961CAE1DAE1EAEB8
:100E10001FAEE597AB961CAE1DAE1EAE1FAEAB97D8
:100E2000FE0131967F01FF93EF938E010B5E1F4F02
:100E30001F930F93C555DF4FF881CB5AD040FF93D6
:100E4000C655DF4F8881CA5AD0408F9382E492E022
:100E50009F938F933F932F930E9455670FB6F894FB
:100E6000DEBF0FBECDBF03970CF480C2AE014F585A
:100E70005F4F60E070E0C8010E94044D882309F4D0
:100E800087C4AE0149595F4F60E070E0C7010E941E
:100E9000044D882309F47CC4A1961CAE1DAE1EAE81
:100EA0001FAEA19765961CAE1DAE1EAE1FAE659718
:100EB00021961CAE1DAE1EAE1FAE21973E01B9E2BB
:100EC0006B0E711C8CE0F30111928A95E9F7609129
:100ED000A20C7091A30C8091A40C9091A50C0E947F
:100EE0000964C255DF4F688379838A839B83CE5A16
:100EF000D04060919E0C70919F0C8091A00C9091BD
:100F0000A10C0E9409649B01AC0160919A0C709144
:100F10009B0C80919C0C90919D0CC353DF4F2883B8
:100F2000CD5CD040C253DF4F3883CE5CD040C0533D
:100F3000DF4F4883C05DD040CF52DF4F5883C15D43
:100F4000D0400E940964DE01DD964D01FE01EF5A9A
:100F5000FF4F5F0190966D01C255DF4FE880F98029
:100F60000A811B81CE5AD040C353DF4F2881CD5C0C
:100F7000D040C253DF4F3881CE5CD040C053DF4FEA
:100F80004881C05DD040CF52DF4F5881C15DD04015
:100F90000E94C02BED968EAD9FADED9781309105EF
:100FA00029F1F4F4892B09F0EEC120E030E044EBA4
:100FB00052E4E5966CAD7DAD8EAD9FADE5970E9498
:100FC0008D627B018C01E5966CAF7DAF8EAF9FAFDC
:100FD000E59765962CAD3DAD4EAD5FAD659725C0EF
:100FE00082309105B1F00397E9F1CDC12196ECACC7
:100FF000FDAC0EAD1FAD219765962CAD3DAD4EAD50
:101000005FAD6597E5966CAD7DAD8EAD9FADE59717
:1010100012C02196ECACFDAC0EAD1FAD2197E5964C
:101020002CAD3DAD4EAD5FADE597A1966CAD7DAD00
:101030008EAD9FADA197FE01F1964F01DE019D9609
:101040005D0163010E94DB2AA401B501C3010E9476
:101050007A28AB962CAD3DAD4EAD5FADAB9700E0C1
:10106000B3018EC3E596CCACDDACEEACFFACE5973E
:1010700020E030E044E353E4C701B6010E948565F7
:10108000181684F020E030E0A901C701B6010E94E3
:10109000676387FF0AC0C12CD12CE4E3EE2EE3E4A2
:1010A000FE2E03C0C12CD12C7601A701960160E071
:1010B00070E084E393E40E948D6220E030E044E33A
:1010C00053E40E946E639B01AC010E948E6223E395
:1010D00033E343E35FE30E948E6260930002709308
:1010E0000102809302029093030220E030E048EA7C
:1010F00051E40E946E6320E030EC4FE754E40E941C
:10110000C0650E94DB63CB010E9456303CC1CE011A
:1011100045969F938F9344969F938F9344969F9366
:101120008F93C355DF4FB881CD5AD040BF93C4557C
:10113000DF4FE881CC5AD040EF938AE592E09F934D
:101140008F933F932F930E9455670FB6F894DEBF9D
:101150000FBECDBF04970CF409C1EF961CAE1DAEB7
:101160001EAE1FAEEF97E5961CAE1DAE1EAE1FAEB7
:10117000E597AB961CAE1DAE1EAE1FAEAB97A1960B
:101180001CAE1DAE1EAE1FAEA197AE0145585F4FFF
:1011900060E070E0CE018F5A9F4F0E94044D88237B
:1011A00009F4F6C2AE014F585F4F60E070E0CE0127
:1011B000CD960E94044D882309F4EAC2AE01495934
:1011C0005F4F60E070E0CE0189960E94044D882355
:1011D00009F4DEC2AE01435A5F4F60E070E0CE0119
:1011E00045960E94044D882309F4D2C26091A20C56
:1011F0007091A30C8091A40C9091A50C0E9409649D
:101200002B013C0160919E0C70919F0C8091A00C71
:101210009091A10C0E9409649B01AC0160919A0C11
:1012200070919B0C80919C0C90919D0CC353DF4F4F
:101230002883CD5CD040C253DF4F3883CE5CD04092
:10124000C053DF4F4883C05DD040CF52DF4F58833B
:10125000C15DD0400E940964DE0119964D01FE0176
:1012600035965F0118976D0183017201C353DF4FFB
:101270002881CD5CD040C253DF4F3881CE5CD04056
:10128000C053DF4F4881C05DD040CF52DF4F5881FF
:10129000C15DD0400E943D2CA401B501C6010E9451
:1012A0007A28EF962CAD3DAD4EAD5FADEF976981DD
:1012B0007A818B819C810E948E6269837A838B8381
:1012C0009C83E5962CAD3DAD4EAD5FADE5976D8150
:1012D0007E818F8198850E948E626D837E838F834D
:1012E0009887AB962CAD3DAD4EAD5FADAB976985A4
:1012F0007A858B859C850E948E6269877A878B8729
:101300009C87A1962CAD3DAD4EAD5FADA19700E0A1
:10131000B60136C28E01035A1F4F1F930F937E01F1
:10132000B7E6EB0EF11CFF92EF926E01E1E7CE0EF5
:10133000D11CDF92CF92C555DF4FF881CB5AD040F8
:10134000FF93C655DF4F8881CA5AD0408F9389E1F9
:1013500092E09F938F933F932F930E9455670FB610
:10136000F894DEBF0FBECDBF049784F41F9281E0D6
:101370008F938DE092E09F938F930E9446400F9051
:101380000F900F900F9082E390E004C2C356DF4F9E
:10139000188219821A821B82CD59D040C756DF4F5E
:1013A000188219821A821B82C959D040CB56DF4F4E
:1013B000188219821A821B82C559D040CF56DF4F3E
:1013C000188219821A821B82C159D0408CE0C45500
:1013D000DF4FE881F981CC5AD04011928A95E9F724
:1013E000AE0143565F4F60E070E0CE0185589F4FDD
:1013F0000E94044D882309F4CBC1AE0147565F4FCC
:1014000060E070E0C6010E94044D882309F4C0C169
:10141000AE014B565F4F60E070E0C7010E94044D83
:10142000882309F4B5C1AE014F565F4F60E070E00C
:10143000C8010E94044D882309F4AAC1C357DF4F95
:10144000188219821A821B82CD58D040C757DF4FAD
:10145000188219821A821B82C958D040CB57DF4F9D
:10146000188219821A821B82C558D0406091A20C42
:101470007091A30C8091A40C9091A50C0E9409641A
:101480002B013C0160919E0C70919F0C8091A00CEF
:101490009091A10C0E9409649B01AC0160919A0C8F
:1014A00070919B0C80919C0C90919D0CC353DF4FCD
:1014B0002883CD5CD040C253DF4F3883CE5CD04010
:1014C000C053DF4F4883C05DD040CF52DF4F5883B9
:1014D000C15DD0400E940964DE01AB57BF4F4D0192
:1014E000FE01E757FF4F5F0118966D0183017201FE
:1014F000C353DF4F2881CD5CD040C253DF4F3881CA
:10150000CE5CD040C053DF4F4881C05DD040CF5249
:10151000DF4F5881C15DD0400E94C02B6091A20C6A
:101520007091A30C8091A40C9091A50C0E94096469
:101530002B013C0160919E0C70919F0C8091A00C3E
:101540009091A10C0E9409649B01AC0160919A0CDE
:1015500070919B0C80919C0C90919D0CC353DF4F1C
:101560002883CD5CD040C253DF4F3883CE5CD0405F
:10157000C053DF4F4883C05DD040CF52DF4F588308
:10158000C15DD0400E940964C753DF4F88809980B5
:10159000C95CD040E1E5F0E0EC0FFD1F3496C25588
:1015A000DF4FF983E883CE5AD0405F01DE01AF5AA6
:1015B000BF4F6D0183017201C353DF4F2881CD5CA2
:1015C000D040C253DF4F3881CE5CD040C053DF4F94
:1015D0004881C05DD040CF52DF4F5881C15DD040BF
:1015E0000E943D2CC753DF4F48815981C95CD040D0
:1015F000C255DF4F68817981CE5AD040C6010E9422
:101600007A2865966CAD7DAD8EAD9FAD6597699678
:10161000CCACDDACEEACFFAC69979B01AC010E9499
:10162000C0654B015C01A7019601C701B6010E948C
:10163000C0659B01AC01C501B4010E948E620E948D
:101640004D66C356DF4F288139814A815B81CD5970
:10165000D0400E948E626B017C01C356DF4F6883CD
:1016600079838A839B83CD59D040C756DF4F288129
:1016700039814A815B81C959D040CB57DF4F68819E
:1016800079818A819B81C558D0400E948E6221EE6B
:101690003EE245E652E40E946E632B013C010E944B
:1016A0006B639B01AC01C701B6010E94C0654B0191
:1016B0005C0165966CAF7DAF8EAF9FAF6597C30140
:1016C000B2010E9443669B01AC01C701B6010E94B2
:1016D000C06569966CAF7DAF8EAF9FAF6997CB56F3
:1016E000DF4F288139814A815B81C559D0406D9691
:1016F0006CAD7DAD8EAD9FAD6D970E948E626D9687
:101700006CAF7DAF8EAF9FAF6D978E01035C1F4FA7
:1017100024E045E0C501B4010E94FB5F69966CAD11
:101720007DAD8EAD9FAD69970451110924E045E070
:101730000E94FB5F6D966CAD7DAD8EAD9FAD6D97DC
:101740000451110924E045E00E94FB5FC356DF4FBE
:10175000688179818A819B81CD59D04004511109DA
:1017600024E045E00E94FB5FCF56DF4F288139819E
:101770004A815B81C159D04000E0BE016F5A7F4F62
:1017800080E00E94F24D90E005C081E090E002C050
:1017900080E090E09C01215031092230310510F0A9
:1017A0000C946724B8E22B16310409F445C280F585
:1017B000F4E12F16310498F421E12216310408F0E7
:1017C0007AC134E02316310409F479C008F4F6C074
:1017D0009AE02916310409F45EC00C941324ACE19C
:1017E0002A16310409F457C038F4E6E12E16310404
:1017F00008F4BFC10C941324FEE12F16310409F440
:101800004AC026E22216310409F4D8C00C941324ED
:101810003DE32316310409F4FEC110F595E32916C2
:10182000310409F44CC060F4BBE22B16310409F416
:10183000B7C1E1E32E16310409F4B2C10C941324AC
:10184000FCE32F16310410F00C941324CF53DF4F18
:101850008881C15CD04086538093B20DF9E0D5C138
:101860002CE52216310460F43AE52316310408F021
:101870003DC180E52816310409F4AEC00C94132450
:101880009CE52916310439F0AFE52A16310408F435
:1018900063C10C941324CA54DF4FE881F981C65BFD
:1018A000D040EF2B11F00C942524C654DF4FF88163
:1018B000CA5BD040FF2309F452C00C9409242CE1E8
:1018C00022163104D1F148F484E02816310481F065
:1018D0009AE029163104E9F01FC0AEE12A1631045E
:1018E00009F447C0B5E32B16310409F465C014C0F0
:1018F00081E010C0BFE12B16310408F051C0EAE0CE
:101900002E16310479F4E1E0C654DF4FE883CA5B58
:10191000D04082E08093AB0DC255DF4F1882CE5A83
:10192000D04097C1FCE12F16310409F09CC1F1E0D1
:10193000C654DF4FF883CA5BD040CA54DF4F2881BA
:101940003981C65BD0402115310539F02A30310587
:1019500011F00C94132484E015C083E013C0AEE1B1
:101960002A16310439F631E0C654DF4F3883CA5B9A
:10197000D040CA54DF4F88819981C65BD040009720
:1019800049F485E08093AB0DC255DF4F1882CE5AE3
:10199000D04074C10A9711F00C94132486E0F2CF62
:1019A00025E32216310411F00C94562491E0C6541C
:1019B000DF4F9883CA5BD04087E0ACCFC654DF4F7F
:1019C000F881CA5BD040F1110C94092422E0C6547E
:1019D000DF4F2883CA5BD04032E02316310421F167
:1019E00060F421143104E1F02A94232809F02BC17A
:1019F00081E08093AC0D21E073C0A6E22A16310489
:101A0000E9F0B0E52B16310409F451C0E3E02E16DD
:101A1000310409F018C183E08093AC0D81E00DC161
:101A20001092AC0DF1E0F1C082E08093AC0D31E09A
:101A3000C255DF4F3883CE5AD0400BC1CA54DF4F56
:101A4000A881B981C65BD040AE31B10531F170F4E7
:101A5000549711F00C94132484E08093AC0DF1E0C2
:101A6000C255DF4FF883CE5AD04008C1CA54DF4F69
:101A7000E881F981C65BD040E832F10599F0F29730
:101A800011F00C94132487E08093AC0D81E0C255D3
:101A9000DF4F8883CE5AD040F1C085E08093AC0DF3
:101AA00021E054C086E08093AC0D31E0BFC088E0F7
:101AB0008093AC0DC8C0A2E12A16310441F0B3E115
:101AC0002B16310449F01092B00DE2E063C081E0C2
:101AD0008093B00DF2E099C082E08093B00D22E0D7
:101AE000C255DF4F2883CE5AD040B3C0CA54DF4F0F
:101AF00088819981C65BD040892BB9F49AE5291673
:101B0000310449F41092AF0DA3E0C255DF4FA88312
:101B1000CE5AD040B3C081E08093AF0DB3E0C25540
:101B2000DF4FB883CE5AD040A9C0CA54DF4FE881F6
:101B3000F981C65BD0403A9711F00C941324FAE572
:101B40002F16310411F40C94132424E0C255DF4FF6
:101B50002883CE5AD04092C03DE52316310429F4A3
:101B600081E08093AD0D85E068C01092AD0D95E0E9
:101B70006BC0A4E12A16310451F481E08093AE0DCC
:101B8000B6E0C255DF4FB883CE5AD04062C0109243
:101B9000AE0DE6E0C255DF4FE883CE5AD04059C0C3
:101BA000C654DF4FF881CA5BD040F1110C94092470
:101BB00021E32216310479F41092B10D38E0C255B8
:101BC000DF4F3883CE5AD04083E0C654DF4F88833E
:101BD000CA5BD04053C0CA54DF4FA881B981C65BED
:101BE000D0401A9711F00C94132481E08093B10D2A
:101BF000B8E0C255DF4FB883CE5AD040E3E0C654B8
:101C0000DF4FE883CA5BD04039C0C255DF4FF8834D
:101C1000CE5AD0401EC0CA54DF4F28813981C65BDE
:101C2000D040232B11F00C9413243AE0C255DF4F1F
:101C30003883CE5AD04022C087E0C255DF4F888318
:101C4000CE5AD04006C091E0C255DF4F9883CE5A9D
:101C5000D040CA54DF4FA881B981C65BD040AB2BBE
:101C600069F00C943824C255DF4F1882CE5AD04008
:101C7000B1E0C654DF4FB883CA5BD04081E090E04A
:101C8000C255DF4F0880CE5AD04002C0880F991F3E
:101C90000A94E2F7C354DF4F28813981CD5BD040ED
:101CA00028233923232B19F085E10C946724C3548E
:101CB000DF4FE881F981CD5BD040E82BF92BC3548D
:101CC000DF4FF983E883CD5BD0400C945605CA54AE
:101CD000DF4F28813981C65BD040232B11F00C9453
:101CE0003824CB55DF4F8881C55AD040C154DF4FCF
:101CF000E881F981CF5BD040E80FF11D3EEA231661
:101D000038E0330608F054C08CEA281688E038061C
:101D100008F0D6C09AE4291698E0390609F475C18E
:101D200000F5BCEC2B16310409F4CDC058F431E1B8
:101D30002316310409F491C082E12816310409F414
:101D4000BDC088C098E4291698E0390609F4F9C0A6
:101D500008F054C1B3EE2B16B7E03B0609F4AEC051
:101D600079C022EA221628E0320609F4D1C198F49B
:101D70008AE9281688E0380609F480C19BE929160B
:101D800098E0390609F4A1C1A9E92A16A8E03A06A3
:101D900009F060C04DC1B6EA2B16B8E03B0608F466
:101DA0008FC0E7EA2E16E8E03E0609F4EDC152C006
:101DB00022EC221628E0320638F530EC231638E003
:101DC000330608F07DC088EB281688E0380609F451
:101DD000E2C268F4AEEA2A16A8E03A0609F4DAC1CB
:101DE000B7EB2B16B8E03B0609F4C2C233C029EBAF
:101DF000221628E0320609F4DFC23AEB231638E057
:101E0000330609F45DC026C08AE6281689E0380644
:101E100009F480C368F4A0E62A16A9E03A0609F49A
:101E2000EEC2B1E62B16B9E03B0609F45AC312C064
:101E300024E7221629E0320609F40EC435E72316FA
:101E400039E0330609F460C48BE6281689E03806C9
:101E500009F4C5C381E090E02DC58A9A80910801FC
:101E60008160809308015F9A0E94A1258FE0809392
:101E7000B20C80E090E00E94872D60938E0C7093EE
:101E80008F0C8093900C9093910C81E090E00E94D5
:101E9000872D6093920C7093930C8093940C909385
:101EA000950C82E090E00E94872D6093960C7093D1
:101EB000970C8093980C9093990C02C00E944C311F
:101EC00080E090E0F7C48E010F5F1F4F1F930F93C8
:101ED00083E892E09F938F93FF93EF930E9455675F
:101EE0000F900F900F900F900F900F9018161906EB
:101EF0000CF094C31D8A1E8A1F8A188EAE014B5E99
:101F00005F4F60E070E0C8010E94044D882309F42F
:101F1000CFC44D895E896F89788D88E70E942543FB
:101F20004D895E896F89788D89E70E9425434D89A7
:101F30005E896F89788D8AE70E9425430E94D34786
:101F4000BFCF8E010F5F1F4F1F930F938EE892E05C
:101F50009F938F93FF93EF930E9455670F900F907D
:101F60000F900F900F900F90181619060CF056C393
:101F7000AE014B5E5F4F60E070E0C8010E94044D0F
:101F8000882309F495C420E030E04AE754E46D89E1
:101F90007E898F89988D0E94C0650E94D66316162F
:101FA000170664F57093400C60933F0C91E090939A
:101FB0003E0C80913D0C811183CF21E834E23093B7
:101FC000BF0C2093BE0C1092200185E0809321016C
:101FD00021EF3FEF3093C10C2093C00C2091C00C37
:101FE0003091C10C3093250120932401809173001E
:101FF00081608093730090933D0C62CF10923E0CF1
:102000001092400C10923F0C5BCF8081863509F016
:102010004FC481818053823008F04AC41092B60CBC
:10202000813019F01092B50C4BCF8093B50C48CF8E
:1020300080818E3409F03CC491819053943008F033
:1020400037C4923061F0933099F08091B20C9130A6
:1020500019F05F9A846025C08A9A816022C08091BD
:1020600008018160809308018091B20C826019C0E0
:102070000E94A1258091B20C886013C080818E34AB
:1020800009F016C491819053943008F011C48091E6
:10209000B20C923061F0933089F0913029F05F9862
:1020A0008B7F8093B20C0CCF8A988E7FFACF909161
:1020B00008019E7F909308018D7FF3CF909172006D
:1020C0009E7F90937200877FECCF80818E3409F0E1
:1020D000EFC381818053843008F0EAC39091B20C41
:1020E000823081F0833089F0813019F090FF03C095
:1020F0003CC191FD3AC16EE873E082E59CE00E942C
:102100001F67DECE92FD31C1F6CF93FFF4CF2DC114
:102110001AA619A61D8A1E8A1F8A188E8E010F5FA5
:102120001F4F8AE0D8011D928A95E9F7CE01899662
:102130009F938F931F930F9387E992E09F938F93C1
:10214000FF93EF930E9455670FB6F894DEBF0FBE62
:10215000CDBF02970CF462C2AE014B5E5F4F60E0F0
:1021600070E0C8010E94044D882309F4A1C32D89A1
:102170003E894F89588D69A57AA5072E000C880BDA
:10218000990B0E9435259CCE8FEF0E9451440E94EE
:10219000513296CEEF961CAE1DAE1EAE1FAEEF971F
:1021A000E5961CAE1DAE1EAE1FAEE597AB961CAEFF
:1021B0001DAE1EAE1FAEAB9784E15E0129E2A20EFA
:1021C000B11CD501282F1D922A95E9F77E0135E132
:1021D000E30EF11CD701282F1D922A95E9F7DE01A5
:1021E00011966D011D928A95E9F78E010B571F4FCD
:1021F0008FEF90E0D8018D939C931F930F93DF9204
:10220000CF92FF92EF92BF92AF9283EA92E09F93B8
:102210008F93FF93EF930E9455670FB6F894DEBF3C
:102220000FBECDBF03970CF4F9C1AE0145585F4F07
:1022300060E070E0C5010E94044D882309F438C3B2
:10224000AE014F585F4F60E070E0C7010E94044D3F
:10225000882309F42DC3AE0149595F4F60E070E057
:10226000C6010E94044D882309F422C3D8018D9130
:102270009C910097D9F1019709F01AC3EF96CCAC65
:10228000DDACEEACFFACEF9720E030E044EB52E485
:10229000E5966CAD7DAD8EAD9FADE5970E948D62EC
:1022A00021EE3EE245E652E40E946E634B015C0182
:1022B0000E946B639B01AC01C701B6010E94C0651F
:1022C000EF966CAF7DAF8EAF9FAFEF97C501B401B6
:1022D0000E9443669B01AC01C701B6010E94C06524
:1022E000E5966CAF7DAF8EAF9FAFE597AE014959D4
:1022F0005F4FBE016F587F4FCE0185589F4F0E94A0
:10230000CF27AB96ECACFDAC0EAD1FADAB97E59611
:102310002CAD3DAD4EAD5FADE597EF966CAD7DADAF
:102320008EAD9FADEF97FE01FD964F01DE01AF5AD6
:10233000BF4F5D01B0966F010E9425292196ECAC3C
:10234000FDAC0EAD1FAD219765962CAD3DAD4EADEC
:102350005FAD6597A1966CAD7DAD8EAD9FADA1973C
:102360000E948B2C882309F4C6CE62E972E0C5CEA8
:102370008081863509F09CC281818053823008F0CB
:1023800097C2813019F00E94CB319ACD9C9A9D9AC8
:10239000A49AA59895CD8081863509F089C281815E
:1023A0008053823008F084C2813019F00E94C83115
:1023B00087CD3F9A479884CD8081863509F078C2D1
:1023C00081818053823008F073C2813019F00E94FD
:1023D000B73176CD809101018062809301018091B7
:1023E00001018064809301018091020180628093E9
:1023F00002018091020180648093020161CD80819D
:10240000833509F055C281818053843008F050C271
:10241000823089F1833009F445C08130A9F01092EF
:10242000850C1092840C8AE999E1A5E9B2E48093C5
:102430008A0C90938B0CA0938C0CB0938D0C8AE932
:1024400099E9A2E6B2E444C081E090E09093850C63
:102450008093840C86EF98E2ACE4B2E480938A0C1B
:1024600090938B0CA0938C0CB0938D0C8DEC9CEC0A
:10247000A0E8B2E42DC082E090E09093850C8093B8
:10248000840C89E29CEDA4E9B2E480938A0C9093D9
:102490008B0CA0938C0CB0938D0C80E090E0A2E6A6
:1024A000B2E416C083E090E09093850C8093840C96
:1024B00080E090E0ACE2B2E480938A0C90938B0CC5
:1024C000A0938C0CB0938D0C80E090E0ABE8B2E46C
:1024D0008093860C9093870CA093880CB093890C02
:1024E0007BC080E090E00E943E2D90933A0C809358
:1024F000390C81E090E00E943E2D90933C0C80933B
:102500003B0C82E090E00E943E2D9093380C80932B
:10251000370CCBC16091F10D7091F20D8091F30DEC
:102520009091F40D0E9409642B013C016091ED0D26
:102530007091EE0D8091EF0D9091F00D0E94096465
:102540009B01AC016091E90D7091EA0D8091EB0D5A
:102550009091EC0DC353DF4F2883CD5CD040C25324
:10256000DF4F3883CE5CD040C053DF4F4883C05D1F
:10257000D040CF52DF4F5883C15DD0400E940964E4
:10258000DE0111964D01FE0175965F0198966D0171
:1025900083017201C353DF4F2881CD5CD040C25309
:1025A000DF4F3881CE5CD040C053DF4F4881C05DE3
:1025B000D040CF52DF4F5881C15DD0400E943D2CAA
:1025C00089819A81AB81BC8180938A0C90938B0C1A
:1025D000A0938C0CB0938D0C0E94082571CC1D8AA1
:1025E0001E8A1F8A188E8E010F5F1F4F84E1D8014B
:1025F0001D928A95E9F71F930F9385EC92E09F93C4
:102600008F93FF93EF930E9455670F900F900F9059
:102610000F900F900F901816190674F01F9281E01A
:102620008F938DE092E09F938F930E9446400F908E
:102630000F900F900F903CC1AE014B5E5F4F60E07A
:1026400070E0C8010E94044D882309F431C18D89CE
:102650009E89AF89B88D3CCF8081803509F028C133
:1026600081818053833008F023C18130D9F08230DA
:1026700091F180E090E00E943E2D9093CF038093F3
:10268000CE0381E090E00E943E2D9093D103809391
:10269000D00382E090E00E943E2D9093D30380937C
:1026A000D2030ECC80E090E00E943E2D9093C903AF
:1026B0008093C80381E090E00E943E2D9093CB036D
:1026C0008093CA0382E090E00E943E2D9093CD0358
:1026D0008093CC03F5CB80E090E00E943E2D909358
:1026E000C3038093C20381E090E00E943E2D90934B
:1026F000C5038093C40382E090E00E943E2D909336
:10270000C7038093C603DCCB6091CE037091CF03E7
:10271000E090D003F090D1039701262B372B8091C6
:10272000D2039091D303822B932B892B19F480ED44
:1027300092E031C0C090C803D090C9038090CA0312
:102740009090CB03E091CC03F091CD03C255DF4FC5
:10275000F983E883CE5AD040C4018C299D298E2B61
:102760009F2B892B19F486ED92E015C0A090C2032F
:10277000B090C3030091C4031091C50398012A29A6
:102780003B298091C6039091C703822B932B892B01
:1027900049F48CED92E09F938F930E9446400F90F6
:1027A0000F9086C080E090E00E9407642EE23DEA30
:1027B0004AE352E40E948E622B013C01B50180E0A5
:1027C00090E00E9407642CE337EC4EEC52E40E9448
:1027D0008E629B01AC01C301B2010E948E622B018B
:1027E0003C01B60180E090E00E9407649B01AC01CF
:1027F000C301B2010E948E6220E030E040E450E468
:102800000E946E6320E030E040E05FE30E948E6251
:102810000E94DB6370933A0C6093390CB70180E03F
:1028200090E00E94076429EE3AE64BE753E40E94E9
:102830008D626B017C01B80180E090E00E9407642A
:1028400027E33EE145E953E40E948E629B01AC011F
:10285000C701B6010E948E626B017C01B40180E069
:1028600090E00E9407649B01AC01C701B6010E9481
:102870008E6220E030E040E450E40E946E6320E08D
:1028800030E040E05FE30E948E620E94DB63709361
:102890003C0C60933B0CC255DF4F28813981CE5AE6
:1028A000D0403093380C2093370C0E94372E08CB41
:1028B00082E390E09C01215031092230310510F073
:1028C0000C94672436E02316310428F483E028169C
:1028D000310490F026C098E02916310410F40C94CD
:1028E0001324AAE02A16310408F440C0BEE12B16D6
:1028F000310411F00C941324E2E02E16310461F03F
:10290000FEE12F16310441F0232809F046C081E092
:102910008093B30D2BE032C082E08093B30D3BE097
:1029200036C084E02816310471F095E02916310490
:10293000A1F081E08093B50DACE0C255DF4FA883D4
:10294000CE5AD04088C482E08093B50DBCE0C25519
:10295000DF4FB883CE5AD0407EC41092B50DECE064
:10296000C255DF4FE883CE5AD04075C4F9E02F1628
:10297000310451F082E08093B40D2DE0C255DF4F59
:102980002883CE5AD04067C41092B40D3DE0C255A2
:10299000DF4F3883CE5AD0405EC48BE0C255DF4F44
:1029A0008883CE5AD04057C4CA54DF4FE881F9819A
:1029B000C65BD040EF2B11F00C943824CB55DF4F81
:1029C0008881C55AD040FDEA2F16F8E03F0609F489
:1029D000EDC258F53BE9231638E0330609F439C156
:1029E00078F4A9E92A16A8E03A0609F42CC108F0FF
:1029F0002DC1E8E92E16E8E03E0609F44FC04BC0B1
:102A0000FDE92F16F8E03F0609F42DC108F428C1AE
:102A10003EE9231638E0330609F428C18CEA28166B
:102A200088E0380609F41CC236C09BEB291698E0F2
:102A3000390609F4C4C3D8F4B8EB2B16B8E03B064A
:102A400009F49EC338F4F7EB2F16F8E03F0609F4BB
:102A50007DC321C029EB221628E0320609F49BC36E
:102A60003AEB231638E0330609F49DC314C082EC18
:102A7000281688E0380609F4A9C338F4A0EC2A1611
:102A8000A8E03A0608F0DAC306C0B0E62B16B9E0B3
:102A90003B0609F4BDC381E090E0D5C3A1961CAE0E
:102AA0001DAE1EAE1FAEA19765961CAE1DAE1EAE2E
:102AB0001FAE659721961CAE1DAE1EAE1FAE2197B0
:102AC00084E1FE01B996CA55DF4FF983E883C65AFF
:102AD000D040282F11922A95E9F71E0135E1230EE7
:102AE000311CD101E82F1D92EA95E9F79E012F5F75
:102AF0003F4FC855DF4F39832883C85AD040D9018A
:102B00001D928A95E9F76091F10D7091F20D809117
:102B1000F30D9091F40D0E9409642B013C0160912A
:102B2000ED0D7091EE0D8091EF0D9091F00D0E94E2
:102B300009649B01AC016091E90D7091EA0D8091EF
:102B4000EB0D9091EC0DC353DF4F2883CD5CD0404B
:102B5000C253DF4F3883CE5CD040C053DF4F488331
:102B6000C05DD040CF52DF4F5883C15DD0400E943E
:102B70000964FE01FD964F01DE01AF5ABF4F5D01B2
:102B8000B0966F0183017201C353DF4F2881CD5C82
:102B9000D040C253DF4F3881CE5CD040C053DF4FAE
:102BA0004881C05DD040CF52DF4F5881C15DD040D9
:102BB0000E94C02B20E030E044EB52E421966CAD43
:102BC0007DAD8EAD9FAD21970E948E6221966CAF38
:102BD0007DAF8EAF9FAF2197A1966CAD7DAD8EADD1
:102BE0009FADA1978E01075D1F4F24E045E00E9435
:102BF000FB5F65966CAD7DAD8EAD9FAD6597810138
:102C000024E045E00E94FB5F21966CAD7DAD8EAD6A
:102C10009FAD21970451110924E045E00E94FB5F1C
:102C20003F922F92C955DF4FF881C75AD040FF938A
:102C3000CA55DF4F2881C65AD0402F931F930F9358
:102C400082EE92E0D7C280EF92E005C08AE49CE079
:102C500002C08EEF92E09F938F9389EF92E0E0C2E3
:102C600085E093E0F8CF8CE093E0F5CFC154DF4FDF
:102C7000E881F981CF5BD040E80FF11D80818E346F
:102C800009F0DFC281818053CA54DF4F8883C65B5D
:102C9000D040833008F0D5C2A1961CAE1DAE1EAE4A
:102CA0001FAEA19765961CAE1DAE1EAE1FAE6597FA
:102CB00021961CAE1DAE1EAE1FAE219784E1FE0113
:102CC000B996CA55DF4FF983E883C65AD040282FFA
:102CD00011922A95E9F71E0135E1230E311CD1012D
:102CE000E82F1D92EA95E9F79E012F5F3F4FC855E7
:102CF000DF4F39832883C85AD040D9011D928A9565
:102D0000E9F76091F10D7091F20D8091F30D9091C2
:102D1000F40D0E9409642B013C016091ED0D70914E
:102D2000EE0D8091EF0D9091F00D0E9409649B01D2
:102D3000AC016091E90D7091EA0D8091EB0D9091DD
:102D4000EC0DC353DF4F2883CD5CD040C253DF4F1F
:102D50003883CE5CD040C053DF4F4883C05DD04045
:102D6000CF52DF4F5883C15DD0400E940964FE01FD
:102D7000FD964F01DE01AF5ABF4F5D01B0966F0166
:102D800083017201C353DF4F2881CD5CD040C25311
:102D9000DF4F3881CE5CD040C053DF4F4881C05DEB
:102DA000D040CF52DF4F5881C15DD0400E94C02B30
:102DB00020E030E044EB52E421966CAD7DAD8EAD69
:102DC0009FAD21970E948E6221966CAF7DAF8EAF32
:102DD0009FAF2197A1966CAD7DAD8EAD9FADA197B4
:102DE0008E01075D1F4F24E045E00E94FB5F659662
:102DF0006CAD7DAD8EAD9FAD6597810124E045E062
:102E00000E94FB5F21966CAD7DAD8EAD9FAD21978D
:102E10000451110924E045E00E94FB5FCA54DF4FD2
:102E2000F881C65BD040F13079F0F23081F0C955BD
:102E3000DF4F2881C75AD0402F93CA55DF4F3881C2
:102E4000C65AD0403F9309C03F922F9206C081E0FE
:102E500090E08C0F9D1F9F938F9385E193E0E0C1DD
:102E6000A1961CAE1DAE1EAE1FAEA19765961CAE00
:102E70001DAE1EAE1FAE659721961CAE1DAE1EAEDA
:102E80001FAE219784E1DE019996CA55DF4FB983C1
:102E9000A883C65AD040E82F1D92EA95E9F71E0193
:102EA000F5E12F0E311CD101E82F1D92EA95E9F7CB
:102EB0009E012F5F3F4FC855DF4F39832883C85A83
:102EC000D040D9011D928A95E9F780E090E00E94F8
:102ED000872D2B013C0181E090E00E94872DCA5490
:102EE000DF4F688379838A839B83C65BD04082E00F
:102EF00090E00E94872D20E030E044EB52E40E94F5
:102F00008D62FE01FD964F019E012F5A3F4F5901E0
:102F1000DE01A35ABF4F6D017B018C01CA54DF4F04
:102F2000288139814A815B81C65BD040C301B201EF
:102F30000E94DB2AA401B501C6010E947A28A1964D
:102F40006CAD7DAD8EAD9FADA1978E01075D1F4F1E
:102F500024E045E00E94FB5F65966CAD7DAD8EADD3
:102F60009FAD6597810124E045E00E94FB5F2196BB
:102F70006CAD7DAD8EAD9FAD21970451110924E05C
:102F800045E00E94FB5F1F930F933F922F92C9551C
:102F9000DF4FF881C75AD040FF93CA55DF4F2881D1
:102FA000C65AD0402F9389E193E024C1A1961CAE6C
:102FB0001DAE1EAE1FAEA19765961CAE1DAE1EAE19
:102FC0001FAE659721961CAE1DAE1EAE1FAE21979B
:102FD00084E1DE019996CA55DF4FB983A883C65AAA
:102FE000D040E82F1D92EA95E9F71E01F5E12F0E7A
:102FF000311CD101E82F1D92EA95E9F79E012F5F60
:103000003F4FC855DF4F39832883C85AD040D90174
:103010001D928A95E9F780E090E00E94872DCA54BE
:10302000DF4F688379838A839B83C65BD04081E0CE
:1030300090E00E94872DCF53DF4F688379838A8386
:103040009B83C15CD04082E090E00E94872D20E00D
:1030500030E044EB52E40E948D622B013C01FE0102
:10306000FD964F019E012F5A3F4F5901CE01835AC1
:103070009F4F6C0183017201CF53DF4F288139814B
:103080004A815B81C15CD040CA54DF4F688179813D
:103090008A819B81C65BD0400E94DB2AA401B501D6
:1030A000C6010E947A28A1966CAD7DAD8EAD9FAD14
:1030B000A1976596CCACDDACEEACFFAC65979B01FF
:1030C000AC010E94C0654B015C01A7019601C701DC
:1030D000B6010E94C0659B01AC01C501B4010E940C
:1030E0008E620E944D668E01075D1F4F24E045E011
:1030F0000E94FB5F20E030E044EB52E4C301B201E8
:103100000E948E62810124E045E00E94FB5F2196CF
:103110006CAD7DAD8EAD9FAD21970451110924E0BA
:1031200045E00E94FB5F1F930F933F922F92C9557A
:10313000DF4FB881C75AD040BF93CA55DF4FE881EF
:10314000C65AD040EF9387E293E054C0A49B1FC0BF
:103150008FE390E00E94D0318C011F938F9385E321
:1031600093E09F938F930E9446400F900F900F9093
:103170000F900A30110558F00734110530F009C0DE
:10318000479905C00898009904C082E01DC080E0FE
:103190001BC081E019C082B386958695869591E023
:1031A0008927817011C08BE390E00E94D03121E02B
:1031B0008536910508F420E01F922F932FC080914F
:1031C000020185FB882780F91F9227C08091380C67
:1031D0008F938091370C8F9380913C0C8F938091CB
:1031E0003B0C8F9380913A0C8F938091390C8F9385
:1031F0008DE393E09F938F9382E59CE09F938F9361
:103200000E9426670FB6F894DEBF0FBECDBF16C072
:103210008091850C8F938091840C8F9386E893E046
:103220009F938F9382E59CE09F938F930E942667E4
:103230000F900F900F900F900F900F9080E090E004
:1032400002C082E390E09C01215031092230310517
:1032500010F00C94672481E090E0C255DF4F0880A5
:10326000CE5AD04002C0880F991F0A94E2F7C35487
:10327000DF4F28813981CD5BD04028233923232B90
:1032800011F00C94540EC354DF4FA881B981CD5B6B
:10329000D040A82BB92BC354DF4FB983A883CD5B93
:1032A000D0400C945605812F110F990BAA0BBB0B24
:1032B000FC01E654F109E531F10510F00C941324FA
:1032C0008827EE58FF4F8F4F0C94F366C092B60DCF
:1032D000D092B70DE092B80DF092B90DC255DF4F04
:1032E0001882CE5AD040D2C0C092BA0DD092BB0D37
:1032F000E092BC0DF092BD0DCB53DF4FB881C55CA1
:10330000D040B160CB53DF4FB883C55CD040E1E023
:103310004FC0C092BE0DD092BF0DE092C00DF09292
:10332000C10DCB53DF4FF881C55CD040F260CB5369
:10333000DF4FF883C55CD04022E053C0C092C20D7D
:10334000D092C30DE092C40DF092C50DCB53DF4F68
:103350003881C55CD0403460CB53DF4F3883C55CC7
:10336000D04083E058C0CF53DF4F9881C15CD0403C
:103370009093C60DA4E069C0C701B6010E94D66350
:103380006093C70D7093C80D8093C90D9093CA0DBB
:10339000B5E0C255DF4FB883CE5AD04077C0C09257
:1033A000CB0DD092CC0DE092CD0DF092CE0DE6E09B
:1033B000C255DF4FE883CE5AD04068C0C092CF0DCF
:1033C000D092D00DE092D10DF092D20DF7E059C01D
:1033D000C092D30DD092D40DE092D50DF092D60DBF
:1033E00028E0C255DF4F2883CE5AD0404FC0C0924C
:1033F000D80DD092D90DE092DA0DF092DB0DCE54BB
:10340000DF4F3881C25BD0403160CE54DF4F38830C
:10341000C25BD0408AE0C255DF4F8883CE5AD0408D
:1034200035C0C092DC0DD092DD0DE092DE0DF09241
:10343000DF0DCE54DF4F9881C25BD0409260CE54F6
:10344000DF4F9883C25BD040ABE0C255DF4FA8830B
:10345000CE5AD0401BC0C092E00DD092E10DE09258
:10346000E20DF092E30DCE54DF4FB881C25BD04045
:10347000B460CE54DF4FB883C25BD040ECE098CF4D
:10348000F9E0C255DF4FF883CE5AD04001E010E09A
:10349000C255DF4F0880CE5AD04002C0000F111F26
:1034A0000A94E2F7C554DF4F88819981CB5BD04005
:1034B00080239123892B11F00C940B2481E693E057
:1034C000C255DF4F0880CE5AD04002C095958795EF
:1034D0000A94E2F780FF0BC020E030E0A901C701A9
:1034E000B6010E94676387FF02C00C940D24C55487
:1034F000DF4F28813981CB5BD040202B312BC55445
:10350000DF4F39832883CB5BD0400C945605CE54D3
:10351000DF4F3881C25BD040332369F0C654DF4FA0
:103520008881CA5BD040811106C092E0C654DF4F4B
:103530009883CA5BD040C554DF4FA881CB5BD04095
:10354000A5FF0FC08091C70D9091C80DA091C90D26
:10355000B091CA0D80389649A849B10514F00C9471
:103560000F248091AD0D813091F4C654DF4FF88166
:10357000CA5BD040F23009F040C0C554DF4F28810B
:10358000CB5BD04020FD02C00C94192436C0809142
:103590001D0D811132C0C554DF4F3881CB5BD04047
:1035A00030FF1BC08091AE0D813039F523E333E34A
:1035B0004BEC51E46091B60D7091B70D8091B80D50
:1035C0009091B90D0E94C0656093B60D7093B70DD0
:1035D0008093B80D9093B90D10C080912A0D9091F1
:1035E0002B0DA0912C0DB0912D0D8093B60D9093C5
:1035F000B70DA093B80DB093B90DC554DF4F8881B6
:103600009981CB5BD04090FD10C08091260D9091A8
:10361000270DA091280DB091290D8093D30D909383
:10362000D40DA093D50DB093D60D8091AB0D813004
:10363000B9F4C554DF4F9881CB5BD04096FD03C0F1
:103640008CE10C946724C554DF4FA881B981CB5B12
:10365000D040AF7BC554DF4FB983A883CB5BD0404C
:103660008091B00D882331F1813091F4B1E0CF53D6
:10367000DF4FB883C15CD040C154DF4F1882CF5BAD
:10368000D040E2E0CA54DF4FE883C65BD04023C09D
:10369000CF53DF4F1882C15CD040F2E0C154DF4FFE
:1036A000F883CF5BD04021E0CA54DF4F2883C65B4C
:1036B000D04011C032E0CF53DF4F3883C15CD040DF
:1036C00081E0C154DF4F8883CF5BD040CA54DF4FC5
:1036D0001882C65BD0408091AE0D813041F0C65457
:1036E000DF4F9881CA5BD0409330F1F530C078ED60
:1036F000E72E7DE0F72E00E010E0CE54DF4FA881EA
:10370000C25BD040CA2ED12CC601002E02C09595B6
:1037100087950A94E2F780FF11C023E333E34BEC73
:1037200051E4F70160817181828193810E94C065BB
:10373000D7016D937D938D939C9313970F5F1F4FCC
:10374000B4E0EB0EF11C03301105F1F6C8CF809107
:10375000B10D813049F4CE54DF4FE881C25BD040D7
:10376000E43011F00C9411248CE0EFE3FDE0DE0175
:10377000559601900D928A95E1F7C354DF4F288149
:103780003981CD5BD04031FD0AC09090AB0D32E065
:103790009316D1F088E0981609F4DDC042C18091FB
:1037A000B20D873018F08DE10C9467249091220DB2
:1037B000981759F3BE016B5E7F4F0E9431448823F6
:1037C00011F40C942324E1CFCE54DF4F9881C25BD7
:1037D000D040911103C08AE10C946724C554DF4F97
:1037E00088819981CB5BD04080759927892B09F41A
:1037F00027CF6091CB0D7091CC0D8091CD0D909124
:10380000CE0D0E948E660E94DB63673060F6809169
:10381000C60D843161F0823011F00C941324C5542C
:10382000DF4FA881CB5BD040A7FF01C0FCC7C554C8
:10383000DF4FE881F981CB5BD040EF7AC554DF4F91
:10384000F983E883CB5BD040662339F06150C255E1
:10385000DF4F6883CE5AD04007C0F091B20DC255F9
:10386000DF4FF883CE5AD040BE016F5F7F4FC25505
:10387000DF4F8881CE5AD0400E943144882309F41A
:10388000E2C73090C60D4090570D5090580D609093
:10389000590D70905A0D8E010F5F1F4FC12CD12C06
:1038A000E12CF12CCE54DF4F2881C25BD040822E18
:1038B000912CC4010E2C02C0959587950A94E2F7CD
:1038C00080FF3BC0C6018555924F5C0194E13912DF
:1038D0002AC0F601E45EF24F27A530A941A952A9FA
:1038E0006789708D818D928D0E948D62D5019D9624
:1038F0002D913D914D915C91D0970E948D62F80180
:103900006083718382839383F2E0EF16F104A9F45C
:10391000A30192010E948D62D8016D937D938D93D6
:103920009C9313970AC0F50185A596A5A7A5B0A9F4
:10393000F80180839183A283B383FFEFEF1AFF0A1C
:1039400024E0C20ED11C0C5F1F4F33E0E316F104DC
:1039500009F0AFCF34C1CE54DF4F8881C25BD04075
:10396000882309F438CF4090570D5090580D60903F
:10397000590D70905A0D08ED1DE0C12CD12CE12C91
:10398000F12CA82EB12CF601E45EF24FC5010E2CED
:1039900002C0959587950A94E2F780FF2BC0A5E1B8
:1039A000B0E0AC0FBD1FAC0DBD1D2D913D914D91F3
:1039B0005C916789708D818D928D0E948D62D80196
:1039C0002D913D914D915C910E948D62F801608333
:1039D000718382839383F2E0EF16F104A1F4A301D3
:1039E00092010E948D62D8016D937D938D939C937B
:1039F000139709C087A590A9A1A9B2A9F80180834E
:103A00009183A283B383FFEFEF1AFF0A24E0C20E73
:103A1000D11C0C5F1F4F33E0E316F10409F0B3CF64
:103A2000C9C0C654DF4F8881CA5BD040833061F47F
:103A300095E0991609F49DC0A7E09A1609F4B5C05F
:103A4000B3E09B12B7C084C0CE54DF4FE881C25BA5
:103A5000D040EE2309F4A3C08090AF0D4090570DE5
:103A60005090580D6090590D70905A0D63E3C62E1A
:103A70006DE0D62E08ED1DE05E01F5E1AF0EB11C44
:103A8000E12CF12C2E2E312CC1010E2C02C095956B
:103A900087950A94E2F780FD0BC0F6018081918141
:103AA000A281B381F80180839183A283B3833FC055
:103AB000F7E09F16E1F1811029C0D60158962D91AB
:103AC0003D914D915C915B97F5016081718182819F
:103AD00093810E948E62D8012D913D914D915C9110
:103AE0000E948E62F8016083718382839383F2E087
:103AF000EF16F104E1F4A30192010E948E62D80155
:103B00006D937D938D939C93139711C0F601208143
:103B1000318142815381D8016D917D918D919C912C
:103B20000E948E62F8016083718382839383FFEF2A
:103B3000EF1AFF0A24E0C20ED11C0C5F1F4F34E0C5
:103B4000A30EB11C83E0E816F10409F09DCF70CFFD
:103B5000CE54DF4F9881C25BD040911105C0C6544E
:103B6000DF4F1882CA5BD040BE016F5F7F4F86E097
:103B700010C0CE54DF4FA881C25BD040A11105C058
:103B8000C654DF4F1882CA5BD040BE016F5F7F4FC3
:103B900087E00E943144882309F455C60BC085E0B4
:103BA000981671F397E099128EC68091AC0D823011
:103BB00008F03BC6C255DF4F1882CE5AD040109154
:103BC000AC0D183089F4CE54DF4FB881C25BD040C1
:103BD000BB2309F44DC2C654DF4FE881CA5BD04015
:103BE000E13009F024C664C3C654DF4FF881CA5BD4
:103BF000D040F23009F03CC2111109C0CE54DF4F61
:103C00002881C25BD040222309F439C251C320E08D
:103C100030E0A9016091B60D7091B70D8091B80D9B
:103C20009091B90D0E946763882309F402C614308D
:103C300028F4123080F4113029F03AC3183008F417
:103C4000D1C136C3CE54DF4F3881C25BD04033235D
:103C500009F415C22DC3CE54DF4F8881C25BD0401A
:103C6000882309F4B8CDCA54DF4F9881C65BD04091
:103C7000692E712CC154DF4FB881CF5BD040AB2F80
:103C8000B0E0C354DF4FB983A883CD5BD04081E05F
:103C900090E09C01C154DF4F0880CF5BD04002C050
:103CA000220F331F0A94E2F77C01CA54DF4F0880C9
:103CB000C65BD04002C0EE0CFF1C0A94E2F7E22A79
:103CC000F32ACE54DF4FE881C25BD0408E2F90E0C4
:103CD0008E219F21892B09F4AEC5C301880F991F3E
:103CE000880F991FFC01E555F24FDC01A45EB24F2D
:103CF00057962D913D914D915C915A9765A576A56A
:103D000087A590A90E948D621B012C01C354DF4F2F
:103D100088819981CD5BD040880F991F880F991FAA
:103D2000FC01E555F24FDC01A45EB24F57962D9190
:103D30003D914D915C915A9765A576A587A590A96F
:103D40000E948D624B015C01C554DF4FC880D98051
:103D5000CB5BD040F0E8CF22DD24C554DF4F288173
:103D6000CB5BD04027FF4BC0C554DF4F8881998182
:103D7000CB5BD0408F77C554DF4F99838883CB5B73
:103D8000D0402091D80D3091D90D4091DA0D50914D
:103D9000DB0D6091330D7091340D8091350D909154
:103DA000360D0E946763811178C12091DC0D30913E
:103DB000DD0D4091DE0D5091DF0D6091370D70915A
:103DC000380D8091390D90913A0D0E9467638111F1
:103DD00064C12091E00D3091E10D4091E20D5091D0
:103DE000E30D60913B0D70913C0D80913D0D9091E4
:103DF0003E0D0E946763811150C181E268C5CB53BB
:103E0000DF4F3881C55CD040232F30E0CE54DF4FE8
:103E100039832883C25BD040E222F322EF2809F4E1
:103E20000CC5C554DF4F88819981CB5BD040817F21
:103E3000C554DF4F99838883CB5BD0408091AE0D12
:103E4000813009F486C0F301EE0FFF1FEE0FFF1F54
:103E5000E155F24FC384D484E584F684A70196012A
:103E6000C201B1010E948D622B013C01C354DF4F9E
:103E7000E881F981CD5BD040EE0FFF1FEE0FFF1FF1
:103E8000E155F24F83859485A585B685CE54DF4FE5
:103E900088839983AA83BB83C25BD0409C01AD0118
:103EA000C501B4010E948D624B015C01A301920126
:103EB000C301B2010E94C0652B013C01A501940120
:103EC000C501B4010E94C0659B01AC01C301B201F0
:103ED0000E948E620E944D664B015C01A701960113
:103EE000C701B6010E94C0656B017C01CE54DF4F53
:103EF000288139814A815B81C25BD040CA01B90106
:103F00000E94C0659B01AC01C701B6010E948E6290
:103F10000E944D666B017C016093CF0D7093D00DB4
:103F20008093D10D9093D20D9B01AC01C501B401DA
:103F30000E948D624B015C01E894B7F82AE037EDEE
:103F400043EA5BE3C501B4010E94856518166CF174
:103F5000AFC10BEA1DE0CE54DF4F88819981C25B6F
:103F6000D0400C2C02C0959587950A94E2F780FF0B
:103F700012C023E333E34BEC51E4D8011F966D915B
:103F80007D918D919C9152970E94C065F801678741
:103F9000708B818B928BFFEFCF1ADF0A0C5F1F4F64
:103FA00023E0C216D104B9F64ECF20E030E040E065
:103FB0005FE3C501B4010E94856518160CF41DCF9E
:103FC0002FE632E143E85AE3C701B6010E94C0651B
:103FD0009B01AC01C501B4010E94856518160CF463
:103FE0000CCF66C1CE54DF4F3881C25BD040332343
:103FF00009F4F1CB2091D80D3091D90D4091DA0D13
:104000005091DB0D6091330D7091340D8091350D21
:104010009091360D0E94676381114AC12091DC0D99
:104020003091DD0D4091DE0D5091DF0D6091370D27
:104030007091380D8091390D90913A0D0E9467630F
:10404000811136C12091E00D3091E10D4091E20DDA
:104050005091E30D60913B0D70913C0D80913D0DB1
:1040600090913E0D0E946763882309F4C6CE20C15B
:10407000C654DF4F8881CA5BD040811119C1C55435
:10408000DF4F88819981CB5BD0408E7D9C7FC65469
:10409000DF4F1882CA5BD04013C18091AE0D8130D2
:1040A000B1F423E333E34BEC51E46091CF0D709115
:1040B000D00D8091D10D9091D20D0E94C06560937A
:1040C000CF0D7093D00D8093D10D9093D20D809130
:1040D000CF0D9091D00DA091D10DB091D20DCE54B5
:1040E000DF4F88839983AA83BB83C25BD040A20140
:1040F0009101C201B1010E94C065CB53DF4F6883BB
:1041000079838A839B83C55CD040A5019401C50156
:10411000B4010E94C065C753DF4F688379838A83E7
:104120009B83C95CD04020E030E040E850E4CE54AE
:10413000DF4F688179818A819B81C25BD0400E9478
:10414000C065CE54DF4F288139814A815B81C25BD3
:10415000D0400E94C065CB53DF4F288139814A810E
:104160005B81C55CD0400E948D62C753DF4F2881C0
:1041700039814A815B81C95CD0400E948D626B01AC
:104180007C0120E030E0A9010E94676387FD72C3D3
:10419000C701B6010E944D666B017C01C753DF4F1A
:1041A000288139814A815B81C95CD040CB53DF4F84
:1041B000688179818A819B81C55CD0400E948E6232
:1041C0000E944D669B01AC01C701B60190580E9448
:1041D0006E636B017C01133021F4F7FAF094F7F869
:1041E000F09420E030E0A901CE54DF4F688179815E
:1041F0008A819B81C25BD0400E94676387FF15C0A4
:10420000F7FAF094F7F8F094CE54DF4F8881998153
:10421000AA81BB81C25BD040B0588093CF0D9093F0
:10422000D00DA093D10DB093D20D8301000F111FBB
:10423000000F111F0155124FA7019601C501B401CE
:104240000E94C0659B01AC01C201B1010E948D6258
:1042500020E030E040E05FE30E94C065D8011B969B
:104260006D937D938D939C931E97C354DF4F08816C
:104270001981CD5BD040000F111F000F111F015598
:10428000124FA7019601C201B1010E94C0659B01B6
:10429000AC01C501B4010E948E6220E030E040E034
:1042A0005FE30E94C065F8016387748785879687FE
:1042B000C554DF4F88819981CB5BD0408E7D907E45
:1042C000892B09F0BCC28091C70D9091C80DA091B7
:1042D000C90DB091CA0D80932F0D9093300DA0930E
:1042E000310DB093320D8091AD0D80931D0D8091F5
:1042F000B60D9091B70DA091B80DB091B90D809306
:104300002A0D90932B0DA0932C0DB0932D0DC090E2
:10431000D30DD090D40DE090D50DF090D60DA7011F
:1043200096016091260D7091270D8091280D909136
:10433000290D0E946763882341F18091250D882310
:10434000A1F09091E60D923081F0C153DF4F888348
:10435000CF5CD0400E94DE5FB701A601C153DF4FA2
:104360008881CF5CD0400E94FF3E8091D30D909118
:10437000D40DA091D50DB091D60D8093260D9093BC
:10438000270DA093280DB093290D8091D70D809310
:104390002E0D8091B50D9091250D981709F446C00A
:1043A0004091260D5091270D6091280D7091290D97
:1043B0009091E60D9230B1F1C053DF4F4883C05D5C
:1043C000D040CF52DF4F5883C15DD040C353DF4F41
:1043D0006883CD5CD040C253DF4F7883CE5CD04041
:1043E000C153DF4F8883CF5CD0400E94DE5FC05353
:1043F000DF4F4881C05DD040CF52DF4F5881C15D53
:10440000D040C353DF4F6881CD5CD040C253DF4FF3
:104410007881CE5CD040C153DF4F8881CF5CD040E3
:104420000E94FF3E8091B50D8093250D1091B40D33
:104430008091240D811781F08091E60D823041F04A
:104440000E94DE5F123011F45C9A02C00E94A354F5
:104450008091B40D8093240D8091AB0D813089F053
:104460008091B00D8093200D8091AE0D80931E0D34
:10447000C654DF4F9881CA5BD040933009F074C0B6
:1044800054C08090CB0D9090CC0DA090CD0DB090ED
:10449000CE0D8091E60D823019F320E030E040EA45
:1044A00051E4C501B4010E94C0650E9444640E94A9
:1044B000DB636B017C010E94DE5F20E030E04AE7B5
:1044C00054E4C501B4010E94C0654B015C0182E364
:1044D0008C9DB0018D9D700D112480E090E00E94B4
:1044E00007649B01AC01C501B4010E948D620E946A
:1044F00044640E94DB63CB010E94F94C86010115E4
:10450000110509F4ADCF0E94AF400150110980910F
:10451000E50D8111A5CFAFEFB0E7E2E0A150B040CB
:10452000E040E1F700C00000EACF8091B10D809338
:10453000210D813089F48091E00D9091E10DA091E1
:10454000E20DB091E30D8093570D9093580DA09319
:10455000590DB0935A0D08C01092570D1092580D76
:104560001092590D10925A0D8091B20D9091220D1A
:10457000981759F08093220D8CE0FE017596AFE3F9
:10458000BDE001900D928A95E1F78091AF0D809387
:104590001F0DE091AB0D8E2F90E0FC013297E830BB
:1045A000F10508F069C08827E957FF4F8F4F0C9439
:1045B000F366BE016F5F7F4FC255DF4F8881CE5AD1
:1045C000D0400E9428448091220DC255DF4FF881CF
:1045D000CE5AD0408F1350C08CE0FE013196AFE32D
:1045E000BDE03EC0C654DF4F2881CA5BD0402223C5
:1045F00071F020912A0D30912B0D40912C0D50918E
:104600002D0D00E068ED7DE081E00E94F24D2091EB
:104610002A0D30912B0D40912C0D50912D0D00E065
:10462000BE016F5F7F4F81E00E94F24D182F8CE03A
:10463000FE013196A3E3BDE001900D928A95E1F76A
:104640001CC063E37DE086E003C063E37DE087E0B8
:104650000E94284411C08CE0E8EDFDE0ABE4BDE031
:1046600001900D928A95E1F707C08CE0EBE4FDE044
:10467000DF011D928A95E9F710E08091AC0D8093DF
:104680001C0D883009F470C0C654DF4FB881CA5B76
:10469000D040B23009F068C090E08830910508F051
:1046A0005AC0FC0140902A0D50902B0D60902C0DAB
:1046B00070902D0D8827E157FF4F8F4F0C94F366B4
:1046C00000E0A301920168ED7DE080E007C0009169
:1046D0001D0DA301920168ED7DE081E00E94F24D85
:1046E000182F39C06091CF0D7091D00D8091D10DF0
:1046F0009091D20D8824839409C06091CF0D709160
:10470000D00D8091D10D9091D20D812CCF53DF4FE0
:10471000A880C15CD040C154DF4FC880CF5BD0407F
:10472000CA54DF4FE880C65BD04000911D0DA30145
:1047300092010E94495D0FC000E001C001E020E04D
:1047400004C000E001C001E021E040911D0DC30163
:10475000B2010E949E5C8CE0E8EDFDE0A3E3BDE0C9
:1047600001900D928A95E1F78091B30D8093230D0E
:10477000882309F466C00E94DE5F9091230D80912A
:10478000E60D913069F48230E9F19FB7F894809199
:104790005B0D886080935B0D9FBF0E94AF4032C06D
:1047A00091E090931C0D1092200D10921F0D10920D
:1047B0001D0D1092220D1092250D1092240D8230A5
:1047C000A9F0BE016B5E7F4F80E00E9431448823D8
:1047D000D1F18CE0FE017596AFE3BDE001900D9242
:1047E0008A95E1F70E941E430E94A35488E096E058
:1047F0000E94A1408CEA95E00E94A14085E995E0E5
:104800000E94A1401092230D1CC081E060C082E094
:104810005EC088E15CC089E15AC084E058C08BE189
:1048200056C085E254C084E152C08EE150C08FE191
:104830004EC086E14CC080E24AC083E248C084E2B8
:1048400046C0812F44C087E042C0EEE12E163104FD
:1048500011F40C94B90C80F42AE02216310411F4FE
:104860000C94890C3CE12316310411F40C949D0C3A
:1048700087E12DC082E22BC085E32816310411F4B4
:104880000C94DC0C9CE52916310491F7CA54DF4FD7
:10489000E881F981C65BD040309729F03A9719F644
:1048A00089E00C94C20C88E00C94C20C3CE5231601
:1048B000310411F00C94330EA1E0C654DF4FA883ED
:1048C000CA5BD040E3CFA3E09A1274C948C9CF5263
:1048D000DF4F0FB6F894DEBF0FBECDBFDF91CF9193
:1048E0001F910F91FF90EF90DF90CF90BF90AF900E
:1048F0009F908F907F906F905F904F903F902F9000
:1049000008952091410C3091420C21153105B9F0E8
:104910008091480C9091490C8217930734F40196CA
:104920009093490C8093480C0AC01092490C109245
:10493000480C1092420C1092410C1092B30C209132
:104940003F0C3091400C21153105A1F08091460CAF
:104950009091470C8217930734F401969093470C7B
:104960008093460C07C01092470C1092460C81E0D1
:104970008093B40C8091B30C81111BC080913E0CCC
:10498000811117C0809173008E7F80937300109205
:104990003D0C1092420C1092410C1092400C10925F
:1049A0003F0C1092490C1092480C1092470C109238
:1049B000460C08958091450C811107C081E08093D9
:1049C000450C80910B01806205C01092450C8091CE
:1049D0000B018F7D80930B018091430C9091440CCF
:1049E0009C012F5F3F4F3093440C2093430C209148
:1049F0000402309105022817390748F41092440C3C
:104A00001092430C809170008E7F80937000089507
:104A1000CF93DF936091840C84E893E00E94F85375
:104A20006091850C85E893E00E94F85388E993E053
:104A3000EC012196FC01E251F74F60810E94F8538E
:104A4000CE01CC39D340A1F78EE893E0EC0121965A
:104A5000FC01E450F74F60810E94F853CE01C23947
:104A6000D340A1F7DF91CF910895CF92DF92EF92DB
:104A7000FF920F931F93CF93DF9369017A01EAE0CE
:104A8000F1E0208120622083EBE0F1E020812F7DA6
:104A90002083660F771F709305026093040207EB73
:104AA0001CE08AED94E2F80191838083C0E7D0E0B6
:104AB00088818E7F8883E0EBF0E080818C7F80832B
:104AC000E1EBF0E08081877F8083A6EBB0E08C9102
:104AD0008F7D8C9388818D7F8883808184608083A3
:104AE00080818C7F808320E034E244EF59E4C70169
:104AF000B6010E946E6320E034E244E75BE40E946A
:104B0000C06520E030E040E85CE30E94C0650E94A0
:104B1000D66320E031E0C901861B970BF80193832F
:104B20008283828193818093B200888181608883AF
:104B3000DF91CF911F910F91FF90EF90DF90CF9079
:104B40000895E1EAF0E080E180831092A000A5E101
:104B5000BDE082E016968C93169780E29EE415964F
:104B60009C938E9314979093A7008093A60082E164
:104B7000808320E030E048EA51E4609100027091C7
:104B8000010280910202909103020E946E6320E074
:104B900030EC4FE754E40E94C0650E94DB63CB0118
:104BA0000C945630CF93DF93D82FC8E05E98559A77
:104BB000D7FF02C05D9A01C05D9865E070E080E0BB
:104BC00090E00E94BB4C5E9A65E070E080E090E06F
:104BD0000E94BB4C5E98DD0F65E070E080E090E0E5
:104BE0000E94BB4CC15011F762E070E080E090E0A1
:104BF0000E94BB4C559A5D9A62E070E080E090E0C4
:104C0000DF91CF910C94BB4C5E98559A5D9865E00E
:104C100070E080E090E00E94BB4C5E9A65E070E03E
:104C200080E090E00E94BB4C559A5D9A65E070E090
:104C300080E090E00C94BB4CCF93559A5D9A62E073
:104C400070E080E090E00E94BB4C5E9A62E070E011
:104C500080E090E00E94BB4C55989BEF89B1C82F33
:104C6000C07285FF05C09150C9F7CEDFC1E007C013
:104C70005E9862E070E080E090E00E94BB4C8C2F78
:104C8000CF910895559A5D9A5E9A65E070E080E054
:104C900090E00E94BB4C559A5D9865E070E080E022
:104CA00090E00E94BB4C5E9862E070E080E090E093
:104CB0000C94BB4CCF93DF93D82FC8E080910201B6
:104CC0008F778093020180910101846080930101BC
:104CD00080910201D7FF02C0846001C08B7F809366
:104CE000020165E070E080E090E00E94BB4C8091A2
:104CF000020180688093020165E070E080E090E04E
:104D00000E94BB4C809102018F7780930201DD0FDE
:104D100065E070E080E090E00E94BB4CC15071F60D
:104D200062E070E080E090E00E94BB4C8091010165
:104D3000846080930101809102018460809302016C
:104D400062E070E080E090E0DF91CF910C94BB4C8A
:104D50000F931F93CF93DF93C2E0D1E088818F77C9
:104D6000888301E011E0F80180818460808388817C
:104D70008B7F888365E070E080E090E00E94BB4C10
:104D800088818068888365E070E080E090E00E9420
:104D9000BB4CF80180818460808388818460888333
:104DA00065E070E080E090E0DF91CF911F910F917E
:104DB0000C94BB4CCF9380910101846080930101DE
:104DC0008091020184608093020162E070E080E0E3
:104DD00090E00E94BB4C80910201806880930201A8
:104DE00062E070E080E090E00E94BB4C80910101A5
:104DF0008B7F809301019BEF80910001C82FC470CD
:104E000082FF05C09150C1F7A3DFC1E00BC09091B4
:104E100002019F779093020162E070E080E090E0F1
:104E20000E94BB4C8C2FCF9108950F931F93CF936B
:104E3000DF9301E011E0F801808184608083C2E0AB
:104E4000D1E088818460888388818068888365E078
:104E500070E080E090E00E94BB4CF80180818460AB
:104E6000808388818B7F888365E070E080E090E0BC
:104E70000E94BB4C88818F77888362E070E080E07D
:104E800090E0DF91CF911F910F910C94BB4CCF9389
:104E9000DF93D82FC8E04398399AD7FF02C0419AD0
:104EA00001C0419865E070E080E090E00E94BB4C5A
:104EB000439A65E070E080E090E00E94BB4C43982C
:104EC000DD0F65E070E080E090E00E94BB4CC150D7
:104ED00011F762E070E080E090E00E94BB4C399AEC
:104EE000419A62E070E080E090E0DF91CF910C9415
:104EF000BB4C4398399A419865E070E080E090E0BF
:104F00000E94BB4C439A65E070E080E090E00E9414
:104F1000BB4C399A419A65E070E080E090E00C94D7
:104F2000BB4CCF93399A419A62E070E080E090E008
:104F30000E94BB4C439A62E070E080E090E00E94E7
:104F4000BB4C39989BEF86B1C82FC27081FF05C05A
:104F50009150C9F7CEDFC1E007C0439862E070E02E
:104F600080E090E00E94BB4C8C2FCF910895399A3D
:104F7000419A439A65E070E080E090E00E94BB4C6B
:104F8000399A419865E070E080E090E00E94BB4C67
:104F9000439862E070E080E090E00C94BB4C4F924C
:104FA0005F926F927F92AF92BF92CF92DF92EF9219
:104FB000FF920F931F93CF93DF935C01EB018A0164
:104FC000FC01408051806280738020E030E0A901C4
:104FD000C301B2010E94676320E030E0A9018111A2
:104FE00011C0688179818A819B810E94856518162C
:104FF000E4F02AEDC22E2FE0D22E29ECE22E2FEB88
:10500000F22E22C0C301B2010E94676387FD16C061
:10501000A3019201688179818A819B810E946E63DC
:105020000E942C636B017C010FC09AEDC92E9FE09A
:10503000D92E99ECE92E9FE3F92E06C0C12CD12C74
:1050400080ECE82E8FE7F82EC701B6010E946B6353
:105050002091860C3091870C4091880C5091890CDE
:105060000E94C0659B01AC01C301B2010E948D6228
:10507000F5016083718382839383C701B6010E9427
:1050800043662091860C3091870C4091880C50919A
:10509000890C0E94C0659B01AC01688179818A817D
:1050A0009B810E948D62688379838A839B83209190
:1050B0008A0C30918B0C40918C0C50918D0CF80126
:1050C00060817181828193810E948E62F801608388
:1050D000718382839383DF91CF911F910F91FF9012
:1050E000EF90DF90CF90BF90AF907F906F905F90E8
:1050F0004F9008954F925F926F927F92AF92BF92BE
:10510000CF92DF92EF92FF920F931F93CF93DF9393
:105110005C01EB018A01FC01408051806280738058
:1051200020E030E0A901C301B2010E94676320E0E2
:1051300030E0A901811111C0688179818A819B8148
:105140000E9485651816E4F02AEDC22E2FE0D22EBB
:1051500029ECE22E2FEBF22E22C0C301B2010E94F5
:10516000676387FD16C0A3019201688179818A81F6
:105170009B810E946E630E942C636B017C010FC0B7
:105180009AEDC92E9FE0D92E99ECE92E9FE3F92ED6
:1051900006C0C12CD12C80ECE82E8FE7F82EC70179
:1051A000B6010E946B632091860C3091870C409170
:1051B000880C5091890C0E94C0659B01AC01C30111
:1051C000B2010E948E62F5016083718382839383B2
:1051D000C701B6010E9443662091860C3091870C6E
:1051E0004091880C5091890C0E94C0659B01AC01D4
:1051F000688179818A819B810E948E62688379832C
:105200008A839B8320918A0C30918B0C40918C0C6B
:1052100050918D0CF80160817181828193810E948F
:105220008D62F8016083718382839383DF91CF91D4
:105230001F910F91FF90EF90DF90CF90BF90AF90B4
:105240007F906F905F904F9008952F923F924F9272
:105250005F926F927F928F929F92AF92BF92CF9206
:10526000DF92EF92FF920F931F93CF93DF93CDB70F
:10527000DEB766970FB6F894DEBF0FBECDBF698369
:105280007A838B839C832D833E834F8358872701AA
:1052900038011601BA8AA98A84019B01AC010E94D7
:1052A000C0656B017C012D813E814F815885CA010B
:1052B000B9010E94C0659B01AC01C701B6010E9403
:1052C0008E620E944D6623E333E343E551E40E947E
:1052D0008D6269877A878B879C8723E333E344ED6C
:1052E00052E4C301B2010E948D622B013C01298569
:1052F0003A854B855C85CA01B9010E94C0656B0186
:105300007C01A3019201C301B2010E94C0659B010F
:10531000AC01C701B6010E948E626B017C0128E8D6
:105320003BEE4DE955E40E948D624B015C0120E0AB
:1053300038E84DE957E4C701B6010E94C0656D87A2
:105340007E878F87988BA5019401C501B4010E94C7
:10535000C0659B01AC016D857E858F8598890E9413
:105360008D620E944D666B8B7C8B8D8B9E8BA70113
:105370009601C701B6010E948E626D877E878F8776
:10538000988BA501940169857A858B859C850E94FF
:10539000C0654B015C012B893C894D895E89C30145
:1053A000B2010E94C0659B01AC01C501B4010E941D
:1053B0008D624B015C0120E030E04EE053E46D85EE
:1053C0007E858F8598890E94C0659B01AC01C501CF
:1053D000B4010E946E630E947F6221EE3EE245E6C8
:1053E00052E40E94C065F1016083718382839383DC
:1053F00028E83BEE4DE955E4C701B6010E948E62F4
:105400004B015C0122EE32E045EC57E4C701B601E6
:105410000E94C0656B017C01A5019401C501B40126
:105420000E94C0659B01AC01C701B6010E948D625C
:105430000E944D666B017C01A501940169857A8506
:105440008B859C850E94C0654B015C01A70196017C
:10545000C301B2010E94C0659B01AC01C501B4014A
:105460000E948E626B017C012DEC3CEC4EE153E41A
:105470006D857E858F8598890E94C0659B01AC01F2
:10548000C701B6010E946E630E947F6221EE3EE278
:1054900045E652E40E94C0656B017C01E989FA8906
:1054A000608371838283938321EE3EE245E652E47A
:1054B000F10160817181828193810E946E630E94FB
:1054C000436620E030E04EE053E40E94C0659B015B
:1054D000AC01C301B2010E948565181654F4F7FAB5
:1054E000F094F7F8F094E989FA89C082D182E282D7
:1054F000F38220E030E0A90169817A818B819C816F
:105500000E94676320E030E0A901811112C06D8123
:105510007E818F8198850E94856518162CF480E025
:1055200090E0A4EBB2E411C080E090E0A4EBB2EC18
:105530000CC069817A818B819C810E94676387FF9F
:105540000AC080E090E0A0ECBFE7F801808391837F
:10555000A283B38317C029813A814B815C816D811D
:105560007E818F8198850E946E630E942C6321EE5C
:105570003EE245E652E40E94C065F8016083718313
:105580008283938366960FB6F894DEBF0FBECDBFBD
:10559000DF91CF911F910F91FF90EF90DF90CF900F
:1055A000BF90AF909F908F907F906F905F904F9043
:1055B0003F902F9008952F923F924F925F926F925B
:1055C0007F928F929F92AF92BF92CF92DF92EF9293
:1055D000FF920F931F93CF93DF93CDB7DEB72E9734
:1055E0000FB6F894DEBF0FBECDBF29833A834B833D
:1055F0005C83ED82FE820F831887860115019E86EB
:105600008D8621EE3EE245E652E40E946E632B0158
:105610003C0121EE3EE245E652E469817A818B81CC
:105620009C810E946E634B015C0121EE3EE245E6E7
:1056300052E46D817E818F8198850E946E636B013B
:105640007C01C301B2010E946B6369837A838B83FF
:105650009C83C501B4010E946B636D837E838F833D
:105660009887C301B2010E9443662B013C01C5012A
:10567000B4010E94436669877A878B879C8720E004
:1056800030E04EE053E469817A818B819C810E94F5
:10569000C0654B015C012DEC3CEC4EE153E46D81A7
:1056A0007E818F8198850E94C0659B01AC01C501F8
:1056B000B4010E948E6223E333E343E551E40E9488
:1056C0008E624B015C01C701B6010E946B639B01B6
:1056D000AC01C501B4010E94C065F801608371830B
:1056E00082839383C701B6010E9443669B01AC018C
:1056F000C501B4010E94C065F1016083718382839A
:10570000938320E030E04EE053E4C301B2010E94F5
:10571000C0656B017C012DEC3CEC4EE153E46985E6
:105720007A858B859C850E94C0659B01AC01C70171
:10573000B6010E948D6223E333E344ED52E40E94FC
:105740008E62ED85FE8560837183828393832E96BE
:105750000FB6F894DEBF0FBECDBFDF91CF911F9182
:105760000F91FF90EF90DF90CF90BF90AF909F9000
:105770008F907F906F905F904F903F902F90089503
:105780004F925F926F927F928F929F92AF92BF9251
:10579000CF92DF92EF92FF920F931F93CF93DF93FD
:1057A00000D01F92CDB7DEB729013A01E982FA8213
:1057B0000B831C8304E81CE020E030E040E253E46B
:1057C0000E946E639B01AC01F8016285738584853C
:1057D00095850E948E62F601608371838283938334
:1057E00020E030E040E253E4C301B2010E946E6366
:1057F0009B01AC01F80166857785808991890E94BB
:105800008E62F501608371838283938320E030E0B0
:1058100044EB52E4F80162897389848995890E9476
:105820008D622B013C0120E030E040E253E46981CD
:105830007A818B819C810E946E639B01AC01C301C4
:10584000B2010E948E62F40160837183828393832C
:105850000F900F900F900F90DF91CF911F910F91AC
:10586000FF90EF90DF90CF90BF90AF909F908F9080
:105870007F906F905F904F9008952F923F924F923C
:105880005F926F927F928F929F92AF92BF92CF92D0
:10589000DF92EF92FF920F931F93CF93DF93CDB7D9
:1058A000DEB72C970FB6F894DEBF0FBECDBF160142
:1058B00035012401FE0131964F0134965F01349683
:1058C0006F015EDFE980FA800B811C812D813E81B2
:1058D0004F81588569857A858B859C854201530166
:1058E000610169DE2C960FB6F894DEBF0FBECDBF06
:1058F000DF91CF911F910F91FF90EF90DF90CF90AC
:10590000BF90AF909F908F907F906F905F904F90DF
:105910003F902F9008954F925F926F927F928F9257
:105920009F92AF92BF92CF92DF92EF92FF920F932E
:105930001F932B013C0149015A01670178019B012A
:10594000AC010E949566811172C0A5019401C50148
:10595000B4010E94956681116AC0A7019601C70132
:10596000B6010E949566811162C02AE939E947E0D3
:1059700053E4C301B2010E94856518160CF457C0A8
:1059800020E030E040E85FE3C301B2010E946763BA
:1059900087FD4DC02DEC3CEC4FEE52E4C501B40147
:1059A0000E94856518160CF442C020E030E040E803
:1059B0005FE3C501B4010E94676387FD38C0A3019E
:1059C000920160E070E084E393E40E948D62A5019F
:1059D00094010E948D624B015C0120E030E047E1C0
:1059E00053E40E948565181614F120E030E040E28F
:1059F00051E4C501B4010E94676387FD18C020E02F
:105A000030E044EB52E4C701B6010E9485651816E8
:105A100074F020E030E044EB52ECC701B6010E9484
:105A20006763881F8827881F91E0892701C080E06D
:105A30001F910F91FF90EF90DF90CF90BF90AF90AC
:105A40009F908F907F906F905F904F9008950F93ED
:105A50001F93CF93DF93C7E3DCE084E393E08C01F3
:105A60000F5F1F4F0E9457548993C8010A33134098
:105A7000B1F7DF91CF911F910F910895AF92BF922F
:105A8000CF92DF92EF92FF920F931F93CF93DF930A
:105A9000082F6EE09CD1C82F6FE0802F98D1D0E006
:105AA000DC2FCC27C82B7E016E0134E0A32EB12C55
:105AB0006EE0802F8CD1182F6FE0802F88D1212F9E
:105AC00030E0322F2227282BC217D30708F4E90130
:105AD0002C153D0508F46901E20EF31E81E0A81AB9
