:100000000C94EA050C940B060C940B060C940B064E
:100010000C940B060C940B060C940B060C940B061C
:100020000C940B060C942D860C940B060C94867E77
:100030000C940B060C940B060C940B060C94537E3C
:100040000C940B060C94EB7E0C940B060C940B0694
:100050000C940B060C940B060C940B060C94AF7EC0
:100060000C940B060C94D6840C94FF850C940B0610
:100070000C940B060C940B060C940B060C940B06BC
:100080000C940B060C940B060C940B060C943D7E02
:100090000C946D840C94D1850C940B060C940B0677
:1000A0000C940B060C940B060C943E810C940B06DE
:1000B0000C940B060C94087E0C940B060C940B0607
:1000C0000C940B060C940B060C94D37D0C940484B6
:1000D0000C94A3850C940B060C949B830C9475854F
:1000E0000C940B06036EDB363D9A9999993DABAAA9
:1000F000AA2A3E000000803F084AD73B3BCE016E53
:1001000084BCBFFDC12F3D6C74319ABD56833DDA6E
:100110003D00C77F11BED9E4BB4C3E916BAAAABE7D
:10012000000000803F072C7AA5BA6CC590DA3B939B
:1001300065FC8BBC53F810FD3C5692834DBD879DEA
:100140003AB63DCBC9BF5BBE73DA0FC93F05A84CB9
:10015000CDB2D44EB93836A9020C50B99186880870
:100160003CA6AAAA2ABE000000803F000C943C7561
:100170000C9475060C94413A0C9487060C94FC235D
:100180000C94B47C0C94FD220C94297D0C949B3A25
:100190000C94966C0C94E9220C947F060C94BC7C15
:1001A0000C94F0230C9419240C94EA230C94B43A84
:1001B0000C94073A0C94C5220C9418230C942B75BC
:1001C0000C948D060C94FF230C945A3A0C945E0602
:1001D0000C94EF7C0C94DF220C94AE7C0C94910672
:1001E0000C94283A0C9409230C94C2220C94150701
:1001F0000C94DC730C94C8730C949D220C94ED3A0F
:100200000C9456060C9405240C945A060C94520631
:100210000C94247D0C943C7C0C94F77C0C94E87436
:100220000C940D240C94BA220C9423230C94610694
:100230000C94E2730C9412230C9483060C94A82261
:100240000C94DF730C94E5730C94ED230C94507CA8
:100250000C94F3230C9410240C9400750C94B2228B
:100260000C9479060C941C240C94DB090C94002348
:100270000C94823A0C9402240C94F5220C944D7543
:100280000C94117D0C94AA7C0C94C0730C941B7D6F
:100290000C9471060C9416240C940A240C94E123FB
:1002A0000C94F9230C9457740C94D4740C94267DFC
:1002B0000C94A5220C94EF740C9496220C94CE22EC
:1002C0000C94A87C0C940F3B0C94A37C0C94177595
:1002D0000C9439740C94F0390C94F6230C94670642
:1002E0000C94A0220C94AC740C948C060C94D72221
:1002F0000C940D750C9413240C94143B0C94E8731B
:100300000C946B060C94C0740C94063B0C944C0635
:100310000C94130800407A10F35A00A0724E18098A
:100320000010A5D4E80000E87648170000E40B545C
:10033000020000CA9A3B000000E1F505000080962B
:100340009800000040420F000000A086010000005D
:10035000102700000000E803000000006400000017
:1003600000000A00000000000100000000002C76E0
:10037000D888DC674F0823DFC1DFAE59E1B1B796FB
:10038000E5E3E453C63AE651997696E8E6C2842658
:10039000EB898C9B62ED407C6FFCEFBC9C9F40F234
:1003A000BAA56FA5F490055A2AF75C936B6CF967B0
:1003B0006DC11BFCE0E40D47FEF520E6B500D0ED75
:1003C000902E0300943577050080841E08000020DD
:1003D0004E0A000000C80C333333330F986E12837B
:1003E0001141EF8D2114893BE65516CFFEE6DB184F
:1003F000D1844B381BF77C1D901DA4BBE424203214
:1004000084725E228100C9F124ECA1E53D2763647A
:10041000696E6F70737578585B00000020002300D0
:10042000260029002C002F003200000100000301EB
:10043000060109010D0A003D00244E005D0D0A0071
:100440005B302E396A2E32303136303732363A0050
:100450005D0D0A005B544C4F3A005D0D0A002C0004
:100460005B4739323A005D0D0A002C003A00333008
:10047000003238005B47005D0D0A00205300204623
:1004800000205400204D3800204D3900204D35000B
:10049000204D3400204D3300204D3200204D3100DE
:1004A000204D3000204739340020473933002047A1
:1004B00039310020473930002047323000204732A0
:1004C000310020473139002047313800204731378B
:1004D000002047004733382E0047383000473300AC
:1004E0004732004731004730005B00290D0A0020E9
:1004F0006D61782074726176656C2C206D6D0020C2
:10050000616363656C2C206D6D2F7365635E3200D3
:10051000206D617820726174652C206D6D2F6D697E
:100520006E002C20737465702F6D6D007A00790059
:1005300078002028003D0024002028686F6D696E37
:10054000672070756C6C2D6F66662C206D6D290DA3
:100550000A002028686F6D696E67206465626F7598
:100560006E63652C206D736563290D0A2432373D57
:10057000002028686F6D696E67207365656B2C209D
:100580006D6D2F6D696E290D0A2432363D002028CD
:10059000686F6D696E6720666565642C206D6D2FD0
:1005A0006D696E290D0A2432353D00290D0A243269
:1005B000343D002028686F6D696E67206469722081
:1005C000696E76657274206D61736B3A00202868DD
:1005D0006F6D696E67206379636C652C20626F6F45
:1005E0006C290D0A2432333D002028686172642092
:1005F0006C696D6974732C20626F6F6C290D0A240D
:1006000032323D002028736F6674206C696D697406
:10061000732C20626F6F6C290D0A2432313D00204B
:10062000287265706F727420696E636865732C2020
:10063000626F6F6C290D0A2432303D0020286172F0
:100640006320746F6C6572616E63652C206D6D291B
:100650000D0A2431333D0020286A756E6374696F7A
:100660006E20646576696174696F6E2C206D6D29EA
:100670000D0A2431323D00290D0A2431313D00207C
:1006800028737461747573207265706F7274206D55
:1006900061736B3A00202870726F62652070696E1A
:1006A00020696E766572742C20626F6F6C290D0A5A
:1006B0002431303D0020286C696D69742070696EAA
:1006C0007320696E766572742C20626F6F6C290DD1
:1006D0000A24363D0020287374657020656E6162BF
:1006E0006C6520696E766572742C20626F6F6C2960
:1006F0000D0A24353D00290D0A24343D00202864CC
:10070000697220706F727420696E76657274206DE4
:1007100061736B3A00290D0A24333D00202873745D
:10072000657020706F727420696E76657274206DCA
:1007300061736B3A002028737465702069646C657E
:100740002064656C61792C206D736563290D0A2422
:10075000323D002028737465702070756C73652CB1
:100760002075736563290D0A24313D0024303D0056
:100770002424202876696577204772626C2073658F
:100780007474696E6773290D0A24232028766965BD
:1007900077202320706172616D6574657273290D15
:1007A0000A24472028766965772070617273657224
:1007B000207374617465290D0A24492028766965BF
:1007C00077206275696C6420696E666F290D0A2452
:1007D0004E20287669657720737461727475702075
:1007E000626C6F636B73290D0A24783D76616C75BA
:1007F00065202873617665204772626C207365748A
:1008000074696E67290D0A244E783D6C696E652007
:100810002873617665207374617274757020626CE0
:100820006F636B290D0A24432028636865636B207E
:1008300067636F6465206D6F6465290D0A24582015
:10084000286B696C6C20616C61726D206C6F636BDE
:10085000290D0A2448202872756E20686F6D696E14
:1008600067206379636C65290D0A7E2028637963AC
:100870006C65207374617274290D0A2120286665E5
:10088000656420686F6C64290D0A3F2028637572C7
:1008900072656E7420737461747573290D0A6374C4
:1008A000726C2D7820287265736574204772626CB3
:1008B000290D0A000D0A00486F6D696E6720666198
:1008C000696C0050726F6265206661696C004162FC
:1008D0006F727420647572696E67206379636C65EA
:1008E00000536F6674206C696D69740048617264AE
:1008F000206C696D697400414C41524D3A20003EB4
:100900000D0A002C4C696D3A002C52583A002C42CA
:1009100075663A002C002C57506F733A002C002C4F
:100920004D506F733A003C446F6F72003C436865F2
:10093000636B003C416C61726D003C486F6D6500FB
:100940003C486F6C64003C52756E003C49646C65B9
:10095000005D0D0A00526573746F72696E672064E2
:10096000656661756C74730050676D20456E640038
:10097000436865636B20446F6F7200446973616202
:100980006C656400456E61626C65640043617574FA
:10099000696F6E3A20556E6C6F636B656400272437
:1009A00048277C2724582720746F20756E6C6F634E
:1009B0006B00526573657420746F20636F6E746989
:1009C0006E7565005B005D0D0A003A002C005B50FF
:1009D00052423A000D0A00496E76616C69642067E4
:1009E000636F64652049443A00556E646566696EBC
:1009F000656420666565642072617465004D6F648E
:100A0000616C2067726F75702076696F6C617469B4
:100A10006F6E00486F6D696E67206E6F7420656E33
:100A200061626C656400416C61726D206C6F636B18
:100A3000004E6F742069646C6500454550524F4DFF
:100A40002072656164206661696C2E205573696E41
:100A5000672064656661756C74730056616C7565BA
:100A6000203C203320757365630053657474696E90
:100A7000672064697361626C65640056616C7565BA
:100A8000203C203000496E76616C6964207374618B
:100A900074656D656E7400426164206E756D62658B
:100AA0007220666F726D617400457870656374655D
:100AB0006420636F6D6D616E64206C657474657223
:100AC000006572726F723A20006F6B0D0A000000B1
:100AD0000A0B02090C0D0E080703040100000000B8
:100AE0000000000000000000000000000000000006
:100AF00000000000000000000000121110000000C3
:100B000000000000000000000000000000000000E5
:100B10000000000000002200250028002B002E000D
:100B20003100340002010000050108010B01000042
:100B30002100240027002A002D003000330001018D
:100B40000000040107010A0105050505070508085D
:100B50000808020202020A0A080804040404010147
:100B6000010101010101030303030303030304075C
:100B700007070C0C0C0C0C0C0C0C020202020606F3
:100B80000606060606060B0B0B0B0B0B0B0B0102E6
:100B9000102020080810204010204080020102018F
:100BA0000804020101020408102040808040201047
:100BB00008040201800402018040201008040201A0
:100BC0000804020101020408102040800102040808
:100BD0001020408011241FBECFEFD1E2DEBFCDBF79
:100BE00000E00CBF15E0A0E0B2E0E0EAF8E401E0CC
:100BF0000BBF02C007900D92A232B107D9F726E1D0
:100C0000A2E2B5E001C01D92A934B207E1F70E944B
:100C1000008A0C944EA40C940000E7E5F5E1A48151
:100C2000B5819C010E94D29DA1E0B1E02C91286089
:100C30002C93A0EAB0E02C9120682C932AE09695A2
:100C40008795779567952A95D1F77093A90060935A
:100C5000A800868180618093A1000895815082312F
:100C600008F05AC0E82FF0E08827E65CF94F8F4F74
:100C70000C94CA9D5A065E064C06520656068C0611
:100C8000610667066B067106750679067F068306A0
:100C90008C0687068D069106809180008F77809361
:100CA00080000895809180008F7DF9CF8091800031
:100CB000877FF5CF84B58F7784BD089584B58F7D08
:100CC000FBCF8091B0008F778093B0000895809122
:100CD000B0008F7DF9CF809190008F778093900046
:100CE0000895809190008F7DF9CF80919000877F4B
:100CF000F5CF8091A0008F778093A0000895809118
:100D0000A0008F7DF9CF8091A000877FF5CF8091E3
:100D100020018F77809320010895809120018F7D9D
:100D2000F9CF80912001877FF5CF1F93CF93DF9379
:100D3000282F30E0F901E253F54F8491F901E25791
:100D4000F44FD491F901E85BF44FC491CC23A9F09E
:100D5000162F81110E942E06EC2FF0E0EE0FFF1FE0
:100D6000EC5EF44FA591B4918FB7F894EC9111110A
:100D700008C0D095DE23DC938FBFDF91CF911F9108
:100D80000895DE2BF8CF863308F0865320917B0040
:100D9000982F9870277F922B90937B0087708064A8
:100DA00080937C0080917A00806480937A008091A7
:100DB0007A0086FDFCCF80917800909179000895AB
:100DC000E2E7F0E080818E7F80830895E1E0F1E04A
:100DD000808180628083808180648083E2E0F1E0B2
:100DE00080818F7D808380818F7B808308953F9A6F
:100DF000479A0895E4EAF2E185E197E091838083E0
:100E00001092200185E08093210181EF9FEF938371
:100E10008283828193819093250180932401E3E76B
:100E2000F0E080818160808308952091FB123091F1
:100E3000FC122115310561F080919312909194126A
:100E400082179307C4F5019690939412809393129E
:100E500020910A1530910B152115310561F0809113
:100E60009112909192128217930784F501969093B4
:100E700092128093911280914B1581111BC0809129
:100E80000915811117C0809173008E7F80937300C4
:100E9000109208151092FC121092FB1210920B1572
:100EA00010920A15109294121092931210929212AC
:100EB000109291120895109294121092931210921F
:100EC000FC121092FB1210924B15C2CF109292128C
:100ED0001092911281E080934C15CDCF8F929F920A
:100EE000AF92BF92CF92DF92EF92FF9269017A01A7
:100EF0001092521520910A01206220930A0120913C
:100F00000B012F7D20930B01660F771F881F991F00
:100F10000E949F9AA70196010E94839C20E030E0E6
:100F20004AE754E40E94F79920E030E040E85FE3AC
:100F30000E94DC980E94709A6093040270930502EC
:100F4000809306029093070283E198E090939E12AB
:100F500080939D12809170008E7F809370008091AD
:100F6000B0008C7F8093B0008091B100877F809328
:100F7000B1008091B6008F7D8093B60080917000A3
:100F80008D7F8093700020E030E04AEF53E4C7018A
:100F9000B6010E94ED9987FF35C08091B10087604E
:100FA0008093B100812C912CA12C95E4B92EA7013E
:100FB000960160E074E284E79BE40E94F799A50142
:100FC00094010E94F7990E94699A20E031E0C901DA
:100FD000861B970B9093A01280939F1280919F1273
:100FE0009091A0128093B2008091700081608093F4
:100FF0007000FF90EF90DF90CF90BF90AF909F90E8
:101000008F9008958091B10085608093B1008091A8
:10101000B1008D7F8093B100812C912C80E8A82EA7
:1010200083E4B82EC4CF8091901281113CC081E03E
:101030008093901280910B01806280930B018091CC
:101040008C1290918D12A0918E12B0918F12AC01E2
:10105000BD014F5F5F4F6F4F7F4F40938C12509396
:101060008D1260938E1270938F12409104025091F2
:1010700005026091060270910702481759076A0736
:101080007B0780F410928C1210928D1210928E12A7
:1010900010928F12809170008E7F8093700081E09B
:1010A0008093521508951092901280910B018F7DBC
:1010B000C4CF109284121092851210928612109250
:1010C00087120E94E006109250150C94E006809161
:1010D0009D1582FF0CC08A98809108018E7F8093B5
:1010E00008015F980E94590810924A1508958A9A3B
:1010F000809108018160809308015F9AF3CF80910D
:101100000C1590910D150497029780F480910101C0
:1011100080628093010180910101806480930101CC
:1011200080910201806280930201089580E18093A2
:10113000A1001092A00082E080935D1580E29EE401
:1011400090935C1580935B159093A7008093A60005
:1011500082E18093A10020E030E040EA51E4609118
:1011600000027091010280910202909103020E949C
:10117000F79920E030EC4FE754E40E94839C0E94F2
:10118000709ACB010C940D0620910C1530910D1521
:1011900024303105A9F526E636E646E65FE30E94EF
:1011A000F79920E030E040E852E40E94839C0E94DE
:1011B000699A60938412709385128093861290933B
:1011C00087128BED99E090935815809357151092E4
:1011D000A00085E08093A1008DEF9FEF90935A15BA
:1011E000809359158091591590915A159093A500A7
:1011F0008093A400809172008160809372000895B2
:101200002530310579F726E636E646EE5FE3C7CFAF
:10121000CF93C1E0C093511580910C1590910D159D
:101220000497029708F510925115109288121092A7
:10123000891210928A1210928B12809107018F7D71
:10124000809307018091080180628093080180915A
:10125000020180628093020160E070E084EB93E41D
:101260000E94C408C0935015CF9108958F929F9209
:10127000AF92BF92CF92DF92EF92FF926B017C010F
:1012800020E030E044EB53E40E94439C18160CF439
:1012900043C020E030E0A901C701B6010E94ED99EA
:1012A00087FD3AC080910C1590910D150497029717
:1012B00008F03FC0209188123091891240918A1223
:1012C00050918B12C701B6010E94DC984B015C0162
:1012D00020E030E0A9010E94ED998823E9F0C09256
:1012E0008812D0928912E0928A12F0928B1220E03A
:1012F00030E0A901C501B4010E94439C1816ACF46A
:10130000809102018F7D80930201C501B4019F7716
:101310000E94C40810925115FF90EF90DF90CF907B
:10132000BF90AF909F908F9008958091020180624E
:10133000EACF20E030E044E353E4C701B6010E9465
:10134000439C18161CF4C12CD12C7601A7019601E0
:1013500060E070E084E393E40E94DC9820E030E0F9
:1013600044E353E40E94F7999B01AC010E94DD988D
:1013700020E030E040E05FE30E94DD9860930002EF
:1013800070930102809302029093030220E030E008
:1013900040EA51E40E94F79920E030EC4FE754E432
:1013A0000E94839C0E94709ACB010E940D0681E0EE
:1013B00080935115B1CF8091841290918512A091A4
:1013C0008612B0918712181619061A061B06F4F435
:1013D00020918312222399F0109283120197A10980
:1013E000B1098093841290938512A0938612B093D2
:1013F000871280910201806480930201089581E048
:1014000080938312809102018F7BF6CF0E94E006C9
:1014100010928412109285121092861210928712E6
:1014200081E0809351150895000000000895CF9346
:10143000DF93D82FC8E0D7FF0DC02F9ADD0F0E9491
:10144000140A2E9A0E94140A2E98C150A1F7DF9117
:10145000CF9108952F98F2CF2E980E94140A2F98BA
:101460000E94140A2E9A0E94140A2F9A0C94140AAD
:10147000CF93C4B127982F9A0E94140A2E9A0E94E3
:10148000140A1F9B07C02E980E942C0AC4B981E041
:10149000CF9108952E98C4B980E0FACF2E9A0E9479
:1014A000140A2F9A0E94140A2F980E94140A2E9848
:1014B0000C94140AEF92FF920F931F93CF93DF9334
:1014C0007C01D62F142F052FC22F269A279A2E9AE9
:1014D0002F9A0E944E0A8D2F0E94170A0E94380AE6
:1014E000882349F0C1E08C2FDF91CF911F910F919C
:1014F000FF90EF900895802F0E94170A0E94380AEB
:101500008111F0CF812F0E94170A0E94380A8111A1
:10151000E9CF0E944E0A81E08D0F0E94170A0E94B7
:10152000380A87018111DECFC11103C00E942C0A45
:10153000DACFE4B02798D0E088E0F82E2E9A0E9407
:10154000140ADD0F1F99D1600E94140A2E980E9480
:10155000140AFA94F110F2CFE4B8F801D1938F0194
:10156000C15021F3D4B1279A2F980E94140A2E9AC1
:101570000E94140A2E980E94140AD4B92F9A0E942D
:10158000140AD2CF4F925F926F927F928F929F9266
:10159000AF92BF92CF92DF92EF92FF920F931F9381
:1015A0002B013C0149015A016701AC019B010E94DA
:1015B0004D9D811180C0A5019401C501B4010E9417
:1015C0004D9D811178C0A8019601C801B6010E9405
:1015D0004D9D811170C02AE939E947E053E4C30108
:1015E000B2010E94439C18160CF465C020E030E064
:1015F00040E850ECC301B2010E94ED9987FD5BC049
:101600002DEC3CEC4FEE52E4C501B4010E94439C2A
:1016100018160CF450C020E030E040E850ECC50152
:10162000B4010E94ED9987FD46C0A301920160E0DC
:1016300070E084E393E40E94DC98A50194010E9489
:10164000DC984B015C0120E030E047E153E40E946C
:10165000439C181684F120E030E040E251E4C501DB
:10166000B4010E94ED9987FD26C020E030E044EBF4
:1016700052E4C801B6010E94439C1816E4F020E031
:1016800030E044EB52ECC801B6010E94ED99881F8E
:101690008827881F91E089271F910F91FF90EF9075
:1016A000DF90CF90BF90AF909F908F907F906F9082
:1016B0005F904F90089580E0EFCF8F929F92AF920E
:1016C000BF92CF92DF92EF92FF920F931F93CF932F
:1016D000DF93EB0120E6E22E25E1F22E8C016B0177
:1016E0008CE0C80ED11C6991799189919991F7018B
:1016F00081909190A190B1907F010E94A19AA50143
:1017000094010E94F799F8016193719381939193E9
:101710008F01CC15DD0539F7DF91CF911F910F9126
:10172000FF90EF90DF90CF90BF90AF909F908F9001
:101730000895CF93DF93C0915612D09157122097FE
:10174000B9F081E08093591260916F12709170121C
:1017500080917112909172129B01AC010E94839C46
:10176000698B7A8B8B8B9C8B10925712109256122E
:10177000DF91CF910895CF92DF92EF92FF920F9376
:101780001F9390919115092F10E030E020E0809197
:101790009215482F50E070E060E091708170680110
:1017A0007901F694E794D794C794C0FC92606A01DB
:1017B0007B01F694E794D794C794C0FC8260E2E082
:1017C0003695279517950795EA95D1F700FD946012
:1017D00022E076956795579547952A95D1F740FD74
:1017E00084609093D00E8093CF0E1F910F91FF9045
:1017F000EF90DF90CF90089580919D1582FF21C0DA
:101800008A9A809108018160809308015F9A809193
:10181000B0158C70A9F08091CF0E8093E10E80916D
:10182000D00E8093E00E809190158250990B880F16
:1018300081958093DF0E80916F00826080936F00AE
:1018400008958A98809108018E7F809308015F989F
:10185000DECFE0EAF0E080818F7D80835C980895A0
:10186000E091A80D91E09E0F903809F490E020914E
:10187000290E2917A1F0F0E0E755F24F80839093ED
:10188000A80D8091AC0E9091AD0E8130910591F034
:1018900058F082309105A1F00397C1F0089520918E
:1018A0005E1524FFE4CF08958091C100806280938B
:1018B000C10008958091C90080628093C900089595
:1018C0008091D10080628093D10008958091310190
:1018D000806280933101E7CF8091B115811108C0FA
:1018E0009FB7F89480915E15826080935E159FBFCC
:1018F00008958F929F92AF92BF92CF92DF92EF9214
:10190000FF920F931F93CF93DF9300D000D000D0AE
:101910001F92CDB7DEB76B017C01142F20E030E0C1
:10192000A9010E94ED9987FF07C08DE20E94300C4B
:10193000F7FAF094F7F8F094012F023008F054C051
:1019400010FF0AC020E030E040E251E4C701B601D8
:101950000E94839C6B017C0120E030E040E05FE36B
:10196000C701B6010E94DD980E94699A9E012F5F0F
:101970003F4F7901F901E10FF11D2EE2208300E0D4
:101980002AE0822E912CA12CB12C611571058105C4
:101990009105B1F5F701E00FF11D80E3011708F49F
:1019A00040C0011308C0E1E0E00FEE0DFF2DF11D76
:1019B0000E5F80E380830E0D1F2D111DE016F106D2
:1019C00099F52A960FB6F894DEBF0FBECDBFDF9112
:1019D000CF911F910F91FF90EF90DF90CF90BF902C
:1019E000AF909F908F90089520E030E048EC52E453
:1019F000C701B6010E94839C6B017C0102509DCF00
:101A0000011301C00F5F6701C00ED11CA501940135
:101A10000E94899D605DF6016083B901CA010F5F74
:101A2000B4CF0F5F8193BACFF80182918F010E94EA
:101A3000300CC4CF43E00C94790C20919D1540E00C
:101A400020FF07C02BE832E441E25DE30E94839C63
:101A500041E00C94790C20919D1543E020FF07C0D4
:101A60002BE832E441E25DE30E94839C44E00C9465
:101A7000790C8F929F92AF92BF92CF92DF92EF92AA
:101A8000FF920F931F93CF93DF9300D000D000D02D
:101A90001F92CDB7DEB76115710581059105A9F4D7
:101AA00080E32A960FB6F894DEBF0FBECDBFDF915C
:101AB000CF911F910F91FF90EF90DF90CF90BF904B
:101AC000AF909F908F900C94300C00E09E012F5FA0
:101AD0003F4F79012AE0822E912CA12CB12C670175
:101AE000C00ED11CA50194010E94899DF60160835E
:101AF000B901CA010F5F611571058105910579F77B
:101B00000E0D1F2D111DE016F10699F42A960FB641
:101B1000F894DEBF0FBECDBFDF91CF911F910F9123
:101B2000FF90EF90DF90CF90BF90AF909F908F90FD
:101B30000895F80182918F01805D0E94300CE3CFFF
:101B4000CF92DF92EF92FF9297FF0CC06B017C0166
:101B50008DE20E94300C66277727CB016C197D0936
:101B60008E099F09FF90EF90DF90CF900C94390D74
:101B7000CF93DF93EC01FE0184912196811103C084
:101B8000DF91CF9108950E94300CF5CFCF93DF9372
:101B9000EC018991811103C0DF91CF9108950E94DA
:101BA000300CF7CFECE8FDE0AFEAB5E114964D91CB
:101BB0005D916D917C91179740835183628373830C
:101BC00018964D915D916D917C911B97448355833F
:101BD000668377831C968D919D910D90BC91A02D6D
:101BE00080879187A287B38708952F923F924F9263
:101BF0005F926F927F928F929F92AF92BF92CF929D
:101C0000DF92EF92FF920F931F93CF93DF9300D059
:101C10001F92CDB7DEB70091D911002309F486C019
:101C200009833981315039831091F50E131709F466
:101C300066C0C32ED12CE9E23E9FC00111249C0155
:101C40002A50314F7901F901758886889788A08CD0
:101C500061A172A183A194A19B01AC010E94DD98B6
:101C6000F70125A136A147A150A50E94839CB62E5D
:101C7000E72EF82E9B83262F372F482F592F672DBD
:101C8000782D892D9A2D0E94ED9987FF03C0B72CDE
:101C90007401AB8289E28C9DF0018D9DF00D1124C1
:101CA000EA50F14F8B2D9E2DAF2DBB81818B928BF6
:101CB000A38BB48BF9818F2FF11101C082E1FF2436
:101CC000FA94F80E3090D8111F1133C0131102C0CE
:101CD0000E94990BE9E21E9FC00111248A50914F86
:101CE0009A83898333243394310EF2E13F1201C089
:101CF000312C89E2282E031185C01093F50E0F9028
:101D00000F900F900F90DF91CF911F910F91FF9047
:101D1000EF90DF90CF90BF90AF909F908F907F908B
:101D20006F905F904F903F902F90089522E129830C
:101D300078CF298189E2289F900111242A50314FC0
:101D40003C832B8329E2E22E8F2C912CFE9CC00138
:101D50001124FC01EA50F14FFA83E983F11002C02B
:101D600092E1F92EFA94F31002C00E94990BE89CBC
:101D7000C001E99C900D11249C012A50314F69014A
:101D8000F901458856886788708CA30192016189A2
:101D90007289838994890E94ED99882339F1F6012B
:101DA00061A172A183A194A19B01AC010E94DD9865
:101DB000F60125A136A147A150A50E94839CEB8185
:101DC000FC8121893289438954890E94DD984B0125
:101DD0005C01AC019B01C301B2010E94439CF6016E
:101DE00018165CF4818A928AA38AB48A29813A817E
:101DF0003C832B831F11A8CF6DCF418A528A638AFF
:101E0000748AF4CFC32CD12C329CC00111249C01C4
:101E10002A50314F7901E981FA81418852886388DB
:101E20007488F90181889288A388B488A5019401F7
:101E3000C301B2010E94ED9987FF26C0E981FA81B2
:101E400061A172A183A194A19B01AC010E94DD98C4
:101E5000E981FA8125A136A147A150A50E94839C62
:101E6000A30192010E94DD982B013C01AC019B0172
:101E7000C501B4010E94439C181634F4F701418A4D
:101E8000528A638A748A132D2C9CF0012D9CF00DCC
:101E90001124EA50F14F258936894789508D61898F
:101EA0007289838994890E94ED99811101C0132D53
:101EB0003394F2E13F1201C0312CFA82E9821BCF48
:101EC0004F925F926F927F92AF92BF92CF92DF92CA
:101ED000EF92FF920F931F93CF93DF936C01FB015F
:101EE0005A01DC01309721F0A081A80FB92FB11D54
:101EF0008C91ED018D3249F5229611968C9101E07D
:101F0000512C612C10E020E030E0A9017E0190ED21
:101F1000792E780E89E0871528F16394A8E0A6153C
:101F2000E8F051101150A5E0B0E00E94E19D9B0146
:101F3000AC01220F331F441F551F270D311D411DBA
:101F4000511D2196D7018C91E1CF8B3219F021964A
:101F500000E0D6CF229611968C91FACF5110F1CF96
:101F60001F5FEFCFBEEF7B1205C0511003C0552499
:101F70005394E7CF662009F17F01CA01B9010E949D
:101F80009F9A2B013C0120E030E0A9010E94ED99CD
:101F900081112EC0002309F448C077FA709477F8B5
:101FA0007094F5014082518262827382CC19DD09FE
:101FB000C150F701C08366246394862DDF91CF91D1
:101FC0001F910F91FF90EF90DF90CF90BF90AF9057
:101FD0007F906F905F904F9008952AE037ED43E235
:101FE0005CE3C301B2010E94839C2B013C011E5F94
:101FF0001F3F9CF31F3F59F42DEC3CEC4CEC5DE390
:10200000C301B2010E94839C2B013C01C3CF112369
:1020100009F220E030E040E251E4C301B2010E9445
:10202000839C2B013C011150F2CFD5014D925D9262
:102030006D927C921397BACF89B190919D1596FFBE
:1020400004C0807109F087E008958095FACFEBE62F
:10205000F0E080818F7E8083E8E6F0E080818E7FF3
:102060008083089554985C9A80919D1583FF0BC0DE
:1020700080916B00806180936B008091680081602B
:102080008093680008950C94271063EB75E181E25A
:1020900096E10C945D0BF894F999FECF92BD81BD49
:1020A00081E08FBB20B5862F8227082E000C990B6C
:1020B00050E086239523892B49F084E16F3F11F08E
:1020C00060BD84E08FBBF99A789408952617E1F3F8
:1020D00060BD84E2F7CFCF93DF93CCE0D5E16A8196
:1020E0008CEA93E00E944B106B818DEA93E00E9492
:1020F0004B106C818EEA93E00E944B106D818FEA49
:1021000093E00E944B106E8182EA93E00E944B1094
:102110006F8183EA93E00E944B10688584EA93E024
:102120000E944B10698585EA93E0DF91CF910C9472
:102130004B10CF93DF93CCE0D5E1688184E893E046
:102140000E944B106A8188E993E00E944B106B81DA
:1021500089E993E00E944B106C818AE993E00E9428
:102160004B106D818BE993E00E944B106E818EE8DD
:1021700093E00E944B106F818FE893E00E944B1018
:10218000688580E993E00E944B10698581E993E0BE
:102190000E944B106A8582E89CE00E944B106B8580
:1021A00083E89CE00E944B106C8584E89CE00E94D0
:1021B0004B106D8585E89CE0DF91CF910C944B101E
:1021C0009F92AF92BF92CF92DF92EF92FF920F93C6
:1021D0001F93CF93DF935C018A017B01E40EF51E10
:1021E000EB01912C6C01C61AD70ACE018C0D9D1DF6
:1021F00021E0911007C0292D990C330B232F221FAA
:102200002227221F6991962E920E0E944B10CE1506
:10221000DF0559F7692DC501800F911FDF91CF911F
:102220001F910F91FF90EF90DF90CF90BF90AF90F4
:102230009F900C944B1069E090E080E00E944B105E
:102240004DE450E060E675E181E098E00C94E01028
:102250002DE0829FC00111244CE050E0965F0C9469
:10226000E010F999FECF92BD81BD81E08FBB80B5B2
:102270000895EF92FF920F931F93CF93DF9382E322
:1022800093E00E94311100E213E08B3B11F404E370
:1022900013E087ECE82E84E1F82EC1ECD4E1015C78
:1022A0001441C8018C0F9D1F0E9431118993EC16B7
:1022B000FD06B9F7DF91CF911F910F91FF90EF903D
:1022C00008959F92AF92BF92CF92DF92EF92FF92CA
:1022D0000F931F93CF93DF935B018A017C01E40E80
:1022E000F51EEC01912C6B01C81AD90AC6018C0F9E
:1022F0009D1F0E94311121E0911007C0292D990CDA
:10230000330B232F221F2227221F982E920E8993F0
:10231000CE15DF0559F7C501800F911F0E943111BD
:1023200021E030E0891511F030E020E0C901DF91B3
:10233000CF911F910F91FF90EF90DF90CF90BF90C2
:10234000AF909F900895CF93DF9391E5899FE0012F
:102350001124D55F40E550E0BE018BEA92E10E9476
:102360006111892B69F41092AB1240E550E06BEAE1
:1023700072E1CE010E94E01080E0DF91CF910895DC
:1023800081E0FBCF5C98089580915E1584FD32C09A
:102390009FB7F89480915E15806180935E159FBF12
:1023A0000E94290C0E94C2118091B015982F9C7038
:1023B00021F49091B1159130E9F49FB78430D9F4AC
:1023C000F8948091AE1580628093AE159FBF809186
:1023D0006F008D7F80936F0080918100887F816086
:1023E000809381001092D10E809193158F3F11F44C
:1023F0008091AE150895F8948091AE158860E4CF71
:10240000CF92DF92EF92FF926A017B01811106C0A9
:10241000FF90EF90DF90CF900C94290C813009F061
:102420004EC05C9883E28093A0008091A100807EE2
:102430008A618093A1008FEF9FEF9093A900809312
:10244000A80020E030E0A901C701B6010E94ED9983
:102450001816F4F620E030E0A901C701B6010E9489
:10246000ED9987FD2EC020E030E04AE754E4C70133
:10247000B6010E94439C181634F4C12CD12C8AE773
:10248000E82E84E4F82E2CEE31E143E852E4C70153
:10249000B6010E94839C20E030E040E05FE30E94B0
:1024A000DD980E94DC9A0E94709A7093AB00609352
:1024B000AA005C9AFF90EF90DF90CF9008955C9A0D
:1024C000B1CFC12CD12C7601DECF2F923F924F920B
:1024D0005F926F927F928F929F92AF92BF92CF92B4
:1024E000DF92EF92FF920F931F93CF93DF93CDB7BD
:1024F000DEB72E970FB6F894DEBF0FBECDBF29838F
:102500003A834B835C83ED82FE820F8318878601BA
:1025100015019E868D8621EE3EE245E652E40E943C
:10252000F7992B013C0121EE3EE245E652E4698138
:102530007A818B819C810E94F7994B015C0121EE8D
:102540003EE245E652E46D817E818F8198850E944E
:10255000F7996B017C01C301B2010E94F299698372
:102560007A838B839C83C501B4010E94F2996D83A9
:102570007E838F839887C301B2010E94F09C2B0158
:102580003C01C501B4010E94F09C69877A878B8762
:102590009C872CEE31E14EE053E469817A818B8196
:1025A0009C810E94839C4B015C012CE53FEC4EE139
:1025B00053E46D817E818F8198850E94839C9B016D
:1025C000AC01C501B4010E94DD9823E333E343E588
:1025D00051E40E94DD984B015C01C701B6010E94E5
:1025E000F2999B01AC01C501B4010E94839CF801E2
:1025F0006083718382839383C701B6010E94F09C3C
:102600009B01AC01C501B4010E94839CF101608370
:102610007183828393832CEE31E14EE053E4C30156
:10262000B2010E94839C6B017C012CE53FEC4EE1E2
:1026300053E469857A858B859C850E94839C9B01E8
:10264000AC01C701B6010E94DC982DEC3CEC46EDD4
:1026500052E40E94DD98ED85FE856083718382835C
:1026600093832E960FB6F894DEBF0FBECDBFDF91D9
:10267000CF911F910F91FF90EF90DF90CF90BF907F
:10268000AF909F908F907F906F905F904F903F9012
:102690002F9008952F923F924F925F926F927F9268
:1026A0008F929F92AF92BF92CF92DF92EF92FF9262
:1026B0000F931F93CF93DF9300D000D01F921F92F0
:1026C000CDB7DEB72B013C0129833A834B835C8372
:1026D000ED82FE820F83188786018CE0282E85E12B
:1026E000382E20E030E044EB52E4F101668977892E
:1026F000808D918D0E94DC986B017C0120E030E0A0
:1027000040EA52E46D817E818F8198850E94F7991D
:102710009B01AC01C701B6010E94DD986D837E83E9
:102720008F83988720E030E040EA52E469817A8123
:102730008B819C810E94F799F10122893389448918
:1027400055890E94DD9869837A838B839C8320E07E
:1027500030E040EA52E4C301B2010E94F799F1016E
:1027600026853785408951890E94DD986801ED8072
:10277000FE800F81188529813A814B815C810E94FE
:10278000651228960FB6F894DEBF0FBECDBFDF915D
:10279000CF911F910F91FF90EF90DF90CF90BF905E
:1027A000AF909F908F907F906F905F904F903F90F1
:1027B0002F900895CF93DF93EB018731D0F48531CB
:1027C00020F48C30E0F4813098F18091D614882385
:1027D00009F45AC066ED74E1CE010E94EC9DE6ED6D
:1027E000F4E182E3DF011D928A95E9F7DF91CF9151
:1027F000089598818333A1F168F4823339F1888197
:10280000882329F063E172E0CE010E94EC9D68E12B
:1028100072E018C0843371F1853389F7992329F068
:1028200063E172E0CE010E94EC9D68E272E00AC0B2
:102830008881882329F063E172E0CE010E94EC9D3B
:1028400065E172E0CE010E94EC9DBFCF992329F093
:1028500063E172E0CE010E94EC9D6CE172E0F2CF88
:10286000992329F063E172E0CE010E94EC9D60E2C1
:1028700072E0E8CF992329F063E172E0CE010E9473
:10288000EC9D64E272E0DECF6BED74E0CE01DF918F
:10289000CF910C94EC9D1F93CF93DF93182FEB01F6
:1028A0008DE0189FB0011124765F4CE050E0CE011E
:1028B0000E946111892B71F48CE0FE0111928A95BE
:1028C000E9F7BE01812F0E94281180E0DF91CF91AE
:1028D0001F91089581E0FACFEF92FF920F931F931B
:1028E000CF93DF93CDB7DEB72C970FB6F894DEBF4A
:1028F0000FBECDBF182F80FFC7C08AE08093901510
:102900008FEF809393151092911587E08093921525
:1029100083E0809394158AE097EDA3E2BCE3809373
:10292000951590939615A0939715B09398158FE6EB
:1029300092E1A3E0BBE38093991590939A15A0933D
:102940009B15B0939C1510929E1580E090E0A8EC2A
:10295000B1E480939F159093A015A093A115B09317
:10296000A21580E090E0AAEFB3E48093A3159093C2
:10297000A415A093A515B093A6158AEF90E09093A7
:10298000A8158093A71580E090E0A0E8BFE38093AE
:10299000A9159093AA15A093AB15B093AC1584E03C
:1029A00080939D1580E090E0A8ECB5E480936015DD
:1029B00090936115A0936215B0936315809364158D
:1029C00090936515A0936615B0936715809368156D
:1029D00090936915A0936A15B0936B1580E090E50C
:1029E000A3ECB7E480936C1590936D15A0936E15CE
:1029F000B0936F158093701590937115A093721515
:102A0000B09373158093741590937515A0937615F4
:102A1000B093771580E090EAACE0B7E48093781546
:102A200090937915A0937A15B0937B1580937C15BC
:102A300090937D15A0937E15B0937F15809380159C
:102A400090938115A0938215B093831580E090E454
:102A5000ACE1B6EC8093841590938515A093861510
:102A6000B09387158093881590938915A0938A1544
:102A7000B0938B1580938C1590938D15A0938E1524
:102A8000B0938F150E941B1111FF10C0CE0101964B
:102A90007C018CE0F70111928A95E9F700E0B7011B
:102AA000802F0E9428110F5F0830C9F712FF0AC05B
:102AB00060E080E09BE00E944B1060E081E59BE0DD
:102AC0000E944B1013FF05C060E08EEA9BE00E945D
:102AD0004B102C960FB6F894DEBF0FBECDBFDF9122
:102AE000CF911F910F91FF90EF900895ECE8FDE0DA
:102AF0008CE1DF011D928A95E9F71092D8111092AE
:102B0000D91181E080938B0D1092F50E08954F92AC
:102B10005F926F927F92AF92BF92CF92DF92EF92CD
:102B2000FF920F931F93CF93DF935C01EB018A0118
:102B3000FC01408051806280738020E030E0A90178
:102B4000C301B2010E94ED9920E030E0A90181119A
:102B500019C0688179818A819B810E94439C2AEDFA
:102B6000C22E2FE0D22E29ECE22E2FEBF22E1816D9
:102B7000DCF49AEDC92E9FE0D92E99ECE92E9FE363
:102B8000F92E12C0C301B2010E94ED9987FD62C007
:102B9000A3019201688179818A819B810E94F799C2
:102BA0000E94A7996B017C01C701B6010E94F299AE
:102BB00020910E1530910F1540911015509111155F
:102BC0000E94839C9B01AC01C301B2010E94DC986E
:102BD000F5016083718382839383C701B6010E94EC
:102BE000F09C20910E1530910F15409110155091C9
:102BF00011150E94839C9B01AC01688179818A81B7
:102C00009B810E94DC98688379838A839B832091CF
:102C10001215309113154091141550911515F801A6
:102C200060817181828193810E94DD98F8016083C7
:102C3000718382839383DF91CF911F910F91FF90D6
:102C4000EF90DF90CF90BF90AF907F906F905F90AC
:102C50004F900895C12CD12C80ECE82E8FE7F82EF0
:102C6000A3CF4F925F926F927F92AF92BF92CF921B
:102C7000DF92EF92FF920F931F93CF93DF935C014C
:102C8000EB018A01FC01408051806280738020E06A
:102C900030E0A901C301B2010E94ED9920E030E0CB
:102CA000A901811119C0688179818A819B810E9463
:102CB000439C2AEDC22E2FE0D22E29ECE22E2FEBE0
:102CC000F22E1816DCF49AEDC92E9FE0D92E99EC5D
:102CD000E92E9FE3F92E12C0C301B2010E94ED99C3
:102CE00087FD60C0A3019201688179818A819B81FF
:102CF0000E94F7990E94A7996B017C01C701B60158
:102D00000E94F29920910E1530910F1540911015E7
:102D1000509111150E94839CA30192010E94DD989D
:102D2000F5016083718382839383C701B6010E949A
:102D3000F09C20910E1530910F1540911015509177
:102D400011150E94839C9B01AC01688179818A8165
:102D50009B810E94DD98688379838A839B8320917D
:102D60001215309113154091141550911515F80155
:102D700060817181828193810E94DC98F801608377
:102D8000718382839383DF91CF911F910F91FF9085
:102D9000EF90DF90CF90BF90AF907F906F905F905B
:102DA0004F900895C12CD12C80ECE82E8FE7F82E9F
:102DB000A5CF2F923F924F925F926F927F928F9208
:102DC0009F92AF92BF92CF92DF92EF92FF920F93BA
:102DD0001F93CF93DF93CDB7DEB766970FB6F89406
:102DE000DEBF0FBECDBF6D837E838F83988729871B
:102DF0003A874B875C87270138018601BA8AA98AFE
:102E000014019B01AC010E94839C6B017C0129850C
:102E10003A854B855C85CA01B9010E94839C9B0160
:102E2000AC01C701B6010E94DD980E94FE9C23E31D
:102E300033E343E551E40E94DC9869837A838B8312
:102E40009C832DEC3CEC46ED52E4C301B2010E94A0
:102E5000DC982B013C0129813A814B815C81CA01BC
:102E6000B9010E94839C6B017C01A3019201C30103
:102E7000B2010E94839C9B01AC01C701B6010E9474
:102E8000DD986B017C0124ED35E64DE955E40E94A7
:102E9000DC984B015C0126EC3FEA4DE957E4C701A1
:102EA000B6010E94839C6D877E878F87988BA501D2
:102EB0009401C501B4010E94839C9B01AC016D8506
:102EC0007E858F8598890E94DC980E94FE9C6B8B82
:102ED0007C8B8D8B9E8BA7019601C701B6010E944A
:102EE000DD986D877E878F87988BA5019401698116
:102EF0007A818B819C810E94839C4B015C01A301A0
:102F000092016B897C898D899E890E94839C9B019B
:102F1000AC01C501B4010E94DC984B015C012CEEB0
:102F200031E14EE053E46D857E858F8598890E945E
:102F3000839C9B01AC01C501B4010E94F7990E94DA
:102F4000CB9821EE3EE245E652E40E94839CF801D4
:102F5000608371838283938324ED35E64DE955E4E4
:102F6000C701B6010E94DD984B015C012BE339E0FB
:102F700045EC57E4C701B6010E94839C6B017C01BC
:102F8000A5019401C501B4010E94839C9B01AC0181
:102F9000C701B6010E94DC980E94FE9C6B017C0177
:102FA000A501940169817A818B819C810E94839C17
:102FB0004B015C01A3019201C701B6010E94839CF1
:102FC0009B01AC01C501B4010E94DD986B017C013D
:102FD0002CE53FEC4EE153E46D857E858F85988925
:102FE0000E94839C9B01AC01C701B6010E94F79926
:102FF0000E94CB9821EE3EE245E652E40E94839C7B
:103000006B017C01E989FA89C082D182E282F38274
:1030100021EE3EE245E652E4F80160817181828151
:1030200093810E94F7990E94F09C2CEE31E14EE0D2
:1030300053E40E94839CA30192010E94ED9987FFB3
:103040000AC0F7FAF094F7F8F094E989FA89C08297
:10305000D182E282F38221EE3EE245E652E4E98942
:10306000FA8960817181828193810E94F7990E941F
:10307000F09C2CE53FEC4EE153E40E94839C9B01C5
:10308000AC01C301B2019F770E94439C18169CF4C7
:1030900020E030E0A901C301B2010E94ED9987FF51
:1030A0000AC0F80180819181A281B381B0588083E8
:1030B0009183A283B38320E030E0A9016D817E81FA
:1030C0008F8198850E94ED9920E030E0A90181115F
:1030D0002FC069857A858B859C850E94439C181634
:1030E00014F580E090E0A4EBB2E4F10180839183D9
:1030F000A283B38366960FB6F894DEBF0FBECDBF32
:10310000DF91CF911F910F91FF90EF90DF90CF90C3
:10311000BF90AF909F908F907F906F905F904F90F7
:103120003F902F90089580E090E0A4EBB2ECDDCFCB
:103130006D817E818F8198850E94ED9987FF05C002
:1031400080E090E0A0ECBFE7D0CF2D813E814F81A1
:10315000588569857A858B859C850E94F7990E94A0
:10316000A79921EE3EE245E652E40E94839CF101DC
:103170006083718382839383BDCF2F923F924F925E
:103180005F926F927F928F929F92AF92BF92CF92F7
:10319000DF92EF92FF920F931F93CF93DF93CDB700
:1031A000DEB72C970FB6F894DEBF0FBECDBF260159
:1031B00035011401FE0139964F0134975F013497B0
:1031C0006F010E94D916C984DA84EB84FC848D8057
:1031D0009E80AF80B8840CE015E1F8012685378524
:1031E0004089518969817A818B819C810E94DC9818
:1031F00020E030E040EA52E40E94839C0E94699AF9
:10320000072E000C880B990B0E94A19AF201608393
:10321000718382839383F801228933894489558994
:10322000C501B4010E94DC9820E030E040EA52E49D
:103230000E94839C0E94699A072E000C880B990BB0
:103240000E94A19AF3016083718382839383F801C2
:1032500026893789408D518DC701B6010E94DC98BF
:1032600020E030E044EB52E40E94DD9820E030E0C2
:1032700040EA52E40E94839C0E94699A072E000C47
:10328000880B990B0E94A19AF1016083718382835C
:1032900093832C960FB6F894DEBF0FBECDBFDF919F
:1032A000CF911F910F91FF90EF90DF90CF90BF9043
:1032B000AF909F908F907F906F905F904F903F90D6
:1032C0002F9008952F923F924F925F926F927F922C
:1032D0008F929F92AF92BF92CF92DF92EF92FF9226
:1032E0000F931F93CF93DF93CDB7DEB7CC54D109A3
:1032F0000FB6F894DEBF0FBECDBF8091B0158077BA
:103300008FAF20916F122F8730917012388B4091C0
:103310007112498B509172125A8B81110C94FE21BB
:103320008091D91121968FAF2197A0915612B0911B
:103330005712BA83A983B0915912B98FE0915812EC
:10334000EEA3209162123091631240916412509169
:1033500065122AAB3BAB4CAB5DAB30917B123B872C
:1033600040917C124C8720907D1230907E125091BB
:1033700073125A8F809174128B8F909175129C8F5B
:10338000A0917612AD8FB0917712BC8BE09178123C
:10339000ED8BF0917912FE8B20917A122F8B309168
:1033A0007F123E8F409180124F8F5091811258A30F
:1033B0008091821289A390916A129B8BA0916B12CB
:1033C000AB83B0916C12BF83E0916D12ED87F091E9
:1033D0006E12FE8720915E1230915F124091601252
:1033E000509161122FA338A749A75AA730915A12BA
:1033F0003AAF40915B124BAF50915C125CAF809141
:103400005D128DAF20916612309167124091681263
:10341000509169122EAB3FAB48AF59AF30910012BB
:103420003EAF4091DB1149AB5091D811588F80913C
:10343000F50E22968FAF22978091DA1159A9851344
:1034400095C08A8D9B8DAC8DBD8D809373129093AA
:103450007412A0937512B09376128E8D9F8DA8A1D1
:10346000B9A180937F1290938012A0938112B093A0
:1034700082128B819F81AD85BE8580936B12909364
:103480006C12A0936D12B0936E128C899D89AE89D7
:10349000BF898093771290937812A0937912B0939A
:1034A0007A128F859889A989BA8980936F1290932F
:1034B0007012A0937112B09372128B8980936A126A
:1034C0008B859C85D10180937B1290937C12A09375
:1034D0007D12B0937E129EAD90930012AEA1A09388
:1034E0005812E981FA81F0935712E09356122AA9F3
:1034F0003BA94CA95DA920936212309363124093BB
:10350000641250936512388D3093D8118AAD9BADFB
:10351000ACADBDAD80935A1290935B12A0935C1238
:10352000B0935D128FA198A5A9A5BAA580935E124C
:1035300090935F12A0936012B09361122EA93FA9DD
:1035400048AD59AD209366123093671240936812CC
:1035500050936912398D3093591249A94093DB1168
:1035600022965FAD22975093F50E9FC0A981BA8134
:10357000AB2B09F0AAC22196BFAD2197E88DBE13EF
:10358000AEC08A8D9B8DAC8DBD8D80937312909350
:103590007412A0937512B09376128E8D9F8DA8A190
:1035A000B9A180937F1290938012A0938112B0935F
:1035B00082128B819F81AD85BE8580936B12909323
:1035C0006C12A0936D12B0936E128C899D89AE8996
:1035D000BF898093771290937812A0937912B09359
:1035E0007A128F859889A989BA8980936F129093EE
:1035F0007012A0937112B0937212FB89F0936A1249
:103600008B859C85D10180937B1290937C12A09333
:103610007D12B0937E122EAD209300123EA1309306
:10362000581210925712109256128AA99BA9ACA94F
:10363000BDA98093621290936312A0936412B09319
:10364000651221969FAD21979093D8118AAD9BADBD
:10365000ACADBDAD80935A1290935B12A0935C12F7
:10366000B0935D122FA138A549A55AA520935E12EB
:1036700030935F1240936012509361128EA99FA9FC
:10368000A8ADB9AD8093661290936712A0936812AB
:10369000B0936912998D90935912A9A9A093DB1147
:1036A0002296BFAD2297B093F50EC45BDF4F0FB6E5
:1036B000F894DEBF0FBECDBFDF91CF911F910F9168
:1036C000FF90EF90DF90CF90BF90AF909F908F9042
:1036D0007F906F905F904F903F902F900895E88D6E
:1036E0008E2F90E0F9E2EF9F90011124A9014A503A
:1036F000514F5A834983598D5111A6C0AEA1AF5F76
:10370000AEA3A53009F41EA2B1E12EA1B29FF00133
:103710001124EF5FFD4EA9E2A89FA001A99F500DC3
:1037200011244A50514F7A01DA018C91808311960D
:103730004D915D916D917C911497DB01CA0123E05D
:10374000880F991FAA1FBB1F2A95D1F781839283E7
:10375000A383B483D70115964D915D916D917C91B2
:103760001897DB01CA0133E0880F991FAA1FBB1FFE
:103770003A95D1F785839683A783B087D7011996A9
:103780004D915D916D917C911C97DB01CA0143E0E5
:10379000880F991FAA1FBB1F4A95D1F7818792876F
:1037A000A387B487D7011D966D917D918D919C91D2
:1037B00050978B019C0153E0000F111F221F331FF4
:1037C0005A95D1F7058716872787308B0E949F9AD5
:1037D0006AAF7BAF8CAF9DAFF70125A136A147A1A2
:1037E00050A50E94F7996FA378A789A79AA79B0174
:1037F000AC0160E070E080EA9FE30E94F7996AAB59
:103800007BAB8CAB9DABFFADFF2309F481C02C8952
:103810003D894E895F896C897D898E899F890E9447
:10382000839CD70151966D937D938D939C93549770
:10383000BC89BF87ED89E88BFE89F98B2F892A8B9C
:103840001EAA1FAA18AE19AEE981FA8141A052A0A2
:1038500063A074A0A301920160E070E080E09FE3A8
:103860000E94F7996B837C838D839E83A981BA81A3
:1038700095961C9195979696BC91B98FE981FA819E
:10388000F7A1FB8BA981BA8198960C9198975196D4
:10389000CD90DD90ED90FC905497BFADBB2309F423
:1038A00045C0A70196010E94839C9B01AC01612F3A
:1038B000798D8B89902F0E94DC986B837F838D8715
:1038C0009E8720E030E0A9010E94ED9987FFF6C0B5
:1038D000A3019201C301B2010E94DD98212F398D0D
:1038E0004B89502F0E94839C9B01AC01C701B601FC
:1038F0000E94DC980E94FE9C6C8B7D8B8E8B9F8B34
:10390000198EE2E0EB8B1B821F821D861E86DDC0B6
:10391000D70151966D917D918D919C9154970E9404
:10392000FE9C6F87788B898B9A8B8ACFE88DEF5FAF
:10393000E23109F4E0E02196FFAD2197FE1709F48A
:103940009AC029E22E9FF0011124EA50F14F6189BB
:103950007289838994890E94FE9C6C8B7D8B8E8BEF
:103960009F8B2C893D894E895F896C897D898E89E1
:103970009F890E94839C6F83788789879A879B01A0
:10398000AC01C701B6010E94DC982B813C814D81BE
:103990005E810E94839C212F398D4B89502F0E947C
:1039A000DD9820E030E040E05FE30E94839C6B877D
:1039B0007C871C0120E030E0A9010E94439C18167E
:1039C0000CF050C1212F398D4B89502F6B857C8590
:1039D000C1010E94ED9987FF53C1A981BA815D960B
:1039E0008D909D90AD90BC9090972F8138854985A2
:1039F0005A85C501B4010E94DC982B813C814D8120
:103A00005E810E94839C6E8F7F8F88A399A39B0108
:103A1000AC016B857C85C1010E94439C181684F51E
:103A2000C501B4010E94FE9C6A8F7B8F8C8F9D8F95
:103A3000A7019601C501B4010E94ED99882309F4FC
:103A400030C1A7019601C501B4010E94DC982B8109
:103A50003C814D815E810E94839C9B01AC01612F62
:103A6000798D8B89902F0E94DC986B877C871C0155
:103A7000198E1B8A48CF1C8A1D8A1E8A1F8A71CF05
:103A8000A3019201C301B2010E94DD982B853C8500
:103A9000A1010E94839C2F81388549855A850E9407
:103AA000DD980E94FE9C6A8F7B8F8C8F9D8FBB85DB
:103AB000BE8FEC85EF8F28A239A2DACF198EF2E003
:103AC000FB8B1C8A1D8A1E8A1F8A5EAD452F50E023
:103AD00058AB4FA786E0849FF001859FF00D11241D
:103AE000E452FE4E9EA19283A981BA819596BC9123
:103AF0002796BFAF2797E981FA81F6A12896FFAFF5
:103B00002897A981BA819796BC912996BFAF29972A
:103B1000E981FA81F0A52A96FFAF2A972AA93BA945
:103B20004CA95DA927966FAD279728967FAD28975A
:103B30008B2F9F2F0E94DC9826966CAF7DAF8EAFA7
:103B40009FAF269720E030E0A9010E94ED9987FF02
:103B500006C026961CAE1DAE1EAE1FAE26972B8548
:103B60003C85A1016E8D7F8D88A199A10E94ED9960
:103B70008111A0C022E02B962FAF2B9727964FAD37
:103B800027974AA328965FAD28975BA329968FAD08
:103B900029978CA32A969FAD2A979DA38EE3C82EC2
:103BA00083ECD82E8EE2E82E89E3F82E412C512C9E
:103BB0003201A70196012BA73CA74DA75EA75B8901
:103BC000552309F487C0513009F41AC2A981BA817A
:103BD00091962D913D914D915C919497C701B601BD
:103BE0000E94839C4B015C012F85388949895A8941
:103BF0000E94ED9987FF45C220E030E040E05FE39E
:103C0000C501B4010E94839C9B01AC016F8578893A
:103C100089899A890E94DC98A70196010E94839C59
:103C20009B01AC016AA17BA18CA19DA10E94DC98A3
:103C30008B012D968FAF2D972C969FAF2C979B01C4
:103C4000AC016B817F818D859E850E94ED9987FFF8
:103C500018C2A50194016F85788989899A890E9483
:103C6000DC98C9C12C892A8F3D893B8F4E894C8FA6
:103C70005F895D8F198E1B861C86212C312CF9CE15
:103C80001B87898D8C872B88302E9F859A8FA889DA
:103C9000AB8FB989BC8FEA89ED8F198EF2E0FB8B6F
:103CA00032CE1B87298D2C872B88302E198E31E040
:103CB0003B8B29CE31E02B963FAF2B975FCF0AA3EA
:103CC0001BA32D963FAD2D973CA32C964FAD2C9763
:103CD0004DA375CFA981BA8191962D913D914D91BA
:103CE0005C919497C701B6010E94839C4B015C01D3
:103CF00020E030E040E05FE30E94839C2F8538891C
:103D000049895A890E94DD98A70196010E94839CE7
:103D10009B01AC016AA17BA18CA19DA10E94DC98B2
:103D20008B012D968FAF2D972C969FAF2C972B85BF
:103D30003C85A1010E94ED9987FF55C12B853C85EB
:103D4000A10127966FAD279728967FAD28972996D2
:103D50008FAD29972A969FAD2A970E94DC989B01E8
:103D6000AC010E94DD986B017C012A8D3B8D4C8D4E
:103D70005D8D6F85788989899A890E94DD989B017C
:103D8000AC01C701B6010E94F7996B017C012B962B
:103D9000BFAD2B97BB8BEA8DEF87FB8DF88B2C8DFE
:103DA000298B3D8D3A8B0B851C852D962FAE2D973B
:103DB0002C963FAE2C97A7019601C301B2010E9439
:103DC000DD982B013C012BA53CA54DA55EA50E94CD
:103DD000ED9987FF83C1A30192016BA57CA58DA5F9
:103DE0009EA50E94DC986B017C0198012D964FAD39
:103DF0002D972C965FAD2C976B817F818D859E854D
:103E00000E94ED9987FD5BCF2FA138A549A55AA542
:103E1000B8012D968FAD2D972C969FAD2C970E94B3
:103E2000839C6AA37BA38CA39DA30E94D6996B015C
:103E30007C016AAD7BAD8CAD9DAD0E94D6994B01E6
:103E40005C01A70196010E94DC980E94709A6BA702
:103E50007CA78DA79EA746E02FA538A9429FF00119
:103E6000439FF00D1124E452FE4E8BA59CA5918337
:103E70008083892B09F055C1BFADBB2309F451C123
:103E80008A8D9B8DAC8DBD8D80937312909374122F
:103E9000A0937512B09376128E8D9F8DA8A1B9A1B3
:103EA00080937F1290938012A0938112B09382121C
:103EB0008B819F81AD85BE8580936B1290936C1230
:103EC000A0936D12B0936E128C899D89AE89BF89C3
:103ED0008093771290937812A0937912B0937A120C
:103EE000EB89E0936A128B859C85D10180937B12CC
:103EF00090937C12A0937D12B0937E12FEADF0934E
:103F000000122EA12093581249815A8150935712C2
:103F1000409356128AA99BA9ACA9BDA980936212AD
:103F200090936312A0936412B0936512988D90934E
:103F3000D8112FA138A549A55AA520935E12309318
:103F40005F124093601250936112398D3093591271
:103F500049A94093DB1110926F12109270121092C7
:103F600071121092721210926612109267121092D1
:103F7000681210926912C0925A12D0925B12E092AB
:103F80005C12F0925D122FA138A549A55AA5C70170
:103F9000B6010E94F799A981BA8195966D937D9398
:103FA0008D939C9398970E94990BB88DB093F50EC2
:103FB000C45BDF4F0FB6F894DEBF0FBECDBFDF91FD
:103FC000CF911F910F91FF90EF90DF90CF90BF9016
:103FD000AF909F908F907F906F905F904F903F90A9
:103FE0002F900C94F50DA50194016F85788989892E
:103FF0009A890E94DD986F87788B898B9A8BDBCEAC
:104000002A8D3B8D4C8D5D8DC701B6010E94839C2E
:104010009B01AC016AA17BA18CA19DA10E94DC98AF
:104020008B012D968FAF2D972C969FAF2C979B01D0
:10403000AC016E8D7F8D88A199A10E94439C1816BA
:104040000CF0B9CE2E8D3F8D48A159A16AA17BA15C
:104050008CA19DA10E94DC982A8D3B8D4C8D5D8D9D
:104060000E94F7996B017C010E8D1F8D48A12D9642
:104070004FAF2D9759A12C965FAF2C9782E08B8B79
:104080009ACE2B813F814D855E856AA17BA18CA153
:104090009DA10E94DC989B01AC010E94DD986B0100
:1040A0007C012C893D894E895F896F857889898952
:1040B0009A890E94DD989B01AC01C701B6010E945C
:1040C000F7996B017C010B811F81BD852D96BFAFD8
:1040D0002D97EE852C96EFAF2C976DCE26962CADB6
:1040E0003DAD4EAD5FAD2697B8012D968FAD2D97A6
:1040F0002C969FAD2C970E94439C18160CF084CEF2
:104100002EE333EC4EE259E36BA57CA58DA59EA56D
:104110000E94DD986BA77CA78DA79EA7A3019201A3
:1041200060CE2EA93FA948AD59ADC301B2010E948E
:10413000DD982B013C012AA13BA14CA15DA1C50149
:10414000B4010E94DC989B01AC01C301B2010E9442
:10415000F7994B015C012AA13BA14CA15DA1C701CC
:10416000B6010E94DC98A50194010E94839C6EAB6D
:104170007FAB88AF99AF20EC31EE44E65EE4C50139
:10418000B4010E94839C0E94D6990E94709A603D5F
:10419000E7E07E078105910508F045C046E02FA5C0
:1041A00038A9429FF001439FF00D1124E452FE4EC6
:1041B000158246E02FA538A9429FF001439FF00DDC
:1041C0001124E452FE4E74836383B9A8B39496E03D
:1041D000B91201C0B12C98012D964FAD2D972C9698
:1041E0005FAD2C976B817F818D859E850E94ED99B7
:1041F00087FF72C0C8012D96AFAD2D972C96BFAD2D
:104200002C97E981FA8185A396A3A7A3B0A7FAA169
:10421000FAAF2BA12BAF3CA13CAF4DA14DAF49A9AB
:104220004EAFB9AA09C9603A5FE0750781059105EB
:10423000A0F526E0AFA5B8A92A9FF0012B9FF00DAD
:104240001124E452FE4E31E0358346E02FA538A913
:10425000429FF001439FF00D1124E452FE4E258150
:10426000022E04C096958795779567950A94D2F7A4
:10427000ABA5BCA502C0AA0FBB1F2A95E2F7B1836C
:10428000A08361157105B1E08B07910508F491CF0A
:104290008FEF9FEF9483838398CF60344FE174074F
:1042A0008105910560F426E0AFA5B8A92A9FF00129
:1042B0002B9FF00D1124E452FE4E32E0C5CFA6E054
:1042C0004FA558A9A49FF001A59FF00D1124E45219
:1042D000FE4EB3E0B583B9CF20E030E0A901B801CC
:1042E0002D968FAD2D972C969FAD2C970E94439CB9
:1042F00018160CF06BC08A8D9B8DAC8DBD8D809394
:10430000731290937412A0937512B09376128E8DDF
:104310009F8DA8A1B9A180937F1290938012A09342
:104320008112B09382128B819F81AD85BE8580936F
:104330006B1290936C12A0936D12B0936E128C89D5
:104340009D89AE89BF898093771290937812A0934C
:104350007912B0937A125B8950936A128B859C858F
:10436000D10180937B1290937C12A0937D12B09325
:104370007E1289A9809300129EA190935812A98160
:10438000BA81B0935712A09356122AA93BA94CA9FF
:104390005DA920936212309363124093641250938C
:1043A0006512388D3093D8118FA198A5A9A5BAA50B
:1043B00080935E1290935F12A0936012B09361128B
:1043C000998D90935912B092DB11C5CD2196EFAD26
:1043D0002197F88DEF1779F08F2F8F5F823109F4D5
:1043E00080E0288D22963FAD2297231303C02296AA
:1043F0008FAF2297888F1A82198211CF20E030E088
:10440000A9016F85788989899A890E94ED9981111E
:104410000C9490194AC9CF92DF92EF92FF92CF93FA
:10442000DF93C82F6A017B0120E030E0A901CB01B6
:10443000B6010E94ED9987FD04C1C43608F449C055
:10444000C45680E0C330E0F5EC2FF0E0EE0FFF1F24
:10445000EE0FFF1F8230B9F0833059F1813081F0C7
:10446000E05AFA4EC082D182E282F3820E941B118E
:1044700080E0DF91CF91FF90EF90DF90CF90089593
:10448000E459FA4EEFCFEF01C858DA4E20E030E0A1
:1044900040E752E4C701B6010E94839C20E030E06F
:1044A00040E752E40E94839C688379838A839B83DC
:1044B000DDCFEC57FA4EF7FAF094F7F8F094D2CF3C
:1044C0008F5FCA3008F4BFC0843009F4BCC0CA5042
:1044D000B9CFC701B6010E94429D0E94709ACC31AB
:1044E00008F0B1C0EC2FF0E08827E658FD4D8F4F63
:1044F0000C94CA9D96229D22A022A522A822B22217
:10450000BA22232323232323C222C522CE22D72249
:10451000232323232323232323232323DF22E922EB
:10452000F522FD22002309231223182386E063309D
:1045300008F49FCF6093901599CF6093931596CF11
:10454000609391150E94BB0B91CF60939215FACFA7
:1045500080919D15662321F0846080939D1586CF00
:104560008B7FFBCF80919D15662311F08064F5CF82
:104570008F7BF3CF80919D15662311F08068EDCF7E
:104580008F77EBCF6093941571CFC0929515D09231
:104590009615E0929715F092981568CFC0929915EC
:1045A000D0929A15E0929B15F0929C155FCF809166
:1045B0009D15662311F08160D0CF8E7FCECF809184
:1045C0009D15662321F084FF40C08062C6CF8F7D99
:1045D000C4CF80919D15662331F0886080939D152E
:1045E0000E94321043CF877FF9CF80919D156623BB
:1045F00011F08061B2CF8F7CB0CF60939E1536CF23
:10460000C0929F15D092A015E092A115F092A2152C
:104610002DCFC092A315D092A415E092A515F092CB
:10462000A61524CF70E07093A8156093A7151ECF30
:10463000C092A915D092AA15E092AB15F092AC15D4
:1046400015CF84E016CF83E014CF8AE012CF1F93FA
:10465000CF93DF93CDB7DEB7C058D1090FB6F8942A
:10466000DEBF0FBECDBFAE0149575F4FFA0161916A
:104670007191AF01CE0101960E94509E10E0E1E0E1
:10468000F0E0EC0FFD1FE10FF11D808181110BC0E7
:10469000C058DF4F0FB6F894DEBF0FBECDBFDF911D
:1046A000CF911F9108950E94300C1F5FE8CFCF92E9
:1046B000DF92EF92FF921F93CF93DF93CDB7DEB7D8
:1046C000362F142FCDB6DEB64DB75EB7411B51095C
:1046D0000FB6F8945EBF0FBE4DBF4F5F5F4F7A01BC
:1046E000242FFA01632F0E94699D91939E2F921BA4
:1046F0009117C0F3F701E10FF11D31978081805DC3
:104700000E94300C1150B1F70FB6F894DEBE0FBE08
:10471000CDBEDF91CF911F91FF90EF90DF90CF90B2
:10472000089541E08A3020F043E0843608F442E006
:104730006AE00C945723CF93C82F81EC9AE00E9433
:10474000B80DEFEFEC0FE43308F076C0F0E0882707
:10475000E355FC4D8F4F0C94CA9DE123EA23ED23D2
:10476000F023F323F623F923FC23FF23022405245B
:104770001C241C241C241C241C241C241C241C2439
:104780000D240A2410241C241C241C241C241C2456
:104790001C241C241C241C241C241C241C241C2419
:1047A0001C241C241C241C241C241C241C241C2409
:1047B0001C241C241C241C241C241C241324162408
:1047C000192489EA9AE00E94B80D84ED99E0CF910E
:1047D0000C94B80D87E99AE0F6CF85E89AE0F3CF1C
:1047E0008BE79AE0F0CF8AE69AE0EDCF8BE59AE08E
:1047F000EACF8AE39AE0E7CF81E39AE0E4CF86E26A
:104800009AE0E1CF83E19AE0DECF8CE292E00E9471
:10481000C60DDBCF8DEF99E0D6CF81E392E0F7CFE5
:1048200089EE99E0D0CF86E392E0F1CF8BE392E07E
:10483000EECF80E492E0EBCF87ED99E00E94B80DD7
:104840008C2F0E949123C1CF1F93CF93DF93CDB7BD
:10485000DEB72C970FB6F894DEBF0FBECDBF90E049
:1048600080E00E9431118930E1F08FEF0E946C14DA
:1048700010E0BE016F5F7F4F812F0E944B148111AA
:1048800003C087E00E949B231F5F183091F72C968E
:104890000FB6F894DEBF0FBECDBFDF91CF911F9151
:1048A00008954DE450E061E078E080E695E10E94F3
:1048B0006111892BD1F220E030E048EC55E46091A1
:1048C00060157091611580916215909163150E9439
:1048D000ED998111CACF20E030E048EC55E46091B9
:1048E00064157091651580916615909167150E9409
:1048F000ED998111BACF20E030E048EC55E46091A9
:1049000068157091691580916A1590916B150E94D8
:10491000ED99882309F4ACCFA8CF80910401837866
:1049200080930401809103018C77803489F440E006
:1049300050E060E87FE384E00E940B2265E472E0CF
:1049400085E992E10E94F79D40E050E0BA0115C070
:10495000809103018C77B1F440E050E060E87FE3A0
:1049600084E00E940B226CE472E085E992E10E94EF
:10497000F79D40E050E060EE70E483E00E940B227F
:104980000C942424809103018C77803251F440E010
:1049900050E060E87FE384E00E940B2263E572E070
:1049A000CFCF809103018C77803161F48091030136
:1049B00040E050E060E87FE384E00E940B226AE57B
:1049C00072E0BECF40E050E060E87FE384E00E9408
:1049D0000B2261E672E0B4CF8F929F92AF92BF92AA
:1049E000EF92FF920F931F93CF938EEC99E00E946A
:1049F000B80D8FEBE82E85E1F82E00E615E1C0E05A
:104A0000F70161917191819191917F01F8018190FC
:104A10009190A190B1908F010E94A19AA50194015B
:104A20000E94F7990E942B0DC23021F08CEC99E086
:104A30000E94B80DCF5FC33019F78AEC99E00E944D
:104A4000B80D8091CB150E94912386EC99E0CF910F
:104A50001F910F91FF90EF90BF90AF909F908F901C
:104A60000C94B80D48E062E00C9457232F923F92CB
:104A70004F925F926F927F928F929F92AF92BF926E
:104A8000CF92DF92EF92FF920F931F93CF93DF931A
:104A9000CDB7DEB7E3970FB6F894DEBF0FBECDBF3C
:104AA000498F5A8F6B8F072F2BAB2091D9112CA7D1
:104AB000422F50E059A348A3E9E22E9F9001112410
:104AC000F901EA50F14F158616861786108A15A24D
:104AD00016A217A210A6108249E956E766E97EE7FA
:104AE00041A352A363A374A31C0140E655E15DA357
:104AF0004CA3CE0101969F8F8E8F4CE85DE05EA7A0
:104B00004DA7C9018950914F9BA78AA79E01235F9A
:104B10003F4F3BA32AA338AB2FA75FA34EA380E64A
:104B200095E19D8F8C8F10E03F013D96FAABE9AB8C
:104B30002301F5E24F0E511CF101619171918191B8
:104B400091911F01EC8DFD8D81909190A190B1907C
:104B5000FD8FEC8FA50194010E94839C0E94509CC4
:104B6000EE8DFF8D6193719381939193FF8FEE8F03
:104B7000EEA1FFA1C190D190E190F190FFA3EEA32F
:104B80006C197D098E099F099B01AC0197FF07C035
:104B900022273327A901261B370B480B590BEAA5FF
:104BA000FBA52193319341935193FBA7EAA7E9A970
:104BB000FAA9C080D180E280F380C216D306E40651
:104BC000F50610F469017A01E9A9FAA9C082D18237
:104BD000E282F3820E94A19AA50194010E94F799B2
:104BE0004B015C01EFA5F8A981929192A192B1923B
:104BF000F8ABEFA720E030E0A9010E94ED9987FF14
:104C00000BC091E0112321F094E0113009F492E0FF
:104C1000F3018081892B8083A5019401C501B40132
:104C20000E94839CF20120813181428153810E9444
:104C3000DD98F20160837183828393831F5F133059
:104C400009F07ACF0E94FE9C4B015C01F201808248
:104C50009182A282B382CD28CE28CF2809F414C233
:104C600020E030E0A901698D7A8D8B8D902F0E9414
:104C7000ED9987FD81C1FBA9FF2361F0A501940196
:104C8000698D7A8D8B8D902F0E94839C698F7A8F8E
:104C90008B8F092F20E030E0A901698D7A8D8B8DF3
:104CA000902F0E94ED9987FF04C0198E1A8E1B8EDB
:104CB00000E0A501940160E070E080E89FE30E94BD
:104CC000F7996EA37FA388A799A78AA19BA10C96A9
:104CD0009BA78AA7C12CD12C760129E2E8A1F9A1D2
:104CE0002E9FC0012F9F900D11249C01295E304FF3
:104CF0003F8F2E8FEAA1FBA181909190A190B1905E
:104D0000FBA3EAA320E030E0A901C501B4010E94A1
:104D1000ED99882309F473C02EA13FA148A559A598
:104D2000C501B4010E94839C2B013C01EAA1FBA1B7
:104D300034974082518262827382AC019B0160E0B1
:104D400070E080E89FE30E94F7994B015C01E894D2
:104D5000B7F8ECA1FDA12485358546855785C501A9
:104D6000B4010E94839C1B018C8F192F298D3A8DD1
:104D70004B8D502F0E94439C18162CF0298E3A8E92
:104D8000FC8DFB8F012FEE8DFF8D20803180F28115
:104D9000FC8FEE8DFF8D1381ECA1FDA1208D318D57
:104DA000428D538DC501B4010E94839C4B015C016F
:104DB0009B01AC01B1018C8D912F0E94ED9987FD73
:104DC00003C01401AC8E1B2DC101AC8DB12FEE8D33
:104DD000FF8D80839183A283B383EDA5FEA52485F7
:104DE000358546855785C301B2010E94839C9B018E
:104DF000AC01C701B6010E94DC986B017C012DA5B6
:104E00003EA52C5F3F4F3EA72DA74CA15DA14C5F57
:104E10005F4F5DA34CA38AA59BA5EAA1FBA18E17BA
:104E20009F0709F067CF8091D811FCA5F813ACC09B
:104E300089E228A139A1829FF001839FF00D1124FE
:104E4000EA50F14F118A128A138A148A118E128E37
:104E5000138E148E298D3A8D4B8D502F698D7A8D3E
:104E60008B8D902F0E94839C7B018C0189E228A16D
:104E700039A1829FF001839FF00D1124EA50F14F78
:104E8000C701D801858F968FA78FB0A3A18CB28C54
:104E9000C38C848C6090A40D7090A50D9090A60D8D
:104EA000D090A70D9301492D5D2DB701C8010E9437
:104EB000ED9987FF03C03701902ED12E9301492D24
:104EC0005D2DB5018C2D982D0E94ED9987FD03C0B5
:104ED0005301C92C8D2C89E248A159A1849FF0016E
:104EE000859FF00D1124EA50F14FC501AC2DB82D6E
:104EF000858B968BA78BB08F8CE0FE013D96A8E941
:104F0000BDE001900D928A95E1F7C701D801809329
:104F1000A40D9093A50DA093A60DB093A70D8CE0C2
:104F2000FE013196ACE8BDE001900D928A95E1F763
:104F300080918B0D8093D9118F5F823109F480E0CD
:104F400080938B0DE3960FB6F894DEBF0FBECDBFF6
:104F5000DF91CF911F910F91FF90EF90DF90CF9055
:104F6000BF90AF909F908F907F906F905F904F9089
:104F70003F902F900C94F50D29E9298F36E73A8F51
:104F800046E94B8F0EE795CE2FEE3FEF4FE75FE3FD
:104F9000C701B6010E94439C18165CF489E248A13F
:104FA00059A1849FF001859FF00D1124EA50F14F23
:104FB0004DCF2FEE3FEF4FE75FEBC701B6010E94E9
:104FC000439C181644F08FEEC82EDD24DA948FE748
:104FD000E82E8FEBF82EA701960160E070E080E8E4
:104FE0009FE30E94DC9820E030E040E05FE30E9415
:104FF000839C0E94FE9C6B017C0189E228A139A15F
:10500000829FF001839FF00D1124EA50F14F20910F
:10501000951530919615409197155091981561A16D
:1050200072A183A194A10E94839CA70196010E9472
:10503000839C4B015C01A701960160E070E080E871
:105040009FE30E94DC989B01AC01C501B4010E9462
:10505000F7996B017C0120E030E0A9010E94ED99F5
:1050600087FF03C0C12CD12C760189E248A159A148
:10507000849FF001859FF00D1124EA50F14FC18EFD
:10508000D28EE38EF48EE6CEE3960FB6F894DEBFB2
:105090000FBECDBFDF91CF911F910F91FF90EF9089
:1050A000DF90CF90BF90AF909F908F907F906F9048
:1050B0005F904F903F902F9008956A307105810561
:1050C000910570F425E02A95F1F70000615071090F
:1050D00081099109611571058105910571F708959F
:1050E000643671058105910548F4E5E3EA95F1F729
:1050F00000006A50710981099109ECCFEFE8F1E0F5
:105100003197F1F700C000006456710981099109D7
:10511000E1CFCF93DF93D82FC8E05E98559AD7FFA1
:1051200028C05D9A65E070E080E090E00E945D2814
:105130005E9A65E070E080E090E00E945D285E98F5
:10514000DD0F65E070E080E090E00E945D28C150D6
:1051500021F762E070E080E090E00E945D28559ABF
:105160005D9A62E070E080E090E0DF91CF910C9476
:105170005D285D98D7CF5E98559A5D9865E070E0A0
:1051800080E090E00E945D285E9A65E070E080E03B
:1051900090E00E945D28559A5D9A65E070E080E09D
:1051A00090E00C945D28559A5D9A62E070E080E092
:1051B00090E00E945D285E9A62E070E080E090E0FE
:1051C0000E945D2855988BEF4D9909C05E9862E06A
:1051D00070E080E090E00E945D2880E008958150BA
:1051E00099F70E94BB2881E00895559A5D9A5E9ACE
:1051F00065E070E080E090E00E945D28559A5D983F
:1052000065E070E080E090E00E945D285E9862E0DA
:1052100070E080E090E00C945D28CF93DF93D82F6E
:10522000C8E0809102018F77809302018091010193
:1052300084608093010180910201D7FF3AC08460AD
:105240008093020165E070E080E090E00E945D28BC
:105250008091020180688093020165E070E080E047
:1052600090E00E945D28809102018F778093020177
:10527000DD0F65E070E080E090E00E945D28C150A5
:1052800081F662E070E080E090E00E945D2880910D
:105290000101846080930101809102018460809308
:1052A000020162E070E080E090E0DF91CF910C9429
:1052B0005D288B7FC5CF0F931F93CF93DF93C2E001
:1052C000D1E088818F77888301E011E0F801808147
:1052D0008460808388818B7F888365E070E080E0D4
:1052E00090E00E945D2888818068888365E070E096
:1052F00080E090E00E945D28F801808184608083D6
:1053000088818460888365E070E080E090E0DF91D0
:10531000CF911F910F910C945D28809101018460C1
:10532000809301018091020184608093020162E018
:1053300070E080E090E00E945D288091020180682A
:105340008093020162E070E080E090E00E945D28BE
:10535000809101018B7F809301018BEF909100017F
:1053600092FD0DC0809102018F778093020162E06F
:1053700070E080E090E00E945D2880E00895815018
:1053800069F70E945B2981E008950F931F93CF93E3
:10539000DF9301E011E0F801808184608083C2E046
:1053A000D1E088818460888388818068888365E013
:1053B00070E080E090E00E945D28F80180818460C8
:1053C000808388818B7F888365E070E080E090E057
:1053D0000E945D2888818F77888362E070E080E09A
:1053E00090E0DF91CF911F910F910C945D28CF93A6
:1053F000DF93D82FC8E04398399AD7FF28C0419A45
:1054000065E070E080E090E00E945D28439A65E0EE
:1054100070E080E090E00E945D284398DD0F65E039
:1054200070E080E090E00E945D28C15021F762E0CA
:1054300070E080E090E00E945D28399A419A62E035
:1054400070E080E090E0DF91CF910C945D2841986E
:10545000D7CF4398399A419865E070E080E090E0BA
:105460000E945D28439A65E070E080E090E00E9431
:105470005D28399A419A65E070E080E090E00C94F4
:105480005D28399A419A62E070E080E090E00E94E5
:105490005D28439A62E070E080E090E00E945D2821
:1054A00039988BEF319909C0439862E070E080E051
:1054B00090E00E945D2880E00895815099F70E9455
:1054C000292A81E00895399A419A439A65E070E06B
:1054D00080E090E00E945D28399A419865E070E094
:1054E00080E090E00E945D28439862E070E080E0F8
:1054F00090E00C945D28CF93DF93C82FD62F813096
:1055000009F46EC028F0823009F406C1C0E064C01E
:105510000E94632A8CE60E94F7290E94412A8D2F5F
:105520000E94F7290E94412A0E94632A8DE60E9468
:10553000F7290E94412A62E070E080E090E00E943A
:105540005D28399A419A62E070E080E090E00E9424
:105550005D28D8E0439865E070E080E090E00E942C
:105560005D28439ACC0F65E070E080E090E00E94F7
:105570005D2839983199C16065E070E080E090E085
:105580000E945D28D15031F74398399A419A62E0E0
:1055900070E080E090E00E945D28439A65E070E052
:1055A00080E090E00E945D28439862E070E080E037
:1055B00090E00E945D28399A419A62E070E080E0B4
:1055C00090E00E945D28439862E070E080E090E007
:1055D0000E945D280E94292A8C2FDF91CF91089587
:1055E0000E94C5298CE60E940D290E948D298D2FCD
:1055F0000E940D290E948D290E94C5298DE60E94D6
:105600000D290E948D2962E070E080E090E00E9408
:105610005D288091010184608093010180910201E5
:1056200084608093020162E070E080E090E00E947C
:105630005D28D8E0C0E0809102018F77809302015D
:1056400065E070E080E090E00E945D2880910201BA
:10565000806880930201CC0F65E070E080E090E00C
:105660000E945D28809101018B7F809301018091D0
:10567000000182FDC16065E070E080E090E00E9482
:105680005D28D150C1F6809102018F77809302018D
:105690008091010184608093010180910201846006
:1056A0008093020162E070E080E090E00E945D285B
:1056B0008091020180688093020165E070E080E0E3
:1056C00090E00E945D28809102018F778093020113
:1056D00062E070E080E090E00E945D28809101012E
:1056E00084608093010180910201846080930201B3
:1056F00062E070E080E090E00E945D28809102010D
:105700008F778093020162E070E080E090E00E9479
:105710005D280E945B2960CF0E94F5288CE60E94DC
:1057200089280E94D3288D2F0E9489280E94D3287F
:105730000E94F5288DE60E9489280E94D32862E005
:1057400070E080E090E00E945D28559A5D9A62E0EA
:1057500070E080E090E00E945D28D8E0C0E05E98B4
:1057600065E070E080E090E00E945D285E9ACC0FDA
:1057700065E070E080E090E00E945D2855984D99CA
:10578000C16065E070E080E090E00E945D28D1504B
:1057900031F75E98559A5D9A62E070E080E090E0A3
:1057A0000E945D285E9A65E070E080E090E00E94D3
:1057B0005D285E9862E070E080E090E00E945D28E5
:1057C000559A5D9A62E070E080E090E00E945D286A
:1057D0005E9862E070E080E090E00E945D280E94A8
:1057E000BB28FACEAF92BF92CF92DF92EF92FF9298
:1057F0000F931F93CF93DF93E82E6EE00E947B2AD6
:10580000082F6FE08E2D0E947B2A102F082FE801B1
:10581000680184E0A82EB12C6EE08E2D0E947B2AB8
:10582000F82E6FE08E2D0E947B2A9F2D08171907F6
:1058300008F48C018C159D0508F46C01C80FD91F64
:1058400021E0A21AB10841F7CE01801B910B8C19FF
:105850009D0963E070E00E94759DCB01613070414D
:1058600010F090E080E0DF91CF911F910F91FF90B9
:10587000EF90DF90CF90BF90AF900895CF92DF92DE
:10588000EF92FF920F931F937C010E94F22B8C01E9
:1058900030E020E041E0E416F10409F44FC082E07A
:1058A000E816F10409F47AC08091C3149091C414ED
:1058B000B0E0A0E06C017D01C01AD10AE20AF30A4F
:1058C00041E0C41648E0D406E104F10464F19051CB
:1058D000A109B109BC01CD01601B710B820B930BB7
:1058E00045E2C42E49E0D42E43E0E42E42E4F42EF7
:1058F0000E94A19A20E030E044EB53E40E94839C94
:1059000020E030E040E859E30E94839C9B01AC0119
:10591000C701B6010E94DC981F910F91FF90EF9094
:10592000DF90CF900895C11448EFD4064FEFE406FE
:10593000F40684F6905FAF4FBF4FCCCF8091C51473
:105940009091C614B0E0A0E06C017D01C01AD10AAC
:10595000E20AF30A41E0C41648E0D406E104F10487
:1059600094F09051A109B109BC01CD01601B710BEC
:10597000820B930B39E0C32E36EFD32E31EBE32E9F
:1059800032E4F32EB5CFC11448EFD4064FEFE4064E
:10599000F40654F7905FAF4FBF4FE6CF8091C1142C
:1059A0009091C214B0E0A0E06C017D01C01AD10A50
:1059B000E20AF30A41E0C41648E0D406E104F10427
:1059C00084F09051A109B109BC01CD01601B710B9C
:1059D000820B930BC12CD12C24EBE22E22E4F22E6D
:1059E00087CFC11448EFD4064FEFE406F40664F7FE
:1059F000905FAF4FBF4FE8CF8F929F92AF92BF9211
:105A0000CF92DF92EF92FF920F931F93CF93DF938A
:105A10000FEA15E182E2F80111928A95E9F70E94F6
:105A2000D20D0E94451090E080E00E943E2CCCE018
:105A3000D5E16E877F87888B998B81E090E00E940B
:105A40003E2C6A8B7B8B8C8B9D8B82E090E00E943E
:105A50003E2C6E8B7F8B888F998FF801C480D58008
:105A6000E680F780CEA2DFA2E8A6F9A6C084D184A2
:105A7000E284F384CAA6DBA6ECA6FDA60485158500
:105A8000268537850EA71FA728AB39AB20E030E06D
:105A900044EB52E40E94DC987B018C012A893B890B
:105AA0004C895D896E857F8588899989E6E48E2E8B
:105AB000E5E19E2EF2E4AF2EF5E1BF2EAEE3CA2E55
:105AC000A5E1DA2E0E946512DF91CF911F910F910F
:105AD000FF90EF90DF90CF90BF90AF909F908F900E
