:1000000065C5000084C5000082C5000080C50000F1
:100010007EC500007CC500007AC5000078C50000E0
:1000200076C500000C94D05772C500000C944D4B5F
:100030006EC500006CC500006AC500000C949D5799
:1000400066C500000C941B2E62C5000060C5000050
:100050005EC500005CC500005AC500000C94A62DCA
:1000600056C500000C94EC360C94AE3750C5000019
:100070004EC500004CC500004AC5000048C5000040
:1000800046C5000044C5000042C500000C948757D7
:100090000C9484360C9480373AC5000038C50000B3
:1000A00036C5000034C500000C94AA3030C50000ED
:1000B0002EC500002CC500002AC5000028C5000080
:1000C00026C5000024C500000C9452570C941C3621
:1000D0000C9452371CC500001AC5000018C500005A
:1000E00016C500006C13C41DC41D7A138F13A4130E
:1000F000B913C41DC213C41DD513C41DE413EE13DC
:100100004614C41DC41DC41DFD1317143114931CC3
:10011000A31CD21CA31CD61CED1CDC1CE61C111D50
:10012000181D231D2E1D4D1D4F1D521D541DE62251
:10013000FE2216232E23462367237F23EA33F03340
:10014000F333F633FA3302340A34773477347734BE
:10015000123415341E3427347734773477347734B7
:10016000773477342F34393445344F3452345B3458
:1001700064346A34CA56CD56BC56C056C656045767
:10018000D156D556DB56DF56E356E956ED56F156B5
:100190000457F756FB56FF56084AD73B3BCE016E35
:1001A00084BCBFFDC12F3D6C74319ABD56833DDACE
:1001B0003D00C77F11BED9E4BB4C3E916BAAAABEDD
:1001C000000000803F072C7AA5BA6CC590DA3B93FB
:1001D00065FC8BBC53F810FD3C5692834DBD879D4A
:1001E0003AB63DCBC9BF5BBE73DA0FC93F05A84C19
:1001F000CDB2D44EB93836A9020C50B991868808D0
:100200003CA6AAAA2ABE000000803F0000407A1047
:10021000F35A00A0724E18090010A5D4E80000E8B7
:100220007648170000E40B54020000CA9A3B000015
:1002300000E1F505000080969800000040420F00A4
:100240000000A08601000000102700000000E80365
:10025000000000006400000000000A000000000030
:100260000100000000002C76D888DC674F0823DFEF
:10027000C1DFAE59E1B1B796E5E3E453C63AE651C2
:10028000997696E8E6C28426EB898C9B62ED407CE9
:100290006FFCEFBC9C9F40F2BAA56FA5F490055A85
:1002A0002AF75C936B6CF9676DC11BFCE0E40D47AA
:1002B000FEF520E6B500D0ED902E030094357705CD
:1002C0000080841E080000204E0A000000C80C3385
:1002D0003333330F986E12831141EF8D2114893B14
:1002E000E65516CFFEE6DB18D1844B381BF77C1D94
:1002F000901DA4BBE424203284725E228100C9F1E7
:1003000024ECA1E53D276364696E6F7073757858BE
:100310005B00000020002300260029002C002F0095
:100320003200000100000301060109010D0A003D31
:1003300000244E005D0D0A005B302E396A2E3230EB
:100340003136303732363A005D0D0A005B544C4F7F
:100350003A005D0D0A002C005B4739323A005D0D12
:100360000A002C003A003330003238005B47005D51
:100370000D0A00205300204600205400204D380074
:10038000204D3900204D3500204D3400204D3300E4
:10039000204D3200204D3100204D300020473934AF
:1003A00000204739330020473931002047393000D9
:1003B00020473230002047323100204731390020B9
:1003C0004731380020473137002047004733382E67
:1003D000004738300047330047320047310047308C
:1003E000005B00290D0A00206D617820747261762F
:1003F000656C2C206D6D0020616363656C2C206D35
:100400006D2F7365635E3200206D617820726174B8
:10041000652C206D6D2F6D696E002C2073746570D6
:100420002F6D6D007A00790078002028003D0024AF
:10043000002028686F6D696E672070756C6C2D6F79
:1004400066662C206D6D290D0A002028686F6D6985
:100450006E67206465626F756E63652C206D7365D1
:1004600063290D0A2432373D002028686F6D696EBC
:1004700067207365656B2C206D6D2F6D696E290D7E
:100480000A2432363D002028686F6D696E67206649
:100490006565642C206D6D2F6D696E290D0A2432FF
:1004A000353D00290D0A2432343D002028686F6D47
:1004B000696E672064697220696E76657274206D5A
:1004C00061736B3A002028686F6D696E67206379ED
:1004D000636C652C20626F6F6C290D0A2432333DEA
:1004E00000202868617264206C696D6974732C2027
:1004F000626F6F6C290D0A2432323D002028736F21
:100500006674206C696D6974732C20626F6F6C293E
:100510000D0A2432313D0020287265706F727420FC
:10052000696E636865732C20626F6F6C290D0A24F5
:1005300032303D00202861726320746F6C657261F7
:100540006E63652C206D6D290D0A2431333D00202A
:10055000286A756E6374696F6E206465766961746C
:10056000696F6E2C206D6D290D0A2431323D0029F2
:100570000D0A2431313D0020287374617475732095
:100580007265706F7274206D61736B3A0020287011
:10059000726F62652070696E20696E766572742C68
:1005A00020626F6F6C290D0A2431303D0020286CC9
:1005B000696D69742070696E7320696E76657274F6
:1005C0002C20626F6F6C290D0A24363D00202873A1
:1005D00074657020656E61626C6520696E76657207
:1005E000742C20626F6F6C290D0A24353D00290D93
:1005F0000A24343D00202864697220706F727420D0
:10060000696E76657274206D61736B3A00290D0A0C
:1006100024333D0020287374657020706F7274203D
:10062000696E76657274206D61736B3A0020287371
:100630007465702069646C652064656C61792C2038
:100640006D736563290D0A24323D0020287374659B
:10065000702070756C73652C2075736563290D0AA5
:1006600024313D0024303D0024242028766965771C
:10067000204772626C2073657474696E6773290D0C
:100680000A2423202876696577202320706172610F
:100690006D6574657273290D0A2447202876696593
:1006A0007720706172736572207374617465290DAF
:1006B0000A2449202876696577206275696C642070
:1006C000696E666F290D0A244E20287669657720A9
:1006D0007374617274757020626C6F636B73290D33
:1006E0000A24783D76616C756520287361766520F3
:1006F0004772626C2073657474696E67290D0A24F1
:100700004E783D6C696E6520287361766520737440
:10071000617274757020626C6F636B290D0A2443DB
:100720002028636865636B2067636F6465206D6F65
:100730006465290D0A245820286B696C6C20616C53
:1007400061726D206C6F636B290D0A24482028723A
:10075000756E20686F6D696E67206379636C6529BB
:100760000D0A7E20286379636C652073746172744E
:10077000290D0A2120286665656420686F6C64294C
:100780000D0A3F202863757272656E742073746160
:10079000747573290D0A6374726C2D782028726544
:1007A000736574204772626C290D0A0000002100F5
:1007B000240027002A002D00300033000101000032
:1007C000040107010A016F6B0D0A000D0A00486F52
:1007D0006D696E67206661696C0050726F6265209A
:1007E0006661696C0041626F727420647572696E33
:1007F00067206379636C6500536F6674206C696D64
:1008000069740048617264206C696D697400414CC0
:1008100041524D3A20003E0D0A002C4C696D3A00C1
:100820002C52583A002C4275663A002C002C575036
:100830006F733A002C002C4D506F733A003C446F9C
:100840006F72003C436865636B003C416C61726D84
:10085000003C486F6D65003C486F6C64003C52750D
:100860006E003C49646C65005D0D0A00526573744E
:100870006F72696E672064656661756C7473005091
:10088000676D20456E6400436865636B20446F6F3D
:10089000720044697361626C656400456E61626CEC
:1008A00065640043617574696F6E3A20556E6C6FB4
:1008B000636B656400272448277C2724582720740D
:1008C0006F20756E6C6F636B005265736574207476
:1008D0006F20636F6E74696E7565005B005D0D0A55
:1008E000003A002C005B5052423A000D0A00496E5B
:1008F00076616C69642067636F64652049443A00DF
:10090000556E646566696E6564206665656420720F
:10091000617465004D6F64616C2067726F75702043
:1009200076696F6C6174696F6E00486F6D696E6790
:10093000206E6F7420656E61626C656400416C614D
:10094000726D206C6F636B004E6F742069646C6510
:1009500000454550524F4D207265616420666169C3
:100960006C2E205573696E672064656661756C74C2
:10097000730056616C7565203C2033207573656388
:100980000053657474696E672064697361626C6595
:10099000640056616C7565203C203000496E7661BC
:1009A0006C69642073746174656D656E7400426176
:1009B00064206E756D62657220666F726D61740081
:1009C000457870656374656420636F6D6D616E64F6
:1009D000206C6574746572006572726F723A2000E3
:1009E00000002200250028002B002E0031003400DA
:1009F00002010000050108010B01050505050705B9
:100A000008080808020202020A0A0808040404048A
:100A100001010101010101010303030303030303B6
:100A2000040707070C0C0C0C0C0C0C0C0202020245
:100A300006060606060606060B0B0B0B0B0B0B0B2E
:100A400001021020200808102040102040800201E0
:100A500002010804020101020408102040808040C5
:100A600020100804020180040201804020100804C4
:100A70000201080402010102040810204080010262
:100A800004081020408000000A0B02090C0D0E081B
:100A90000703040100000000000000000000000047
:100AA0000000000000000000000000000000000046
:100AB0000000121110000000000000000000000003
:100AC00000000000000000000000000011241FBE14
:100AD000CFEFD1E2DEBFCDBF00E00CBF14E0A0E05D
:100AE000B2E0E6E5FFEE00E00BBF02C007900D921A
:100AF000AC34B107D9F723E1ACE4B4E001C01D92F6
:100B0000A53AB207E1F70E94C05A0C94A97778CAB7
:100B10002F923F924F925F926F927F928F929F920D
:100B2000AF92BF92CF92DF92EF92FF920F931F93FB
:100B3000CF93DF93CDB7DEB7CA5CD1090FB6F89477
:100B4000DEBF0FBECDBFC754DF4F99838883C95B1B
:100B5000D04089E3EDE2F3E1DF011D928A95E9F7E8
:100B60008AE0E6E6F3E1AEE2B3E101900D928A9508
:100B7000E1F7FE01E756FF4F1082C155DF4F1982A2
:100B80001882CF5AD040C555DF4F19821882CB5AF0
:100B9000D040C554DF4F1882CB5BD040CA55DF4FE1
:100BA0001882C65AD040C655DF4F1882CA5AD04064
:100BB000E859F109C256DF4FF983E883CE59D04096
:100BC0009E01235A3F4FC056DF4F39832883C05AB6
:100BD000D0401E0131E5230E311CC1010896C154DD
:100BE000DF4F99838883CF5BD040C756DF4F888122
:100BF000C959D040C754DF4FE881F981C95BD04063
:100C0000E80FF11D1081112311F40C94A3149FEB34
:100C1000910F9A3110F00C94B61D8F5FC756DF4FBD
:100C20008883C959D040AE014B565F4FBE0167560D
:100C30007F4FC754DF4F88819981C95BD0400E94A4
:100C40005141882311F40C94B81DCB56DF4FC88056
:100C5000D980EA80FB80C559D040C701B6010E9407
:100C60008C700E94F96DCF54DF4F688379838A833B
:100C70009B83C15BD040CF54DF4F68807980C15BDC
:100C8000D040B30180E090E00E94256E9B01AC0152
:100C9000C701B6010E94AB6C20E030E048EC52E4A2
:100CA0000E94DE6F4B015C0120E030E0A9010E9450
:100CB000A36F20E030E040E05FE387FD05C0C501A1
:100CC000B4010E94AC6C04C0C501B4010E94AB6CBD
:100CD0000E94F46D2B011D3409F4EFC7103511F497
:100CE0000C94230F173411F00C945913C756DF4F8F
:100CF0008881C959D040C754DF4FA881B981C95BE9
:100D0000D040A80FB11DCD01BAE96B16B8E07B0643
:100D100009F403C158F4F4ED6F16F7E07F0699F07B
:100D200029E9621628E07206D1F14EC53CE9631646
:100D300038E0730609F472C2ADE96A16A8E07A06D3
:100D400009F45BC341C51A821982E1E0F0E0EC0FBF
:100D5000FD1FFF93EF9324EC33E03F932F939F937A
:100D60008F930E947D710F900F900F900F900F90B6
:100D70000F90181619060CF06CC389819A81909314
:100D8000720D8093710D11E010932C0D8091C30CA6
:100D900081111DC50E9428271093C30C18C58E0110
:100DA0000B5E1F4F1F930F939E01275D3F4F3F9395
:100DB0002F937E01FDE3EF0EF11CFF92EF923F9225
:100DC0002F9229E132E03F932F939F938F930E94BC
:100DD0007D710FB6F894DEBF0FBECDBF04970CF443
:100DE00038C3EF961CAE1DAE1EAE1FAEEF97E59654
:100DF0001CAE1DAE1EAE1FAEE597AB961CAE1DAE73
:100E00001EAE1FAEAB97A1961CAE1DAE1EAE1FAEA2
:100E1000A1978CE0C256DF4FA881B981CE59D0404E
:100E20001D928A95E9F7AE0145585F4F60E070E08A
:100E3000C1010E945141882309F4C9C4AE014F5831
:100E40005F4F60E070E0C7010E945141882309F4C0
:100E5000BEC4AE0149595F4F60E070E0CE01899693
:100E60000E945141882309F4B2C4AE01435A5F4F36
:100E700060E070E0C8010E945141882309F4A7C4D2
:100E800020E030E044EB52E4E5966CAD7DAD8EADF4
:100E90009FADE5970E94AB6C21EE3EE245E652E441
:100EA0000E948C6D6B017C01E5966CAF7DAF8EAFBF
:100EB0009FAFE5970E94896DEF968CAC9DACAEAC70
:100EC000BFACEF97A50194010E94DE6F69837A831E
:100ED0008B839C83C701B6010E9441709B01AC01CA
:100EE000C501B4010E94DE6F6D837E838F83988776
:100EF000AB968CAD9DADAEADBFADAB9789879A87F4
:100F0000AB87BC87A1962CAD3DAD4EAD5FADA19733
:100F100000E0BE016F5F7F4F52C4F1011082118269
:100F20001282138221961CAE1DAE1EAE1FAE2197FB
:100F300021E030E02C0F3D1F3F932F938E010B5E7D
:100F40001F4F1F930F93CF55DF4F3881C15AD040A9
:100F50003F93C056DF4FA881C05AD040AF9322E4E0
:100F600032E03F932F939F938F930E947D710FB632
:100F7000F894DEBF0FBECDBF03970CF46AC2A10187
:100F800060E070E0C8010E945141882309F41FC449
:100F9000AE01435C5F4F60E070E0CE0101960E94BD
:100FA0005141882309F413C49E01275D3F4FC65663
:100FB000DF4F39832883CA59D0408CE0D9011D9274
:100FC0008A95E9F76091130D7091140D8091150DBC
:100FD0009091160D0E94276E20E030E040EA52E426
:100FE0000E948C6D2091070D3091080D4091090DE4
:100FF00050910A0D0E94AC6CCE55DF4F6883798307
:101000008A839B83C25AD0406091170D7091180D4E
:101010008091190D90911A0D0E94276E20E030E00A
:1010200040EA52E40E948C6D20910B0D30910C0D22
:1010300040910D0D50910E0D0E94AC6CCB54DF4FC2
:10104000688379838A839B83C55BD04060911B0D45
:1010500070911C0D80911D0D90911E0D0E94276EA8
:1010600020E030E040EA52E40E948C6D6B017C018C
:1010700020E030E044EB52E460910F0D7091100DD0
:101080008091110D9091120D0E94AB6C9B01AC01EF
:10109000C701B6010E94AC6C7B018C016F968EADCE
:1010A0009FAD6F978130910589F14CF5892B09F03F
:1010B000DDC120E030E044EB52E4F1016081718158
:1010C000828193810E94AB6CD1016D937D938D934E
:1010D0009C931397FE01F1964F019E01235D3F4FB4
:1010E0005901DE0199966D017B018C01CB54DF4FD4
:1010F000288139814A815B81C55BD0402DC0823017
:101100009105E1F0039709F440C0B0C1F10160819D
:101110007181828193819E012F5C3F4F4901DE01E5
:101120009D965D01FE01B9966F01CB54DF4F28817A
:1011300039814A815B81C55BD04016C0D1012D91B8
:101140003D914D915C91FE01F1964F01CE018D963E
:101150005C01DE0199966D01CE55DF4F6881798182
:101160008A819B81C25AD0400E940548A401B501E2
:10117000C6010E941D2C21962CAD3DAD4EAD5FAD3C
:10118000219700E0B60180E01BC3F101C080D1804F
:10119000E280F38020E030E044EB53E4C701B60185
:1011A0000E94A36F18160CF412C320E030E0A901CE
:1011B000C701B6010E94856D87FD09C38091F90CB6
:1011C0009091FA0C0497029708F521968CAC9DAC8F
:1011D000AEACBFAC219720916D0D30916E0D40915A
:1011E0006F0D5091700DC701B6010E94AB6CC0929B
:1011F0006D0DD0926E0DE0926F0DF092700D109209
:10120000310DA50194010E942528E1C2C701B60154
:101210000E941F2981E08093310DD9C29E012B5E6F
:101220003F4F3F932F938E01075D1F4F1F930F93E7
:101230007E01FDE3EF0EF11CFF92EF923F922F92A1
:101240002AE532E03F932F939F938F930E947D7105
:101250000FB6F894DEBF0FBECDBF04970CF4F9C0F3
:10126000EF961CAE1DAE1EAE1FAEEF97E5961CAE00
:101270001DAE1EAE1FAEE597AB961CAE1DAE1EAEEC
:101280001FAEAB97A1961CAE1DAE1EAE1FAEA197B2
:10129000AE0145585F4F60E070E0C1010E945141CE
:1012A000882309F494C2AE014F585F4F60E070E0AC
:1012B000C7010E945141882309F489C2AE014959EE
:1012C0005F4F60E070E0C8010E945141882309F43B
:1012D0007EC2AE01435A5F4F60E070E0CE0145969A
:1012E0000E945141882309F472C260911B0D7091D4
:1012F0001C0D80911D0D90911E0D0E94276ECE55E4
:10130000DF4F688379838A839B83C25AD040609180
:10131000170D7091180D8091190D90911A0D0E9462
:10132000276ECB54DF4F688379838A839B83C55BA9
:10133000D0406091130D7091140D8091150D909116
:10134000160D0E94276EDE0119964D01FE0135969D
:101350005F019E012F5F3F4F6901CE55DF4FE8804F
:10136000F9800A811B81C25AD040CB54DF4F2881BB
:1013700039814A815B81C55BD0400E94C62CA401A3
:10138000B501C6010E941D2CEF962CAD3DAD4EADB2
:101390005FADEF9769817A818B819C810E94AC6CF3
:1013A00069837A838B839C83E5962CAD3DAD4EADEE
:1013B0005FADE5976D817E818F8198850E94AC6CD1
:1013C0006D837E838F839887AB962CAD3DAD4EADFC
:1013D0005FADAB9769857A858B859C850E94AC6CE7
:1013E00069877A878B879C87A1962CAD3DAD4EADE2
:1013F0005FADA19700E0B601E2C1CF55DF4F388164
:10140000C15AD0403F93C056DF4FA881C05AD04048
:10141000AF938E0109591F4F1F930F937E01B1E7C0
:10142000EB0EF11CFF92EF926E01EBE7CE0ED11C9A
:10143000DF92CF9229E132E03F932F939F938F93D6
:101440000E947D710FB6F894DEBF0FBECDBF04972A
:1014500084F41F9281E08F938DE092E09F938F93AD
:101460000E94AA3B0F900F900F900F9082E390E0A4
:10147000B0C1CF56DF4F188219821A821B82C15920
:10148000D040C357DF4F188219821A821B82CD5871
:10149000D040C757DF4F188219821A821B82C95861
:1014A000D040CB57DF4F188219821A821B82C55851
:1014B000D0408CE0D1011D928A95E9F7AE014F56DC
:1014C0005F4F60E070E0C6010E945141882309F43B
:1014D0007EC1AE0143575F4F60E070E0C7010E94DC
:1014E0005141882309F473C1AE0147575F4F60E053
:1014F00070E0C8010E945141882309F468C1AE011F
:101500004B575F4F60E070E0CE01835A9F4F0E94BF
:101510005141882309F45BC160911B0D70911C0D32
:1015200080911D0D90911E0D0E94276ECB54DF4FB0
:10153000688379838A839B83C55BD04020E030E059
:1015400044EB52E460910F0D7091100D8091110DDC
:101550009091120D0E94AB6C6B017C0120E030E099
:1015600040EA52E4CB54DF4F688179818A819B81C4
:10157000C55BD0400E948C6D9B01AC01C701B601D8
:101580000E94AC6CCD53DF4F688379838A839B8341
:10159000C35CD0406091170D7091180D8091190DAA
:1015A00090911A0D0E94276EC953DF4F688379838B
:1015B0008A839B83C75CD0406091130D7091140D9A
:1015C0008091150D9091160D0E94276EC154DF4F2A
:1015D00088809980CF5BD040F1013496CE55DF4FA3
:1015E000F983E883C25AD0405F016101CB54DF4FD9
:1015F000E880F9800A811B81C55BD040C953DF4F69
:10160000288139814A815B81C75CD0400E94C62C09
:10161000C154DF4F48815981CF5BD040CE55DF4F59
:1016200068817981C25AD040C1010E941D2CD1012C
:101630006D917D918D919C9113971496CD90DD9035
:10164000ED90FC9017979B01AC010E94DE6F4B015F
:101650005C01A7019601C701B6010E94DE6F9B01E4
:10166000AC01C501B4010E94AC6C0E944B70CF5616
:10167000DF4F288139814A815B81C159D0400E9466
:10168000AC6C6B017C01CF56DF4F688379838A8312
:101690009B83C159D040C357DF4F288139814A818C
:1016A0005B81CD58D040CD53DF4F688179818A81ED
:1016B0009B81C35CD0400E94AC6C21EE3EE245E6CB
:1016C00052E40E948C6DCE55DF4F688379838A8304
:1016D0009B83C25AD0400E94896D9B01AC01C70117
:1016E000B6010E94DE6F4B015C01F10160837183E2
:1016F00082839383CE55DF4F688179818A819B8174
:10170000C25AD0400E9441709B01AC01C701B60192
:101710000E94DE6FD10114966D937D938D939C93FF
:101720001797C757DF4F288139814A815B81C95894
:10173000D04018966D917D918D919C911B970E9440
:10174000AC6CF10160877187828793878E01035C9F
:101750001F4F24E045E0C501B4010E94306AD10169
:1017600014966D917D918D919C911797045111095B
:1017700024E045E00E94306AF10160857185828530
:1017800093850451110924E045E00E94306ACF5648
:10179000DF4F688179818A819B81C159D040045192
:1017A000110924E045E00E94306ACB57DF4F2881C1
:1017B00039814A815B81C558D04000E0B10181E0A8
:1017C0000E943C4290E005C081E090E002C080E0D1
:1017D00090E09C01215031092230310510F00C9429
:1017E0001F1EF8E26F16710409F414C280F534E18B
:1017F0006316710498F481E16816710408F061C100
:1018000094E06916710409F474C008F4E3C0BAE006
:101810006B16710409F45EC00C94C41DECE16E16E5
:10182000710409F457C038F426E16216710408F413
:10183000A2C10C94C41D3EE16316710409F44AC0B0
:1018400086E26816710409F4C5C00C94C41D9DE3BA
:101850006916710409F4D3C110F5B5E36B16710470
:1018600009F447C060F4FBE26F16710409F495C1F6
:1018700021E36216710409F490C10C94C41D3CE389
:101880006316710410F00C94C41DCF54DF4F88818F
:10189000C15BD040865380933413A9E0AAC18CE584
:1018A0006816710460F49AE56916710408F01FC1A6
:1018B000A0E56A16710409F49BC00C94C41DBCE534
:1018C0006B16710439F0EFE56E16710408F43CC133
:1018D0000C94C41D4114510411F00C94D81DC6552C
:1018E000DF4FF881CA5AD040FF2309F445C00C9459
:1018F000BA1D2CE16216710491F148F484E0681677
:10190000710479F09AE069167104E1F08AC1AEE1E0
:101910006A167104D9F1B5E36B16710409F456C067
:1019200080C181E054C0FFE16F16710408F042C02D
:101930002AE06216710441F4E1E0C655DF4FE88306
:10194000CA5AD04082E043C03CE16316710409F0FA
:1019500078C1F1E0C655DF4FF883CA5AD040411430
:10196000510441F02AE04216510411F00C94C41DB8
:1019700084E010C083E00EC0EEE16E16710499F6AB
:1019800031E0C655DF4F3883CA5AD0404114510464
:1019900049F485E080932D13CE55DF4F1882C25A4B
:1019A000D0405AC18AE04816510411F00C94C41D6D
:1019B00086E0F0CF85E36816710411F00C94ED1DFC
:1019C00091E0C655DF4F9883CA5AD04087E0809394
:1019D0002D1327C1C655DF4FE881CA5AD040E11107
:1019E0000C94BA1DF2E0C655DF4FF883CA5AD040B6
:1019F00022E06216710419F158F461147104D9F0EF
:101A00006A94672809F013C181E080932E130FC1F7
:101A100096E269167104C1F0A0E56A16710409F432
:101A20004BC0B3E06B16710409F001C183E08093F1
:101A30002E1331E09AC010922E13E1E0ECC082E048
:101A400080932E1321E088C08EE14816510401F1E5
:101A500080F4A4E14A16510411F00C94C41D84E0F2
:101A600080932E13F1E0CE55DF4FF883C25AD04059
:101A7000F3C0B8E24B165104A9F0E2E34E1651044C
:101A800011F00C94C41D87E080932E1381E039C0BF
:101A900085E080932E1321E0CE55DF4F2883C25A74
:101AA000D040DAC086E080932E1331E0CE55DF4F70
:101AB0003883C25AD040D0C088E080932E1391E082
:101AC00062C0A2E16A16710441F0B3E16B167104C1
:101AD00049F010923213E2E09EC081E0809332130D
:101AE000F2E0A6C082E08093321322E035C04114B8
:101AF0005104B9F43AE56316710449F410923113B4
:101B000083E0CE55DF4F8883C25AD040A5C081E024
:101B10008093311393E0CE55DF4F9883C25AD04063
:101B20009BC0AAE04A16510411F00C94C41DBAE5FA
:101B30006B16710411F40C94C41DE4E0CE55DF4F14
:101B4000E883C25AD04088C0FDE56F16710451F495
:101B500081E080932F1325E0CE55DF4F2883C25AB2
:101B6000D0406BC010922F1335E0CE55DF4F388335
:101B7000C25AD04062C084E16816710451F481E019
:101B80008093301396E0CE55DF4F9883C25AD040F1
:101B900054C010923013A6E02CC0C655DF4FB88158
:101BA000CA5AD040B1110C94BA1DE1E36E1671040B
:101BB00051F410923313F8E0CE55DF4FF883C25A38
:101BC000D04023E044C03AE04316510411F00C9495
:101BD000C41D81E08093331388E0CE55DF4F8883A6
:101BE000C25AD04093E0C655DF4F9883CA5AD040BE
:101BF00033C0CE55DF4FA883C25AD0401EC04528FF
:101C000011F00C94C41DBAE0CE55DF4FB883C25A10
:101C1000D04022C0E7E0CE55DF4FE883C25AD04023
:101C20000CC0CE55DF4F1882C25AD04006C0F1E03A
:101C3000CE55DF4FF883C25AD040452869F00C9446
:101C4000EB1DCE55DF4F1882C25AD04021E0C65559
:101C5000DF4F2883CA5AD040C555DF4FE881F9814C
:101C6000CB5AD040CF01A0E0B0E0CE55DF4F088086
:101C7000C25AD04004C0B695A795979587950A9407
:101C8000D2F780FF03C085E10C941F1E81E090E035
:101C9000A0E0B0E0CE55DF4F0880C25AD04004C06B
:101CA000880F991FAA1FBB1F0A94D2F7C555DF4F93
:101CB00028813981CB5AD040F2C4672B11F00C94A3
:101CC000EB1DC756DF4F8881C959D040C754DF4F3D
:101CD00068817981C95BD040680F711DAE0147569C
:101CE0005F4FCF54DF4F88819981C15BD0400E9404
:101CF000511E9C01215031092230310510F00C9405
:101D00001F1E36E06316710428F483E06816710420
:101D100090F026C098E06916710410F40C94C41D6C
:101D2000AAE06A16710408F440C0BEE16B167104A3
:101D300011F00C94C41DE2E06E16710461F0FEE136
:101D40006F16710441F0672809F046C081E0809366
:101D500035132BE032C082E0809335133BE036C070
:101D600084E06816710471F095E069167104A1F0C1
:101D700081E080933713ACE0CE55DF4FA883C25A81
:101D8000D04030C082E080933713BCE0CE55DF4FA7
:101D9000B883C25AD04026C010923713ECE0CE551B
:101DA000DF4FE883C25AD0401DC0F9E06F167104BE
:101DB00051F082E0809336132DE0CE55DF4F28831B
:101DC000C25AD0400FC0109236133DE0CE55DF4FBF
:101DD0003883C25AD04006C08BE0CE55DF4F88838F
:101DE000C25AD040C555DF4FE881F981CB5AD04067
:101DF000CF01A0E0B0E0CE55DF4F0880C25AD040FE
:101E000004C0B695A795979587950A94D2F780FD5B
:101E10003ACF81E090E0A0E0B0E0CE55DF4F0880FF
:101E2000C25AD04004C0880F991FAA1FBB1F0A9432
:101E3000D2F7E82BF92BC555DF4FF983E883CB5A4E
:101E4000D0400C94F505672B11F00C94EB1DC75690
:101E5000DF4F8881C959D040C754DF4FE881F981ED
:101E6000C95BD040E80FF11D27EB621628E072062F
:101E700009F4FBC208F06AC18CE9681688E07806AC
:101E800009F4A5C108F076C0A9E96A16A8E07A06A7
:101E900009F497C108F05FC0E8E96E16E8E07E0635
:101EA00009F0CCC384E16E0199E2C90ED11CD601C0
:101EB000E82F1D92EA95E9F77E01F5E1EF0EF11C9E
:101EC000D701E82F1D92EA95E9F7C256DF4FA881A6
:101ED000B981CE59D0401D928A95E9F780E090E013
:101EE0000E94204ACF54DF4F688379838A839B8383
:101EF000C15BD04081E090E00E94204A2B013C0170
:101F000082E090E00E94204A4B015C01860124E0BF
:101F100045E0CF54DF4F688179818A819B81C15B25
:101F2000D0400E94306A870124E045E0C301B2013D
:101F30000E94306A0451110924E045E0C501B40152
:101F40000E94306AFF92EF92DF92CF921F930F931D
:101F500083E892E051C3FAE96F16F8E07F0609F4CE
:101F600033C12BE9621628E0720609F067C38FE9D6
:101F700092E02FC13EE9631638E0730609F433C1DD
:101F800008F42CC19CEA691698E0790609F4C1C1ED
:101F9000ADEA6A16A8E07A0609F050C3A1961CAE15
:101FA0001DAE1EAE1FAEA197F101108211821282EA
:101FB000138221961CAE1DAE1EAE1FAE219784E18A
:101FC0009E01275D3F4FC656DF4F39832883CA598C
:101FD000D040D901E82F1D92EA95E9F72451310943
:101FE000C456DF4F39832883CC59D040D901E82F1C
:101FF0001D92EA95E9F7C256DF4FA881B981CE5903
:10200000D0401D928A95E9F780E090E00E94204A36
:10201000CF54DF4F688379838A839B83C15BD04031
:1020200081E090E00E94204ACB54DF4F688379839F
:102030008A839B83C55BD04082E090E00E94204A67
:1020400020E030E044EB52E40E94AB6C2B013C01F9
:10205000FE01FD964F0151019E01235A3F4F690138
:102060007B018C01CB54DF4F288139814A815B8110
:10207000C55BD040CF54DF4F688179818A819B81D5
:10208000C15BD0400E940548A401B101C6010E9475
:102090001D2CA1966CAD7DAD8EAD9FADA197D101EC
:1020A000CD90DD90ED90FC909B01AC010E94DE6F25
:1020B0004B015C01A7019601C701B6010E94DE6FCA
:1020C0009B01AC01C501B4010E94AC6C0E944B7035
:1020D0008E01075D1F4F24E045E00E94306A20E03A
:1020E00030E044EB52E4C301B2010E94AC6C0451F5
:1020F000110924E045E00E94306A21966CAD7DAD67
:102100008EAD9FAD21970451110924E045E00E9456
:10211000306A1F930F93C356DF4FF881CD59D040DB
:10212000FF93C456DF4F2881CC59D0402F93C5561A
:10213000DF4F3881CB59D0403F93C656DF4F88815F
:10214000CA59D0408F9381EC92E056C2B0EC6B1626
:10215000B8E07B0609F4B5C1D0F439EB631638E07A
:10216000730609F499C108F48CC19AEB691698E0DA
:10217000790609F499C1ABEB6A16A8E07A0609F072
:102180005DC28091020185FB882780F998C1B2EC7D
:102190006B16B8E07B0609F405C208F4D4C133EC31
:1021A000631638E0730609F40FC280E6681689E00A
:1021B000780609F043C28091FA0C8F938091F90C54
:1021C00029C281E992E005C083E79DE002C086EA6A
:1021D00092E09F938F938AE992E01FC28CE494E08F
:1021E0009F938F9393C080818E3409F0D0C18181F9
:1021F0008053843008F0CBC194E16E013DE3C30EFF
:10220000D11CD601E92F1D92EA95E9F77E01F9E28A
:10221000EF0EF11CD701E92F1D92EA95E9F75E0157
:10222000F5E1AF0EB11CD501E92F1D92EA95E9F752
:10223000C256DF4FA881B981CE59D0401D929A95E0
:10224000E9F78230E1F0833031F1813061F082E0F2
:1022500090E00E94204A850124E045E00E94306A17
:10226000BF92AF9253C080E090E00E94204A860166
:1022700024E045E00E94306ADF92CF9247C081E0BF
:1022800090E00E94204A870124E045E00E94306AE5
:10229000FF92EF923BC08091F90C9091FA0C049759
:1022A000029748F460916D0D70916E0D80916F0DE5
:1022B0009091700D22C020E030E040E05FE360913B
:1022C00000027091010280910202909103020E942B
:1022D000AB6C20E030E040E05FE30E94DE6F20E086
:1022E00030E044E353E40E94DE6F9B01AC0160E008
:1022F00070E084E393E40E94AB6C8E010F5F1F4F8C
:1023000024E045E00E94306A1F930F938DEA92E02B
:1023100084C1A1961CAE1DAE1EAE1FAEA197D10109
:102320001D921D921D921C92139721961CAE1DAEFC
:102330001EAE1FAE219784E1FE01B996C656DF4F4F
:10234000F983E883CA59D040282F11922A95E9F7DA
:10235000DE015596C456DF4FB983A883CC59D040CF
:10236000E82F1D92EA95E9F7C256DF4FA881B9819F
:10237000CE59D0401D928A95E9F780E090E00E9406
:10238000204A2B013C0181E090E00E94204ACF547A
:10239000DF4F688379838A839B83C15BD04082E06F
:1023A00090E00E94204A20E030E044EB52E40E949A
:1023B000AB6CFE01FD964F0151019E01235A3F4F28
:1023C00069017B018C01CF54DF4F288139814A811B
:1023D0005B81C15BD040C301B2010E940548A401EA
:1023E000B101C6010E941D2CA1966CAD7DAD8EADD4
:1023F0009FADA1978E01075D1F4F24E045E00E942D
:10240000306AD1016D917D918D919C91045111099A
:1024100024E045E00E94306A21966CAD7DAD8EAD22
:102420009FAD21970451110924E045E00E94306AD4
:102430001F930F93C356DF4FF881CD59D040FF93C0
:10244000C456DF4F2881CC59D0402F93C556DF4F5B
:102450003881CB59D0403F93C656DF4F8881CA5947
:10246000D0408F9383EB92E0C7C0A49B11C08FE351
:102470000E9433578A30910558F08734910530F027
:1024800009C0479905C00898009904C082E017C0A8
:1024900080E015C081E013C082B38695869586954D
:1024A00091E0892781700BC08BE30E94335721E0B4
:1024B0008536910508F420E01F922F93ACC01F923F
:1024C000A9C021E030E02C0F3D1F3F932F938FECEC
:1024D00092E09F938F93FF93EF930E947D710F90F3
:1024E0000F900F900F900F900F90181619060CF088
:1024F00041C029813A812634310508F048C0F901EC
:10250000EA57F54F8491F901E05CF54F1491F90118
:10251000E650F64F0491002391F081110E94AF56CE
:10252000E02FF0E0EE0FFF1FEE5EFC4FA591B4919F
:10253000EC911E2381E090E021F480E002C080E075
:1025400090E09F9367C081E090E08C0F9D1F9F9368
:102550008F938FEC92E09F938F93FF93EF930E9462
:102560007D710F900F900F900F900F900F90181695
:10257000190684F01F9281E08F938DE092E09F9383
:102580008F930E94AA3B0F900F900F900F9082E3C1
:1025900090E056C089819A8180319105C0F70E94F0
:1025A0003357CFCF8091390D8F938091380D8F9312
:1025B0008091370D8F938091360D8F938091350DDB
:1025C0008F938091340D15C080E090E00E94CE4939
:1025D000182F092F81E090E00E94CE49F82EE92EB5
:1025E00082E090E00E94CE49EF92FF920F931F93FA
:1025F0009F938F9383ED92E09F938F9387EC9CE062
:102600009F938F930E944F710FB6F894DEBF0FBE59
:10261000CDBF11C08F9381E793E09F938F9387EC99
:102620009CE09F938F930E944F710F900F900F909B
:102630000F900F900F9080E090E002C081E090E05A
:102640009C01215031092230310510F00C941F1EDD
:10265000C555DF4F28813981CB5AD040C901A0E050
:10266000B0E0CE55DF4F0880C25AD04004C0B695C6
:10267000A795979587950A94D2F780FD04CB81E0C2
:1026800090E0A0E0B0E0CE55DF4F0880C25AD040C5
:1026900004C0880F991FAA1FBB1F0A94D2F7282BCA
:1026A000392BC555DF4F39832883CB5AD0400C9442
:1026B000F505812F110F990BAA0BBB0BFC01E654FA
:1026C000F109E531F10510F00C94C41D8827EE588E
:1026D000FF4F8F4F0C941C71C0923813D092391356
:1026E000E0923A13F0923B13CE55DF4F1882C25A54
:1026F000D040D2C0C0923C13D0923D13E0923E1322
:10270000F0923F13C554DF4F3881CB5BD04031602E
:10271000C554DF4F3883CB5BD04081E04FC0C092BF
:102720004013D0924113E0924213F0924313C554E8
:10273000DF4F9881CB5BD0409260C554DF4F9883C8
:10274000CB5BD040A2E053C0C0924413D09245135B
:10275000E0924613F0924713C554DF4FB881CB5B2C
:10276000D040B460C554DF4FB883CB5BD040E3E0CA
:1027700058C0CF54DF4FF881C15BD040F09348136D
:1027800024E069C0C701B6010E94F46D609349134B
:1027900070934A1380934B1390934C1335E0CE55AE
:1027A000DF4F3883C25AD04077C0C0924D13D092C9
:1027B0004E13E0924F13F092501386E0CE55DF4F48
:1027C0008883C25AD04068C0C0925113D09252132D
:1027D000E0925313F092541397E059C0C0925513EE
:1027E000D0925613E0925713F0925813A8E0CE55AA
:1027F000DF4FA883C25AD0404FC0C0925A13D09224
:102800005B13E0925C13F0925D13CA55DF4FB88101
:10281000C65AD040B160CA55DF4FB883C65AD040BF
:10282000EAE0CE55DF4FE883C25AD04035C0C092AF
:102830005E13D0925F13E0926013F0926113CA5559
:10284000DF4FF881C65AD040F260CA55DF4FF88397
:10285000C65AD0402BE0CE55DF4F2883C25AD04015
:102860001BC0C0926213D0926313E0926413F09283
:102870006513CA55DF4F3881C65AD0403460CA55F7
:10288000DF4F3883C65AD0408CE098CF99E0CE55C0
:10289000DF4F9883C25AD040CE55DF4FA881C25A2D
:1028A000D0400A2FC155DF4FE881F981CF5AD0407F
:1028B000CF01A0E0B0E0CE55DF4F0880C25AD04033
:1028C00004C0B695A795979587950A94D2F780FF8F
:1028D00002C00C94BC1D81E693E0A0E0B0E0CE55B0
:1028E000DF4F0880C25AD04004C0B695A79597958F
:1028F00087950A94D2F780FF0BC020E030E0A90151
:10290000C701B6010E94856D87FF02C00C94BE1DF1
:1029100081E090E0A0E0B0E004C0880F991FAA1FFA
:10292000BB1F0A95D2F7C155DF4F28813981CF5A95
:10293000D040282B392BC155DF4F39832883CF5AFC
:10294000D0400C94F505CA55DF4F3881C65AD040A7
:10295000332369F0C655DF4F8881CA5AD0408111B0
:1029600006C092E0C655DF4F9883CA5AD040C15581
:10297000DF4FA881CF5AD040A5FF0FC080914913E7
:1029800090914A13A0914B13B0914C138038964903
:10299000A849B10514F00C94C01D80912F1381300B
:1029A00091F4C655DF4FF881CA5AD040F23009F091
:1029B00040C0C155DF4F2881CF5AD04020FD02C012
:1029C0000C94CA1D36C080916713811132C0C15565
:1029D000DF4F3881CF5AD04030FF1BC08091301379
:1029E000813039F523E333E34BEC51E46091381344
:1029F0007091391380913A1390913B130E94DE6FCE
:102A0000609338137093391380933A1390933B1368
:102A100010C08091741390917513A0917613B091AA
:102A200077138093381390933913A0933A13B0938C
:102A30003B13C155DF4F88819981CF5AD04090FD1B
:102A400010C08091701390917113A0917213B09186
:102A500073138093551390935613A0935713B09309
:102A6000581380912D138130B9F4C155DF4F9881EF
:102A7000CF5AD04096FD03C08CE10C941F1EC15567
:102A8000DF4FA881B981CF5AD040AF7BC155DF4F0E
:102A9000B983A883CF5AD04080913213882331F173
:102AA000813091F4B1E0CF54DF4FB883C15BD040A7
:102AB000C754DF4F1882C95BD040E2E0CE55DF4FEC
:102AC000E883C25AD04023C0CF54DF4F1882C15B85
:102AD000D040F2E0C754DF4FF883C95BD04021E01B
:102AE000CE55DF4F2883C25AD04011C032E0CF54B8
:102AF000DF4F3883C15BD04081E0C754DF4F88830C
:102B0000C95BD040CE55DF4F1882C25AD040809169
:102B10003013813049F0C655DF4F9881CA5AD040F2
:102B2000933009F043C036C0BDE2EB2EB3E1FB2E7B
:102B300000E010E0CA55DF4FA881C65AD0408A2E67
:102B4000912CA12CB12CD501C401002E04C0B69546
:102B5000A795979587950A94D2F780FF12C023E333
:102B600033E34BEC51E4F70165A576A587A590A961
:102B70000E94DE6FD7019D966D937D938D939C93FC
:102B8000D0970F5F1F4FB4E0EB0EF11C033011051F
:102B9000D1F6C1CF80913313813041F4CA55DF4F54
:102BA000E881C65AD040E43009F0ECC78CE0E9E88F
:102BB000F3E1DE01119601900D928A95E1F7C5557A
:102BC000DF4F28813981CB5AD04031FD08C01091A8
:102BD0002D131230C1F0183009F4EAC058C18091A9
:102BE0003413873018F08DE10C941F1E90916C13F4
:102BF000891769F3BE016F5F7F4F0E94833488237A
:102C000009F4D4C7E4CFCA55DF4F3881C65AD04043
:102C1000311103C08AE10C941F1EC155DF4F88811A
:102C20009981CF5AD04080759927892B09F424CFF8
:102C300060914D1370914E1380914F1390915013EA
:102C40000E948C700E94F96D673068F6809148137D
:102C5000843151F0823009F097C7C155DF4F888128
:102C6000CF5AD04087FD90C7C155DF4FA881B981A9
:102C7000CF5AD040AF7AC155DF4FB983A883CF5A1E
:102C8000D040662321F022242A94260E02C02090F0
:102C90003413BE016B5E7F4F822D0E9483348823E4
:102CA00009F484C7309048138090A1139090A21328
:102CB000A090A313B090A413ADE2CA2EA3E1DA2E24
:102CC0008E010B5E1F4FE6E6F3E1C555DF4FF9833A
:102CD000E883CB5AD040E12CF12CCA55DF4FF88164
:102CE000C65AD0404F2E512C612C712CD301C201F9
:102CF0000E2C04C0B695A795979587950A94D2F7A0
:102D000080FF3BC024E132122EC0C555DF4FA881A1
:102D1000B981CB5AD0409F962D913D914D915C91B8
:102D2000D29757966D917D918D919C915A970E9463
:102D3000AB6CF60125A536A547A550A90E94AB6C42
:102D4000D8016D937D938D939C931397B2E0EB1212
:102D500014C0A50194010E94AB6CF80160837183DB
:102D6000828393830AC0F60185A596A5A7A5B0A97D
:102D7000F80180839183A283B383FFEFEF1AFF0AE8
:102D800024E0C20ED11C0C5F1F4FC555DF4F888158
:102D90009981CB5AD0400496C555DF4F99838883DB
:102DA000CB5AD04093E0E916F10409F09FCF4CC113
:102DB000CA55DF4FA881C65AD040AA2309F42ACFAA
:102DC0008090A1139090A213A090A313B090A4138D
:102DD000F6E6CF2EF3E1DF2EFE0131961F010DE264
:102DE00013E1E12CF12C4A2E512C612C712CD301D2
:102DF000C2010E2C04C0B695A795979587950A94A5
:102E0000D2F780FF29C0D1012D913D914D915C9168
:102E1000F6016789708D818D928D0E94AB6CD8010F
:102E20009D962D913D914D915C91D0970E94AB6CF8
:102E3000F80165A776A787A790ABF2E0EF1216C05E
:102E4000A50194010E94AB6CD8019D966D937D9372
:102E50008D939C93D0970AC0F60187A590A9A1A94C
:102E6000B2A9F80185A796A7A7A7B0ABFFEFEF1A05
:102E7000FF0A24E0C20ED11C34E0230E311C0C5F8B
:102E80001F4F83E0E816F10409F0B1CFDCC0C6554E
:102E9000DF4F9881CA5AD040933009F49DC0CA557B
:102EA000DF4FA881C65AD040AA2309F4C2C00091BE
:102EB00031134090A1135090A2136090A31370900F
:102EC000A41376E6A72E73E1B72EEDE2EE2EE3E132
:102ED000FE2EFE0131964F01C12CD12C8A2F90E09D
:102EE000A0E0B0E0C555DF4F88839983AA83BB83F8
:102EF000CB5AD040C555DF4F88819981AA81BB81CB
:102F0000CB5AD0400C2C04C0B695A79597958795C1
:102F10000A94D2F780FD0BC0F5018789908DA18DB1
:102F2000B28DF70185A796A7A7A7B0AB43C017300E
:102F300009F440C001112BC0D5019F962D913D9100
:102F40004D915C91D297F40160817181828193816E
:102F50000E94AC6CD7019D962D913D914D915C9155
:102F6000D0970E94AC6CF70165A776A787A790ABB6
:102F7000F2E0CF121FC0A30192010E94AC6CD701F6
:102F80009D966D937D938D939C93D09713C0F5017F
:102F90002789308D418D528DD7019D966D917D9100
:102FA0008D919C91D0970E94AC6CF70165A776A794
:102FB00087A790ABFFEFCF1ADF0A24E0A20EB11C67
:102FC00034E0E30EF11C84E0880E911C93E0C916F6
:102FD000D10409F08FCF29C61530A9F0173071F14F
:102FE000133089F5CA55DF4FA881C65AD040A111C8
:102FF00005C0C655DF4F1882CA5AD040BE016B5E6D
:103000007F4F86E010C0CA55DF4FB881C65AD04006
:10301000B11105C0C655DF4F1882CA5AD040BE0153
:103020006B5E7F4F87E00E948334882309F4BEC51E
:103030000AC0153079F3173009F0F3C580912E13CB
:10304000823008F0A3C5212C30902E13E8E03E1208
:1030500011C0CA55DF4FF881C65AD040FF2309F48A
:1030600005C3C655DF4F2881CA5AD040213009F028
:103070008FC511C3C655DF4F3881CA5AD040323090
:1030800009F0F4C2311009C0CA55DF4F8881C65A11
:10309000D040882309F4F1C2FEC220E030E0A9014B
:1030A000609138137091391380913A1390913B13CA
:1030B0000E94856D882309F46DC593E0931538F05F
:1030C000A2E03A1690F4B1E03B1631F0E4C2E7E03A
:1030D000E31508F0BEC2DFC2CA55DF4FF881C65AF9
:1030E000D040FF2309F4C9C2D6C2CA55DF4F288198
:1030F000C65AD040222309F48DCDCE55DF4F98819A
:10310000C25AD040892F90E0C555DF4F99838883FC
:10311000CB5AD040C754DF4FB881C95BD040AB2FEA
:10312000B0E0CB54DF4FB983A883C55BD04081E0CA
:1031300090E0A0E0B0E06C017D01CE55DF4F08804B
:10314000C25AD04004C0CC0CDD1CEE1CFF1C0A94FB
:10315000D2F7C754DF4F0880C95BD04004C0880F46
:10316000991FAA1FBB1F0A94D2F7C82AD92AEA2A94
:10317000FB2A822F90E0A0E0B0E08C219D21AE21BF
:10318000BF21892B8A2B8B2B09F406C5C555DF4F30
:1031900088819981CB5AD040880F991F880F991F39
:1031A000FC01E35DFC4EDC01AA59BC4E57962D9103
:1031B0003D914D915C915A9765A576A587A590A9FB
:1031C0000E94AB6C4B015C01CB54DF4F888199812D
:1031D000C55BD040880F991F880F991FFC01E35DE4
:1031E000FC4EDC01AA59BC4E57962D913D914D9154
:1031F0005C915A9765A576A587A590A90E94AB6CAE
:10320000CA55DF4F688379838A839B83C65AD0402F
:10321000C155DF4F08811981CF5AD040007811275E
:10322000C155DF4FE881CF5AD040E7FF15C1C155E6
:10323000DF4F28813981CF5AD0402F77C155DF4FDA
:1032400039832883CF5AD0400E94CA66882311F060
:1032500081E2F5C4809130138130B1F423E333E38C
:103260004BEC51E4609151137091521380915313C0
:10327000909154130E94DE6F609351137093521318
:1032800080935313909354134090511350905213C2
:103290006090531370905413A5019401C501B401BB
:1032A0000E94DE6FC554DF4F688379838A839B83D6
:1032B000CB5BD040CA55DF4F288139814A815B8181
:1032C000C65AD040CA01B9010E94DE6FC154DF4F17
:1032D000688379838A839B83CF5BD04020E030E092
:1032E00040E850E4C301B2010E94DE6FA3019201E5
:1032F0000E94DE6FC554DF4F288139814A815B818E
:10330000CB5BD0400E94AB6CC154DF4F2881398128
:103310004A815B81CF5BD0400E94AB6C6B017C012A
:1033200020E030E0A9010E94856D87FD37C4C70108
:10333000B6010E944B706B017C01C154DF4F2881A4
:1033400039814A815B81CF5BD040C554DF4F6881B2
:1033500079818A819B81CB5BD0400E94AC6C0E94BA
:103360004B709B01AC01C701B60190580E948C6D57
:103370006B017C0133E0331204C0F7FAF094F7F8E4
:10338000F09420E030E0A901C301B2010E94856DF4
:1033900087FF0FC0F7FAF094F7F8F094D301C20159
:1033A000B0588093511390935213A0935313B0933A
:1033B0005413C555DF4F08811981CB5AD040000FF7
:1033C000111F000F111F0F5C1C4ECA55DF4F2881C3
:1033D00039814A815B81C65AD040C701B6010E943B
:1033E000DE6F9B01AC01C501B4010E94AB6C20E013
:1033F00030E040E05FE30E94DE6FD8011B966D93E2
:103400007D938D939C931E97CB54DF4F0881198138
:10341000C55BD040000F111F000F111F0F5C1C4E29
:10342000A5019401C701B6010E94DE6FCA55DF4FA6
:10343000288139814A815B81C65AD0400E94AC6C98
:1034400020E030E040E05FE30E94DE6FF801638738
:103450007487858796871FC1C554DF4FF881CB5B82
:10346000D0404F2E512C612C712CC420D520E62049
:10347000F720CD28CE28CF2809F492C3C155DF4FBD
:1034800028813981CF5AD040217FC155DF4F398300
:103490002883CF5AD04080913013813009F491C0F5
:1034A000C555DF4FE881F981CB5AD040EE0FFF1FA1
:1034B000EE0FFF1FEF5CFC4EC384D484E584F684DA
:1034C000A7019601C501B4010E94AB6C2B013C0120
:1034D000CB54DF4FE881F981C55BD040EE0FFF1F71
:1034E000EE0FFF1FEF5CFC4E83859485A585B685A6
:1034F000C555DF4F88839983AA83BB83CB5AD040BD
:103500009C01AD01CA55DF4F688179818A819B8119
:10351000C65AD0400E94AB6C4B015C01A3019201E2
:10352000C301B2010E94DE6F2B013C01A501940191
:10353000C501B4010E94DE6F9B01AC01C301B20161
:103540000E94AC6C0E944B704B015C01A70196017C
:10355000C701B6010E94DE6F6B017C01C555DF4FCC
:10356000288139814A815B81CB5AD040CA01B90197
:103570000E94DE6F9B01AC01C701B6010E94AC6CDA
:103580000E944B706B017C01609351137093521336
:1035900080935313909354139B01AC01C501B40164
:1035A0000E94AB6C4B015C01E894B7F82AE037ED60
:1035B00043EA5BE3C501B4010E94A36F181664F1EE
:1035C0006AC08DE2E82E83E1F82ED301C201002EFD
:1035D00004C0B695A795979587950A94D2F780FF72
:1035E00012C023E333E34BEC51E4D7011F966D91F6
:1035F0007D918D919C9152970E94DE6FF7016787B4
:10360000708B818B928B0F5F1F4FF4E0EF0EF11CDC
:1036100003301105D1F644CF20E030E040E05FE315
:10362000C501B4010E94A36F18160CF411CE2FE649
:1036300032E143E85AE3C701B6010E94DE6F9B0105
:10364000AC01C501B4010E94A36F18160CF400CEA2
:1036500022C0CA55DF4F2881C65AD040222309F420
:10366000D9CA0E94CA668111F3CD15C0C655DF4F75
:103670003881CA5AD04031110EC0C155DF4F888100
:103680009981CF5AD0408E7D9C7FC655DF4F1882DE
:10369000CA5AD04008C0C155DF4F88819981CF5A9E
:1036A000D0408E7D907E892B09F07CC28091491399
:1036B00090914A13A0914B13B0914C1380937913BE
:1036C00090937A13A0937B13B0937C1380912F1364
:1036D000809367138091381390913913A0913A1316
:1036E000B0913B138093741390937513A09376134A
:1036F000B0937713C0905513D0905613E0905713A2
:10370000F0905813A7019601609170137091711396
:1037100080917213909173130E94856D8823F9F044
:1037200010916F13112359F080911013823039F0EA
:103730000E94AD66B701A601812F0E941E338091C1
:10374000551390915613A0915713B091581380932D
:10375000701390937113A0937213B09373138091AD
:103760005913809378131091371380916F13811739
:10377000B9F080911013823079F0C0907013D0901E
:103780007113E0907213F09073130E94AD66B7014D
:10379000A601812F0E941E338091371380936F13EF
:1037A0001091361380916E13811781F08091101360
:1037B000823041F00E94AD66123011F45C9A02C072
:1037C0000E94BE5A8091361380936E1380912D1300
:1037D000813089F08091321380936A138091301385
:1037E00080936813C655DF4F8881CA5AD040833012
:1037F00009F074C054C080911013823059F3809046
:103800004D1390904E13A0904F13B090501320E0A2
:1038100030E040EA51E4C501B4010E94DE6F0E942D
:10382000626E0E94F96D6B017C010E94AD6620E022
:1038300030E04AE754E4C501B4010E94DE6F4B0159
:103840005C0182E38C9DB0018D9D700D112480E0A0
:1038500090E00E94256E9B01AC01C501B4010E945D
:10386000AB6C0E94626E0E94F96DCB010E944641D2
:1038700086010115110509F4ADCF0E94B23801503F
:10388000110980910F138111A5CF9FEFA0E7B2E03E
:103890009150A040B040E1F700C00000EACF809115
:1038A000331380936B13813089F48091621390916C
:1038B0006313A0916413B09165138093A113909347
:1038C000A213A093A313B093A41308C01092A11342
:1038D0001092A2131092A3131092A4138091341388
:1038E00090916C13981759F080936C138CE0FE0143
:1038F0003196A9E8B3E101900D928A95E1F78091A4
:10390000311380936913E0912D138E2F90E0FC0109
:103910003297E830F10508F060C08827E957FF4F7B
:103920008F4F0C941C71BE016B5E7F4F822D0E94E5
:10393000133680916C13281250C08CE0FE017596EE
:10394000A9E8B3E13EC0C655DF4FE881CA5AD0406E
:10395000EE2371F02091741330917513409176131A
:103960005091771300E06AE573E181E00E943C42E8
:103970002091741330917513409176135091771301
:1039800000E0BE016B5E7F4F81E00E943C42182F39
:103990008CE0FE017596ADE7B3E101900D928A953A
:1039A000E1F71CC06DE773E186E003C06DE773E1EA
:1039B00087E00E94133611C08CE0EAE5F3E1A5E947
:1039C000B3E101900D928A95E1F707C08CE0E5E93B
:1039D000F3E1DF011D928A95E9F710E080912E1343
:1039E00080936613883009F470C0C655DF4FB881E4
:1039F000CA5AD040B23009F068C090E088309105D2
:103A000008F05AC0FC0140907413509075136090F8
:103A10007613709077138827E157FF4F8F4F0C94E0
:103A20001C7100E0A30192016AE573E180E007C028
:103A300000916713A30192016AE573E181E00E949E
:103A40003C42182F39C060915113709152138091EC
:103A50005313909154138824839409C06091511397
:103A6000709152138091531390915413812CCF5421
:103A7000DF4FA880C15BD040C754DF4FC880C95B0F
:103A8000D040CE55DF4FE880C25AD0400091671336
:103A9000A30192010E949E670FC000E001C001E0F7
:103AA00020E004C000E001C001E021E04091671384
:103AB000C301B2010E9408678CE0EAE5F3E1ADE7DB
:103AC000B3E101900D928A95E1F7809135138093CF
:103AD0006D13882309F468C00E94AD6690916D1340
:103AE00080911013913069F48230E9F19FB7F89416
:103AF0008091BE1288608093BE129FBF0E94B23830
:103B000032C091E09093661310926A131092691379
:103B10001092671310926C1310926F1310926E1321
:103B20008230A9F0BE016F5F7F4F80E00E94833436
:103B30008823E1F18CE0FE013196A9E8B3E1019020
:103B40000D928A95E1F70E9417330E94BE5A8BEDC1
:103B500098E00E94413C8FE798E00E94413C88E653
:103B600098E00E94413C10926D131EC081E067C036
:103B700082E065C088E163C089E161C084E05FC024
:103B80008BE15DC085E25BC084E159C08EE157C026
:103B90008FE155C086E153C080E251C082E24FC040
:103BA00083E24DC084E24BC0812F49C087E047C00B
:103BB000AEE16A16710411F40C94C60C38F5EAE013
:103BC0006E16710411F40C94A20CFCE16F167104D2
:103BD00011F40C94AF0C87E132C09CE569167104B6
:103BE00011F00C94210EA1E0C655DF4FA883CA5AEC
:103BF000D0404114510439F0BAE04B16510421F67B
:103C000089E00C94CA0C88E00C94CA0C25E3621677
:103C1000710411F40C94E60C3CE56316710449F34D
:103C2000DACF133009F00FCAE4C9153009F4F7C927
:103C3000173009F403CA133009F005CADFC9C653A7
:103C4000DF4F0FB6F894DEBF0FBECDBFDF91CF912F
:103C50001F910F91FF90EF90DF90CF90BF90AF90AA
:103C60009F908F907F906F905F904F903F902F909C
:103C700008958091FD1282FF08C08A988091080102
:103C80008E7F809308015F9807C08A9A809108010F
:103C90008160809308015F9A0E94AF2710922B0DDC
:103CA00008952F923F924F925F926F927F928F92E0
:103CB0009F92AF92BF92CF92DF92EF92FF920F93BB
:103CC0001F93CF93DF93CDB7DEB7CA55D1090FB697
:103CD000F894DEBF0FBECDBFFB018E3A28E09207FD
:103CE00008F048C08C3A38E0930708F01EC78B34C0
:103CF000A8E09A0709F4BCC1F0F4833E27E09207DC
:103D000009F47EC160F48231910509F479C18C3CDB
:103D1000910509F414C1419709F070C072C089344B
:103D2000A8E09A0709F48CC108F091C18834984042
:103D300009F442C163C0823A38E0930709F412C221
:103D400078F48A39B8E09B0709F4C8C18B3928E0B8
:103D5000920709F4EAC18939984009F04FC099C126
:103D6000863AA8E09A0708F4E0C6873A984009F432
:103D700034C244C0813C28E0920709F496C3E0F4C1
:103D8000883BA8E09A0709F433C350F48E3A28E040
:103D9000920709F427C2873B984009F417C32EC045
:103DA0008A3BA8E09A0709F4C0C608F431C3803CF6
:103DB000984009F44FC322C08B3639E0930709F4C9
:103DC0001FC570F48136B9E09B0709F4B8C48A3680
:103DD00029E0920709F4CCC48036994079F4C9C32C
:103DE0008437A9E09A0709F481C58537B9E09B07B4
:103DF00009F4D4C58C36994009F431C581E090E0CE
:103E000096C68091FD1282FF08C08A9A80910801AF
:103E10008160809308015F9A07C08A9880910801A9
:103E20008E7F809308015F980E94BA278FE080936D
:103E30002B0D8EE1EFE0F3E1DF011D928A95E9F7AA
:103E40000E945A3C0E94115A80E090E00E94204A51
:103E50006093070D7093080D8093090D90930A0DE0
:103E600081E090E00E94204A60930B0D70930C0D4E
:103E700080930D0D90930E0D82E090E00E94204AF9
:103E800060930F0D7093100D8093110D9093120D90
:103E900000911313109114132091151330911613E0
:103EA0000093130D1093140D2093150D3093160DE0
:103EB00000911713109118132091191330911A13B0
:103EC0000093170D1093180D2093190D30931A0DB0
:103ED00000911B1310911C1320911D1330911E1380
:103EE00000931B0D10931C0D20931D0D30931E0D80
:103EF00020E030E044EB52E40E94AB6C7B018C018B
:103F000020910B0D30910C0D40910D0D50910E0D27
:103F10006091070D7091080D8091090D90910A0D27
:103F2000E7E28E2EEDE09E2EF3E2AF2EFDE0BF2EF7
:103F3000AFE1CA2EADE0DA2E0E940548F6C58E012B
:103F40000F5F1F4F1F930F9386E893E09F938F930C
:103F5000FF936F930E947D710F900F900F900F90C1
:103F60000F900F90181619060CF098C41D8A1E8A1F
:103F70001F8A188EAE014B5E5F4F60E070E0C80193
:103F80000E9451418823C9F14D895E896F89788DDE
:103F900088E70E9481334D895E896F89788D89E732
:103FA0000E9481334D895E896F89788D8AE70E94EE
:103FB00081330E94AC35B9C58E010F5F1F4F1F932F
:103FC0000F9381E993E09F938F93FF936F930E94E8
:103FD0007D710F900F900F900F900F900F9018160B
:103FE00019060CF05BC4AE014B5E5F4F60E070E001
:103FF000C8010E945141811105C082E390E097C53C
:1040000038DE93C520E030E04AE754E46D897E89CC
:104010008F89988D0E94DE6F0E94F46D1616170628
:104020007CF47093C50C6093C40C11E01093C60C23
:104030008091C30C811179C50BD71093C30C75C542
:104040001092C60C1092C50C1092C40C6EC58081E3
:10405000863599F681818053823078F610922F0D43
:10406000813019F010922E0D60C580932E0D5DC524
:104070008081863509F0C1CF81818053823008F07C
:10408000BCCF813019F01092330D4FC58093330DA2
:104090004CC580818E3409F0B0CF9181905394301B
:1040A00008F0ABCF923061F0933099F080912B0DF6
:1040B000913019F05F9A846024C08A9A816021C08F
:1040C0008091080181608093080180912B0D8260AE
:1040D00018C050D780912B0D886013C080818E341A
:1040E00009F08BCF91819053943008F086CF9230B5
:1040F00071F09330A9F080912B0D913029F05F98E9
:104100008B7F80932B0D11C58A988E7FFACF80917B
:1041100008018E7F8093080180912B0D8D7FF1CF58
:104120001ED780912B0D877FECCF80818E3409F0D4
:1041300064CF81818053843008F05FCF90912B0D44
:10414000823051F0833059F0813019F090FF37C13F
:1041500033C191FD31C133C192FD2EC130C193FFF6
:104160002EC12AC11AA619A61D8A1E8A1F8A188E58
:104170008E010F5F1F4F8AE0D8011D928A95E9F7E3
:10418000CE0189969F938F931F930F938AE993E0B3
:104190009F938F93FF936F930E947D710FB6F89456
:1041A000DEBF0FBECDBF02970CF478C3AE014B5EED
:1041B0005F4F60E070E0C8010E945141882309F41C
:1041C0001CCF2D893E894F89588D69A57AA5072E68
:1041D000000C880B990B57D6A8C48FEF0E94A3340C
:1041E000CAD5A3C465961CAE1DAE1EAE1FAE6597A4
:1041F00061961CAE1DAE1EAE1FAE61972D961CAE15
:104200001DAE1EAE1FAE2D9784E16E0129E2C20ED7
:10421000D11CD601282F1D922A95E9F77E0135E1A0
:10422000E30EF11CD701282F1D922A95E9F7DE0134
:1042300011965D011D928A95E9F78E010B5A1F4F69
:104240008FEF90E0D8018D939C931F930F93BF92B3
:10425000AF92FF92EF92DF92CF9286EA93E09F9324
:104260008F93FF936F930E947D710FB6F894DEBF1A
:104270000FBECDBF03970CF411C3AE014F5A5F4F71
:1042800060E070E0C6010E945141882309F4B5CE78
:10429000AE01435B5F4F60E070E0C7010E94514197
:1042A000882309F4AACEAE01475B5F4F60E070E05F
:1042B000C5010E945141882309F49FCED8018D91F8
:1042C0009C910097D9F1019709F097CE6596CCACF7
:1042D000DDACEEACFFAC659720E030E044EB52E49F
:1042E00061966CAD7DAD8EAD9FAD61970E94AB6C5C
:1042F00021EE3EE245E652E40E948C6D4B015C01EA
:104300000E94896D9B01AC01C701B6010E94DE6F5E
:1043100065966CAF7DAF8EAF9FAF6597C501B40159
:104320000E9441709B01AC01C701B6010E94DE6F83
:1043300061966CAF7DAF8EAF9FAF6197AE01475B6B
:104340005F4FBE01635B7F4FCE018F5A9F4F0E942C
:10435000722B2D96ECACFDAC0EAD1FAD2D9761967A
:104360002CAD3DAD4EAD5FAD619765966CAD7DAD4D
:104370008EAD9FAD6597FE01FD964F01DE01AF5BEF
:10438000BF4F5D0138966F010E944F462196ECACFD
:10439000FDAC0EAD1FAD219725962CAD3DAD4EADBC
:1043A0005FAD259729966CAD7DAD8EAD9FAD2997FC
:1043B0000E94EA48882319F065E973E002C061E8C9
:1043C00073E087EC9CE00E944871AFC38081863522
:1043D00009F013CE81818053823008F00ECE8130F7
:1043E00011F0C4D4A2C39C9A9D9AA49AA5989DC387
:1043F0008081863509F001CE81818053823008F0BA
:10440000FCCD813011F0AFD490C33F9A47988DC353
:104410008081863509F0F1CD81818053823008F0AA
:10442000ECCD813011F08ED480C380910101806287
:10443000809301018091010180648093010180914A
:104440000201806280930201809102018064809366
:1044500002016BC3CE0101969F938F9344969F9365
:104460008F9388EC93E09F938F93FF936F930E94B9
:104470007D710FB6F894DEBF0FBECDBF02970CF46E
:104480000DC28D899E898634910508F0B6CD2981AB
:104490003A812230310508F0B0CD232B11F061E0D4
:1044A00001C060E00E94055740C3CE0101969F9372
:1044B0008F9344969F938F9388EC93E09F938F9371
:1044C000FF936F930E947D710FB6F894DEBF0FBE0D
:1044D000CDBF02970CF4E2C18D899E898634910587
:1044E00008F08BCD29813A812230310508F085CD45
:1044F000FC01E05CF54F8650964F232BD1F02491C0
:10450000FC018491882309F410C390E0880F991F5F
:10451000FC01E455F84FA591B491FC01E052F64F2F
:10452000859194918FB7F894EC91E22BEC938FBF27
:10453000FCC22491FC018491882309F4F6C290E026
:10454000880F991FFC01E455F84F45915491FC01E7
:10455000E052F64FA591B4919FB7F894FA0180818B
:104560002095822380838C91E22FE823EC939FBFD8
:10457000DCC28081833509F040CD8181E0EDE80F18
:10458000E83008F03ACD8E2F90E0FC013197E7300B
:10459000F10530F48827E956FF4F8F4F0C941C71BA
:1045A000DED41092FA0C1092F90C8AE999E1A5E98F
:1045B000B2E48093FF0C9093000DA093010DB09393
:1045C000020D8AE999E9A2E6B2E4B0C0C8D481E05C
:1045D00090E09093FA0C8093F90C86EF98E2ACE4AB
:1045E000B2E48093FF0C9093000DA093010DB09363
:1045F000020D8DEC9CECA0E8B2E498C0B0D482E04F
:1046000090E09093FA0C8093F90C89E29CEDA4E978
:10461000B2E48093FF0C9093000DA093010DB09332
:10462000020D80E090E0A2E6B2E480C098D483E07E
:1046300090E09093FA0C8093F90C80E090E0ACE26B
:10464000B2E48093FF0C9093000DA093010DB09302
:10465000020D80E090E0ABE8B2E468C080D484E072
:1046600090E09093FA0C8093F90C80E090E0ACE13C
:10467000B2E48093FF0C9093000DA093010DB093D2
:10468000020D80E090E0A9E9B2E417C068D485E0AB
:1046900090E09093FA0C8093F90C8DEC9CECA2E9DD
:1046A000B2E48093FF0C9093000DA093010DB093A2
:1046B000020D80E090E0A8E9B2E48093FB0C9093B7
:1046C000FC0CA093FD0CB093FE0C8DD597C047D485
:1046D00086E090E09093FA0C8093F90C86E696E6DB
:1046E000AAE9B2E48093FF0C9093000DA093010D12
:1046F000B093020D80E090E0AAE5B2E417C02FD499
:1047000087E090E09093FA0C8093F90C85E89BEE9B
:10471000ABECB1E48093FF0C9093000DA093010DDE
:10472000B093020D80E090E0A2E3B2E48093FB0C32
:104730009093FC0CA093FD0CB093FE0C5FC080E046
:1047400090E00E94CE499093370D8093360D81E022
:1047500090E00E94CE499093390D8093380D82E00D
:1047600090E00E94CE499093350D8093340DDBC1CB
:1047700060911B1370911C1380911D1390911E1357
:104780000E94276E2B013C01609117137091181342
:104790008091191390911A130E94276E6B966CAF3B
:1047A0007DAF8EAF9FAF6B97609113137091141311
:1047B00080911513909116130E94276E9E012F5F12
:1047C0003F4F4901DE0155965D01FE01B9966F012B
:1047D000830172016B962CAD3DAD4EAD5FAD6B9715
:1047E0000E94C62C89819A81AB81BC818093FF0C89
:1047F0009093000DA093010DB093020DEAD295C1E4
:104800001D8A1E8A1F8A188E8E010F5F1F4F84E13A
:10481000D8011D928A95E9F71F930F938FEC93E0CF
:104820009F938F93FF936F930E947D710F900F90D2
:104830000F900F900F900F90181619067CF5AE018F
:104840004B5E5F4F60E070E0C8010E9451418823D9
:1048500009F4D3CB8D899E89AF89B88D67CF1D8A26
:104860001E8A1F8A188E8E010F5F1F4F84E1D801A8
:104870001D928A95E9F71F930F938AED93E09F931A
:104880008F93FF936F930E947D710F900F900F9005
:104890000F900F900F901816190674F01F9281E078
:1048A0008F938DE092E09F938F930E94AA3B0F908D
:1048B0000F900F900F90A1CBAE014B5E5F4F60E069
:1048C00070E0C8010E945141882309F496CB8D897C
:1048D0009E89AF89B88D8093030D9093040DA093AA
:1048E000050DB093060D75D27ED41FC18081803531
:1048F00009F083CB81818053833008F07ECB8130F7
:10490000D9F0823091F180E090E00E94CE499093FE
:10491000470D8093460D81E090E00E94CE49909330
:10492000490D8093480D82E090E00E94CE4990931B
:104930004B0D80934A0DF9C080E090E00E94CE4973
:104940009093410D8093400D81E090E00E94CE490C
:104950009093430D8093420D82E090E00E94CE49F7
:104960009093450D8093440DE0C080E090E00E945C
:10497000CE4990933B0D80933A0D81E090E00E94E8
:10498000CE4990933D0D80933C0D82E090E00E94D3
:10499000CE4990933F0D80933E0DC7C06091460D68
:1049A0007091470D0091480D1091490D9B01202BEE
:1049B000312B80914A0D90914B0D822B932B892B9B
:1049C00019F485EE93E015C0E090400DF090410D94
:1049D0006090420D7090430D2090440D3090450D35
:1049E000C7018629972982299329892B49F48BEEBF
:1049F00093E09F938F930E94AA3B0F900F90FDCA64
:104A0000C0903A0DD0903B0D40903C0D50903D0D24
:104A100096012429352980913E0D90913F0D822BDE
:104A2000932B892B19F481EF93E0E3CF80E090E0A2
:104A30000E94256E24EE35E24EE652E40E94AC6CF4
:104A40004B015C01B60180E090E00E94256E20E3FE
:104A50003CE44AEB52E40E94AC6C9B01AC01C50102
:104A6000B4010E94AC6C4B015C01B70180E090E0A6
:104A70000E94256E9B01AC01C501B4010E94AC6C83
:104A800020E030E040E450E40E948C6D20E030E013
:104A900040E05FE30E94AC6C0E94F96D7093370DAB
:104AA0006093360DB80180E090E00E94256E2CE9FD
:104AB0003DE241E853E40E94AB6C6B017C01B20122
:104AC00080E090E00E94256E24E53AE146E953E457
:104AD0000E94AC6C9B01AC01C701B6010E94AC6C9A
:104AE0006B017C01B30180E090E00E94256E9B0188
:104AF000AC01C701B6010E94AC6C20E030E040E49C
:104B000050E40E948C6D20E030E040E05FE30E94C2
:104B1000AC6C0E94F96D7093390D6093380D309232
:104B2000350D2092340D0E94D34A80E090E0C65AA1
:104B3000DF4F0FB6F894DEBF0FBECDBFDF91CF9130
:104B40001F910F91FF90EF90DF90CF90BF90AF90AB
:104B50009F908F907F906F905F904F903F902F909D
:104B600008952091710D3091720D21153105B9F024
:104B70008091800D9091810D8217930734F40196F6
:104B80009093810D8093800D0AC01092810D109238
:104B9000800D1092720D1092710D10922C0D2091BB
:104BA000C40C3091C50C21153105A1F080917E0D0A
:104BB00090917F0D8217930734F4019690937F0DA7
:104BC00080937E0D07C010927F0D10927E0D81E0C4
:104BD00080932D0D80912C0D81111BC08091C60CEE
:104BE000811117C0809173008E7F809373001092A3
:104BF000C30C1092720D1092710D1092C50C109290
:104C0000C40C1092810D1092800D10927F0D1092A5
:104C10007E0D089580917D0D811107C081E0809304
:104C20007D0D80910B01806205C010927D0D8091F9
:104C30000B018F7D80930B0180917B0D90917C0DFA
:104C40009C012F5F3F4F30937C0D20937B0D209173
:104C50000402309105022817390748F410927C0DA0
:104C600010927B0D809170008E7F8093700008956C
:104C7000E9EFFCE081E080AF17AA87EF93E09F9314
:104C80008F930E94AA3B0F900F900895CF93DF93CC
:104C9000EB018431D1F028F4882361F08C30A8F442
:104CA00037C08233E9F018F4873190F10EC08333B6
:104CB00011F10BC08881882329F06AE074E0CE01ED
:104CC0000E943D716CE074E020C08881882329F047
:104CD0006AE074E0CE010E943D716FE074E015C09F
:104CE0008881882329F06AE074E0CE010E943D713A
:104CF00063E174E00AC08881882329F06AE074E0E7
:104D0000CE010E943D7167E174E0CE010E943D71C9
:104D10008091C70C882379F067EC7CE0CE010E947B
:104D20003D7182E3E7ECFCE0DF011D928A95E9F733
:104D3000DF91CF91089569EE73E0CE01DF91CF91BD
:104D40000C943D71E1E0F1E080818062808380819C
:104D500080648083E2E0F1E080818F7D80838081C8
:104D60008F7B808308953F9A479A08959C9A9D9AD5
:104D7000A498A59A089580910401877880930401EE
:104D8000809103018877803451F46BE174E083E70C
:104D90009DE00E94487140E050E0BA010EC0809151
:104DA0000301887769F462E274E083E79DE00E9482
:104DB000487140E050E060EE70E483E00E9481338F
:104DC00040E050E060E87FE384E00E9481330C948F
:104DD000AC350F931F93CF93DF936091F90C84E868
:104DE00093E00E94175A6091FA0C85E893E00E94C4
:104DF000175ACBEFDCE088E993E069918C010F5FF3
:104E00001F4F0E94175AC8010C391340B1F7CFEF5A
:104E1000DCE08EE893E069918C010F5F1F4F0E94E8
:104E2000175AC80102391340B1F7C3E0DDE082E848
:104E30009CE069918C010F5F1F4F0E94175AC801B7
:104E400006381C40B1F7DF91CF911F910F91089563
:104E5000E0E6F2E181EB95E29183808310922001FC
:104E600085E08093210181EF9FEF9383828382818C
:104E700093819093250180932401E3E7F0E0808102
:104E8000816080830895CF92DF92EF92FF920F931B
:104E90001F93CF93DF9369017A01EAE0F1E020816B
:104EA00020622083EBE0F1E020812F7D2083660FDC
:104EB000771F709305026093040209E512E18AE00E
:104EC00096E2F80191838083C0E7D0E088818E7FED
:104ED0008883E0EBF0E080818C7F8083E1EBF0E081
:104EE0008081877F8083A6EBB0E08C918F7D8C934F
:104EF00088818D7F888380818460808380818C7F9E
:104F0000808320E034E244EF59E4C701B6010E94F7
:104F10008C6D20E034E244E75BE40E94DE6F20E029
:104F200030E040E85CE30E94DE6F0E94F46D20E018
:104F300031E0C901861B970BF8019383828382813C
:104F400093818093B200888181608883DF91CF91C3
:104F50001F910F91FF90EF90DF90CF900895E2E7BF
:104F6000F0E080818E7F80831092300D80818E7F73
:104F7000808308958091F90C9091FA0C0497029720
:104F8000B0F580910101806280930101809101015F
:104F9000806480930101809102018F7D80930201E2
:104FA000809102018F7B8093020181E2ECE4FDE0BD
:104FB000DF011D928A95E9F7F8941092A0001092F3
:104FC000A1001092A5001092A40080E496E09093B6
:104FD000A9008093A8008091A10088608093A1001F
:104FE0008091A10083608093A1007894089580E16E
:104FF0008093A1001092A00082E08093BD1280E215
:105000009EE49093BC128093BB129093A700809370
:10501000A60082E18093A10020E030E040EA51E464
:10502000609100027091010280910202909103024E
:105030000E948C6D20E030EC4FE754E40E94DE6F5C
:105040000E94F96DCB010C946E568F929F92AF9295
:10505000BF92CF92DF92EF92FF926B017C014901E8
:105060005A0120E030E048E453E4C501B4010E9455
:10507000A36F18166CF020E030E0A901C501B4015F
:105080000E94856D87FF0AC0812C912C540106C0B7
:10509000812C912C88E4A82E83E4B82E8091F90C01
:1050A0009091FA0C8430910529F426E636E646E61E
:1050B0005FE306C0059799F426E636E646EE5FE321
:1050C000C701B6010E948C6D20E030E040E852E458
:1050D0000E94DE6F0E94F46D6B017C0103C0C12C45
:1050E000D12C76018091640D9091650DA091660D93
:1050F000B091670D0297A105B1050CF06BC081E27C
:10510000ECE4FDE0DF011D928A95E9F7D701C601C5
:10511000F7FE07C088279927DC018C199D09AE0985
:10512000BF098093500D9093510DA093520DB093F1
:10513000530D8093540D9093550DA093560DB0933D
:10514000570DA501940160E070E086E993E40E94A8
:10515000AB6C0E94F46D6093600D7093610D809351
:10516000620D9093630D80E496E0A0E0B0E0809340
:105170005C0D90935D0DA0935E0DB0935F0D88E381
:1051800096E290936A0D8093690D809102011C1440
:105190001D041E041F0414F48F7D01C080628093DF
:1051A00002011092640D1092650D1092660D10921E
:1051B000670D80915C0D90915D0DA0915E0DB09199
:1051C0005F0D9093A9008093A80080917200826087
:1051D00080937200FF90EF90DF90CF90BF90AF90E0
:1051E0009F908F900895CF93C1E0C093310D80912F
:1051F000F90C9091FA0C04970297F8F4809107014A
:105200008F7D80930701809108018062809308015F
:105210001092310D10926D0D10926E0D10926F0D57
:105220001092700D20E030E048E452E460E070E05D
:1052300084EB93EC0ADFC093300DCF910895CF92A9
:10524000DF92EF92FF926B017C0120E030E044E3BB
:1052500053E40E94A36F181684F020E030E0A90107
:10526000C701B6010E94856D87FF0AC0C12CD12CF1
:1052700084E3E82E83E4F82E03C0C12CD12C760100
:10528000A701960160E070E084E393E40E94AB6CB8
:1052900020E030E044E353E40E948C6D9B01AC01BC
:1052A0000E94AC6C20E030E040E05FE30E94AC6C18
:1052B00060930002709301028093020290930302B4
:1052C00020E030E040EA51E40E948C6D20E030ECB8
:1052D0004FE754E40E94DE6F0E94F96DCB01FF900E
:1052E000EF90DF90CF900C946E56CF93DF93D82F32
:1052F000C8E05E98559AD7FF02C05D9A01C05D98DC
:1053000065E070E080E090E00E9408415E9A65E010
:1053100070E080E090E00E9408415E98DD0F65E05B
:1053200070E080E090E00E940841C15011F762E017
:1053300070E080E090E00E940841559A5D9A62E03A
:1053400070E080E090E0DF91CF910C9408415E988E
:10535000559A5D9865E070E080E090E00E94084119
:105360005E9A65E070E080E090E00E940841559A06
:105370005D9A65E070E080E090E00C940841CF9386
:10538000559A5D9A62E070E080E090E00E940841EA
:105390005E9A62E070E080E090E00E9408415598DB
:1053A0008BEF99B1C92FC07295FF05C08150C9F725
:1053B000CEDFC1E007C05E9862E070E080E090E080
:1053C0000E9408418C2FCF910895559A5D9A5E9A5C
:1053D00065E070E080E090E00E940841559A5D9899
:1053E00065E070E080E090E00E9408415E9862E035
:1053F00070E080E090E00C940841CF93DF93D82FC9
:10540000C8E0809102018F778093020180910101B1
:1054100084608093010180910201D7FF02C0846003
:1054200001C08B7F8093020165E070E080E090E036
:105430000E9408418091020180688093020165E02A
:1054400070E080E090E00E940841809102018F7737
:1054500080930201DD0F65E070E080E090E00E9443
:105460000841C15071F662E070E080E090E00E9477
:1054700008418091010184608093010180910201C3
:1054800084608093020162E070E080E090E0DF9150
:10549000CF910C9408410F931F93CF93DF93C2E0F9
:1054A000D1E088818F77888301E011E0F801808165
:1054B0008460808388818B7F888365E070E080E0F2
:1054C00090E00E94084188818068888365E070E0F0
:1054D00080E090E00E940841F80180818460808330
:1054E00088818460888365E070E080E090E0DF91EF
:1054F000CF911F910F910C940841CF93809101019E
:105500008460809301018091020184608093020194
:1055100062E070E080E090E00E940841809102012A
:1055200080688093020162E070E080E090E00E9479
:105530000841809101018B7F809301018BEF909155
:105540000001C92FC47092FF05C08150C1F7A3DFCD
:10555000C1E00BC0809102018F778093020162E06D
:1055600070E080E090E00E9408418C2FCF91089578
:105570000F931F93CF93DF9301E011E0F801808137
:1055800084608083C2E0D1E08881846088838881E0
:105590008068888365E070E080E090E00E940841C8
:1055A000F80180818460808388818B7F888365E0B7
:1055B00070E080E090E00E94084188818F778883C6
:1055C00062E070E080E090E0DF91CF911F910F9159
:1055D0000C940841CF93DF93D82FC8E04398399AB1
:1055E000D7FF02C0419A01C0419865E070E080E0B9
:1055F00090E00E940841439A65E070E080E090E00E
:105600000E9408414398DD0F65E070E080E090E083
:105610000E940841C15011F762E070E080E090E024
:105620000E940841399A419A62E070E080E090E07F
:10563000DF91CF910C9408414398399A419865E0E5
:1056400070E080E090E00E940841439A65E070E0DD
:1056500080E090E00E940841399A419A65E070E04C
:1056600080E090E00C940841CF93399A419A62E02F
:1056700070E080E090E00E940841439A62E070E0B0
:1056800080E090E00E94084139988BEF96B1C92FD5
:10569000C27091FF05C08150C9F7CEDFC1E007C0DD
:1056A000439862E070E080E090E00E9408418C2F17
:1056B000CF910895399A419A439A65E070E080E06D
:1056C00090E00E940841399A419865E070E080E0DE
:1056D00090E00E940841439862E070E080E090E032
:1056E0000C9408414F925F926F927F92AF92BF925B
:1056F000CF92DF92EF92FF920F931F93CF93DF939E
:105700005C01EB018A01FC01408051806280738062
:1057100020E030E0A901C301B2010E94856D20E0C4
:1057200030E0A901811111C0688179818A819B8152
:105730000E94A36F1816E4F02AEDC22E2FE0D22E9D
:1057400029ECE22E2FEBF22E22C0C301B2010E94FF
:10575000856D87FD16C0A3019201688179818A81D8
:105760009B810E948C6D0E944A6D6B017C010FC071
:105770009AEDC92E9FE0D92E99ECE92E9FE3F92EE0
:1057800006C0C12CD12C80ECE82E8FE7F82EC70183
:10579000B6010E94896D2091FB0C3091FC0C409168
:1057A000FD0C5091FE0C0E94DE6F9B01AC01C30109
:1057B000B2010E94AB6CF501608371838283938395
:1057C000C701B6010E9441702091FB0C3091FC0C86
:1057D0004091FD0C5091FE0C0E94DE6F9B01AC01CC
:1057E000688179818A819B810E94AB6C688379830F
:1057F0008A839B832091FF0C3091000D4091010D15
:105800005091020DF80160817181828193810E9423
:10581000AC6CF8016083718382839383DF91CF91B5
:105820001F910F91FF90EF90DF90CF90BF90AF90BE
:105830007F906F905F904F9008954F925F926F921C
:105840007F92AF92BF92CF92DF92EF92FF920F932F
:105850001F93CF93DF935C01EB018A01FC01408031
:1058600051806280738020E030E0A901C301B20161
:105870000E94856D20E030E0A901811111C068818E
:1058800079818A819B810E94A36F1816E4F02AED2A
:10589000C22E2FE0D22E29ECE22E2FEBF22E22C0C8
:1058A000C301B2010E94856D87FD16C0A30192015C
:1058B000688179818A819B810E948C6D0E944A6DEA
:1058C0006B017C010FC09AEDC92E9FE0D92E99EC97
:1058D000E92E9FE3F92E06C0C12CD12C80ECE82ED6
:1058E0008FE7F82EC701B6010E94896D2091FB0C4D
:1058F0003091FC0C4091FD0C5091FE0C0E94DE6F2B
:10590000A30192010E94AC6CF501608371838283D4
:105910009383C701B6010E9441702091FB0C309126
:10592000FC0C4091FD0C5091FE0C0E94DE6F9B011F
:10593000AC01688179818A819B810E94AC6C68830B
:1059400079838A839B832091FF0C3091000D4091D5
:10595000010D5091020DF801608171818281938166
:105960000E94AB6CF8016083718382839383DF9123
:10597000CF911F910F91FF90EF90DF90CF90BF904C
:10598000AF907F906F905F904F9008952F923F92CD
:105990004F925F926F927F928F929F92AF92BF923F
:1059A000CF92DF92EF92FF920F931F93CF93DF93EB
:1059B000CDB7DEB728970FB6F894DEBF0FBECDBFC8
:1059C0002B013C0129833A834B835C83ED82FE8269
:1059D0000F831887860189EF282E8CE0382E20E06F
:1059E00030E044EB52E4F10166897789808D918D36
:1059F0000E94AB6C6B017C0120E030E040EA52E495
:105A00006D817E818F8198850E948C6D9B01AC0198
:105A1000C701B6010E94AC6C6D837E838F8398872B
:105A200020E030E040EA52E469817A818B819C81F8
:105A30000E948C6DF10122893389448955890E9425
:105A4000AC6C69837A838B839C8320E030E040EAEE
:105A500052E4C301B2010E948C6DF10126853785A5
:105A6000408951890E94AC6C6801ED80FE800F81F5
:105A7000188529813A814B815C810E9405482896CE
:105A80000FB6F894DEBF0FBECDBFDF91CF911F914F
:105A90000F91FF90EF90DF90CF90BF90AF909F90CD
:105AA0008F907F906F905F904F903F902F900895D0
:105AB00069E080E090E00E94175A4DE450E060EC0D
:105AC00072E181E098E00C94395ACF92DF92EF9224
:105AD000FF920F931F939091F112092F10E020E095
