:100000006CC500008BC5000089C5000087C50000D5
:1000100085C5000083C5000081C500007FC50000C4
:100020007DC500000C94B15F79C500000C94585553
:1000300075C5000073C5000071C500000C94654DC6
:100040006DC500000C941E4569C5000067C5000021
:1000500065C5000063C5000061C500000C944B44F9
:100060005DC500000C94FC580C94EB5957C500007A
:1000700055C5000053C5000051C500004FC5000024
:100080004DC500004BC5000049C500000C944F4D04
:100090000C9495580C94BD5941C500003FC5000013
:1000A0003DC500003BC500000C94AD4737C50000BE
:1000B00035C500000C94144D31C500002FC500005B
:1000C0002DC500002BC500000C94DF4C0C942E585D
:1000D0000C948F5923C500000C94C7570C94615998
:1000E0001DC50000CE13D113E713EA13ED13F0136F
:1000F000F313C214021F021FD014E514FA140F15D3
:10010000021F1815021F2B15021F3A154415A415BE
:10011000021F021F021F5B1575158F15D11DE11DF2
:10012000101EE11D141E2B1E1A1E241E4F1E561ECD
:10013000611E6C1E8B1E8D1E901E921E3D27552724
:100140006D2785279D27BE27D627574C5A4C494CEB
:100150004D4C534C914C5E4C624C684C6C4C704C0A
:10016000764C7A4C7E4C914C844C884C8C4CFC5593
:100170000256055608560D5615561D568A568A566D
:100180008A562556285631563A568A568A568A56DF
:100190008A568A568A5642564C5658566256655664
:1001A0006E5677567D56084AD73B3BCE016E84BCCF
:1001B000BFFDC12F3D6C74319ABD56833DDA3D00C1
:1001C000C77F11BED9E4BB4C3E916BAAAABE00000A
:1001D00000803F072C7AA5BA6CC590DA3B9365FC8A
:1001E0008BBC53F810FD3C5692834DBD879D3AB6AB
:1001F0003DCBC9BF5BBE73DA0FC93F05A84CCDB27A
:10020000D44EB93836A9020C50B9918688083CA65C
:10021000AAAA2ABE000000803F0000407A10F35ACC
:1002200000A0724E18090010A5D4E80000E8764836
:10023000170000E40B54020000CA9A3B000000E1E2
:10024000F505000080969800000040420F00000075
:10025000A08601000000102700000000E803000055
:1002600000006400000000000A000000000001001F
:10027000000000002C76D888DC674F0823DFC1DF40
:10028000AE59E1B1B796E5E3E453C63AE651997643
:1002900096E8E6C28426EB898C9B62ED407C6FFC7D
:1002A000EFBC9C9F40F2BAA56FA5F490055A2AF7BF
:1002B0005C936B6CF9676DC11BFCE0E40D47FEF5C8
:1002C00020E6B500D0ED902E030094357705008030
:1002D000841E080000204E0A000000C80C3333338F
:1002E000330F986E12831141EF8D2114893BE6552F
:1002F00016CFFEE6DB18D1844B381BF77C1D901D12
:10030000A4BBE424203284725E228100C9F124EC73
:10031000A1E53D276364696E6F70737578585B0063
:10032000000020002300260029002C002F003200AE
:10033000000100000301060109010D0A003D00242F
:100340004E005D0D0A005B302E396A2E3230313698
:10035000303732363A005D0D0A005B544C4F3A009C
:100360005D0D0A002C005B4739323A005D0D0A0032
:100370002C003A003330003238005B47005D0D0A34
:1003800000205300204600205400204D3800204D0E
:100390003900204D3500204D3400204D3300204DD4
:1003A0003200204D3100204D3000204739340020EC
:1003B0004739330020473931002047393000204782
:1003C0003230002047323100204731390020473198
:1003D000380020473137002047004733382E004788
:1003E0003830004733004732004731004730005B68
:1003F00000290D0A00206D61782074726176656CA9
:100400002C206D6D0020616363656C2C206D6D2F59
:100410007365635E3200206D617820726174652CB3
:10042000206D6D2F6D696E002C20737465702F6DBB
:100430006D007A00790078002028003D002400201B
:1004400028686F6D696E672070756C6C2D6F6666BD
:100450002C206D6D290D0A002028686F6D696E676C
:10046000206465626F756E63652C206D736563290A
:100470000D0A2432373D002028686F6D696E6720B1
:100480007365656B2C206D6D2F6D696E290D0A24C7
:1004900032363D002028686F6D696E67206665659D
:1004A000642C206D6D2F6D696E290D0A2432353D47
:1004B00000290D0A2432343D002028686F6D696ED2
:1004C000672064697220696E76657274206D61734D
:1004D0006B3A002028686F6D696E67206379636CE2
:1004E000652C20626F6F6C290D0A2432333D002089
:1004F0002868617264206C696D6974732C20626F66
:100500006F6C290D0A2432323D002028736F667407
:10051000206C696D6974732C20626F6F6C290D0AF1
:100520002432313D0020287265706F727420696E2C
:10053000636865732C20626F6F6C290D0A2432305A
:100540003D00202861726320746F6C6572616E6378
:10055000652C206D6D290D0A2431333D0020286A59
:10056000756E6374696F6E20646576696174696F16
:100570006E2C206D6D290D0A2431323D00290D0AA3
:100580002431313D002028737461747573207265C5
:10059000706F7274206D61736B3A00202870726FF7
:1005A00062652070696E20696E766572742C2062B7
:1005B0006F6F6C290D0A2431303D0020286C696D65
:1005C00069742070696E7320696E766572742C2070
:1005D000626F6F6C290D0A24363D00202873746504
:1005E0007020656E61626C6520696E766572742C30
:1005F00020626F6F6C290D0A24353D00290D0A24F5
:10060000343D00202864697220706F727420696E16
:1006100076657274206D61736B3A00290D0A24337C
:100620003D0020287374657020706F727420696EAD
:1006300076657274206D61736B3A0020287374655F
:10064000702069646C652064656C61792C206D7321
:100650006563290D0A24323D0020287374657020DB
:1006600070756C73652C2075736563290D0A2431D0
:100670003D0024303D0024242028766965772047FA
:1006800072626C2073657474696E6773290D0A2435
:1006900023202876696577202320706172616D655B
:1006A00074657273290D0A244720287669657720BE
:1006B000706172736572207374617465290D0A2408
:1006C00049202876696577206275696C6420696EB7
:1006D000666F290D0A244E20287669657720737489
:1006E000617274757020626C6F636B73290D0A24DC
:1006F000783D76616C756520287361766520477258
:10070000626C2073657474696E67290D0A244E78D3
:100710003D6C696E65202873617665207374617223
:1007200074757020626C6F636B290D0A2443202856
:10073000636865636B2067636F6465206D6F6465D4
:10074000290D0A245820286B696C6C20616C617239
:100750006D206C6F636B290D0A2448202872756E1A
:1007600020686F6D696E67206379636C65290D0A77
:100770007E20286379636C65207374617274290D1F
:100780000A2120286665656420686F6C64290D0A5B
:100790003F202863757272656E742073746174757E
:1007A00073290D0A6374726C2D7820287265736545
:1007B00074204772626C290D0A0000002100240099
:1007C00027002A002D003000330001010000040141
:1007D00007010A010D0A00486F6D696E67206661A6
:1007E000696C0050726F6265206661696C004162DD
:1007F0006F727420647572696E67206379636C65CB
:1008000000536F6674206C696D697400486172648E
:10081000206C696D697400414C41524D3A20003E94
:100820000D0A002C4C696D3A002C52583A002C42AB
:1008300075663A002C002C57506F733A002C002C30
:100840004D506F733A003C446F6F72003C436865D3
:10085000636B003C416C61726D003C486F6D6500DC
:100860003C486F6C64003C52756E003C49646C659A
:10087000005D0D0A00526573746F72696E672064C3
:10088000656661756C74730050676D20456E640019
:10089000436865636B20446F6F72004469736162E3
:1008A0006C656400456E61626C65640043617574DB
:1008B000696F6E3A20556E6C6F636B656400272418
:1008C00048277C2724582720746F20756E6C6F632F
:1008D0006B00526573657420746F20636F6E74696A
:1008E0006E7565005B0000002200250028002B00CB
:1008F0002E003100340002010000050108010B0147
:1009000005050505070508080808020202020A0A8B
:1009100008080404040401010101010101010303A9
:10092000030303030303040707070C0C0C0C0C0C54
:100930000C0C0202020206060606060606060B0B51
:100940000B0B0B0B0B0B0102102020080810204092
:100950001020408002010201080402010102040883
:100960001020408080402010080402018004020111
:10097000804020100804020108040201010204085A
:1009800010204080010204081020408000000A0B63
:1009900002090C0D0E08070304010000000000000E
:1009A0000000000000000000000000000000000047
:1009B0000000000000000000121110000000000004
:1009C0000000000000000000000000000000000027
:1009D00000005D0D0A003A002C005B5052423A00C4
:1009E0000D0A00496E76616C69642067636F646507
:1009F0002049443A00556E646566696E65642066F8
:100A00006565642072617465004D6F64616C206778
:100A1000726F75702076696F6C6174696F6E0048D3
:100A20006F6D696E67206E6F7420656E61626C65B4
:100A30006400416C61726D206C6F636B004E6F746B
:100A40002069646C6500454550524F4D20726561C8
:100A500064206661696C2E205573696E6720646539
:100A60006661756C74730056616C7565203C20334B
:100A700020757365630053657474696E67206469DB
:100A80007361626C65640056616C7565203C203052
:100A900000496E76616C69642073746174656D657C
:100AA0006E7400426164206E756D62657220666FBF
:100AB000726D617400457870656374656420636F5E
:100AC0006D6D616E64206C65747465720065727220
:100AD0006F723A20006F6B0D0A0011241FBECFEF1A
:100AE000D1E2DEBFCDBF00E00CBF14E0A0E0B2E079
:100AF000E8EEFEEF00E00BBF02C007900D92AA3DAA
:100B0000B107D9F725E1AAEDB4E001C01D92AE3ED0
:100B1000B207E1F70E94A0620C94727F71CA2F9213
:100B20003F924F925F926F927F928F929F92AF927D
:100B3000BF92CF92DF92EF92FF920F931F93CF93CA
:100B4000DF93CDB7DEB7CE5CD1090FB6F894DEBF28
:100B50000FBECDBFC754DF4F99838883C95BD04098
:100B600089E3E0E7F4E1DF011D928A95E9F78AE085
:100B7000E9EAF4E1A1E7B4E101900D928A95E1F789
:100B8000FE01E756FF4F1082CD54DF4F19821882C5
:100B9000C35BD040C155DF4F19821882CF5AD04075
:100BA000C554DF4F1882CB5BD040C655DF4F18824B
:100BB000CA5AD040C255DF4F1882CE5AD040E859A9
:100BC000F1093F019E01235A3F4FC456DF4F39833D
:100BD0002883CC59D0402E0131E5430E511CCE0163
:100BE00089599F4FC256DF4F99838883CE59D04091
:100BF000DE01AF58BF4FC056DF4FB983A883C05A3C
:100C0000D040E85AFF4FCD53DF4FF983E883C35CF0
:100C1000D040C756DF4F8881C959D040C754DF4FF5
:100C2000E881F981C95BD040E80FF11D10811123E3
:100C300011F40C9407169FEB910F9A3110F00C945D
:100C4000F41E8F5FC756DF4F8883C959D040AE016D
:100C50004B565F4FBE0167567F4FC754DF4F8881A9
:100C60009981C95BD0400E94303A882311F40C94DA
:100C7000F61ECB56DF4FC880D980EA80FB80C5596D
:100C8000D040C701B6010E9455780E94C275CB546E
:100C9000DF4F688379838A839B83C55BD040CB54C5
:100CA000DF4F28803980C55BD040B10180E090E003
:100CB0000E94EE759B01AC01C701B6010E947474DD
:100CC00020E030E048EC52E40E94A7774B015C0141
:100CD00020E030E0A9010E946C7720E030E040E0A5
:100CE0005FE387FD05C0C501B4010E94757404C0AF
:100CF000C501B4010E9474740E94BD75CA55DF4FCE
:100D000079836883C65AD0401D3411F40C94070FC0
:100D100024F4173461F00C94AF14103511F40C94D2
:100D2000A30F133511F40C9435140C94AF14C7565B
:100D3000DF4F8881C959D040C754DF4F288139819E
:100D4000C95BD040280F311DC9013AE9231638E0AC
:100D5000330609F4F6C058F4B4ED2B16B7E03B06A1
:100D6000C9F0E9E92E16E8E03E06E1F1A0C5FDE98B
:100D70002F16F8E03F0609F406C32EE9221628E0F4
:100D8000320609F4E4C43CE9231638E0330609F0DE
:100D90008EC50DC21A8219827F926F922EE634E0C0
:100DA0003F932F939F938F930E9446790F900F90BC
:100DB0000F900F900F900F90181619060CF0E9C4C1
:100DC00089819A819093990F8093980F11E01093E5
:100DD000C30D8091450D8111F6C40E94382E1093E9
:100DE000450DF1C48E010B5E1F4F1F930F939E01A3
:100DF000275D3F4F3F932F937E01ADE3EA0EF11C39
:100E0000FF92EF925F924F922DE132E03F932F934A
:100E10009F938F930E9446790FB6F894DEBF0FBE62
:100E2000CDBF04970CF4B5C4EF961CAE1DAE1EAE3C
:100E30001FAEEF97E5961CAE1DAE1EAE1FAEE5973A
:100E4000AB961CAE1DAE1EAE1FAEAB97A1961CAEF0
:100E50001DAE1EAE1FAEA1978CE0D3011D928A95E8
:100E6000E9F7AE0145585F4F60E070E0C2010E94B3
:100E7000303A882309F4A7C4AE014F585F4F60E0B1
:100E800070E0C7010E94303A882309F49CC4AE0187
:100E900049595F4F60E070E0CE0189960E94303A78
:100EA000882309F490C4AE01435A5F4F60E070E0BC
:100EB000C8010E94303A882309F485C420E030E05C
:100EC00044EB52E4E5966CAD7DAD8EAD9FADE597FC
:100ED0000E94747421EE3EE245E652E40E9455758C
:100EE0006B017C01E5966CAF7DAF8EAF9FAFE59750
:100EF0000E945275EF968CAC9DACAEACBFACEF9738
:100F0000A50194010E94A77769837A838B839C83D0
:100F1000C701B6010E940A789B01AC01C501B4016A
:100F20000E94A7776D837E838F839887AB968CAD65
:100F30009DADAEADBFADAB9789879A87AB87BC87B8
:100F400019C2F201108211821282138221961CAE04
:100F50001DAE1EAE1FAE21977F926F928E010B5E6B
:100F60001F4F1F930F93C356DF4FF881CD59D040C9
:100F7000FF93C456DF4F2881CC59D0402F9326E4ED
:100F800032E03F932F939F938F930E9446790FB641
:100F9000F894DEBF0FBECDBF03970CF4FAC3A201D5
:100FA00060E070E0C8010E94303A882309F40BC465
:100FB000AE01435C5F4F60E070E0C3010E94303AD5
:100FC000882309F400C4FE01B996C656DF4FF983A1
:100FD000E883CA59D0408CE011928A95E9F7609174
:100FE000AA0D7091AB0D8091AC0D9091AD0D0E944A
:100FF000F07520E030E040EA52E40E9455752091FF
:101000009E0D30919F0D4091A00D5091A10D0E9419
:101010007574CE55DF4F688379838A839B83C25A68
:10102000D0406091AE0D7091AF0D8091B00D909158
:10103000B10D0E94F07520E030E040EA52E40E94D9
:1010400055752091A20D3091A30D4091A40D5091A2
:10105000A50D0E947574C154DF4F688379838A831C
:101060009B83CF5BD0406091B20D7091B30D8091A6
:10107000B40D9091B50D0E94F07520E030E040EA8B
:1010800052E40E9455756B017C0120E030E044EB96
:1010900052E46091A60D7091A70D8091A80D9091DA
:1010A000A90D0E9474749B01AC01C701B6010E9496
:1010B00075747B018C016F968EAD9FAD6F978130FB
:1010C0009105B9F144F5892B09F070C320E030E0B7
:1010D00044EB52E4D2016D917D918D919C910E94DF
:1010E0007474F20160837183828393839E012F5C09
:1010F0003F4F4901DE019D965D01FE01B9966F01EA
:101100007B018C01C154DF4F288139814A815B8189
:10111000CF5BD04034C08230910519F1039709F0BC
:1011200045C3D2016D917D918D919C910E94132FA9
:101130004AC3D2016D917D918D919C91FE01F196F2
:101140004F019E01235D3F4F5901DE0199966D01CC
:10115000C154DF4F288139814A815B81CF5BD04008
:1011600016C0F2012081318142815381CE01C196A6
:101170004C01DE019D965D01FE01B9966F01CE55D1
:10118000DF4F688179818A819B81C25AD0400E9459
:10119000AF51A401B501C6010E94504F21962CAD5C
:1011A0003DAD4EAD5FAD219700E0B6017BC38E0132
:1011B0000B5E1F4F1F930F937E01B9E2EB0EF11CE4
:1011C000FF92EF926E01EDE3CE0ED11CDF92CF9233
:1011D0005F924F922EE532E03F932F939F938F9330
:1011E0000E9446790FB6F894DEBF0FBECDBF0497BC
:1011F0000CF4CFC2EF961CAE1DAE1EAE1FAEEF9725
:10120000E5961CAE1DAE1EAE1FAEE597AB961CAEAE
:101210001DAE1EAE1FAEAB97A1961CAE1DAE1EAE90
:101220001FAEA197AE0145585F4F60E070E0C2016C
:101230000E94303A882309F4C6C2AE014F585F4F6E
:1012400060E070E0C6010E94303A882309F4BBC216
:10125000AE0149595F4F60E070E0C7010E94303A2B
:10126000882309F4B0C2AE01435A5F4F60E070E0DA
:10127000C8010E94303A882309F4A5C26091B20DDA
:101280007091B30D8091B40D9091B50D0E94F075E1
:10129000CE55DF4F688379838A839B83C25AD040BF
:1012A0006091AE0D7091AF0D8091B00D9091B10D28
:1012B0000E94F075C154DF4F688379838A839B83D2
:1012C000CF5BD0406091AA0D7091AB0D8091AC0DB9
:1012D0009091AD0D0E94F075DE0119964D01FE0151
:1012E00035965F016301CE55DF4FE880F9800A81B2
:1012F0001B81C25AD040C154DF4F288139814A81B5
:101300005B81CF5BD0400E949452A401B501C30120
:101310000E94504FEF962CAD3DAD4EAD5FADEF97B7
:1013200069817A818B819C810E94757469837A833B
:101330008B839C83E5962CAD3DAD4EAD5FADE597BF
:101340006D817E818F8198850E9475746D837E8307
:101350008F839887AB962CAD3DAD4EAD5FADAB970F
:1013600069857A858B859C850E94757469877A87E3
:101370008B879C87A1962CAD3DAD4EAD5FADA197FF
:1013800000E0B301E2C1C356DF4FF881CD59D04030
:10139000FF93C456DF4F2881CC59D0402F93C156BC
:1013A000DF4F3881CF59D0403F93C256DF4FA881DD
:1013B000CE59D040AF93CF55DF4FB881C15AD040FE
:1013C000BF93C056DF4FE881C05AD040EF938E01E3
:1013D00005581F4F1F930F932DE132E03F932F933A
:1013E0009F938F930E9446790FB6F894DEBF0FBE8D
:1013F000CDBF04970CF4CDC1CF56DF4F18821982B0
:101400001A821B82C159D040C357DF4F18821982FC
:101410001A821B82CD58D040C757DF4F18821982DD
:101420001A821B82C958D040CB57DF4F18821982CD
:101430001A821B82C558D0408CE0D2011D928A9539
:10144000E9F7AE014F565F4F60E070E0C8010E94BF
:10145000303A882309F4B7C1AE0143575F4F60E0CB
:1014600070E0CE018F589F4F0E94303A882309F4D4
:10147000AAC1AE0147575F4F60E070E0CE018959C5
:101480009F4F0E94303A882309F49DC1AE014B570B
:101490005F4F60E070E0CE01835A9F4F0E94303A68
:1014A000882309F490C16091B20D7091B30D8091C1
:1014B000B40D9091B50D0E94F075C154DF4F688353
:1014C00079838A839B83CF5BD04020E030E044EB7C
:1014D00052E46091A60D7091A70D8091A80D909196
:1014E000A90D0E9474746B017C0120E030E040EA99
:1014F00052E4C154DF4F688179818A819B81CF5B3F
:10150000D0400E9455759B01AC01C701B6010E94F5
:101510007574C953DF4F688379838A839B83C75C63
:10152000D0406091AE0D7091AF0D8091B00D909153
:10153000B10D0E94F075C553DF4F688379838A83AC
:101540009B83CB5CD0406091AA0D7091AB0D8091D4
:10155000AC0D9091AD0D0E94F075CD53DF4F88809A
:101560009980C35CD040F2013496CE55DF4FF983A9
:10157000E883C25AD0405F016201C154DF4FE88066
:10158000F9800A811B81CF5BD040C553DF4F288192
:1015900039814A815B81CB5CD0400E949452CD530B
:1015A000DF4F48815981C35CD040CE55DF4F688101
:1015B0007981C25AD040C2010E94504FD2016D9130
:1015C0007D918D919C9113971496CD90DD90ED9027
:1015D000FC9017979B01AC010E94A7774B015C011F
:1015E000A7019601C701B6010E94A7779B01AC0134
:1015F000C501B4010E9475740E941478CF56DF4F64
:10160000288139814A815B81C159D0400E9475741B
:101610006B017C01CF56DF4F688379838A839B837C
:10162000C159D040C357DF4F288139814A815B813E
:10163000CD58D040C953DF4F688179818A819B8121
:10164000C75CD0400E94757421EE3EE245E652E44C
:101650000E945575CE55DF4F688379838A839B83BB
:10166000C25AD0400E9452759B01AC01C701B6011D
:101670000E94A7774B015C01F20160837183828332
:101680009383CE55DF4F688179818A819B81C25ACD
:10169000D0400E940A789B01AC01C701B6010E94AC
:1016A000A777D20114966D937D938D939C93179792
:1016B000C757DF4F288139814A815B81C958D040A3
:1016C00018966D917D918D919C911B970E947574D8
:1016D000F20160877187828793878E01035C1F4FB9
:1016E00024E045E0C501B4010E94F971D2011496CD
:1016F0006D917D918D919C9117970451110924E072
:1017000045E00E94F971F2016085718582859385BB
:101710000451110924E045E00E94F971CF56DF4FD2
:10172000688179818A819B81C159D040830124E0FD
:1017300045E00E94F971CB57DF4F288139814A81FA
:101740005B81C558D04000E0B20181E0ACC07F921F
:101750006F928E010B5E1F4F1F930F937E01F9E274
:10176000EF0EF11CFF92EF926E012DE3C20ED11C21
:10177000DF92CF9227E832E03F932F939F938F938E
:101780000E9446790FB6F894DEBF0FBECDBF049716
:1017900084F41F9281E08F9381E192E09F938F9375
:1017A0000E948B320F900F900F900F9082E390E089
:1017B00080C0AE0145585F4F60E070E0C6010E94F6
:1017C000303A811103C080E090E073C0AE014F5801
:1017D0005F4F60E070E0C7010E94303A882399F3C0
:1017E000AE0149595F4F60E070E0C8010E94303A95
:1017F000882349F3AE01435A5F4F60E070E0C301B4
:101800000E94303A8823F9F220E030E044EB52E4C1
:10181000EF966CAD7DAD8EAD9FADEF970E94747469
:101820007B018C01EF966CAF7DAF8EAF9FAFEF97D2
:101830008CE0F20111928A95E9F7AB962CAD3DADA3
:101840004EAD5FADAB97E5966CAD7DAD8EAD9FAD0A
:10185000E597CD53DF4F88809980C35CD040D2019B
:101860001496CE55DF4FB983A883C25AD0405D018C
:1018700062010E94AF51CD53DF4F48815981C35C53
:10188000D040CE55DF4F68817981C25AD040C20125
:101890000E94504FA1962CAD3DAD4EAD5FADA197CE
:1018A00000E0B20180E00E949B5B90E002C081E01A
:1018B00090E09C01215031092230310510F00C9448
:1018C000601FB8E22B16310409F445C280F5F4E13B
:1018D0002F16310498F421E12216310408F07AC160
:1018E00034E02316310409F479C008F4F6C09AE014
:1018F0002916310409F45EC00C94021FACE12A16CB
:10190000310409F457C038F4E6E12E16310408F426
:10191000BFC10C94021FFEE12F16310409F44AC026
:1019200026E22216310409F4D8C00C94021F3DE3CC
:101930002316310409F4FEC110F595E3291631048C
:1019400009F44CC060F4BBE22B16310409F4B7C1B2
:10195000E1E32E16310409F4B2C10C94021FFCE33A
:101960002F16310410F00C94021FCB54DF4F8881E6
:10197000C55BD040865380937714F9E0D5C12CE540
:101980002216310460F43AE52316310408F03DC113
:1019900080E52816310409F4AEC00C94021F9CE5C2
:1019A0002916310439F0AFE52A16310408F463C171
:1019B0000C94021FCA55DF4FE881F981C65AD04006
:1019C000EF2B11F00C94161FC255DF4FF881CE5A41
:1019D000D040FF2309F452C00C94F81E2CE12216CB
:1019E0003104D1F148F484E02816310481F09AE002
:1019F00029163104E9F01FC0AEE12A16310409F4BA
:101A000047C0B5E32B16310409F465C014C081E06A
:101A100010C0FFE12F16310408F051C02AE0221651
:101A2000310479F4E1E0C255DF4FE883CE5AD0406B
:101A300082E080937014CE55DF4F1882C25AD04096
:101A400097C13CE12316310409F09CC1F1E0C25575
:101A5000DF4FF883CE5AD040CA55DF4F28813981F5
:101A6000C65AD0402115310539F02A30310511F020
:101A70000C94021F84E015C083E013C0EEE12E1623
:101A8000310439F631E0C255DF4F3883CE5AD040A9
:101A9000CA55DF4F88819981C65AD040009749F4D2
:101AA00085E080937014CE55DF4F1882C25AD04023
:101AB00074C10A9711F00C94021F86E0F2CF85E3FF
:101AC0002816310411F00C942B1F91E0C255DF4F02
:101AD0009883CE5AD04087E0ACCFC255DF4FF88113
:101AE000CE5AD040F1110C94F81E22E0C255DF4FBF
:101AF0002883CE5AD04032E02316310421F160F41D
:101B000021143104E1F02A94232809F02BC181E04B
:101B10008093711421E073C0A6E22A163104E9F023
:101B2000B0E52B16310409F451C0E3E02E16310460
:101B300009F018C183E08093711481E00DC1109207
:101B40007114F1E0F1C082E08093711431E0CE5560
:101B5000DF4F3883C25AD0400BC1CA55DF4FA8812E
:101B6000B981C65AD040AE31B10531F170F4549705
:101B700011F00C94021F84E080937114F1E0CE55B3
:101B8000DF4FF883C25AD04008C1CA55DF4FE88101
:101B9000F981C65AD040E832F10599F0F29711F078
:101BA0000C94021F87E08093711481E0CE55DF4FC3
:101BB0008883C25AD040F1C085E08093711421E03F
:101BC00054C086E08093711431E0BFC088E08093F8
:101BD0007114C8C0A2E12A16310441F0B3E12B16FA
:101BE000310449F010927514E2E063C081E0809303
:101BF0007514F2E099C082E08093751422E0CE550E
:101C0000DF4F2883C25AD040B3C0CA55DF4F888106
:101C10009981C65AD040892BB9F49AE52916310426
:101C200049F410927414A3E0CE55DF4FA883C25A32
:101C3000D040B3C081E080937414B3E0CE55DF4F41
:101C4000B883C25AD040A9C0CA55DF4FE881F98194
:101C5000C65AD0403A9711F00C94021FFAE52F169D
:101C6000310411F40C94021F24E0CE55DF4F288379
:101C7000C25AD04092C03DE52316310429F481E0D8
:101C80008093721485E068C01092721495E06BC066
:101C9000A4E12A16310451F481E080937314B6E074
:101CA000CE55DF4FB883C25AD04062C01092731431
:101CB000E6E0CE55DF4FE883C25AD04059C0C25546
:101CC000DF4FF881CE5AD040F1110C94F81E21E379
:101CD0002216310479F41092761438E0CE55DF4F95
:101CE0003883C25AD04083E0C255DF4F8883CE5A32
:101CF000D04053C0CA55DF4FA881B981C65AD040E1
:101D00001A9711F00C94021F81E080937614B8E0CA
:101D1000CE55DF4FB883C25AD040E3E0C255DF4F03
:101D2000E883CE5AD04039C0CE55DF4FF883C25A2F
:101D3000D0401EC0CA55DF4F28813981C65AD040D5
:101D4000232B11F00C94021F3AE0CE55DF4F38835D
:101D5000C25AD04022C087E0CE55DF4F8883C25A96
:101D6000D04006C091E0CE55DF4F9883C25AD04094
:101D7000CA55DF4FA881B981C65AD040AB2B69F054
:101D80000C94291FCE55DF4F1882C25AD040B1E0C3
:101D9000C255DF4FB883CE5AD040C155DF4FE881DE
:101DA000F981CF5AD040CF01A0E0B0E0CE55DF4F4F
:101DB0000880C25AD04004C0B695A79597958795DC
:101DC0000A94D2F780FF03C085E10C94601F81E084
:101DD00090E0A0E0B0E0CE55DF4F0880C25AD0407E
:101DE00004C0880F991FAA1FBB1F0A94D2F7C155C0
:101DF000DF4F28813981CF5AD040282B392BC1554C
:101E0000DF4F39832883CF5AD0400C940906CA5536
:101E1000DF4F88819981C65AD040892B11F00C94EC
:101E2000291FC756DF4F8881C959D040C754DF4F9B
:101E300068817981C95BD040680F711DAE0147563A
:101E40005F4FCB54DF4F88819981C55BD0400E94A2
:101E50007A1F9C01215031092230310510F00C9479
:101E6000601F96E02916310428F4A3E02A163104F5
:101E700090F026C0B8E02B16310410F40C94021F29
:101E8000EAE02E16310408F440C0FEE12F163104BA
:101E900011F00C94021F22E02216310461F03EE1A1
:101EA0002316310441F0232809F046C081E08093D5
:101EB00078148BE032C082E0809378149BE036C0C7
:101EC000A4E02A16310471F0B5E02B163104A1F01C
:101ED00081E080937A14ECE0CE55DF4FE883C25A5C
:101EE000D04092C482E080937A14FCE0CE55DF4F5C
:101EF000F883C25AD04088C410927A142CE0CE5590
:101F0000DF4F2883C25AD0407FC439E02316310402
:101F100051F082E0809379148DE0CE55DF4F8883B5
:101F2000C25AD04071C4109279149DE0CE55DF4F53
:101F30009883C25AD04068C4ABE0CE55DF4FA88327
:101F4000C25AD04061C4CA55DF4F28813981C65A70
:101F5000D040232B11F00C94291FC756DF4F8881E6
:101F6000C959D040C754DF4FE881F981C95BD040DF
:101F7000E80FF11D37EB231638E0330609F416C3DA
:101F800008F066C19CE9291698E0390609F4D2C127
:101F900008F07CC0B9E92B16B8E03B0609F4B0C1E3
:101FA00008F065C0F8E92F16F8E03F0609F022C4F2
:101FB00084E16E01E9E2CE0ED11CD601E82F1D921C
:101FC000EA95E9F77E01F5E1EF0EF11CD701E82F64
:101FD0001D92EA95E9F7D3011D928A95E9F780E011
:101FE00090E00E943B54CA55DF4F688379838A830F
:101FF0009B83C65AD04081E090E00E943B54CB5472
:10200000DF4F688379838A839B83C55BD04082E0FE
:1020100090E00E943B544B015C01860124E045E0C6
:10202000CA55DF4F688179818A819B81C65AD04029
:102030000E94F971870124E045E0CB54DF4F6881AD
:1020400079818A819B81C55BD0400E94F9718301AF
:1020500024E045E0C501B4010E94F971FF92EF92BE
:10206000DF92CF927F926F9280EB92E04CC32AE98D
:10207000221628E0320609F45AC13BE9231638E05B
:10208000330609F0B7C38CEC92E03CC18EE9281608
:1020900088E0380609F456C108F44FC1ACEA2A16A4
:1020A000A8E03A0609F4DDC1BDEA2B16B8E03B060C
:1020B00009F0A0C3A1961CAE1DAE1EAE1FAEA19727
:1020C000D2011D921D921D921C92139721961CAE57
:1020D0001DAE1EAE1FAE219784E1FE01B996C65615
:1020E000DF4FF983E883CA59D040282F11922A95EF
:1020F000E9F71E0135E1230E311CD101E82F1D92B5
:10210000EA95E9F7D3011D928A95E9F780E090E01E
:102110000E943B54CB54DF4F688379838A839B832F
:10212000C55BD04081E090E00E943B54C154DF4F3A
:10213000688379838A839B83CF5BD04082E090E081
:102140000E943B5420E030E044EB52E40E9474745F
:10215000CA55DF4F688379838A839B83C65AD040F0
:10216000FE01FD964F0152019E01235A3F4F690126
:102170007B018C01C154DF4F288139814A815B8109
:10218000CF5BD040CB54DF4F688179818A819B81BE
:10219000C55BD0400E94AF51A401B201C6010E94AC
:1021A000504FA1966CAD7DAD8EAD9FADA197D20184
:1021B000CD90DD90ED90FC909B01AC010E94A77743
:1021C0004B015C01A7019601C701B6010E94A777E8
:1021D0009B01AC01C501B4010E9475740E94147882
:1021E0008E01075D1F4F24E045E00E94F97120E059
:1021F00030E044EB52E4CA55DF4F688179818A812F
:102200009B81C65AD0400E947574810124E045E04C
:102210000E94F97121966CAD7DAD8EAD9FAD219779
:10222000830124E045E00E94F9717F926F923F9212
:102230002F92C556DF4FB881CB59D040BF93C656B9
:10224000DF4FE881CA59D040EF938EEE92E05BC237
:1022500020EC221628E0320609F4D4C1D0F489EB30
:10226000281688E0380609F4B8C108F4ABC1AAEB17
:102270002A16A8E03A0609F4B8C1BBEB2B16B8E061
:102280003B0609F0B7C28091020185FB882780F9DF
:10229000B7C123EC221628E0320609F41CC2F0F480
:1022A00081EC281688E0380609F4EAC192EC291678
:1022B00098E0390609F09EC280918F0D8F9380912E
:1022C0008E0D8F9380918D0D8F9380918C0D8F93B8
:1022D00080918B0D8F9380918A0D12C2A4EC2A16E7
:1022E000A8E03A0609F41DC2B0E62B16B9E03B0699
:1022F00009F080C28091910D8F938091900D76C2EC
:102300008EEB92E09F938F9387EC92E09F938F9355
:1023100086E59DE09F938F930E9418790F900F9010
:102320000F900F900F900F9080E090E065C28AE9C7
:102330009FE0E8CF83ED92E0E5CF89E49DE09F93B5
:102340008F938CC080818E3409F0BAC18181805313
:10235000843008F0B5C194E16E01FDE3CF0ED11CCD
:10236000D601E92F1D92EA95E9F77E01F9E2EF0E19
:10237000F11CD701E92F1D92EA95E9F75E01F5E11D
:10238000AF0EB11CD501E92F1D92EA95E9F7D301F3
:102390001D929A95E9F78230E1F0833031F1813076
:1023A00061F082E090E00E943B54850124E045E02A
:1023B0000E94F971BF92AF9251C080E090E00E94FC
:1023C0003B54860124E045E00E94F971DF92CF92F0
:1023D00045C081E090E00E943B54870124E045E045
:1023E0000E94F971FF92EF9239C08091900D909107
:1023F000910D0497029748F46091940F7091950F96
:102400008091960F9091970F22C020E030E040E03D
:102410005FE360910002709101028091020290914D
:1024200003020E94747420E030E040E05FE30E9409
:10243000A77720E030E044E353E40E94A7779B01B4
:10244000AC0160E070E084E393E40E947474830163
:1024500024E045E00E94F9717F926F928AED92E04C
:1024600055CFA1961CAE1DAE1EAE1FAEA197F201B8
:10247000108211821282138221961CAE1DAE1EAEF6
:102480001FAE219784E19E01275D3F4FC656DF4F67
:1024900039832883CA59D040D901E82F1D92EA9583
:1024A000E9F71E01F5E12F0E311CD101E82F1D9235
:1024B000EA95E9F7D3011D928A95E9F780E090E06B
:1024C0000E943B54CA55DF4F688379838A839B837C
:1024D000C65AD04081E090E00E943B54CB54DF4F7D
:1024E000688379838A839B83C55BD04082E090E0D8
:1024F0000E943B5420E030E044EB52E40E947474AC
:10250000FE01FD964F0152019E01235A3F4F690182
:102510007B018C01CB54DF4F288139814A815B815B
:10252000C55BD040CA55DF4F688179818A819B8124
:10253000C65AD0400E94AF51A401B201C6010E9408
:10254000504FA1966CAD7DAD8EAD9FADA1978E0124
:10255000075D1F4F24E045E00E94F971D2016D91A3
:102560007D918D919C91810124E045E00E94F9715B
:1025700021966CAD7DAD8EAD9FAD2197830124E09A
:1025800045E00E94F9717F926F923F922F92C5565B
:10259000DF4FB881CB59D040BF93C656DF4FE8819B
:1025A000CA59D040EF9380EE92E0ADC0A49B11C019
:1025B0008FE30E94C04C8A30910558F08734910512
:1025C00050F005C0479905C00898009B04C081E001
:1025D00017C080E015C082E013C082B3869586954F
:1025E000869591E0892781700BC08BE30E94C04CD7
:1025F00021E08536910508F420E01F922F93F7C063
:102600001F92F4C07F926F928CEF92E09F938F9312
:10261000FF93EF930E9446790F900F900F900F90C9
:102620000F900F90181619060CF03DC029813A81C1
:102630002634310508F044C0F901E457F64F84917F
:10264000F901EA5BF64F1491F901E050F74F04915C
:10265000002391F081110E943C4CE02FF0E0EE0F3E
:10266000FF1FE05EFC4FA591B491EC911E2381E029
:1026700090E021F480E002C080E090E09F93B6C03B
:102680007F926F928CEF92E09F938F93FF93EF93E3
:102690000E9446790F900F900F900F900F900F901F
:1026A0001816190684F01F9281E08F9381E192E061
:1026B0009F938F930E948B320F900F900F900F90EB
:1026C00082E390E099C089819A8180319105C0F7B9
:1026D0000E94C04CD3CF80E090E00E94E953182FB5
:1026E000092F81E090E00E94E953F82EE92E82E064
:1026F00090E00E94E953EF92FF920F931F939F93F4
:102700008F9380E093E09F938F9386E59DE09F9366
:102710008F930E9418790FB6F894DEBF0FBECDBF1D
:1027200003CE6BE080E00E94844A182F6BE081E0CA
:102730000E94844A1871E1E0F0E0183111F0E0E005
:10274000F0E09F01220F331F220F331F8871E1E059
:10275000F0E0883111F0E0E0F0E0EE0FFF1F122F03
:102760001E2B6BE082E00E94844A8871E1E0883190
:1027700009F0E0E0E12B8E2FEE0F990BAA0BBB0BBB
:10278000FC013197E730F10530F48827EE58FF4F10
:102790008F4F0C94E5781F921F9229C01F9281E001
:1027A00002C01F9282E08F9386EB93E09F938F93FA
:1027B00086E59DE09F938F930E9418790F900F906C
:1027C0000F900F900F900F9084E390E015C01F9230
:1027D00083E0E9CF1F9284E0E6CF1F9285E0E3CF4C
:1027E0001F9286E0E0CF1F9287E0DDCF8F9386EBCC
:1027F00093E08CCD81E090E09C01215031092230A2
:10280000310510F00C94601FC155DF4FE881F9814C
:10281000CF5AD040CF01A0E0B0E0CE55DF4F0880C6
:10282000C25AD04004C0B695A795979587950A944B
:10283000D2F780FDC9CA81E090E0A0E0B0E0CE55BB
:10284000DF4F0880C25AD04004C0880F991FAA1FCA
:10285000BB1F0A94D2F7E82BF92BC155DF4FF98340
:10286000E883CF5AD0400C940906CA55DF4F28811F
:102870003981C65AD040232B11F00C94291F38EE11
:10288000231633E0330641F08CE4281684E0380642
:1028900049F50E94715B23C0C756DF4F8881C95933
:1028A000D040C754DF4FE881F981C95BD040E80FC1
:1028B000F11D80818635C9F4818180538230A8F46E
:1028C0009FB7813029F0F89480910114886004C08A
:1028D000F894809101148260809301149FBF80E07E
:1028E00090E005C081E090E002C082E390E09C01AE
:1028F000215031092230310510F00C94601FC15570
:10290000DF4FE881F981CF5AD040CF01A0E0B0E09D
:10291000CE55DF4F0880C25AD04004C0B695A79567
:10292000979587950A94D2F780FD4ECA81E090E092
:10293000A0E0B0E0CE55DF4F0880C25AD04004C0BE
:10294000880F991FAA1FBB1F0A94D2F7E82BF92BF7
:10295000C155DF4FF983E883CF5AD04095C0812F0E
:10296000110F990BAA0BBB0BFC01E654F109E531E1
:10297000F10510F00C94021F8827E758FF4F8F4F86
:102980000C94E578C0927B14D0927C14E0927D1474
:10299000F0927E14CE55DF4F1882C25AD040DAC072
:1029A000C0927F14D0928014E0928114F09282142D
:1029B000C554DF4FF881CB5BD040F160C554DF4F89
:1029C000F883CB5BD04021E04FC0C0928314D092FB
:1029D0008414E0928514F0928614C554DF4F388138
:1029E000CB5BD0403260C554DF4F3883CB5BD040E7
:1029F00082E05BC0C0928714D0928814E092891460
:102A0000F0928A14C554DF4F9881CB5BD04094601C
:102A1000C554DF4F9883CB5BD040A3E060C0CB545C
:102A2000DF4FB881C55BD040B0938B14E4E071C038
:102A3000C701B6010E94BD7560938C1470938D140C
:102A400080938E1490938F14F5E0CE55DF4FF8836A
:102A5000C25AD0407FC0C0929014D0929114E0929C
:102A60009214F092931426E0CE55DF4F2883C25A79
:102A7000D04070C0C0929414D0929514E0929614F5
:102A8000F092971437E061C0CB56DF4F888199816F
:102A9000AA81BB81C559D040809398149093991412
:102AA000A0939A14B0939B1488E0CE55DF4F88838F
:102AB000C25AD0404FC0C0929D14D0929E14E09252
:102AC0009F14F092A014C655DF4F9881CA5AD04087
:102AD0009160C655DF4F9883CA5AD040AAE0CE55C0
:102AE000DF4FA883C25AD04035C0C092A114D09203
:102AF000A214E092A314F092A414C655DF4FB8813B
:102B0000CA5AD040B260C655DF4FB883CA5AD040C7
:102B1000EBE0CE55DF4FE883C25AD0401BC0C092D5
:102B2000A514D092A614E092A714F092A814C6554A
:102B3000DF4FF881CA5AD040F460C655DF4FF883A2
:102B4000CA5AD0402CE090CF39E0CE55DF4F3883C1
:102B5000C25AD040CE55DF4F8881C25AD040082F8C
:102B6000CD54DF4FE881F981C35BD040CF01A0E0B5
:102B7000B0E0CE55DF4F0880C25AD04004C0B695B1
:102B8000A795979587950A94D2F780FF02C00C9479
:102B9000FA1E81E693E0A0E0B0E0CE55DF4F08805A
:102BA000C25AD04004C0B695A795979587950A94C8
:102BB000D2F780FF11C020E030E0A901CB56DF4FF3
:102BC000688179818A819B81C559D0400E944E7568
:102BD00087FF02C00C94FC1E81E090E0A0E0B0E012
:102BE00004C0880F991FAA1FBB1F0A95D2F7CD54A6
:102BF000DF4F28813981C35BD040282B392BCD543E
:102C0000DF4F39832883C35BD0400C940906C65537
:102C1000DF4F3881CA5AD040332369F0C255DF4FA5
:102C20008881CE5AD040811106C092E0C255DF4F54
:102C30009883CE5AD040CD54DF4FA881C35BD0409B
:102C4000A5FF0FC080918C1490918D14A0918E14CB
:102C5000B0918F1480389649A849B10514F00C94AE
:102C6000FE1E80917214813091F4C255DF4FF881BD
:102C7000CE5AD040F23009F040C0CD54DF4F288109
:102C8000C35BD04020FD02C00C94081F36C0809169
:102C9000AA14811132C0CD54DF4F3881C35BD040BC
:102CA00030FF1BC080917314813039F523E333E387
:102CB0004BEC51E460917B1470917C1480917D14F5
:102CC00090917E140E94A77760937B1470937C147C
:102CD00080937D1490937E1410C08091B7149091CE
:102CE000B814A091B914B091BA1480937B14909346
:102CF0007C14A0937D14B0937E14CD54DF4F888153
:102D00009981C35BD04090FD10C08091B314909125
:102D1000B414A091B514B091B61480939814909304
:102D20009914A0939A14B0939B14809170148130DD
:102D3000B9F4CD54DF4F9881C35BD04096FD03C0FA
:102D40008CE10C94601FCD54DF4FA881B981C35B27
:102D5000D040AF7BCD54DF4FB983A883C35BD04055
:102D6000809175148823A1F0813021F1C754DF4F81
:102D70001882C95BD040F2E0CA55DF4FF883C65ACB
:102D8000D04021E0CE55DF4F2883C25AD04023C027
:102D9000B2E0C754DF4FB883C95BD040E1E0CA5509
:102DA000DF4FE883C65AD040CE55DF4F1882C25A53
:102DB000D04011C031E0C754DF4F3883C95BD040E9
:102DC000CA55DF4F1882C65AD04082E0CE55DF4F39
:102DD0008883C25AD04080917314813049F0C25523
:102DE000DF4F9881CE5AD040933009F043C036C0AF
:102DF000B0E7EB2EB4E1FB2E00E010E0C655DF4F4C
:102E0000A881CA5AD0408A2E912CA12CB12CD50170
:102E1000C401002E04C0B695A795979587950A948E
:102E2000D2F780FF12C023E333E34BEC51E4F70108
:102E300065A576A587A590A90E94A777D7019D963D
:102E40006D937D938D939C93D0970F5F1F4FB4E04C
:102E5000EB0EF11C03301105D1F6C1CF8091761431
:102E6000813041F4C655DF4FE881CA5AD040E43082
:102E700009F0C6C78CE0ECECF4E1DE01119601909C
:102E80000D928A95E1F7C155DF4F28813981CF5ADC
:102E9000D04031FD08C0109170141230C1F01830CC
:102EA00009F4E9C057C180917714873018F08DE19B
:102EB0000C94601F9091AF14891769F3BE016F5F86
:102EC0007F4F0E949F56882309F4AEC7E4CFC655B2
:102ED000DF4F3881CA5AD040311102C08AE1F0C7B1
:102EE000CD54DF4F88819981C35BD040807599278D
:102EF000892B09F425CF60919014709191148091E1
:102F00009214909193140E9455780E94C275673074
:102F100070F680918B14843151F0823009F072C7C1
:102F2000CD54DF4F8881C35BD04087FD6BC7CD5444
:102F3000DF4FA881B981C35BD040AF7ACD54DF4F5A
:102F4000B983A883C35BD040662321F022242A944E
:102F5000260E02C020907714BE016B5E7F4F822D3B
:102F60000E949F56882309F45FC730908B1480908D
:102F7000E4149090E514A090E614B090E714A0E754
:102F8000CA2EA4E1DA2E8E010B5E1F4FE9EAF4E1AE
:102F9000C155DF4FF983E883CF5AD040E12CF12CA3
:102FA000C655DF4FF881CA5AD0404F2E512C612CA4
:102FB000712CD301C2010E2C04C0B695A79597952C
:102FC00087950A94D2F780FF3BC024E132122EC0CD
:102FD000C155DF4FA881B981CF5AD0409F962D911E
:102FE0003D914D915C91D29757966D917D918D91C8
:102FF0009C915A970E947474F60125A536A547A5A1
:1030000050A90E947474D8016D937D938D939C9305
:103010001397B2E0EB1214C0A50194010E947474DE
:10302000F80160837183828393830AC0F60185A5CA
:1030300096A5A7A5B0A9F80180839183A283B38345
:10304000FFEFEF1AFF0A24E0C20ED11C0C5F1F4FE6
:10305000C155DF4F88819981CF5AD0400496C15520
:10306000DF4F99838883CF5AD04093E0E916F1046B
:1030700009F09FCF22C1C655DF4FA881CA5AD04060
:10308000AA2309F42BCF8090E4149090E514A0902B
:10309000E614B090E714F9EACF2EF4E1DF2EFE013A
:1030A00031961F0100E714E1E12CF12C4A2E512C3E
:1030B000612C712CD301C2010E2C04C0B695A795CA
:1030C000979587950A94D2F780FF29C0D1012D9159
:1030D0003D914D915C91F6016789708D818D928D46
:1030E0000E947474D8019D962D913D914D915C91F3
:1030F000D0970E947474F80165A776A787A790AB54
:10310000F2E0EF1216C0A50194010E947474D80178
:103110009D966D937D938D939C93D0970AC0F601F5
:1031200087A590A9A1A9B2A9F80185A796A7A7A7E5
:10313000B0ABFFEFEF1AFF0A24E0C20ED11C34E05F
:10314000230E311C0C5F1F4F83E0E816F10409F0D9
:10315000B1CFB2C0C255DF4F9881CE5AD040933024
:1031600009F473C0C655DF4FA881CA5AD040AA23BC
:1031700009F49CC6009174144090E4145090E51436
:103180006090E6147090E71479EA272E74E1372EE8
:10319000E0E7EE2EE4E1FE2EC12CD12C8A2E912CFC
:1031A000A12CB12CD501C4010C2C04C0B695A79557
:1031B000979587950A94D2F780FD0BC0F101878916
:1031C000908DA18DB28DF70185A796A7A7A7B0AB6B
:1031D0002DC0173059F1011114C0F2E0CF1226C0F2
:1031E000A3019201D7019D966D917D918D919C9146
:1031F000D0970E947574F70165A776A787A790AB53
:1032000015C0D10157962D913D914D915C915A97E2
:10321000F70165A576A587A590A90E947574D701C9
:103220009D966D937D938D939C93D097BFEFCB1A12
:10323000DB0AE4E02E0E311CF4E0EF0EF11C23E07B
:10324000C216D10409F0AECF2DC01530A9F0173049
:1032500071F1133089F5C655DF4F3881CA5AD04015
:10326000311105C0C255DF4F1882CE5AD040BE0181
:103270006B5E7F4F86E010C0C655DF4F8881CA5A0B
:10328000D040811105C0C255DF4F1882CE5AD040C0
:10329000BE016B5E7F4F87E00E949F56882309F432
:1032A000C3C50AC01530A1F3173009F0FBC58091E2
:1032B0007114823008F0A8C5212C3090711498E068
:1032C000391211C0C655DF4FA881CA5AD040AA236F
:1032D00009F40AC3C255DF4FB881CE5AD040B1308D
:1032E00009F094C516C3C255DF4FE881CE5AD040CD
:1032F000E23009F0F9C2311009C0C655DF4FF8813C
:10330000CA5AD040FF2309F4F6C203C320E030E0DC
:10331000A90160917B1470917C1480917D1490912F
:103320007E140E944E75882309F472C523E023158C
:1033300038F032E0331690F481E0381631F0E9C20B
:1033400097E0931508F0C3C2E4C2C655DF4FA881C9
:10335000CA5AD040AA2309F4CEC2DBC2C655DF4FF9
:10336000B881CA5AD040BB2309F4B8CDCE55DF4F3F
:10337000F881C25AD040EF2FF0E0C155DF4FF983FA
:10338000E883CF5AD040CA55DF4F3881C65AD04063
:10339000232F30E0CB54DF4F39832883C55BD040E7
:1033A00081E090E0A0E0B0E06C017D01CE55DF4F00
:1033B0000880C25AD04004C0CC0CDD1CEE1CFF1C9F
:1033C0000A94D2F7CA55DF4F0880C65AD04004C0CD
:1033D000880F991FAA1FBB1F0A94D2F7C82AD92A9F
:1033E000EA2AFB2AC655DF4FE881CA5AD0408E2F01
:1033F00090E0A0E0B0E08C219D21AE21BF21892B7F
:103400008A2B8B2B09F406C5C155DF4F8881998122
:10341000CF5AD040880F991F880F991FFC01E0599F
:10342000FB4EDC01A755BB4E57962D913D914D911A
:103430005C915A9765A576A587A590A90E9474749A
:103440004B015C01CB54DF4F88819981C55BD04033
:10345000880F991F880F991FFC01E059FB4EDC0172
:10346000A755BB4E57962D913D914D915C915A9722
:1034700065A576A587A590A90E947474C655DF4FEF
:10348000688379838A839B83CA5AD040CD54DF4FA7
:1034900008811981C35BD04000781127CD54DF4FDC
:1034A000F881C35BD040F7FF15C1CD54DF4F2881B1
:1034B0003981C35BD0402F77CD54DF4F39832883C8
:1034C000C35BD0400E94936E882311F081E2F8C460
:1034D000809173148130B1F423E333E34BEC51E476
:1034E0006091941470919514809196149091971412
:1034F0000E94A77760939414709395148093961408
:103500009093971440909414509095146090961452
:1035100070909714A5019401C501B4010E94A7778A
:10352000C554DF4F688379838A839B83CB5BD0400C
:10353000C655DF4F288139814A815B81CA5AD04004
:10354000CA01B9010E94A777CD53DF4F6883798301
:103550008A839B83C35CD04020E030E040E850E4A5
:10356000C301B2010E94A777A30192010E94A7772D
:10357000C554DF4F288139814A815B81CB5BD040C4
:103580000E947474CD53DF4F288139814A815B8159
:10359000C35CD0400E9474746B017C0120E030E079
:1035A000A9010E944E7587FD37C4C701B6010E946C
:1035B00014786B017C01CD53DF4F288139814A811A
:1035C0005B81C35CD040C554DF4F688179818A81BB
:1035D0009B81CB5BD0400E9475740E9414789B0144
:1035E000AC01C701B60190580E9455756B017C0172
:1035F00033E0331204C0F7FAF094F7F8F09420E0C7
:1036000030E0A901C301B2010E944E7587FF0FC0CF
:10361000F7FAF094F7F8F094D301C201B058809310
:10362000941490939514A0939614B0939714C15545
:10363000DF4F08811981CF5AD040000F111F000FB2
:10364000111F0C581B4EC655DF4F288139814A8106
:103650005B81CA5AD040C701B6010E94A7779B017F
:10366000AC01C501B4010E94747420E030E040E078
:103670005FE30E94A777D8011B966D937D938D938E
:103680009C931E97CB54DF4F08811981C55BD040B6
:10369000000F111F000F111F0C581B4EA5019401A4
:1036A000C701B6010E94A777C655DF4F288139812F
:1036B0004A815B81CA5AD0400E94757420E030E094
:1036C00040E05FE30E94A777F801638774878587EE
:1036D00096871FC1C554DF4FF881CB5BD0404F2E7A
:1036E000512C612C712CC420D520E620F720CD2848
:1036F000CE28CF2809F492C3CD54DF4F28813981D9
:10370000C35BD040217FCD54DF4F39832883C35B17
:10371000D04080917314813009F491C0C155DF4FBE
:10372000E881F981CF5AD040EE0FFF1FEE0FFF1F47
:10373000EC58FB4EC384D484E584F684A70196013B
:10374000C501B4010E9474742B013C01CB54DF4FBE
:10375000E881F981C55BD040EE0FFF1FEE0FFF1F20
:10376000EC58FB4E83859485A585B685C155DF4F02
:1037700088839983AA83BB83CF5AD0409C01AD0133
:10378000C655DF4F688179818A819B81CA5AD040B2
:103790000E9474744B015C01A3019201C301B20148
:1037A0000E94A7772B013C01A5019401C501B4013A
:1037B0000E94A7779B01AC01C301B2010E947574FE
:1037C0000E9414784B015C01A7019601C701B60164
:1037D0000E94A7776B017C01C155DF4F2881398199
:1037E0004A815B81CF5AD040CA01B9010E94A777B4
:1037F0009B01AC01C701B6010E9475740E94147848
:103800006B017C01609394147093951480939614CB
:10381000909397149B01AC01C501B4010E9474748C
:103820004B015C01E894B7F82AE037ED43EA5BE32B
:10383000C501B4010E946C77181664F16AC080E774
:10384000E82E84E1F82ED301C201002E04C0B69503
:10385000A795979587950A94D2F780FF12C023E326
:1038600033E34BEC51E4D7011F966D917D918D911F
:103870009C9152970E94A777F7016787708B818B85
:10388000928B0F5F1F4FF4E0EF0EF11C0330110518
:10389000D1F644CF20E030E040E05FE3C501B40161
:1038A0000E946C7718160CF411CE2FE632E143E833
:1038B0005AE3C701B6010E94A7779B01AC01C5017D
:1038C000B4010E946C7718160CF400CE22C0C655C5
:1038D000DF4F2881CA5AD040222309F4FFCA0E9430
:1038E000936E8111F3CD15C0C255DF4F3881CE5A8A
:1038F000D04031110EC0CD54DF4F88819981C35B18
:10390000D0408E7D9C7FC255DF4F1882CE5AD0406A
:1039100008C0CD54DF4F88819981C35BD0408E7D34
:10392000907E892B09F07CC280918C1490918D142B
:10393000A0918E14B0918F148093BC149093BD14F9
:10394000A093BE14B093BF14809172148093AA14F4
:1039500080917B1490917C14A0917D14B0917E1481
:103960008093B7149093B814A093B914B093BA1479
:10397000C0909814D0909914E0909A14F0909B14F1
:10398000A70196016091B3147091B4148091B5149D
:103990009091B6140E944E758823F9F01091B214DC
:1039A000112359F080915314823039F00E94766EC1
:1039B000B701A601812F0E94214A8091981490910D
:1039C0009914A0919A14B0919B148093B31490937E
:1039D000B414A093B514B093B61480919C14809342
:1039E000BB1410917A148091B2148117B9F08091B0
:1039F0005314823079F0C090B314D090B414E09096
:103A0000B514F090B6140E94766EB701A601812F0E
:103A10000E94214A80917A148093B21410917914F3
:103A20008091B114811781F080915314823041F05C
:103A30000E94766E123011F45C9A02C00E949E625F
:103A4000809179148093B11480917014813089F041
:103A5000809175148093AD14809173148093AB148E
:103A6000C255DF4F8881CE5AD040833009F074C0F0
:103A700054C080915314823059F3809090149090E8
:103A80009114A0909214B090931420E030E040EA9A
:103A900051E4C501B4010E94A7770E942B760E94D1
:103AA000C2756B017C010E94766E20E030E04AE72F
:103AB00054E4C501B4010E94A7774B015C0182E385
:103AC0008C9DB0018D9D700D112480E090E00E94CE
:103AD000EE759B01AC01C501B4010E9474740E9493
:103AE0002B760E94C275CB010E94EC37860101152E
:103AF000110509F4ADCF0E94F737015011098091EB
:103B000052148111A5CF9FEFA0E7B2E09150A040E1
:103B1000B040E1F700C00000EACF809176148093B6
:103B2000AE14813089F48091A5149091A614A091CF
:103B3000A714B091A8148093E4149093E514A09373
:103B4000E614B093E71408C01092E4141092E51440
:103B50001092E6141092E714809177149091AF14AC
:103B6000981759F08093AF148CE0FE013196ACECBD
:103B7000B4E101900D928A95E1F7809174148093DD
:103B8000AC14E09170148E2F90E0FC013297E83075
:103B9000F10508F060C08827E257FF4F8F4F0C9463
:103BA000E578BE016B5E7F4F822D0E949656809114
:103BB000AF14281250C08CE0FE017596ACECB4E155
:103BC0003EC0C255DF4FE881CE5AD040EE2371F09F
:103BD0002091B7143091B8144091B9145091BA148F
:103BE00000E06DE974E181E00E949B5B2091B714D5
:103BF0003091B8144091B9145091BA1400E0BE014C
:103C00006B5E7F4F81E00E949B5B182F8CE0FE0172
:103C10007596A0ECB4E101900D928A95E1F71CC075
:103C200060EC74E186E003C060EC74E187E00E9420
:103C3000965611C08CE0EDE9F4E1A8EDB4E10190F5
:103C40000D928A95E1F707C08CE0E8EDF4E1DF0121
:103C50001D928A95E9F710E0809171148093A91460
:103C6000883009F470C0C255DF4FB881CE5AD040B9
:103C7000B23009F068C090E08830910508F05AC071
:103C8000FC014090B7145090B8146090B914709033
:103C9000BA148827EA56FF4F8F4F0C94E57800E05E
:103CA000A30192016DE974E180E007C00091AA14BC
:103CB000A30192016DE974E181E00E949B5B182FE2
:103CC00039C06091941470919514809196149091DC
:103CD00097148824839409C060919414709195146A
:103CE0008091961490919714812CC754DF4FA8802F
:103CF000C95BD040CA55DF4FC880C65AD040CE55A8
:103D0000DF4FE880C25AD0400091AA14A30192016B
:103D10000E94676F0FC000E001C001E020E004C016
:103D200000E001C001E021E04091AA14C301B2010A
:103D30000E94D16E8CE0EDE9F4E1A0ECB4E10190D9
:103D40000D928A95E1F7809178148093B0148823BE
:103D500009F468C00E94766E9091B014809153145B
:103D6000913069F48230E9F19FB7F89480910114A1
:103D70008860809301149FBF0E94F73732C091E0A2
:103D80009093A9141092AD141092AC141092AA142E
:103D90001092AF141092B2141092B1148230A9F0A4
:103DA000BE016F5F7F4F80E00E949F568823E1F144
:103DB0008CE0FE013196ACECB4E101900D928A9555
:103DC000E1F70E941A4A0E949E6284EE98E00E94E7
:103DD000E73288E898E00E94E73281E798E00E94A5
:103DE000E7321092B0141EC081E06AC082E068C061
:103DF00088E166C089E164C084E062C08BE160C094
:103E000085E25EC084E15CC08EE15AC08FE158C09B
:103E100086E156C080E254C082E252C083E250C0C4
:103E200084E24EC0812F4CC087E04AC0AEE12A1622
:103E3000310411F40C94480D50F5EAE02E163104CB
:103E400011F40C94180DFCE12F16310411F40C94AC
:103E50002C0D87E135C09CE52916310411F00C9436
:103E6000C20EA1E0C255DF4FA883CE5AD040CA553A
:103E7000DF4FE881F981C65AD040309729F03A9750
:103E800009F689E00C94510D88E00C94510D25E35E
:103E90002216310411F40C946B0D3CE52316310409
:103EA00031F3D7CF133009F007CAE1C9153009F44F
:103EB000EAC9173009F4FBC9133009F0FDC9D2C9AA
:103EC000C253DF4F0FB6F894DEBF0FBECDBFDF91F8
:103ED000CF911F910F91FF90EF90DF90CF90BF9007
:103EE000AF909F908F907F906F905F904F903F909A
:103EF0002F9008952F923F924F925F926F927F92F0
:103F00008F929F92AF92BF92CF92DF92EF92FF92E9
:103F10000F931F93CF93DF93CDB7DEB7C459D10969
:103F20000FB6F894DEBF0FBECDBF853A28E09207EA
:103F300011F40C94822AFB01863A38E0930708F0CA
:103F400045C08B34A8E09A0709F451C1F0F4833ED0
:103F500027E0920709F40BC160F48231910509F45E
:103F600006C18C3C910509F49DC0419709F07FC0C2
:103F700082C08934A8E09A0709F41EC108F024C160
:103F80008834984009F4CDC072C08D3938E0930769
:103F900009F4F9C178F48A39B8E09B0709F494C1AF
:103FA0008B3928E0920709F4CAC18939984009F091
:103FB0005EC030C1833AA8E09A0709F455C208F000
:103FC000CDC2823A984009F412C251C08A3B38E00F
:103FD000930711F40C94822AF0F48E3AB8E09B0710
:103FE00009F43FC560F48C3A38E0930709F41EC326
:103FF00008F029C4873A984009F412C338C0883BB6
:1040000028E0920709F44BC608F059C6873B984050
:1040100009F426C62CC08136B9E09B0709F4DEC737
:1040200070F4813C38E0930709F496C68036A9E025
:104030009A0709F4F5C6803C9840C9F462C68B36ED
:1040400029E0920711F40C94902830F48A369940B4
:1040500011F40C9445280BC08C36B9E09B0711F481
:104060000C94C928843C994011F40C94122981E0E5
:1040700090E00C94842A8091401482FF08C08A9AB0
:10408000809108018160809308015F9A07C08A9837
:10409000809108018E7F809308015F980E94B72F5E
:1040A0008FE00EC18E010F5F1F4F1F930F938BEC9C
:1040B00093E09F938F93FF936F930E9446790F90A5
:1040C0000F900F900F900F900F901816190614F084
:1040D0000C94E8281D8A1E8A1F8A188EAE014B5E3A
:1040E0005F4F60E070E0C8010E94303A8823D9F148
:1040F0004D895E896F89788D88E70E9493554D8937
:104100005E896F89788D89E70E9493554D895E8914
:104110006F89788D8AE70E9493550E94B95A0C9452
:10412000822A8E010F5F1F4F1F930F9386ED93E03E
:104130009F938F93FF936F930E9446790F900F90F8
:104140000F900F900F900F901816190614F00C9402
:10415000E828AE014B5E5F4F60E070E0C8010E944E
:10416000303A811108C082E390E00C94842A0E94C6
:10417000FC2E0C94822A20E030E04AE754E46D895A
:104180007E898F89988D0E94A7770E94BD7516162B
:10419000170694F47093470D6093460D11E0109349
:1041A000480D8091450D81110C94822A0E94382E71
:1041B0001093450D0C94822A1092480D1092470DD1
:1041C0001092460D0C94822A8081863561F6818199
:1041D0008053823040F61092C60D813021F010924B
:1041E000C50D0C94822A8093C50D0C94822A80817F
:1041F000863509F0B8CF81818053823008F0B3CF83
:10420000813021F01092CB0D0C94822A8093CB0D3B
:104210000C94822A80818E3409F0A5CF918190532D
:10422000943008F0A0CF923079F1933009F443C074
:10423000209140148091C20D913099F022FF08C066
:104240008A9A909108019160909308015F9A07C043
:104250008A98909108019E7F909308015F988460EE
:104260002FC022FF08C08A9A909108019160909314
:1042700008015F9A07C08A98909108019E7F9093E9
:1042800008015F9881601CC08091401482FF08C0C3
:104290008A9A809108018160809308015F9A07C023
:1042A0008A98809108018E7F809308015F988091A1
:1042B000C20D826005C00E94B72F8091C20D886038
:1042C0008093C20D0C94812A80818E3409F04BCFEB
:1042D00091819053943008F046CF9230B1F09330F2
:1042E00041F1209140148091C20D913039F022FFAC
:1042F00002C05F9801C05F9A8B7F17C022FF02C087
:104300008A9801C08A9A8E7F10C08091401482FFE3
:1043100004C0809108018E7F03C0809108018160F4
:10432000809308018091C20D8D7F8093C20D0C9403
:10433000822A0E94EE2E8091C20D877FF6CF808167
:104340008E3409F010CF81818053843008F00BCF78
:104350009091C20D823089F0833091F0813019F054
:1043600090FF03C07AC491FD78C466EC73E086E5E3
:104370009DE00E9411790C94822A92FD6EC4F5CFC3
:1043800093FFF3CF6AC48E010F5F1F4F1F930F93EC
:104390008FED93E09F938F93FF936F930E944679E5
:1043A0000F900F900F900F900F900F901816190606
:1043B0000CF00EC78CE0F801A9E4BDE001900D926D
:1043C0008A95E1F709E41DE08AEE93E0D8016D914A
:1043D0008D017C01BFEFEB1AFB0A0E94F761C70158
:1043E000E6EFEE16E3E0FE0689F70C94822A1AA6A1
:1043F00019A61D8A1E8A1F8A188E8E010F5F1F4FF5
:104400008AE0D8011D928A95E9F7CE0189969F939B
:104410008F931F930F938AEE93E09F938F93FF9355
:104420006F930E9446790FB6F894DEBF0FBECDBFE2
:1044300002970CF4CDC6AE014B5E5F4F60E070E0BA
:10444000C8010E94303A882309F48DCE2D893E8917
:104450004F89588D69A57AA5072E000C880B990BFA
:104460000E94532E0C94822A9E012F5F3F4F3901E8
:1044700084E1D9011D928A95E9F7CE0189969F932F
:104480008F9344979F938F9388969F938F9386EFF4
:1044900093E09F938F93FF936F930E9446790FB69B
:1044A000F894DEBF0FBECDBF03970CF491C68DAD5F
:1044B000813009F058CE6D897E89653FFFEF7F0717
:1044C00008F051CE89A58230C9F0843059F181308D
:1044D00009F049CE41E00E94E72C6B017C01830189
:1044E00020E045E00E94F971C701B6010E94BD7548
:1044F000862F062E000C990B9F9310C042E081E09E
:104500000E94E72C6B017C01830120E045E00E94C2
:10451000F971C701B6010E94BD757F936F9386EB59
:1045200093E00DC044E081E00E94E72C830124E089
:1045300045E00E94F9717F926F928AED92E09F931D
:104540008F9386E59DE09F938F930E9418790F903B
:104550000F900F900F900F900F90D4C78E010F5FA8
:104560001F4F1F930F93CE01CD969F938F93449728
:104570009F938F933E0121E5620E711C7F926F9293
:1045800080E094E09F938F93FF936F930E9446790E
:104590000FB6F894DEBF0FBECDBF04970CF418C65B
:1045A000F3018081813009F0DECD89A59AA5853F90
:1045B0009F4F08F0D8CDAE014B5E5F4F60E070E0DA
:1045C000C8010E94303A882309F4CDCD8DAD8230E8
:1045D00069F08430A9F0813009F0C5CD0D891E89BC
:1045E0002F89388D69A57AA541E011C00D891E89F2
:1045F0002F89388D69A57AA542E0F301808109C031
:104600000D891E892F89388D69A57AA544E0D301CB
:104610008C910E94852D83E090E00E94EC3772C758
:104620008FEF0E94BF560E949D2C6CC72E01B5E6ED
:104630004B0E511C84E1D201282F1D922A95E9F7D7
:104640003E0131E5630E711CD301282F1D922A957E
:10465000E9F78E01035C1F4FD8011D928A95E9F797
:10466000C357DF4F188219821A821B82CD58D0405F
:10467000C757DF4F188219821A821B82C958D0404F
:10468000CB57DF4F188219821A821B82C558D0403F
:104690001F930F937F926F925F924F9282E194E00B
:1046A0009F938F93FF936F930E9446790FB6F89470
:1046B000DEBF0FBECDBF03970CF48AC5AE014357D2
:1046C0005F4F60E070E0C2010E94303A882309F435
:1046D0004ACDAE0147575F4F60E070E0C3010E94D2
:1046E000303A882309F43FCDAE014B575F4F60E06D
:1046F00070E0C8010E94303A882309F434CDCF57C6
:10470000DF4F188219821A821B82C158D040C358C9
:10471000DF4F188219821A821B82CD57D040ED9646
:104720001CAE1DAE1EAE1FAEED9784E13E01F9E258
:104730006F0E711CD301E82F1D92EA95E9F72E0147
:10474000F5E14F0E511CD201E82F1D92EA95E9F7D1
:104750009E012F5F3F4F1901D9011D928A95E9F7FC
:10476000AE014B575F4FBE0167577F4FCE01835756
:104770009F4F0E94A54ECB57DF4FE880F9800A81FA
:104780001B81C558D040C757DF4F288139814A81E6
:104790005B81C958D040C357DF4F688179818A81D6
:1047A0009B81CD58D040FE01EF57FF4F4F01DE01F6
:1047B000A758BF4F5D0134976F010E94F94F20E069
:1047C00030E044EB52E4CF57DF4F688179818A8132
:1047D0009B81C158D0400E947574CF57DF4F6883CA
:1047E00079838A839B83C158D040C358DF4F688147
:1047F00079818A819B81CD57D040820124E045E0B8
:104800000E94F971ED966CAD7DAD8EAD9FADED97CB
:10481000810124E045E00E94F971CF57DF4F6881A4
:1048200079818A819B81C158D040830124E045E091
:104830000E94F9713F922F925F924F927F926F92F6
:1048400080EB92E000C12E0135E6430E511C84E15D
:10485000D201282F1D922A95E9F73E0131E5630E1A
:10486000711CD301282F1D922A95E9F78E01035C54
:104870001F4FD8011D928A95E9F7C357DF4F188261
:1048800019821A821B82CD58D040C757DF4F188239
:1048900019821A821B82C958D040CB57DF4F188229
:1048A00019821A821B82C558D0401F930F937F92A2
:1048B0006F925F924F9281E394E09F938F93FF9367
:1048C0006F930E9446790FB6F894DEBF0FBECDBF3E
:1048D00003970CF47DC4AE0143575F4F60E070E076
:1048E000C2010E94303A882309F43DCCAE014757FB
:1048F0005F4F60E070E0C3010E94303A882309F402
:1049000032CCAE014B575F4F60E070E0C8010E94AF
:10491000303A882309F427CCCF57DF4F1882198209
:104920001A821B82C158D040C358DF4F18821982A7
:104930001A821B82CD57D040ED961CAE1DAE1EAE26
:104940001FAEED9784E13E01F9E26F0E711CD301B9
:10495000E82F1D92EA95E9F72E01F5E14F0E511C63
:10496000D201E82F1D92EA95E9F79E012F5F3F4F94
:104970001901D9011D928A95E9F720E030E044EB56
:1049800052E4C357DF4F688179818A819B81CD587A
:10499000D0400E9474747B018C01C357DF4F688341
:1049A00079838A839B83CD58D040CB57DF4F2881B2
:1049B00039814A815B81C558D040C757DF4F688134
:1049C00079818A819B81C958D040FE01E758FF4F09
:1049D0004F01DE01A358BF4F5D0138966F010E9461
:1049E000AF51A401B501C6010E94504FCF57DF4F10
:1049F000688179818A819B81C158D040830124E0FC
:104A000045E00E94F971C358DF4F688179818A813E
:104A10009B81CD57D040820124E045E00E94F9718E
:104A2000ED966CAD7DAD8EAD9FADED97810124E02F
:104A300045E00E94F9713F922F925F924F927F92D0
:104A40006F9280EE92E09F938F9386E59DE09F9317
:104A50008F930E9418790FB6F894DEBF0FBECDBFBA
:104A600051C5CF57DF4F188219821A821B82C15855
:104A7000D040C358DF4F188219821A821B82CD574B
:104A8000D040ED961CAE1DAE1EAE1FAEED9784E17C
:104A90002E0139E2430E511CD201282F1D922A9576
:104AA000E9F73E0135E1630E711CD301282F1D92F9
:104AB0002A95E9F7DE0111967D011D928A95E9F7A5
:104AC0008E010B571F4F8FEF90E0D8018D939C9371
:104AD0001F930F93FF92EF927F926F925F924F928C
:104AE00080E594E09F938F93FF936F930E944679A4
:104AF0000FB6F894DEBF0FBECDBF04970CF468C3A9
:104B0000AE014F575F4F60E070E0C2010E94303A43
:104B1000882309F428CBAE0143585F4F60E070E072
:104B2000C3010E94303A882309F41DCBAE014758D7
:104B30005F4F60E070E0C7010E94303A882309F4BB
:104B400012CBD8018D919C91009709F443C0019735
:104B500009F009CBCF57DF4F488059806A807B80AE
:104B6000C158D04020E030E044EB52E4C358DF4F5E
:104B7000688179818A819B81CD57D0400E9474746D
:104B800021EE3EE245E652E40E9455756B017C0140
:104B90000E9452759B01AC01C301B2010E94A7772C
:104BA000CF57DF4F688379838A839B83C158D04076
:104BB000C701B6010E940A789B01AC01C301B20192
:104BC0000E94A777C358DF4F688379838A839B83CA
:104BD000CD57D040AE0147585F4FBE0163587F4F5D
:104BE000CE018F579F4F0E94A54EED96ECACFDACC9
:104BF0000EAD1FADED97C358DF4F288139814A8133
:104C00005B81CD57D040CF57DF4F688179818A8152
:104C10009B81C158D040FE01FD964F01DE01AF5A85
:104C2000BF4F5D01B8966F010E94F94F2196ECAC21
:104C3000FDAC0EAD1FAD219765962CAD3DAD4EADD3
:104C40005FAD6597A9966CAD7DAD8EAD9FADA99713
:104C50000E942553882309F488CB6AED73E087CB43
:104C60008081863509F07FCA81818053823008F0C7
:104C70007ACA813049F08091880D9091890D019711
:104C800009F040C4C7D53EC49C9A9D9AA49AA598A1
:104C900081E090E09093890D8093880D33C48081EA
:104CA000863509F060CA81818053823008F05BCA82
:104CB000813011F03FD626C43F9A479823C48081A3
:104CC000863509F050CA81818053823008F04BCA82
:104CD000813011F01ED616C480910101806280934C
:104CE00001018091010180648093010180910201A2
:104CF00080628093020180910201806480930201AE
:104D000001C4CE0101969F938F9344969F938F93F6
:104D100082E794E09F938F93FF936F930E9446796D
:104D20000FB6F894DEBF0FBECDBF02970CF450C291
:104D30008D899E898634910508F015CA29813A81AA
:104D40002230310508F00FCA232B11F061E001C0B9
:104D500060E00E94924CD6C3CE0101969F938F9340
:104D600044969F938F9382E794E09F938F93FF9352
:104D70006F930E9446790FB6F894DEBF0FBECDBF89
:104D800002970CF425C28D899E898634910508F01E
:104D9000EAC929813A812230310508F0E4C9FC01D1
:104DA000EA5BF64F8050974F232BD1F02491FC0102
:104DB0008491882309F4A6C390E0880F991FFC0111
:104DC000E654F84FA591B491FC01EA51F74F859153
:104DD00094918FB7F894EC91E22BEC938FBF92C330
:104DE0002491FC018491882309F48CC390E0880FFE
:104DF000991FFC01E654F84F45915491FC01EA518A
:104E0000F74FA591B4919FB7F894FA01808120954E
:104E1000822380838C91E22FE823EC939FBF72C39F
:104E20008081833509F09FC98181E0EDE80FE8308A
:104E300008F099C98E2F90E0FC013197E730F10519
:104E400030F48827E256FF4F8F4F0C94E578C6D791
:104E50001092910D1092900D8AE999E1A5E9B2E4C2
:104E60008093960D9093970DA093980DB093990D04
:104E70008AE999E9A2E6B2E482C1B0D781E090E084
:104E80009093910D8093900D86EF98E2ACE4B2E49C
:104E90008093960D9093970DA093980DB093990DD4
:104EA0008DEC9CECA0E8B2E46AC198D782E090E077
:104EB0009093910D8093900D89E29CEDA4E9B2E46A
:104EC0008093960D9093970DA093980DB093990DA4
:104ED00080E090E0A2E6B2E452C180D783E090E0A7
:104EE0009093910D8093900D80E090E0ACE2B2E45D
:104EF0008093960D9093970DA093980DB093990D74
:104F000080E090E0ABE8B2E43AC168D784E090E09A
:104F10009093910D8093900D80E090E0ACE1B2E42D
:104F20008093960D9093970DA093980DB093990D43
:104F300080E090E0A9E9B2E417C050D785E090E0A6
:104F40009093910D8093900D8DEC9CECA2E9B2E4CE
:104F50008093960D9093970DA093980DB093990D13
:104F600080E090E0A8E9B2E48093920D9093930DD5
:104F7000A093940DB093950D04D709C12FD786E067
:104F800090E09093910D8093900D86E696E6AAE9C5
:104F9000B2E48093960D9093970DA093980DB093E3
:104FA000990D80E090E0AAE5B2E4E9C017D787E068
:104FB00090E09093910D8093900D85E89BEEABEC83
:104FC000B1E48093960D9093970DA093980DB093B4
:104FD000990D80E090E0A2E3B2E4D1C080E090E0DF
:104FE0000E94E95390938D0D80938C0D81E090E0A9
:104FF0000E94E95390938F0D80938E0D82E090E094
:105000000E94E95390938B0D80938A0D0AE81DE06E
:1050100084E393E0D8016D918D017C01BFEFEB1A21
:10502000FB0A0E94F761C701EAE3EE16E3E0FE0621
:1050300089F76BEB82E393E00E94F7610E94BF5314
:1050400080E090E00E943B5460939E0D70939F0D12
:105050008093A00D9093A10D81E090E00E943B54BD
:105060006093A20D7093A30D8093A40D9093A50D52
:1050700082E090E00E943B546093A60D7093A70DD0
:105080008093A80D9093A90D3DC260915E1470911C
:105090005F1480916014909161140E94F0752B014F
:1050A0003C0160915A1470915B1480915C14909152
:1050B0005D140E94F075CF56DF4F688379838A8331
:1050C0009B83C159D04060915614709157148091C0
:1050D0005814909159140E94F0759E012F5F3F4F14
:1050E0004901DE0155965D01FE01B9966F0183010C
:1050F0007201CF56DF4F288139814A815B81C159C6
:10510000D0400E94945289819A81AB81BC81809366
:10511000960D9093970DA093980DB093990D37C06D
:105120001D8A1E8A1F8A188E8E010F5F1F4F84E111
:10513000D8011D928A95E9F71F930F9389E794E0B0
:105140009F938F93FF936F930E9446790F900F90D8
:105150000F900F900F900F9018161906CCF5AE0116
:105160004B5E5F4F60E070E0C8010E94303A8823D8
:1051700011F40C94B3208D899E89AF89B88D8093EA
:10518000920D9093930DA093940DB093950D37D5F8
:10519000B9C11D8A1E8A1F8A188E8E010F5F1F4F8C
:1051A00084E1D8011D928A95E9F71F930F9384E853
:1051B00094E09F938F93FF936F930E9446790F9093
:1051C0000F900F900F900F900F90181619067CF00B
:1051D0001F9281E08F9381E192E09F938F930E94D1
:1051E0008B320F900F900F900F900C94B320AE0164
:1051F0004B5E5F4F60E070E0C8010E94303A882348
:1052000011F40C94B3208D899E89AF89B88D809359
:105210009A0D90939B0DA0939C0DB0939D0DEFD490
:10522000B0D570C1899866EC662E6EE0762E83014B
:1052300082E090E00E94E953F801819391938F01FD
:1052400050E9E52EFF24F394889A6AE070E080E04C
:1052500090E00E94AE3788986CE271E080E090E0C8
:105260000E94AE37F1E0EF1AF10871F788EE93E093
:105270000E94EC372FE00E381207D1F682E090E062
:105280000E94E95390938F0F80938E0F899A00E2CA
:105290001EE4889A6AE070E080E090E00E94AE37F9
:1052A00088986CE271E080E090E00E94AE37015097
:1052B000110979F78F984EE0E42EF12C00E911E006
:1052C0008E9A6AE070E080E090E00E94AE378E989F
:1052D0006CE271E080E090E00E94AE37015011096D
:1052E00079F731E0E31AF10849F788EE93E00E947C
:1052F000EC378F9A36E4232E3EE0332E210100E076
:1053000010E080E090E00E94E953D2018D939D93DC
:105310002D0120E9E22EFF24F3948E9A6AE070E0DA
:1053200080E090E00E94AE378E9864EF71E080E0FC
:1053300090E00E94AE37B1E0EB1AF10871F70E3041
:105340001105A9F088EE93E00E94EC370F5F1F4F24
:105350000F331105B1F680E090E00E94E95390937D
:10536000C50E8093C40E8F9800E51DE223C0809186
:105370000B018D7F80930B01E12C92E3F92E80913C
:105380000B01886080930B016AE070E080E090E0A0
:105390000E94AE3780910B01877F80930B016CE2F6
:1053A00071E080E090E00E94AE37E1E0EE1AF10893
:1053B00031F7C8CF8E9A6AE070E080E090E00E94FA
:1053C000AE378E986CE271E080E090E00E94AE37DC
:1053D0000150110979F788EE93E00E94EC37809133
:1053E0000B01826080930B0100E913E380910B01B4
:1053F000886080930B016AE070E080E090E00E949A
:10540000AE3780910B01877F80930B016CE271E0D6
:1054100080E090E00E94AE370150110939F788EE24
:1054200093E00E94EC3780910B018D7F80930B01FC
:105430000CEC1DE0280181E090E00E94E953D201CC
:105440008D939D932D0180E9E82EFF24F3948091A4
:105450000B01886080930B016AE070E080E090E0CF
:105460000E94AE3780910B01877F80930B016CE225
:1054700071E080E090E00E94AE37B1E0EB1AF108F5
:1054800031F788EE93E00E94EC37E4E44E16EEE04C
:105490005E0689F681E090E00E94E9539093450E04
:1054A0008093440E81E090E0D3016D913D012C0189
:1054B000BFEF4B1A5B0A0E94F761C2018B3C91055A
:1054C00099F7F10161911F013201FFEF6F1A7F0A15
:1054D000C2010E94F76123012BE4621621E07206EB
:1054E00081F7D8016D918D017301BFEFEB1AFB0AB3
:1054F000C3010E94F7613701E5ECEE16E1E0FE061C
:1055000081F793D180E090E0CC56DF4F0FB6F8944E
:10551000DEBF0FBECDBFDF91CF911F910F91FF90E6
:10552000EF90DF90CF90BF90AF909F908F907F9043
:105530006F905F904F903F902F9008952091980F1B
:105540003091990F21153105B9F08091A80F9091F4
:10555000A90F8217930734F401969093A90F8093B3
:10556000A80F0AC01092A90F1092A80F1092990FBD
:105570001092980F1092C30D2091460D3091470D57
:1055800021153105A1F08091A60F9091A70F8217E8
:10559000930734F401969093A70F8093A60F07C04A
:1055A0001092A70F1092A60F81E08093C40D8091F6
:1055B000C30D81111BC08091480D811117C08091CE
:1055C00073008E7F809373001092450D1092990F97
:1055D0001092980F1092470D1092460D1092A90F3D
:1055E0001092A80F1092A70F1092A60F0895809105
:1055F000A50F811107C081E08093A50F80910B0159
:10560000806205C01092A50F80910B018F7D809361
:105610000B018091A30F9091A40F9C012F5F3F4F2E
:105620003093A40F2093A30F209104023091050220
:105630002817390760F41092A40F1092A30F8091DD
:1056400070008E7F8093700081E08093C90D089573
:105650002091900D3091910D2430310529F426E6EA
:1056600036E646E65FE307C02530310539F526E624
:1056700036E646EE5FE30E94557520E030E040E8F4
:1056800052E40E94A7770E94BD756093900F7093BB
:10569000910F8093920F9093930F8CE69BE29093DF
:1056A000FB138093FA131092A00085E08093A10071
:1056B0008DEF9FEF9093FD138093FC138091FC136B
:1056C0009091FD139093A5008093A40080917200A7
:1056D00081608093720008958091900F9091910F56
:1056E000A091920FB091930F181619061A061B0677
:1056F000F4F42091A20F222389F01092A20F0197B7
:10570000A109B1098093900F9093910FA093920FEC
:10571000B093930F80910201806406C081E0809372
:10572000A20F809102018F7B8093020108950E9455
:10573000494D1092900F1092910F1092920F10926B
:10574000930F81E08093C80D0895CF93DF93EB0111
:10575000873140F4853108F043C08C30B0F481309B
:1057600048F03EC09881833329F1843369F1823354
:1057700061F416C08881882329F06FE874E0CE01B7
:105780000E94067961E974E028C08881882329F0A5
:105790006FE874E0CE010E94067964E974E01DC0F0
:1057A000992329F06FE874E0CE010E94067968E938
:1057B00074E013C0992329F06FE874E0CE010E94D1
:1057C00006796CE974E009C0992329F06FE874E068
:1057D000CE010E94067960EA74E0CE010E9406794B
:1057E0008091560D882379F066E57DE0CE010E9418
:1057F000067982E3E6E5FDE0DF011D928A95E9F78F
:10580000DF91CF9108956DE773E0CE01DF91CF91E5
:105810000C9406799C9A9D9AA498A59A82E090E0AF
:105820009093890D8093880D08958F929F92AF92E7
:10583000BF92CF92DF92EF92FF920F931F93CF937D
:10584000DF9302E514E18EE1F80111928A95E9F700
:10585000D9D60E94F16180E090E00E943B54C0E9FB
:10586000DDE06E877F87888B998B81E090E00E94D6
:105870003B546A8B7B8B8C8B9D8B82E090E00E94EB
:105880003B546E8B7F8B888F998FF801C480D580B5
:10589000E680F780CA8EDB8EEC8EFD8EC084D184CC
:1058A000E284F384CE8EDF8EE8A2F9A2048515850A
:1058B000268537850AA31BA32CA33DA320E030E057
:1058C00044EB52E40E9474747B018C012A893B8969
:1058D0004C895D896E857F8588899989EEEB8E2E4E
:1058E000EDE09E2EFAEBAF2EFDE0BF2EA6EBCA2E0A
:1058F000ADE0DA2E0E94AF51DF91CF911F910F9151
:10590000FF90EF90DF90CF90BF90AF909F908F90DF
:105910000895E1E0F1E0808180628083808180648D
:105920008083E2E0F1E080818F7D808380818F7BC6
:10593000808308953F9A479A08958091040187785B
:1059400080930401809103018877803451F440E012
:1059500050E060E87FE384E00E94935564EA74E0DD
:105960002AC080910301887791F440E050E060E81C
:105970007FE384E00E9493556BEA74E08AE99FE03C
:105980000E94117940E050E060EE70E41BC080910D
:105990000301887740E050E060E87FE3803231F433
:1059A00084E00E94935562EB74E005C084E00E949D
:1059B000935569EB74E08AE99FE00E94117940E019
:1059C00050E0BA0183E00E9493550C94B95A9F921B
:1059D000AF92BF92CF92DF92EF92FF920F931F93FD
:1059E000CF93DF9300D01F92CDB7DEB7813021F087
:1059F000823019F452EA01C050EA8150823008F036
:105A00006FC0EFEFE40FE43028F4F0E0EA5FFD4F01
:105A1000E08001C0E12C942E8B01362F3F77F12CD2
:105A2000632F70E081E890E08E199F09A52EB12CBC
:105A300068177907ECF080E8C82EC31AD12C9601BC
:105A4000A801B501CE0101960E94014E85E090E0CB
:105A50000E94EC3797012C193D09A8014C0D5D1DE2
:105A6000B50181E090E08C0F9D1F8C0D9D1D05C040
:105A70009701A801B501CE0101960E94014E82E076
:105A80009816C9F084E0981631F181E0981228C088
:105A90001981612F70E080E090E00E94EE756B014B
:105AA0007C01103201F580EC94E09F938F9333D505
:105AB0000F900F9018C0698170E0762F66278A8159
:105AC000680F711D072E000C880B990B0E94F07552
:105AD0006B017C0108C0C980DA80EB80FC8003C0C8
