:1000000065C5000084C5000082C5000080C50000F1
:100010007EC500007CC500007AC5000078C50000E0
:1000200076C500000C94DF5C72C500000C94215072
:100030006EC500006CC500006AC500000C94AC5C85
:1000400066C500000C94CF3662C5000060C5000094
:100050005EC500005CC500005AC500000C945A360D
:1000600056C500000C94A8310C94983250C500007D
:100070004EC500004CC500004AC5000048C5000040
:1000800046C5000044C5000042C500000C94965CC3
:100090000C9440310C946A323AC5000038C5000017
:1000A00036C5000034C500000C945E3930C5000030
:1000B0002EC500000C945B5C2AC5000028C500001A
:1000C00026C5000024C500000C94265C0C94D83092
:1000D0000C943C321CC500000C9470300C940E3211
:1000E00016C500006E14D41ED41E7C149114A614E0
:1000F000BB14D41EC414D41ED714D41EE614F0149A
:100100005015D41ED41ED41E071521153B15A31D52
:10011000B31DE21DB31DE61DFD1DEC1DF61D211EC8
:10012000281E331E3E1E5D1E5F1E621E641E1D269F
:1001300035264D2665267D269E26B6269E3CA43C69
:10014000A73CAA3CAE3CB63CBE3C2B3D2B3D2B3DD8
:10015000C63CC93CD23CDB3C2B3D2B3D2B3D2B3DD3
:100160002B3D2B3DE33CED3CF93C033D063D0F3D73
:10017000183D1E3D9E5BA15B905B945B9A5BD85BD8
:10018000A55BA95BAF5BB35BB75BBD5BC15BC55BED
:10019000D85BCB5BCF5BD35B084AD73B3BCE016ED2
:1001A00084BCBFFDC12F3D6C74319ABD56833DDACE
:1001B0003D00C77F11BED9E4BB4C3E916BAAAABEDD
:1001C000000000803F072C7AA5BA6CC590DA3B93FB
:1001D00065FC8BBC53F810FD3C5692834DBD879D4A
:1001E0003AB63DCBC9BF5BBE73DA0FC93F05A84C19
:1001F000CDB2D44EB93836A9020C50B991868808D0
:100200003CA6AAAA2ABE000000803F0000407A1047
:10021000F35A00A0724E18090010A5D4E80000E8B7
:100220007648170000E40B54020000CA9A3B000015
:1002300000E1F505000080969800000040420F00A4
:100240000000A08601000000102700000000E80365
:10025000000000006400000000000A000000000030
:100260000100000000002C76D888DC674F0823DFEF
:10027000C1DFAE59E1B1B796E5E3E453C63AE651C2
:10028000997696E8E6C28426EB898C9B62ED407CE9
:100290006FFCEFBC9C9F40F2BAA56FA5F490055A85
:1002A0002AF75C936B6CF9676DC11BFCE0E40D47AA
:1002B000FEF520E6B500D0ED902E030094357705CD
:1002C0000080841E080000204E0A000000C80C3385
:1002D0003333330F986E12831141EF8D2114893B14
:1002E000E65516CFFEE6DB18D1844B381BF77C1D94
:1002F000901DA4BBE424203284725E228100C9F1E7
:1003000024ECA1E53D276364696E6F7073757858BE
:100310005B00000020002300260029002C002F0095
:100320003200000100000301060109010D0A003D31
:1003300000244E005D0D0A005B302E396A2E3230EB
:100340003136303732363A005D0D0A005B544C4F7F
:100350003A005D0D0A002C005B4739323A005D0D12
:100360000A002C003A003330003238005B47005D51
:100370000D0A00205300204600205400204D380074
:10038000204D3900204D3500204D3400204D3300E4
:10039000204D3200204D3100204D300020473934AF
:1003A00000204739330020473931002047393000D9
:1003B00020473230002047323100204731390020B9
:1003C0004731380020473137002047004733382E67
:1003D000004738300047330047320047310047308C
:1003E000005B00290D0A00206D617820747261762F
:1003F000656C2C206D6D0020616363656C2C206D35
:100400006D2F7365635E3200206D617820726174B8
:10041000652C206D6D2F6D696E002C2073746570D6
:100420002F6D6D007A00790078002028003D0024AF
:10043000002028686F6D696E672070756C6C2D6F79
:1004400066662C206D6D290D0A002028686F6D6985
:100450006E67206465626F756E63652C206D7365D1
:1004600063290D0A2432373D002028686F6D696EBC
:1004700067207365656B2C206D6D2F6D696E290D7E
:100480000A2432363D002028686F6D696E67206649
:100490006565642C206D6D2F6D696E290D0A2432FF
:1004A000353D00290D0A2432343D002028686F6D47
:1004B000696E672064697220696E76657274206D5A
:1004C00061736B3A002028686F6D696E67206379ED
:1004D000636C652C20626F6F6C290D0A2432333DEA
:1004E00000202868617264206C696D6974732C2027
:1004F000626F6F6C290D0A2432323D002028736F21
:100500006674206C696D6974732C20626F6F6C293E
:100510000D0A2432313D0020287265706F727420FC
:10052000696E636865732C20626F6F6C290D0A24F5
:1005300032303D00202861726320746F6C657261F7
:100540006E63652C206D6D290D0A2431333D00202A
:10055000286A756E6374696F6E206465766961746C
:10056000696F6E2C206D6D290D0A2431323D0029F2
:100570000D0A2431313D0020287374617475732095
:100580007265706F7274206D61736B3A0020287011
:10059000726F62652070696E20696E766572742C68
:1005A00020626F6F6C290D0A2431303D0020286CC9
:1005B000696D69742070696E7320696E76657274F6
:1005C0002C20626F6F6C290D0A24363D00202873A1
:1005D00074657020656E61626C6520696E76657207
:1005E000742C20626F6F6C290D0A24353D00290D93
:1005F0000A24343D00202864697220706F727420D0
:10060000696E76657274206D61736B3A00290D0A0C
:1006100024333D0020287374657020706F7274203D
:10062000696E76657274206D61736B3A0020287371
:100630007465702069646C652064656C61792C2038
:100640006D736563290D0A24323D0020287374659B
:10065000702070756C73652C2075736563290D0AA5
:1006600024313D0024303D0024242028766965771C
:10067000204772626C2073657474696E6773290D0C
:100680000A2423202876696577202320706172610F
:100690006D6574657273290D0A2447202876696593
:1006A0007720706172736572207374617465290DAF
:1006B0000A2449202876696577206275696C642070
:1006C000696E666F290D0A244E20287669657720A9
:1006D0007374617274757020626C6F636B73290D33
:1006E0000A24783D76616C756520287361766520F3
:1006F0004772626C2073657474696E67290D0A24F1
:100700004E783D6C696E6520287361766520737440
:10071000617274757020626C6F636B290D0A2443DB
:100720002028636865636B2067636F6465206D6F65
:100730006465290D0A245820286B696C6C20616C53
:1007400061726D206C6F636B290D0A24482028723A
:10075000756E20686F6D696E67206379636C6529BB
:100760000D0A7E20286379636C652073746172744E
:10077000290D0A2120286665656420686F6C64294C
:100780000D0A3F202863757272656E742073746160
:10079000747573290D0A6374726C2D782028726544
:1007A000736574204772626C290D0A0000002100F5
:1007B000240027002A002D00300033000101000032
:1007C000040107010A010D0A00486F6D696E672078
:1007D0006661696C0050726F6265206661696C00C9
:1007E00041626F727420647572696E672063796309
:1007F0006C6500536F6674206C696D6974004861A4
:100800007264206C696D697400414C41524D3A200C
:10081000003E0D0A002C4C696D3A002C52583A00EB
:100820002C4275663A002C002C57506F733A002CFE
:10083000002C4D506F733A003C446F6F72003C4384
:100840006865636B003C416C61726D003C486F6D84
:1008500065003C486F6C64003C52756E003C496416
:100860006C65005D0D0A00526573746F72696E6786
:100870002064656661756C74730050676D20456E09
:100880006400436865636B20446F6F720044697352
:1008900061626C656400456E61626C656400436111
:1008A0007574696F6E3A20556E6C6F636B6564008A
:1008B000272448277C2724582720746F20756E6CC6
:1008C0006F636B00526573657420746F20636F6E85
:1008D00074696E7565005B005D0D0A003A002C00BE
:1008E0005B5052423A000D0A00496E76616C6964B1
:1008F0002067636F64652049443A00556E646566FD
:10090000696E656420666565642072617465004D7A
:100910006F64616C2067726F75702076696F6C61AF
:1009200074696F6E00486F6D696E67206E6F74201A
:10093000656E61626C656400416C61726D206C6F04
:10094000636B004E6F742069646C650045455052BE
:100950004F4D2072656164206661696C2E2055736D
:10096000696E672064656661756C74730056616CAE
:100970007565203C2033207573656300536574747E
:10098000696E672064697361626C65640056616CAE
:100990007565203C203000496E76616C6964207377
:1009A000746174656D656E7400426164206E756D6E
:1009B00062657220666F726D617400457870656360
:1009C00074656420636F6D6D616E64206C65747412
:1009D0006572006572726F723A20006F6B0D0A00CB
:1009E00000002200250028002B002E0031003400DA
:1009F00002010000050108010B01050505050705B9
:100A000008080808020202020A0A0808040404048A
:100A100001010101010101010303030303030303B6
:100A2000040707070C0C0C0C0C0C0C0C0202020245
:100A300006060606060606060B0B0B0B0B0B0B0B2E
:100A400001021020200808102040102040800201E0
:100A500002010804020101020408102040808040C5
:100A600020100804020180040201804020100804C4
:100A70000201080402010102040810204080010262
:100A800004081020408000000A0B02090C0D0E081B
:100A90000703040100000000000000000000000047
:100AA0000000000000000000000000000000000046
:100AB0000000121110000000000000000000000003
:100AC00000000000000000000000000011241FBE14
:100AD000CFEFD1E2DEBFCDBF00E00CBF14E0A0E05D
:100AE000B2E0E0E5F9EF00E00BBF02C007900D9225
:100AF000AC3AB107D9F725E1ACEAB4E001C01D92E8
:100B0000A03CB207E1F70E94CF5F0C94A67C78CAA4
:100B10002F923F924F925F926F927F928F929F920D
:100B2000AF92BF92CF92DF92EF92FF920F931F93FB
:100B3000CF93DF93CDB7DEB7C85CD1090FB6F89479
:100B4000DEBF0FBECDBFC754DF4F99838883C95B1B
:100B5000D04089E3E8E4F5E1DF011D928A95E9F7E9
:100B60008AE0E1E8F5E1A9E4B5E101900D928A950A
:100B7000E1F7FE01E756FF4F1082CD54DF4F198297
:100B80001882C35BD040C155DF4F19821882CF5AFB
:100B9000D040C154DF4F1882CF5BD040C655DF4FE5
:100BA0001882CA5AD040C255DF4F1882CE5AD04060
:100BB000E859F109C456DF4FF983E883CC59D04096
:100BC0009E01235A3F4FC256DF4F39832883CE59A7
:100BD000D040CE018F5A9F4FC056DF4F99838883F4
:100BE000C05AD040DE01A959BF4FCE55DF4FB9835F
:100BF000A883C25AD040E059FF4FCC55DF4FF9834C
:100C0000E883C45AD0409C01285F3F4FCD53DF4F4B
:100C100039832883C35CD040C756DF4F8881C959C8
:100C2000D040C754DF4FE881F981C95BD040E80F5D
:100C3000F11D1081112311F40C94B3159FEB910F4A
:100C40009A3110F00C94C61E8F5FC756DF4F888311
:100C5000C959D040AE014B565F4FBE0167567F4F1A
:100C6000C754DF4F88819981C95BD0400E941D45E0
:100C7000882311F40C94C81ECB56DF4FC880D9804E
:100C8000EA80FB80C559D040C701B6010E94897532
:100C90000E94F672CB54DF4F688379838A839B83EB
:100CA000C55BD040CB54DF4F48805980C55BD040F6
:100CB000B20180E090E00E9422739B01AC01C70169
:100CC000B6010E94A87120E030E048EC52E40E9496
:100CD000DB744B015C0120E030E0A9010E94A074AC
:100CE00020E030E040E05FE387FD05C0C501B401CE
:100CF0000E94A97104C0C501B4010E94A8710E949C
:100D0000F1721B011D3411F40C942F0F24F41734CD
:100D100061F00C945B14103511F40C94C50F13356D
:100D200011F40C94E7130C945B14C756DF4F8881C1
:100D3000C959D040C754DF4FA881B981C95BD040A1
:100D4000A80FB11DCD01BAE94B16B8E05B0609F456
:100D500016C160F4F4ED4F16F7E05F06D1F029E913
:100D6000421628E0520609F440C0FAC53DE9431690
:100D700038E0530609F451C3AEE94A16A8E05A0612
:100D800009F436C5BCE94B16B8E05B0609F0E8C5C6
:100D900049C21A821982E1E0F0E0EC0FFD1FFF93D7
:100DA000EF932EE434E03F932F939F938F930E9411
:100DB0007A760F900F900F900F900F900F9018165B
:100DC00019060CF03BC589819A8190936B0F809333
:100DD0006A0F11E01093950D8091170D811148C590
:100DE0000E94FB2B1093170D43C58E010B5E1F4F06
:100DF0001F930F939E01275D3F4F3F932F937E01DB
:100E0000FDE3EF0EF11CFF92EF92CF55DF4F2881EB
:100E1000C15AD0402F93C056DF4F3881C05AD040BE
:100E20003F9329E132E03F932F939F938F930E944A
:100E30007A760FB6F894DEBF0FBECDBF04970CF4E0
:100E4000FDC4EF961CAE1DAE1EAE1FAEEF97E5962D
:100E50001CAE1DAE1EAE1FAEE597AB961CAE1DAE12
:100E60001EAE1FAEAB97A1961CAE1DAE1EAE1FAE42
:100E7000A1978CE0C456DF4FE881F981CC59D0406E
:100E800011928A95E9F7AE0145585F4F60E070E036
:100E9000CE018F5A9F4F0E941D45882309F4E8C454
:100EA000AE014F585F4F60E070E0C7010E941D45E2
:100EB000882309F4DDC4AE0149595F4F60E070E05A
:100EC000CE0189960E941D45882309F4D1C4AE0144
:100ED000435A5F4F60E070E0C8010E941D458823BF
:100EE00009F4C6C420E030E044EB52E4E5966CAD72
:100EF0007DAD8EAD9FADE5970E94A87121EE3EE2DB
:100F000045E652E40E9489726B017C01E5966CAF64
:100F10007DAF8EAF9FAFE5970E948672EF968CAC47
:100F20009DACAEACBFACEF97A50194010E94DB7401
:100F300069837A838B839C83C701B6010E943E75C7
:100F40009B01AC01C501B4010E94DB746D837E83FB
:100F50008F839887AB968CAD9DADAEADBFADAB9793
:100F600089879A87AB87BC87A1962CAD3DAD4EADE6
:100F70005FADA19700E0BE016F5F7F4F37C46596FC
:100F80001CAE1DAE1EAE1FAE659721961CAE1DAEEB
:100F90001EAE1FAE219721E030E02C0F3D1F3F9386
:100FA0002F938E010B5E1F4F1F930F93C156DF4F80
:100FB0003881CF59D0403F93C256DF4FA881CE59D8
:100FC000D040AF9322E432E03F932F939F938F93CF
:100FD0000E947A760FB6F894DEBF0FBECDBF03979E
:100FE0000CF42CC4AE014F5A5F4F60E070E0C801B2
:100FF0000E941D45882309F43BC4AE01435C5F4F4A
:1010000060E070E0CE0101960E941D45882309F43E
:101010002FC43E01F9E26F0E711C8CE0D3011D92CA
:101020008A95E9F760917C0D70917D0D80917E0D20
:1010300090917F0D0E94247320E030E040EA52E45A
:101040000E9489722091700D3091710D4091720D46
:101050005091730D0E94A971CA55DF4F688379833F
:101060008A839B83C65AD0406091800D7091810D18
:101070008091820D9091830D0E94247320E030E0D6
:1010800040EA52E40E9489722091740D3091750DEE
:101090004091760D5091770D0E94A971C554DF4F94
:1010A000688379838A839B83CB5BD0406091840D76
:1010B0007091850D8091860D9091870D0E9424730B
:1010C00020E030E040EA52E40E9489726B017C012A
:1010D00020E030E044EB52E46091780D7091790D9E
:1010E00080917A0D90917B0D0E94A8719B01AC01BB
:1010F000C701B6010E94A9717B018C016F968EAD6C
:101100009FAD6F978130910509F450C00CF03FC03E
:10111000892B09F0A0C320E030E044EB52E465964F
:101120006CAD7DAD8EAD9FAD65970E94A871659643
:101130006CAF7DAF8EAF9FAF6597FE01F1964F010B
:101140009E01235D3F4F5901DE0199966D017B01A0
:101150008C01C554DF4F288139814A815B81CB5B8B
:10116000D040CA55DF4F688179818A819B81C65AF8
:10117000D0400E94784CA401B501C6010E94194AD2
:1011800021962CAD3DAD4EAD5FAD2197E2C38230CF
:10119000910519F1039709F05EC365966CAD7DADBD
:1011A0008EAD9FAD65970E94D62C62C365966CADDF
:1011B0007DAD8EAD9FAD6597FE01F1964F019E010D
:1011C000235D3F4F59016301C554DF4F28813981A9
:1011D0004A815B81CB5BD04015C065962CAD3DAD9F
:1011E0004EAD5FAD6597CE01C1964C01DE019D9677
:1011F0005D016301CA55DF4F688179818A819B81D6
:10120000C65AD0400E94784CA401B501C3010E9487
:10121000194A21962CAD3DAD4EAD5FAD219700E052
:10122000B30199C38E010B5E1F4F1F930F937E0175
:10123000B9E2EB0EF11CFF92EF926E01EDE3CE0EE0
:10124000D11CDF92CF92CF55DF4FF881C15AD040E9
:10125000FF93C056DF4F2881C05AD0402F932AE514
:1012600032E03F932F939F938F930E947A760FB62D
:10127000F894DEBF0FBECDBF04970CF4DFC2EF962B
:101280001CAE1DAE1EAE1FAEEF97E5961CAE1DAE9A
:101290001EAE1FAEE597AB961CAE1DAE1EAE1FAECA
:1012A000AB97A1961CAE1DAE1EAE1FAEA197AE01B0
:1012B00045585F4F60E070E0CE018F5A9F4F0E940B
:1012C0001D45882309F4D4C2AE014F585F4F60E03A
:1012D00070E0C6010E941D45882309F4C9C2AE0111
:1012E00049595F4F60E070E0C7010E941D458823A7
:1012F00009F4BEC2AE01435A5F4F60E070E0C8011E
:101300000E941D45882309F4B3C26091840D709139
:10131000850D8091860D9091870D0E942473CA558A
:10132000DF4F688379838A839B83C65AD04060915C
:10133000800D7091810D8091820D9091830D0E949E
:101340002473C554DF4F688379838A839B83CB5B87
:10135000D04060917C0D70917D0D80917E0D9091BB
:101360007F0D0E942473FE0139964F019E012B5F71
:101370003F4F5901DE0111966D01CA55DF4FE880DC
:10138000F9800A811B81C65AD040C554DF4F28819D
:1013900039814A815B81CB5BD0400E945D4DA401C5
:1013A000B501C6010E94194AEF962CAD3DAD4EAD78
:1013B0005FADEF9769817A818B819C810E94A971D1
:1013C00069837A838B839C83E5962CAD3DAD4EADCE
:1013D0005FADE5976D817E818F8198850E94A971AF
:1013E0006D837E838F839887AB962CAD3DAD4EADDC
:1013F0005FADAB9769857A858B859C850E94A971C5
:1014000069877A878B879C87A1962CAD3DAD4EADC1
:101410005FADA19700E0B601E9C1C156DF4FB881C9
:10142000CF59D040BF93C256DF4FE881CE59D0404C
:10143000EF93CD55DF4FF881C35AD040FF93CE557F
:10144000DF4F2881C25AD0402F93CB55DF4F3881D0
:10145000C55AD0403F93CC55DF4FA881C45AD040E5
:10146000AF938E0105581F4F1F930F9329E132E070
:101470003F932F939F938F930E947A760FB6F894A1
:10148000DEBF0FBECDBF04970CF4D8C1CF56DF4FDF
:10149000188219821A821B82C159D040C357DF4F6C
:1014A000188219821A821B82CD58D040C757DF4F4D
:1014B000188219821A821B82C958D040CB57DF4F3D
:1014C000188219821A821B82C558D0408CE0C056FF
:1014D000DF4FA881B981C05AD0401D928A95E9F7A3
:1014E000AE014F565F4F60E070E0C8010E941D459D
:1014F000882309F4BDC1AE0143575F4F60E070E03F
:10150000CE018F589F4F0E941D45882309F4B0C11A
:10151000AE0147575F4F60E070E0CE0189599F4FA1
:101520000E941D45882309F4A3C1AE014B575F4FAC
:1015300060E070E0CE01835A9F4F0E941D458823D2
:1015400009F496C16091840D7091850D8091860D8E
:101550009091870D0E942473CA55DF4F6883798369
:101560008A839B83C65AD04020E030E044EB52E4AB
:101570006091780D7091790D80917A0D90917B0D2D
:101580000E94A8716B017C0120E030E040EA52E447
:10159000CA55DF4F688179818A819B81C65AD040C4
:1015A0000E9489729B01AC01C701B6010E94A9711A
:1015B000C554DF4F688379838A839B83CB5BD0409C
:1015C0006091800D7091810D8091820D9091830DBD
:1015D0000E942473CB53DF4F688379838A839B8374
:1015E000C55CD04060917C0D70917D0D80917E0D29
:1015F00090917F0D0E942473CD53DF4F8880998096
:10160000C35CD040F1E56F2E712C6C0E7D1EB4E0F2
:101610006B0E711C5301FE01EF5AFF4F6F01CA554B
:10162000DF4FE880F9800A811B81C65AD040CB5336
:10163000DF4F288139814A815B81C55CD0400E949F
:101640005D4DCD53DF4F48815981C35CD040B3011C
:10165000C6010E94194A65966CAD7DAD8EAD9FADF9
:1016600065976996CCACDDACEEACFFAC69979B019D
:10167000AC010E94DB744B015C01A7019601C7011C
:10168000B6010E94DB749B01AC01C501B4010E944C
:10169000A9710E944875CF56DF4F288139814A8150
:1016A0005B81C159D0400E94A9716B017C01CF566A
:1016B000DF4F688379838A839B83C159D040C357A6
:1016C000DF4F288139814A815B81CD58D040C55494
:1016D000DF4F688179818A819B81CB5BD0400E94FA
:1016E000A97121EE3EE245E652E40E948972CA5594
:1016F000DF4F688379838A839B83C65AD0400E94D8
:1017000086729B01AC01C701B6010E94DB744B01DC
:101710005C0165966CAF7DAF8EAF9FAF6597CA5584
:10172000DF4F688179818A819B81C65AD0400E94AF
:101730003E759B01AC01C701B6010E94DB7469963E
:101740006CAF7DAF8EAF9FAF6997C757DF4F2881D2
:1017500039814A815B81C958D0406D966CAD7DADB1
:101760008EAD9FAD6D970E94A9716D966CAF7DAFE8
:101770008EAF9FAF6D978E01035C1F4F24E045E055
:10178000C501B4010E942D6F69966CAD7DAD8EAD23
:101790009FAD69970451110924E045E00E942D6F27
:1017A0006D966CAD7DAD8EAD9FAD6D9704511109F9
:1017B00024E045E00E942D6FCF56DF4F688179818C
:1017C0008A819B81C159D0400451110924E045E030
:1017D0000E942D6FCB57DF4F288139814A815B8171
:1017E000C558D04000E0BE016F5A7F4F81E0B4C0C1
:1017F00021E030E02C0F3D1F3F932F938E010B5EB5
:101800001F4F1F930F937E0139E2E30EF11CFF92ED
:10181000EF926E01ADE3CA0ED11CDF92CF9223E8A6
:1018200032E03F932F939F938F930E947A760FB667
:10183000F894DEBF0FBECDBF049784F41F9281E001
:101840008F938DE092E09F938F930E94723F0F9051
:101850000F900F900F9082E390E084C0AE01455846
:101860005F4F60E070E0C6010E941D45811103C01A
:1018700080E090E077C0AE014F585F4F60E070E0CD
:10188000C7010E941D45882399F3AE0149595F4F56
:1018900060E070E0C8010E941D45882349F3AE0155
:1018A000435A5F4F60E070E0CE0101960E941D45F3
:1018B0008823F1F220E030E044EB52E4EF966CAD87
:1018C0007DAD8EAD9FADEF970E94A8717B018C011D
:1018D000EF966CAF7DAF8EAF9FAFEF978CE0C056A9
:1018E000DF4FA881B981C05AD0401D928A95E9F78F
:1018F000AB962CAD3DAD4EAD5FADAB97E5966CAD07
:101900007DAD8EAD9FADE597CD53DF4F888099803B
:10191000C35CD040E1E56E2E712C6C0E7D1EB4E0F0
:101920006B0E711C5301FE01EF5AFF4F6F010E94B5
:10193000784CCD53DF4F48815981C35CD040B3010F
:10194000C6010E94194AA1962CAD3DAD4EAD5FADCA
:10195000A19700E0B60180E00E94084690E002C036
:1019600081E090E09C01215031092230310510F0D6
:101970000C942F1FF8E24F16510409F414C280F59D
:1019800034E14316510498F481E14816510408F0FB
:1019900061C194E04916510409F474C008F4E3C02D
:1019A000BAE04B16510409F45EC00C94D41EECE16D
:1019B0004E16510409F457C038F426E1421651047A
:1019C00008F4A2C10C94D41E3EE14316510409F45C
:1019D0004AC086E24816510409F4C5C00C94D41ECE
:1019E0009DE34916510409F4D3C110F5B5E34B1634
:1019F000510409F447C060F4FBE24F16510409F4A6
:101A000095C121E34216510409F490C10C94D41EEF
:101A10003CE34316510410F00C94D41ECB54DF4F1A
:101A20008881C55BD040865380934F15A9E0AAC139
:101A30008CE54816510460F49AE54916510408F003
:101A40001FC1A0E54A16510409F49BC00C94D41E92
:101A5000BCE54B16510439F0EFE54E16510408F47D
:101A60003CC10C94D41E2114310411F00C94E81ED6
:101A7000C255DF4FF881CE5AD040FF2309F445C04C
:101A80000C94CA1E2CE14216510491F148F484E0F2
:101A90004816510479F09AE049165104E1F08AC1E0
:101AA000AEE14A165104D9F1B5E34B16510409F4DD
:101AB00056C080C181E054C0BFE14B16510408F00C
:101AC00042C0EAE04E16510441F4E1E0C255DF4F56
:101AD000E883CE5AD04082E043C0FCE14F16510467
:101AE00009F078C1F1E0C255DF4FF883CE5AD040FB
:101AF0002114310441F02AE02216310411F00C9433
:101B0000D41E84E010C083E00EC0AEE14A1651043A
:101B100099F631E0C255DF4F3883CE5AD0402114B8
:101B2000310449F485E080934815CA55DF4F188287
:101B3000C65AD0405AC18AE02816310411F00C94DC
:101B4000D41E86E0F0CF25E34216510411F00C9428
:101B5000141F91E0C255DF4F9883CE5AD04087E0E2
:101B60008093481527C1C255DF4FE881CE5AD04037
:101B7000E1110C94CA1EF2E0C255DF4FF883CE5A31
:101B8000D04022E04216510419F158F44114510496
:101B9000D9F04A94452809F013C181E08093491592
:101BA0000FC196E249165104C1F0A0E54A1651044E
:101BB00009F44BC0B3E04B16510409F001C183E0B6
:101BC0008093491531E09AC010924915E1E0ECC0CC
:101BD00082E08093491521E088C08EE12816310407
:101BE00001F180F4A4E12A16310411F00C94D41E02
:101BF00084E080934915F1E0CA55DF4FF883C65A57
:101C0000D040F3C0B8E22B163104A9F0E2E32E165F
:101C1000310411F00C94D41E87E08093491581E0C3
:101C200039C085E08093491521E0CA55DF4F2883EC
:101C3000C65AD040DAC086E08093491531E0CA55D3
:101C4000DF4F3883C65AD040D0C088E08093491512
:101C500091E062C0A2E14A16510441F0B3E14B1693
:101C6000510449F010924D15E2E09EC081E080934E
:101C70004D15F2E0A6C082E080934D1522E035C0FC
:101C800021143104B9F43AE54316510449F4109291
:101C90004C1583E0CA55DF4F8883C65AD040A5C093
:101CA00081E080934C1593E0CA55DF4F9883C65A64
:101CB000D0409BC0AAE02A16310411F00C94D41E27
:101CC000BAE54B16510411F40C94D41EE4E0CA5545
:101CD000DF4FE883C65AD04088C0FDE54F16510457
:101CE00051F481E080934A1525E0CA55DF4F2883DF
:101CF000C65AD0406BC010924A1535E0CA55DF4F26
:101D00003883C65AD04062C084E14816510451F469
:101D100081E080934B1596E0CA55DF4F9883C65AF1
:101D2000D04054C010924B15A6E02CC0C255DF4FD6
:101D3000B881CE5AD040B1110C94CA1EE1E34E16C0
:101D4000510451F410924E15F8E0CA55DF4FF88354
:101D5000C65AD04023E044C03AE02316310411F0C3
:101D60000C94D41E81E080934E1588E0CA55DF4F55
:101D70008883C65AD04093E0C255DF4F9883CE5A2D
:101D8000D04033C0CA55DF4FA883C65AD0401EC0CA
:101D9000232811F00C94D41EBAE0CA55DF4FB88343
:101DA000C65AD04022C0E7E0CA55DF4FE883C65A82
:101DB000D0400CC0CA55DF4F1882C65AD04006C06A
:101DC000F1E0CA55DF4FF883C65AD040232869F0A6
:101DD0000C94FB1ECA55DF4F1882C65AD04021E032
:101DE000C255DF4F2883CE5AD040C155DF4FE8811E
:101DF000F981CF5AD040CF01A0E0B0E0CA55DF4F03
:101E00000880C65AD04004C0B695A7959795879587
:101E10000A94D2F780FF03C085E10C942F1F81E064
:101E200090E0A0E0B0E0CA55DF4F0880C65AD0402D
:101E300004C0880F991FAA1FBB1F0A94D2F7C1556F
:101E4000DF4F28813981CF5AD040282B392BC155FB
:101E5000DF4F39832883CF5AD0400C940C06672B70
:101E600011F00C94FB1EC756DF4F8881C959D04032
:101E7000C754DF4F68817981C95BD040680F711DFD
:101E8000AE0147565F4FCB54DF4F88819981C55BC8
:101E9000D0400E94491F9C01215031092230310558
:101EA00010F00C942F1F36E04316510428F483E001
:101EB0004816510490F026C098E04916510410F4D9
:101EC0000C94D41EAAE04A16510408F440C0BEE1A6
:101ED0004B16510411F00C94D41EE2E04E1651043E
:101EE00061F0FEE14F16510441F0452809F046C06B
:101EF00081E0809350152BE032C082E08093501532
:101F00003BE036C084E04816510471F095E0491674
:101F10005104A1F081E080935215ACE0CA55DF4F27
:101F2000A883C65AD04022C482E080935215BCE0F8
:101F3000CA55DF4FB883C65AD04018C41092521504
:101F4000ECE0CA55DF4FE883C65AD0400FC4F9E031
:101F50004F16510451F082E0809351152DE0CA557F
:101F6000DF4F2883C65AD04001C4109251153DE07E
:101F7000CA55DF4F3883C65AD040F8C38BE0CA55E4
:101F8000DF4F8883C65AD040F1C3672B11F00C9401
:101F9000FB1EC756DF4F8881C959D040C754DF4F59
:101FA000E881F981C95BD040E80FF11D27EB4216AB
:101FB00028E0520609F4E7C208F05EC18CE9481631
:101FC00088E0580609F499C108F076C0A9E94A16D4
:101FD000A8E05A0609F48BC108F05FC0E8E94E1684
:101FE000E8E05E0609F0B8C384E16E0199E2C90E2B
:101FF000D11CD601E82F1D92EA95E9F77E01F5E1A3
:10200000EF0EF11CD701E82F1D92EA95E9F7C456AF
:10201000DF4FA881B981CC59D0401D928A95E9F74C
:1020200080E090E00E94044FCB54DF4F68837983B7
:102030008A839B83C55BD04081E090E00E94044F7F
:102040002B013C0182E090E00E94044F4B015C01B7
:10205000860124E045E0CB54DF4F688179818A8195
:102060009B81C55BD0400E942D6F870124E045E035
:10207000C301B2010E942D6F0451110924E045E013
:10208000C501B4010E942D6FFF92EF92DF92CF92B3
:102090001F930F938CEA92E03DC3FAE94F16F8E0E4
:1020A0005F0609F427C12BE9421628E0520609F021
:1020B00053C388EC92E023C13EE9431638E053064F
:1020C00009F427C108F420C19CEA491698E0590692
:1020D00009F4B5C1ADEA4A16A8E05A0609F03CC3B6
:1020E000A1961CAE1DAE1EAE1FAEA19765961CAE8E
:1020F0001DAE1EAE1FAE659721961CAE1DAE1EAE68
:102100001FAE219784E1DE019996C656DF4FB98351
:10211000A883CA59D040E82F1D92EA95E9F71E011D
:10212000F5E12F0E311CD101E82F1D92EA95E9F758
:10213000C456DF4FA881B981CC59D0401D928A95F1
:10214000E9F780E090E00E94044FCB54DF4F6883B2
:1021500079838A839B83C55BD04081E090E00E94B5
:10216000044FC554DF4F688379838A839B83CB5B9D
:10217000D04082E090E00E94044F20E030E044EB49
:1021800052E40E94A8712B013C01FE01FD964F0113
:102190009E012F5A3F4F5901CE01835A9F4F6C0128
:1021A00083017201C554DF4F288139814A815B81E7
:1021B000CB5BD040CB54DF4F688179818A819B8192
:1021C000C55BD0400E94784CA401B501C6010E94B5
:1021D000194AA1966CAD7DAD8EAD9FADA197659668
:1021E000CCACDDACEEACFFAC65979B01AC010E94C2
:1021F000DB744B015C01A7019601C701B6010E9487
:10220000DB749B01AC01C501B4010E94A9710E945D
:1022100048758E01075D1F4F24E045E00E942D6F39
:1022200020E030E044EB52E4C301B2010E94A97106
:10223000810124E045E00E942D6F21966CAD7DADBB
:102240008EAD9FAD21970451110924E045E00E9415
:102250002D6F1F930F933F922F92C556DF4FB8817A
:10226000CB59D040BF93C656DF4FE881CA59D04002
:10227000EF938AEE92E04EC2B0EC4B16B8E05B06EC
:1022800009F4ADC1D0F439EB431638E0530609F434
:1022900091C108F484C19AEB491698E0590609F4F3
:1022A00091C1ABEB4A16A8E05A0609F055C28091DD
:1022B000020185FB882780F990C1B2EC4B16B8E08B
:1022C0005B0609F4FDC108F4CCC133EC431638E0D9
:1022D000530609F407C280E6481689E0580609F05B
:1022E0003BC28091630D8F938091620D21C28AEB76
:1022F00092E005C08CE69FE002C08FEC92E09F93D5
:102300008F9383EC92E017C28BE19DE09F938F93B4
:1023100093C080818E3409F0C8C18181805384309C
:1023200008F0C3C194E16E013DE3C30ED11CD60198
:10233000E92F1D92EA95E9F77E01F9E2EF0EF11C13
:10234000D701E92F1D92EA95E9F75E01F5E1AF0E9D
:10235000B11CD501E92F1D92EA95E9F7C456DF4F6C
:10236000A881B981CC59D0401D929A95E9F7823065
:10237000E1F0833031F1813061F082E090E00E9441
:10238000044F850124E045E00E942D6FBF92AF927B
:1023900053C080E090E00E94044F860124E045E0B5
:1023A0000E942D6FDF92CF9247C081E090E00E94A3
:1023B000044F870124E045E00E942D6FFF92EF92C9
:1023C0003BC08091620D9091630D0497029748F491
:1023D0006091660F7091670F8091680F9091690FFF
:1023E00022C020E030E040E05FE3609100027091A5
:1023F000010280910202909103020E94A87120E0E4
:1024000030E040E05FE30E94DB7420E030E044E332
:1024100053E40E94DB749B01AC0160E070E084E354
:1024200093E40E94A8718E010F5F1F4F24E045E0E6
:102430000E942D6F1F930F9386ED92E07CC1A196B1
:102440001CAE1DAE1EAE1FAEA19765961CAE1DAE96
:102450001EAE1FAE659721961CAE1DAE1EAE1FAE02
:10246000219784E19E01275D3F4FC656DF4F398398
:102470002883CA59D040D901E82F1D92EA95E9F77F
:102480001E01F5E12F0E311CD101E82F1D92EA95B6
:10249000E9F7C456DF4FA881B981CC59D0401D92CD
:1024A0008A95E9F780E090E00E94044F2B013C01FF
:1024B00081E090E00E94044FCB54DF4F6883798322
:1024C0008A839B83C55BD04082E090E00E94044FEA
:1024D00020E030E044EB52E40E94A871FE01FD963A
:1024E0004F019E012F5A3F4F5901DE01A35ABF4FA2
:1024F0006D017B018C01CB54DF4F288139814A81EA
:102500005B81C55BD040C301B2010E94784CA4013D
:10251000B501C6010E94194AA1966CAD7DAD8EAD84
:102520009FADA1978E01075D1F4F24E045E00E94FB
:102530002D6F65966CAD7DAD8EAD9FAD65978101BC
:1025400024E045E00E942D6F21966CAD7DAD8EADEF
:102550009FAD21970451110924E045E00E942D6FA1
:102560001F930F933F922F92C556DF4FF881CB599F
:10257000D040FF93C656DF4F2881CA59D0402F93D1
:102580008CED92E0C7C0A49B11C08FE30E94075C52
:102590008A30910558F08734910550F005C047996D
:1025A00005C00898009B04C081E017C080E015C0FA
:1025B00082E013C082B386958695869591E089273F
:1025C00081700BC08BE30E94075C21E0853691058A
:1025D00008F420E01F922F93ACC01F92A9C081E0A5
:1025E00090E08C0F9D1F9F938F9388EF92E09F93B5
:1025F0008F93FF93EF930E947A760F900F900F9036
:102600000F900F900F90181619060CF041C02981F9
:102610003A812634310508F048C0F901EA57F54FF0
:102620008491F901E05CF54F1491F901E650F64F01
:102630000491002391F081110E94835BE02FF0E070
:10264000EE0FFF1FEE5EFC4FA591B491EC911E239F
:1026500081E090E021F480E002C080E090E09F9370
:1026600067C0A1E0B0E0AC0FBD1FBF93AF9388EF90
:1026700092E09F938F93FF93EF930E947A760F904F
:102680000F900F900F900F900F901816190684F06E
:102690001F9281E08F938DE092E09F938F930E9431
:1026A000723F0F900F900F900F9082E390E056C012
:1026B00089819A8180319105C0F70E94075CCFCF54
:1026C0008091610D8F938091600D8F9380915F0D4C
:1026D0008F9380915E0D8F9380915D0D8F9380918C
:1026E0005C0D15C080E090E00E94B24E182F092FBB
:1026F00081E090E00E94B24EF82EE92E82E090E058
:102700000E94B24EEF92FF920F931F939F938F936D
:102710008CEF92E09F938F9388E29DE09F938F933D
:102720000E944C760FB6F894DEBF0FBECDBF11C02D
:102730008F9382EB93E09F938F9388E29DE09F932A
:102740008F930E944C760F900F900F900F900F90E8
:102750000F9080E090E002C081E090E09C01215069
:1027600031092230310510F00C942F1FC155DF4F75
:10277000E881F981CF5AD040CF01A0E0B0E0CA553E
:10278000DF4F0880C65AD04004C0B695A7959795EC
:1027900087950A94D2F780FD3FCB81E090E0A0E0DE
:1027A000B0E0CA55DF4F0880C65AD04004C0880F39
:1027B000991FAA1FBB1F0A94D2F7E82BF92BC1550A
:1027C000DF4FF983E883CF5AD0400C940C06672B77
:1027D00011F00C94FB1EF8EE4F16F3E05F0641F08B
:1027E0002CE4421624E0520649F50E94DD4523C040
:1027F000C756DF4F8881C959D040C754DF4FE881A1
:10280000F981C95BD040E80FF11D80818635C9F49C
:10281000818180538230A8F49FB7813029F0F894E9
:102820008091D914886004C0F8948091D914826092
:102830008093D9149FBF80E090E005C081E090E0D4
:1028400002C082E390E09C01215031092230310521
:1028500010F00C942F1FC155DF4FE881F981CF5A3A
:10286000D040CF01A0E0B0E0CA55DF4F0880C65A83
:10287000D04004C0B695A795979587950A94D2F74E
:1028800080FDCACA81E090E0A0E0B0E0CA55DF4F09
:102890000880C65AD04004C0880F991FAA1FBB1FCA
:1028A0000A94D2F7E82BF92BC155DF4FF983E8835F
:1028B000CF5AD04095C0812F110F990BAA0BBB0B9B
:1028C000FC01E654F109E531F10510F00C94D41E39
:1028D0008827EE58FF4F8F4F0C941976C0925315EE
:1028E000D0925415E0925515F0925615CA55DF4F07
:1028F0001882C65AD040DAC0C0925715D0925815E7
:10290000E0925915F0925A15C154DF4FF881CF5B10
:10291000D040F160C154DF4FF883CF5BD04021E05D
:102920004FC0C0925B15D0925C15E0925D15F0929D
:102930005E15C154DF4F3881CF5BD0403260C15447
:10294000DF4F3883CF5BD04082E05BC0C0925F1521
:10295000D0926015E0926115F0926215C154DF4F7C
:102960009881CF5BD0409460C154DF4F9883CF5B98
:10297000D040A3E060C0CB54DF4FB881C55BD040EE
:10298000B0936315E4E071C0C701B6010E94F17213
:102990006093641570936515809366159093671521
:1029A000F5E0CA55DF4FF883C65AD0407FC0C092C9
:1029B0006815D0926915E0926A15F0926B1526E0C1
:1029C000CA55DF4F2883C65AD04070C0C0926C15DC
:1029D000D0926D15E0926E15F0926F1537E061C0E0
:1029E000CB56DF4F88819981AA81BB81C559D040E0
:1029F0008093701590937115A0937215B093731511
:102A000088E0CA55DF4F8883C65AD0404FC0C09275
:102A10007515D0927615E0927715F0927815C65517
:102A2000DF4F9881CA5AD0409160C655DF4F9883D6
:102A3000CA5AD040AAE0CA55DF4FA883C65AD04030
:102A400035C0C0927915D0927A15E0927B15F0923C
:102A50007C15C655DF4FB881CA5AD040B260C65502
:102A6000DF4FB883CA5AD040EBE0CA55DF4FE88346
:102A7000C65AD0401BC0C0927D15D0927E15E09200
:102A80007F15F0928015C655DF4FF881CA5AD040A5
:102A9000F460C655DF4FF883CA5AD0402CE090CF7F
:102AA00039E0CA55DF4F3883C65AD040CA55DF4F88
:102AB0008881C65AD040082FCD54DF4FE881F98174
:102AC000C35BD040CF01A0E0B0E0CA55DF4F088023
:102AD000C65AD04004C0B695A795979587950A9495
:102AE000D2F780FF02C00C94CC1E81E693E0A0E0F8
:102AF000B0E0CA55DF4F0880C65AD04004C0B69532
:102B0000A795979587950A94D2F780FF11C020E08A
:102B100030E0A901CB56DF4F688179818A819B81A2
:102B2000C559D0400E94827287FF02C00C94CE1E0D
:102B300081E090E0A0E0B0E004C0880F991FAA1FD8
:102B4000BB1F0A95D2F7CD54DF4F28813981C35B73
:102B5000D040282B392BCD54DF4F39832883C35BDA
:102B6000D0400C940C06C655DF4F3881CA5AD0406D
:102B7000332369F0C255DF4F8881CE5AD04081118E
:102B800006C092E0C255DF4F9883CE5AD040CD5454
:102B9000DF4FA881C35BD040A5FF0FC080916415B3
:102BA00090916515A0916615B0916715803896498A
:102BB000A849B10514F00C94D01E80914A158130BB
:102BC00091F4C255DF4FF881CE5AD040F23009F06F
:102BD00040C0CD54DF4F2881C35BD04020FD02C0F0
:102BE0000C94DA1E36C080918215811132C0CD540A
:102BF000DF4F3881C35BD04030FF1BC080914B1545
:102C0000813039F523E333E34BEC51E46091531504
:102C10007091541580915515909156150E94DB7452
:102C200060935315709354158093551590935615D2
:102C300010C080918F1590919015A0919115B09131
:102C400092158093531590935415A0935515B093F6
:102C50005615CD54DF4F88819981C35BD04090FDDC
:102C600010C080918B1590918C15A0918D15B0910D
:102C70008E158093701590937115A0937215B09373
:102C80007315809148158130B9F4CD54DF4F988188
:102C9000C35BD04096FD03C08CE10C942F1FCD5434
:102CA000DF4FA881B981C35BD040AF7BCD54DF4FEC
:102CB000B983A883C35BD04080914D158823A1F0D0
:102CC000813021F1CB54DF4F1882C55BD040F2E058
:102CD000C754DF4FF883C95BD04021E0CA55DF4FAE
:102CE0002883C65AD04023C0B2E0CB54DF4FB8830C
:102CF000C55BD040E1E0C754DF4FE883C95BD040FB
:102D0000CA55DF4F1882C65AD04011C031E0CB54AB
:102D1000DF4F3883C55BD040C754DF4F1882C95B93
:102D2000D04082E0CA55DF4F8883C65AD040809198
:102D30004B15813049F0C255DF4F9881CE5AD040B3
:102D4000933009F043C036C0B8E4EB2EB5E1FB2E5A
:102D500000E010E0C655DF4FA881CA5AD0408A2E45
:102D6000912CA12CB12CD501C401002E04C0B69524
:102D7000A795979587950A94D2F780FF12C023E311
:102D800033E34BEC51E4F70165A576A587A590A93F
:102D90000E94DB74D7019D966D937D938D939C93D8
:102DA000D0970F5F1F4FB4E0EB0EF11C03301105FD
:102DB000D1F6C1CF80914E15813041F4C655DF4F19
:102DC000E881CA5AD040E43009F0ECC78CE0E4EA6C
:102DD000F5E1DE01119601900D928A95E1F7C1555A
:102DE000DF4F28813981CF5AD04031FD08C0109182
:102DF00048151230C1F0183009F4EAC058C180916A
:102E00004F15873018F08DE10C942F1F9091871586
:102E1000891769F3BE016F5F7F4F0E94373D88239A
:102E200009F4D4C7E4CFC655DF4F3881CA5AD04021
:102E3000311103C08AE10C942F1FCD54DF4F8881DC
:102E40009981C35BD04080759927892B09F424CFE1
:102E5000609168157091691580916A1590916B1554
:102E60000E9489750E94F672673068F6809163153A
:102E7000843151F0823009F097C7CD54DF4F8881FB
:102E8000C35BD04087FD90C7CD54DF4FA881B98187
:102E9000C35BD040AF7ACD54DF4FB983A883C35B07
:102EA000D040662321F022242A94260E02C02090CE
:102EB0004F15BE016B5E7F4F822D0E94373D8823E8
:102EC00009F484C7309063158090BC159090BD15AF
:102ED000A090BE15B090BF15A8E4CA2EA5E1DA2EC9
:102EE0008E010B5E1F4FE1E8F5E1C155DF4FF9831D
:102EF000E883CF5AD040E12CF12CC655DF4FF88142
:102F0000CA5AD0404F2E512C612C712CD301C201D2
:102F10000E2C04C0B695A795979587950A94D2F77D
:102F200080FF3BC024E132122EC0C155DF4FA88183
:102F3000B981CF5AD0409F962D913D914D915C9192
:102F4000D29757966D917D918D919C915A970E9441
:102F5000A871F60125A536A547A550A90E94A8711C
:102F6000D8016D937D938D939C931397B2E0EB12F0
:102F700014C0A50194010E94A871F80160837183B7
:102F8000828393830AC0F60185A596A5A7A5B0A95B
:102F9000F80180839183A283B383FFEFEF1AFF0AC6
:102FA00024E0C20ED11C0C5F1F4FC155DF4F88813A
:102FB0009981CF5AD0400496C155DF4F99838883B9
:102FC000CF5AD04093E0E916F10409F09FCF4CC1ED
:102FD000C655DF4FA881CA5AD040AA2309F42ACF88
:102FE0008090BC159090BD15A090BE15B090BF15F7
:102FF000F1E8CF2EF5E1DF2EFE0131961F0108E446
:1030000015E1E12CF12C4A2E512C612C712CD301AD
:10301000C2010E2C04C0B695A795979587950A9482
:10302000D2F780FF29C0D1012D913D914D915C9146
:10303000F6016789708D818D928D0E94A871D801EB
:103040009D962D913D914D915C91D0970E94A871D4
:10305000F80165A776A787A790ABF2E0EF1216C03C
:10306000A50194010E94A871D8019D966D937D934E
:103070008D939C93D0970AC0F60187A590A9A1A92A
:10308000B2A9F80185A796A7A7A7B0ABFFEFEF1AE3
:10309000FF0A24E0C20ED11C34E0230E311C0C5F69
:1030A0001F4F83E0E816F10409F0B1CFDCC0C25530
:1030B000DF4F9881CE5AD040933009F49DC0C65559
:1030C000DF4FA881CA5AD040AA2309F4C2C0009198
:1030D0004C154090BC155090BD156090BE15709079
:1030E000BF1571E8A72E75E1B72EE8E4EE2EE5E1F5
:1030F000FE2EFE0131964F01C12CD12C8A2F90E07B
:10310000A0E0B0E0C155DF4F88839983AA83BB83D9
:10311000CF5AD040C155DF4F88819981AA81BB81A8
:10312000CF5AD0400C2C04C0B695A795979587959B
:103130000A94D2F780FD0BC0F5018789908DA18D8F
:10314000B28DF70185A796A7A7A7B0AB43C01730EC
:1031500009F440C001112BC0D5019F962D913D91DE
:103160004D915C91D297F40160817181828193814C
:103170000E94A971D7019D962D913D914D915C9131
:10318000D0970E94A971F70165A776A787A790AB92
:10319000F2E0CF121FC0A30192010E94A971D701D2
:1031A0009D966D937D938D939C93D09713C0F5015D
:1031B0002789308D418D528DD7019D966D917D91DE
:1031C0008D919C91D0970E94A971F70165A776A770
:1031D00087A790ABFFEFCF1ADF0A24E0A20EB11C45
:1031E00034E0E30EF11C84E0880E911C93E0C916D4
:1031F000D10409F08FCF29C61530A9F0173071F12D
:10320000133089F5C655DF4FA881CA5AD040A111A5
:1032100005C0C255DF4F1882CE5AD040BE016B5E4A
:103220007F4F86E010C0C655DF4FB881CA5AD040E4
:10323000B11105C0C255DF4F1882CE5AD040BE0131
:103240006B5E7F4F87E00E94373D882309F4BEC53F
:103250000AC0153079F3173009F0F3C5809149158C
:10326000823008F0A3C5212C30904915E8E03E12C9
:1032700011C0C655DF4FF881CA5AD040FF2309F468
:1032800005C3C255DF4F2881CE5AD040213009F006
:103290008FC511C3C255DF4F3881CE5AD04032306E
:1032A00009F0F4C2311009C0C655DF4F8881CA5AEF
:1032B000D040882309F4F1C2FEC220E030E0A90129
:1032C0006091531570915415809155159091561534
:1032D0000E948272882309F46DC593E0931538F03B
:1032E000A2E03A1690F4B1E03B1631F0E4C2E7E018
:1032F000E31508F0BEC2DFC2C655DF4FF881CA5AD7
:10330000D040FF2309F4C9C2D6C2C655DF4F288179
:10331000CA5AD040222309F48DCDCA55DF4F988177
:10332000C65AD040892F90E0C155DF4F99838883DA
:10333000CF5AD040C754DF4FB881C95BD040AB2FC4
:10334000B0E0CD53DF4FB983A883C35CD04081E0A8
:1033500090E0A0E0B0E06C017D01CA55DF4F08802D
:10336000C65AD04004C0CC0CDD1CEE1CFF1C0A94D5
:10337000D2F7C754DF4F0880C95BD04004C0880F24
:10338000991FAA1FBB1F0A94D2F7C82AD92AEA2A72
:10339000FB2A822F90E0A0E0B0E08C219D21AE219D
:1033A000BF21892B8A2B8B2B09F406C5C155DF4F12
:1033B00088819981CF5AD040880F991F880F991F13
:1033C000FC01E85BFA4EDC01AF57BA4E57962D91DF
:1033D0003D914D915C915A9765A576A587A590A9D9
:1033E0000E94A8714B015C01CD53DF4F8881998108
:1033F000C35CD040880F991F880F991FFC01E85BC0
:10340000FA4EDC01AF57BA4E57962D913D914D9132
:103410005C915A9765A576A587A590A90E94A87189
:10342000C655DF4F688379838A839B83CA5AD0400D
:10343000CD54DF4F08811981C35BD040007811273C
:10344000CD54DF4FE881C35BD040E7FF15C1CD54B9
:10345000DF4F28813981C35BD0402F77CD54DF4FB8
:1034600039832883C35BD0400E94C76B882311F047
:1034700081E2F5C480914B158130B1F423E333E34D
:103480004BEC51E460916C1570916D1580916E1547
:1034900090916F150E94DB7460936C1570936D159D
:1034A00080936E1590936F1540906C1550906D152C
:1034B00060906E1570906F15A5019401C501B4015F
:1034C0000E94DB74C154DF4F688379838A839B83B6
:1034D000CF5BD040C655DF4F288139814A815B815F
:1034E000CA5AD040CA01B9010E94DB74C554DF4FEB
:1034F000688379838A839B83CB5BD04020E030E074
:1035000040E850E4C301B2010E94DB74A3019201C0
:103510000E94DB74C154DF4F288139814A815B816D
:10352000CF5BD0400E94A871C554DF4F28813981FC
:103530004A815B81CB5BD0400E94A8716B017C010A
:1035400020E030E0A9010E94827287FD37C4C701E4
:10355000B6010E9448756B017C01C554DF4F28817C
:1035600039814A815B81CB5BD040C154DF4F688198
:1035700079818A819B81CF5BD0400E94A9710E9492
:1035800048759B01AC01C701B60190580E94897231
:103590006B017C0133E0331204C0F7FAF094F7F8C2
:1035A000F09420E030E0A901C301B2010E948272D0
:1035B00087FF0FC0F7FAF094F7F8F094D301C20137
:1035C000B05880936C1590936D15A0936E15B093C1
:1035D0006F15C155DF4F08811981CF5AD040000FB8
:1035E000111F000F111F045B1A4EC655DF4F2881B3
:1035F00039814A815B81CA5AD040C701B6010E9415
:10360000DB749B01AC01C501B4010E94A87120E0EC
:1036100030E040E05FE30E94DB74D8011B966D93BD
:103620007D938D939C931E97CD53DF4F0881198115
:10363000C35CD040000F111F000F111F045B1A4E16
:10364000A5019401C701B6010E94DB74C655DF4F86
:10365000288139814A815B81CA5AD0400E94A97170
:1036600020E030E040E05FE30E94DB74F801638714
:103670007487858796871FC1C154DF4FF881CF5B60
:10368000D0404F2E512C612C712CC420D520E62027
:10369000F720CD28CE28CF2809F492C3CD54DF4F90
:1036A00028813981C35BD040217FCD54DF4F3983DE
:1036B0002883C35BD04080914B15813009F491C0C1
:1036C000C155DF4FE881F981CF5AD040EE0FFF1F7F
:1036D000EE0FFF1FE45BFA4EC384D484E584F684C6
:1036E000A7019601C501B4010E94A8712B013C01FC
:1036F000CD53DF4FE881F981C35CD040EE0FFF1F4F
:10370000EE0FFF1FE45BFA4E83859485A585B68591
:10371000C155DF4F88839983AA83BB83CF5AD0409A
:103720009C01AD01C655DF4F688179818A819B81FB
:10373000CA5AD0400E94A8714B015C01A3019201BA
:10374000C301B2010E94DB742B013C01A50194016D
:10375000C501B4010E94DB749B01AC01C301B2013D
:103760000E94A9710E9448754B015C01A701960156
:10377000C701B6010E94DB746B017C01C155DF4FAC
:10378000288139814A815B81CF5AD040CA01B90171
:103790000E94DB749B01AC01C701B6010E94A971B4
:1037A0000E9448756B017C0160936C1570936D15D8
:1037B00080936E1590936F159B01AC01C501B40108
:1037C0000E94A8714B015C01E894B7F82AE037ED3C
:1037D00043EA5BE3C501B4010E94A074181664F1CA
:1037E0006AC088E4E82E85E1F82ED301C201002EDC
:1037F00004C0B695A795979587950A94D2F780FF50
:1038000012C023E333E34BEC51E4D7011F966D91D3
:103810007D918D919C9152970E94DB74F70167878F
:10382000708B818B928B0F5F1F4FF4E0EF0EF11CBA
:1038300003301105D1F644CF20E030E040E05FE3F3
:10384000C501B4010E94A07418160CF411CE2FE625
:1038500032E143E85AE3C701B6010E94DB749B01E1
:10386000AC01C501B4010E94A07418160CF400CE7E
:1038700022C0C655DF4F2881CA5AD040222309F4FE
:10388000D9CA0E94C76B8111F3CD15C0C255DF4F55
:103890003881CE5AD04031110EC0CD54DF4F8881CF
:1038A0009981C35BD0408E7D9C7FC255DF4F1882CB
:1038B000CE5AD04008C0CD54DF4F88819981C35B78
:1038C000D0408E7D907E892B09F07CC2809164155A
:1038D00090916515A0916615B09167158093941528
:1038E00090939515A0939615B093971580914A15CE
:1038F000809382158091531590915415A091551580
:10390000B091561580938F1590939015A0939115B3
:10391000B0939215C0907015D0907115E09072150B
:10392000F0907315A701960160918B1570918C151D
:1039300080918D1590918E150E9482728823F9F0E6
:1039400010918A15112359F080912B15823039F08E
:103950000E94AA6BB701A601812F0E94D23B8091E1
:10396000701590917115A0917215B0917315809397
:103970008B1590938C15A0938D15B0938E15809117
:103980007415809393151091521580918A158117A3
:10399000B9F080912B15823079F0C0908B15D090C2
:1039A0008C15E0908D15F0908E150E94AA6BB701D2
:1039B000A601812F0E94D23B8091521580938A15D7
:1039C0001091511580918915811781F080912B15E7
:1039D000823041F00E94AA6B123011F45C9A02C04E
:1039E0000E94CD5F80915115809389158091481573
:1039F000813089F080914D158093851580914B150C
:103A000080938315C255DF4F8881CE5AD0408330D2
:103A100009F074C054C080912B15823059F3809006
:103A2000681590906915A0906A15B0906B1520E00C
:103A300030E040EA51E4C501B4010E94DB740E9409
:103A40005F730E94F6726B017C010E94AA6B20E0FA
:103A500030E04AE754E4C501B4010E94DB744B0135
:103A60005C0182E38C9DB0018D9D700D112480E07E
:103A700090E00E9422739B01AC01C501B4010E9439
:103A8000A8710E945F730E94F672CB010E941245DA
:103A900086010115110509F4ADCF0E94B53301501F
:103AA000110980912A158111A5CF9FEFA0E7B2E0FF
:103AB0009150A040B040E1F700C00000EACF8091F3
:103AC0004E1580938615813089F480917D159091F3
:103AD0007E15A0917F15B09180158093BC159093B1
:103AE000BD15A093BE15B093BF1508C01092BC15AC
:103AF0001092BD151092BE151092BF1580914F15F2
:103B000090918715981759F0809387158CE0FE01E6
:103B10003196A4EAB5E101900D928A95E1F7809182
:103B20004C1580938415E09148158E2F90E0FC0190
:103B30003297E830F10508F060C08827E957FF4F59
:103B40008F4F0C941976BE016B5E7F4F822D0E94C1
:103B5000673080918715281250C08CE0FE01759661
:103B6000A4EAB5E13EC0C255DF4FE881CE5AD0404D
:103B7000EE2371F020918F153091901540919115A1
:103B80005091921500E065E775E181E00E940846DA
:103B900020918F153091901540919115509192156B
:103BA00000E0BE016B5E7F4F81E00E940846182F47
:103BB0008CE0FE017596A8E9B5E101900D928A9519
:103BC000E1F71CC068E975E186E003C068E975E1CA
:103BD00087E00E94673011C08CE0E5E7F5E1A0EBDB
:103BE000B5E101900D928A95E1F707C08CE0E0EB1A
:103BF000F5E1DF011D928A95E9F710E08091491502
:103C000080938115883009F470C0C255DF4FB881A8
:103C1000CE5AD040B23009F068C090E088309105AB
:103C200008F05AC0FC0140908F155090901560909C
:103C30009115709092158827E157FF4F8F4F0C9484
:103C4000197600E0A301920165E775E180E007C005
:103C500000918215A301920165E775E181E00E9460
:103C60000846182F39C060916C1570916D158091C0
:103C70006E1590916F158824839409C060916C151E
:103C800070916D1580916E1590916F15812CCB54AC
:103C9000DF4FA880C55BD040C754DF4FC880C95BE9
:103CA000D040CA55DF4FE880C65AD04000918215F7
:103CB000A30192010E949B6C0FC000E001C001E0D3
:103CC00020E004C000E001C001E021E04091821545
:103CD000C301B2010E94056C8CE0E5E7F5E1A8E9BB
:103CE000B5E101900D928A95E1F78091501580938E
:103CF0008815882309F468C00E94AA6B90918815E2
:103D000080912B15913069F48230E9F19FB7F894D6
:103D10008091D91488608093D9149FBF0E94B533D5
:103D200032C091E090938115109285151092841500
:103D3000109282151092871510928A15109289158B
:103D40008230A9F0BE016F5F7F4F80E00E94373D57
:103D50008823E1F18CE0FE013196A4EAB5E10190FF
:103D60000D928A95E1F70E94CB3B0E94CD5F86EDD4
:103D700098E00E940B408AE798E00E940B4083E69F
:103D800098E00E940B40109288151EC081E067C029
:103D900082E065C088E163C089E161C084E05FC002
:103DA0008BE15DC085E25BC084E159C08EE157C004
:103DB0008FE155C086E153C080E251C082E24FC01E
:103DC00083E24DC084E24BC0812F49C087E047C0E9
:103DD000EEE14E16510411F40C948F0D70F42AE0AC
:103DE0004216510411F40C946B0D3CE1431651043E
:103DF00011F40C94780D87E132C085E34816510424
:103E000011F40C94AF0D9CE549165104A1F721144F
:103E1000310439F0BAE02B16310431F689E00C9404
:103E2000930D88E00C94930D3CE54316510411F07A
:103E30000C94EA0EA1E0C255DF4FA883CE5AD040C1
:103E4000E6CF133009F00FCAE4C9153009F4F7C9F9
:103E5000173009F403CA133009F005CADFC9C85383
:103E6000DF4F0FB6F894DEBF0FBECDBFDF91CF910D
:103E70001F910F91FF90EF90DF90CF90BF90AF9088
:103E80009F908F907F906F905F904F903F902F907A
:103E900008952F923F924F925F926F927F928F92EE
:103EA0009F92AF92BF92CF92DF92EF92FF920F93C9
:103EB0001F93CF93DF93CDB7DEB7C459D1090FB6A7
:103EC000F894DEBF0FBECDBFFB01873A28E0920712
:103ED00009F480C208F046C08B34A8E09A0709F4C0
:103EE00045C1F0F4833E27E0920709F4FFC060F477
:103EF0008231910509F4FAC08C3C910509F493C014
:103F0000419709F075C078C08934A8E09A0709F490
:103F100012C108F018C18834984009F4C2C068C0C2
:103F20008D3938E0930709F4E6C178F48A39B8E0AE
:103F30009B0709F488C18B3928E0920709F4BEC1B8
:103F40008939984009F054C024C1823AA8E09A0700
:103F500009F404C208F44CC0863A984010F40C945A
:103F60005F2946C0803C28E0920709F4AAC508F5FD
:103F7000873BA8E09A0709F453C570F48D3A28E00E
:103F8000920709F43AC38E3A38E0930709F443C420
:103F90008C3A984069F524C2893BB8E09B0709F444
:103FA0006EC508F45CC58A3B984011F40C945F29F7
:103FB0001FC08A36A9E09A0709F44FC770F480360B
:103FC00029E0920709F40CC6813639E0930709F419
:103FD000EDC6813C984061F49FC58C36B9E09B07E3
:103FE00009F4B6C708F485C7843C994009F4F7C7BB
:103FF00081E090E00C9461298091181582FF08C03F
:104000008A9A809108018160809308015F9A07C0B5
:104010008A98809108018E7F809308015F980E94A2
:104020007A2D8FE00CC18E010F5F1F4F1F930F93EE
:1040300087EC93E09F938F93FF936F930E947A7620
:104040000F900F900F900F900F900F901816190669
:104050000CF09DC71D8A1E8A1F8A188EAE014B5E0A
:104060005F4F60E070E0C8010E941D458823D1F1D8
:104070004D895E896F89788D88E70E94353C4D892E
:104080005E896F89788D89E70E94353C4D895E890C
:104090006F89788D8AE70E94353C0E94623E0C94BD
:1040A0005F298E010F5F1F4F1F930F9382ED93E0E7
:1040B0009F938F93FF936F930E947A760F900F9048
:1040C0000F900F900F900F90181619060CF05FC705
:1040D000AE014B5E5F4F60E070E0C8010E941D457D
:1040E000811108C082E390E00C9461290E94BF2CEA
:1040F0000C945F2920E030E04AE754E46D897E8922
:104100008F89988D0E94DB740E94F1721616170633
:1041100094F47093190D6093180D11E010931A0D1B
:104120008091170D81110C945F290E94FB2B109335
:10413000170D0C945F2910921A0D1092190D109200
:10414000180D0C945F298081863561F6818180533A
:10415000823040F61092980D813021F01092970D28
:104160000C945F298093970D0C945F29808186358C
:1041700009F0B8CF81818053823008F0B3CF81300D
:1041800021F010929D0D0C945F2980939D0D0C944D
:104190005F2980818E3409F0A5CF918190539430AE
:1041A00008F0A0CF923079F1933009F443C0209108
:1041B00018158091940D913099F022FF08C08A9AC9
:1041C000909108019160909308015F9A07C08A98C6
:1041D000909108019E7F909308015F9884602FC0A2
:1041E00022FF08C08A9A909108019160909308017B
:1041F0005F9A07C08A98909108019E7F909308016A
:104200005F9881601CC08091181582FF08C08A9A4F
:10421000809108018160809308015F9A07C08A98A5
:10422000809108018E7F809308015F988091940DA2
:10423000826005C00E947A2D8091940D88608093E1
:10424000940D0C945E2980818E3409F04BCF9181BE
:104250009053943008F046CF9230B1F0933029F16A
:10426000209118158091940D913039F022FF02C0F1
:104270005F9801C05F9A8B7F1DC022FF02C08A98A1
:1042800001C08A9A8E7F16C08091181582FF04C0E3
:10429000809108018E7F03C0809108018160809326
:1042A00008018091940D8D7F05C00E94B12C8091F2
:1042B000940D877F8093940D0C945F2980818E34B8
:1042C00009F010CF81818053843008F00BCF90919A
:1042D000940D823051F0833059F0813019F090FF05
:1042E00098C394C391FD92C394C392FD8FC391C3AD
:1042F00093FF8FC38BC38E010F5F1F4F1F930F93CD
:104300008BED93E09F938F93FF936F930E947A7648
:104310000F900F900F900F900F900F901816190696
:104320000CF035C68CE0F801ABE1BDE001900D92D8
:104330008A95E1F70BE11DE08AEE93E0D8016D91DB
:104340008D017C01BFEFEB1AFB0A0E94265FC701BB
:10435000E6EFEE16E3E0FE0689F7B1C71AA619A646
:104360001D8A1E8A1F8A188E8E010F5F1F4F8AE0DA
:10437000D8011D928A95E9F7CE0189969F938F9374
:104380001F930F9386EE93E09F938F93FF936F930A
:104390000E947A760FB6F894DEBF0FBECDBF0297AB
:1043A0000CF4F5C5AE014B5E5F4F60E070E0C801F4
:1043B0000E941D45882309F495CE2D893E894F8999
:1043C000588D69A57AA5072E000C880B990B0E94C1
:1043D000162C75C78FEF0E94583D0E94722B6FC735
:1043E0002E0125E6420E511C84E1D201282F1D9298
:1043F0002A95E9F73E0131E5630E711CD301282FA0
:104400001D922A95E9F78E01035C1F4FD8011D927A
:104410008A95E9F7C357DF4F188219821A821B82E7
:10442000CD58D040C757DF4F188219821A821B829D
:10443000C958D040CB57DF4F188219821A821B828D
:10444000C558D0401F930F937F926F925F924F9207
:1044500082EF93E09F938F93FF936F930E947A76FE
:104460000FB6F894DEBF0FBECDBF03970CF48FC517
:10447000AE0143575F4F60E070E0C2010E941D45EE
:10448000882309F42FCEAE0147575F4F60E070E0FC
:10449000C3010E941D45882309F424CEAE014B5769
:1044A0005F4F60E070E0C8010E941D45882309F459
:1044B00019CECF57DF4F188219821A821B82C1583A
:1044C000D040C358DF4F188219821A821B82CD5701
:1044D000D040ED961CAE1DAE1EAE1FAEED9784E132
:1044E0003E01F9E26F0E711CD301E82F1D92EA958F
:1044F000E9F72E01F5E14F0E511CD201E82F1D9274
:10450000EA95E9F79E012F5F3F4F1901D9011D92EE
:104510008A95E9F7AE014B575F4FBE0167577F4F52
:10452000CE0183579F4F0E94BC2FCB57DF4FE880AF
:10453000F9800A811B81C558D040C757DF4F2881B9
:1045400039814A815B81C958D040C357DF4F6881A8
:1045500079818A819B81CD58D040FE01EF57FF4F72
:104560004F01DE01A758BF4F5D0134976F010E94D4
:10457000C24A20E030E044EB52E4CF57DF4F68817D
:1045800079818A819B81C158D0400E94A971CF57FF
:10459000DF4F688379838A839B83C158D040C35897
:1045A000DF4F688179818A819B81CD57D04082011C
:1045B00024E045E00E942D6FED966CAD7DAD8EAD93
:1045C0009FADED97810124E045E00E942D6FCF570C
:1045D000DF4F688179818A819B81C158D0408301F6
:1045E00024E045E00E942D6F3F922F925F924F9200
:1045F0007F926F928CEA92E000C12E0135E6430E65
:10460000511C84E1D201282F1D922A95E9F73E0121
:1046100031E5630E711CD301282F1D922A95E9F70D
:104620008E01035C1F4FD8011D928A95E9F7C3578D
:10463000DF4F188219821A821B82CD58D040C7578B
:10464000DF4F188219821A821B82C958D040CB577B
:10465000DF4F188219821A821B82C558D0401F93DF
:104660000F937F926F925F924F9281E194E09F93BC
:104670008F93FF936F930E947A760FB6F894DEBF04
:104680000FBECDBF03970CF482C4AE0143575F4FFA
:1046900060E070E0C2010E941D45882309F422CD2C
:1046A000AE0147575F4F60E070E0C3010E941D45B7
:1046B000882309F417CDAE014B575F4F60E070E0DF
:1046C000C8010E941D45882309F40CCDCF57DF4F48
:1046D000188219821A821B82C158D040C358DF4FFA
:1046E000188219821A821B82CD57D040ED961CAEDB
:1046F0001DAE1EAE1FAEED9784E13E01F9E26F0ED6
:10470000711CD301E82F1D92EA95E9F72E01F5E11E
:104710004F0E511CD201E82F1D92EA95E9F79E0138
:104720002F5F3F4F1901D9011D928A95E9F720E0CB
:1047300030E044EB52E4C357DF4F688179818A81CE
:104740009B81CD58D0400E94A8717B018C01C3573A
:10475000DF4F688379838A839B83CD58D040CB57C2
:10476000DF4F288139814A815B81C558D040C757C6
:10477000DF4F688179818A819B81C958D040FE01D1
:10478000E758FF4F4F01DE01A358BF4F5D01389638
:104790006F010E94784CA401B501C6010E94194A1C
:1047A000CF57DF4F688179818A819B81C158D04082
:1047B000830124E045E00E942D6FC358DF4F6881DC
:1047C00079818A819B81CD57D040820124E045E0E8
:1047D0000E942D6FED966CAD7DAD8EAD9FADED97CA
:1047E000810124E045E00E942D6F3F922F925F925D
:1047F0004F927F926F928CED92E09F938F9388E21D
:104800009DE09F938F930E944C760FB6F894DEBF85
:104810000FBECDBF54C5CF57DF4F188219821A8201
:104820001B82C158D040C358DF4F188219821A82A8
:104830001B82CD57D040ED961CAE1DAE1EAE1FAEF6
:10484000ED9784E12E0139E2430E511CD201282F4D
:104850001D922A95E9F73E0135E1630E711CD301E3
:10486000282F1D922A95E9F7DE0111967D011D92F0
:104870008A95E9F78E010B571F4F8FEF90E0D80113
:104880008D939C931F930F93FF92EF927F926F9261
:104890005F924F9280E394E09F938F93FF936F9387
:1048A0000E947A760FB6F894DEBF0FBECDBF049794
:1048B0000CF46DC3AE014F575F4F60E070E0C20172
:1048C0000E941D45882309F40DCCAE0143585F4F6B
:1048D00060E070E0C3010E941D45882309F402CC0A
:1048E000AE0147585F4F60E070E0C7010E941D4570
:1048F000882309F4F7CBD8018D919C91009709F496
:1049000043C0019709F0EECBCF57DF4F4880598065
:104910006A807B80C158D04020E030E044EB52E414
:10492000C358DF4F688179818A819B81CD57D04000
:104930000E94A87121EE3EE245E652E40E9489728F
:104940006B017C010E9486729B01AC01C301B20124
:104950000E94DB74CF57DF4F688379838A839B8300
:10496000C158D040C701B6010E943E759B01AC0101
:10497000C301B2010E94DB74C358DF4F688379839F
:104980008A839B83CD57D040AE0147585F4FBE010D
:1049900063587F4FCE018F579F4F0E94BC2FED96DB
:1049A000ECACFDAC0EAD1FADED97C358DF4F2881C9
:1049B00039814A815B81CD57D040CF57DF4F688125
:1049C00079818A819B81C158D040FE01FD964F01BB
:1049D000DE01AF5ABF4F5D01B8966F010E94C24A17
:1049E0002196ECACFDAC0EAD1FAD219765962CADBC
:1049F0003DAD4EAD5FAD6597A9966CAD7DAD8EAD0D
:104A00009FADA9970E94EE4D882319F066ED73E0E3
:104A100002C062EC73E088E29DE00E9445764FC4DC
:104A20008081863509F05ECB81818053823008F029
:104A300059CB813049F080915A0D90915B0D0197CF
:104A400009F03DC4BBD53BC49C9A9D9AA49AA598F5
:104A500081E090E090935B0D80935A0D30C480818B
:104A6000863509F03FCB81818053823008F03ACB04
:104A7000813011F034D623C43F9A479820C48081F6
:104A8000863509F02FCB81818053823008F02ACB04
:104A9000813011F013D613C480910101806280939C
:104AA00001018091010180648093010180910201E4
:104AB00080628093020180910201806480930201F0
:104AC000FEC3CE0101969F938F9344969F938F933D
:104AD00082E594E09F938F93FF936F930E947A7681
:104AE0000FB6F894DEBF0FBECDBF02970CF44FC2D5
:104AF0008D899E898634910508F0F4CA29813A810E
:104B00002230310508F0EECA232B11F061E001C01C
:104B100060E00E94D95BD3C3CE0101969F938F932F
:104B200044969F938F9382E594E09F938F93FF9396
:104B30006F930E947A760FB6F894DEBF0FBECDBF9A
:104B400002970CF424C28D899E898634910508F061
:104B5000C9CA29813A812230310508F0C3CAFC0153
:104B6000E05CF54F8650964F232BD1F02491FC0149
:104B70008491882309F4A3C390E0880F991FFC0156
:104B8000E455F84FA591B491FC01E052F64F8591A0
:104B900094918FB7F894EC91E22BEC938FBF8FC375
:104BA0002491FC018491882309F489C390E0880F43
:104BB000991FFC01E455F84F45915491FC01E052D6
:104BC000F64FA591B4919FB7F894FA018081209592
:104BD000822380838C91E22FE823EC939FBF6FC3E5
:104BE0008081833509F07ECA8181E0EDE80FE830ED
:104BF00008F078CA8E2F90E0FC013197E730F1057C
:104C000030F48827E956FF4F8F4F0C941976A9D6B8
:104C10001092630D1092620D8AE999E1A5E9B2E460
:104C20008093680D9093690DA0936A0DB0936B0DFE
:104C30008AE999E9A2E6B2E4B0C093D681E090E0B7
:104C40009093630D8093620D86EF98E2ACE4B2E43A
:104C50008093680D9093690DA0936A0DB0936B0DCE
:104C60008DEC9CECA0E8B2E498C07BD682E090E0AA
:104C70009093630D8093620D89E29CEDA4E9B2E408
:104C80008093680D9093690DA0936A0DB0936B0D9E
:104C900080E090E0A2E6B2E480C063D683E090E0DA
:104CA0009093630D8093620D80E090E0ACE2B2E4FB
:104CB0008093680D9093690DA0936A0DB0936B0D6E
:104CC00080E090E0ABE8B2E468C04BD684E090E0CE
:104CD0009093630D8093620D80E090E0ACE1B2E4CC
:104CE0008093680D9093690DA0936A0DB0936B0D3E
:104CF00080E090E0A9E9B2E417C033D685E090E007
:104D00009093630D8093620D8DEC9CECA2E9B2E46C
:104D10008093680D9093690DA0936A0DB0936B0D0D
:104D200080E090E0A8E9B2E48093640D9093650D73
:104D3000A093660DB093670DE7D5D9C012D686E073
:104D400090E09093630D8093620D86E696E6AAE963
:104D5000B2E48093680D9093690DA0936A0DB093AF
:104D60006B0D80E090E0AAE5B2E417C0FAD587E0C9
:104D700090E09093630D8093620D85E89BEEABEC21
:104D8000B1E48093680D9093690DA0936A0DB09380
:104D90006B0D80E090E0A2E3B2E48093640D909309
:104DA000650DA093660DB093670DA1C080E090E003
:104DB0000E94B24E90935F0D80935E0D81E090E073
:104DC0000E94B24E9093610D8093600D82E090E05E
:104DD0000E94B24E90935D0D80935C0D0CE51DE03A
:104DE00084E393E0D8016D918D017C01BFEFEB1A54
:104DF000FB0A0E94265FC701EAE3EE16E3E0FE0627
:104E000089F76BEB82E393E00E94265F0E94884E55
:104E100080E090E00E94044F6093700D7093710DDC
:104E20008093720D9093730D81E090E00E94044F87
:104E30006093740D7093750D8093760D9093770D3C
:104E400082E090E00E94044F6093780D7093790D9A
:104E500080937A0D90937B0D32C2609136157091DC
:104E6000371580913815909139150E9424732B01C4
:104E70003C016091321570913315809134159091F9
:104E800035150E942473CF56DF4F688379838A8358
:104E90009B83C159D04060912E1570912F15809140
:104EA0003015909131150E9424739E012F5F3F4F62
:104EB0004901DE0155965D01FE01B9966F0183013E
:104EC0007201CF56DF4F288139814A815B81C159F8
:104ED000D0400E945D4D89819A81AB81BC818093D5
:104EE000680D9093690DA0936A0DB0936B0D44D437
:104EF000E6C11D8A1E8A1F8A188E8E010F5F1F4F02
:104F000084E1D8011D928A95E9F71F930F9389E5F3
:104F100094E09F938F93FF936F930E947A760F9004
:104F20000F900F900F900F900F90181619067CF5A8
:104F3000AE014B5E5F4F60E070E0C8010E941D450E
:104F4000882309F4CFC88D899E89AF89B88D25CF74
:104F50001D8A1E8A1F8A188E8E010F5F1F4F84E1E3
:104F6000D8011D928A95E9F71F930F9384E694E088
:104F70009F938F93FF936F930E947A760F900F9079
:104F80000F900F900F900F901816190674F01F9243
:104F900081E08F938DE092E09F938F930E94723F08
:104FA0000F900F900F900F909DC8AE014B5E5F4F1A
:104FB00060E070E0C8010E941D45882309F492C892
:104FC0008D899E89AF89B88D80936C0D90936D0DFE
:104FD000A0936E0DB0936F0DCFD396D470C1899806
:104FE00068E9662E6EE0762E830182E090E00E94F2
:104FF000B24EF801819391938F0150E9E52EFF2481
:10500000F394889A6AE070E080E090E00E94D444D3
:1050100088986CE271E080E090E00E94D444F1E076
:10502000EF1AF10871F788EE93E00E9412452FE025
:1050300000361207D1F682E090E00E94B24E9093C3
:10504000610F8093600F899A00E21EE4889A6AE0FB
:1050500070E080E090E00E94D44488986CE271E0B7
:1050600080E090E00E94D4440150110979F78F98B4
:105070004EE0E42EF12C00E911E08E9A6AE070E037
:1050800080E090E00E94D4448E986CE271E080E071
:1050900090E00E94D4440150110979F731E0E31AFD
:1050A000F10849F788EE93E00E9412458F9A38E1A3
:1050B000232E3EE0332E210100E010E080E090E05E
:1050C0000E94B24ED2018D939D932D0120E9E22ED4
:1050D000FF24F3948E9A6AE070E080E090E00E94F2
:1050E000D4448E9864EF71E080E090E00E94D44454
:1050F000B1E0EB1AF10871F70E301105A9F088EE56
:1051000093E00E9412450F5F1F4F0F331105B1F658
:1051100080E090E00E94B24E9093970E8093960E9E
:105120008F9800E51DE223C080910B018D7F809355
:105130000B01E12C92E3F92E80910B0188608093A2
:105140000B016AE070E080E090E00E94D44480911E
:105150000B01877F80930B016CE271E080E090E0AF
:105160000E94D444E1E0EE1AF10831F7C8CF8E9ADC
:105170006AE070E080E090E00E94D4448E986CE297
:1051800071E080E090E00E94D4440150110979F769
:1051900088EE93E00E94124580910B01826080931B
:1051A0000B0100E913E380910B01886080930B01F0
:1051B0006AE070E080E090E00E94D44480910B01AE
:1051C000877F80930B016CE271E080E090E00E94A9
:1051D000D4440150110939F788EE93E00E9412453A
:1051E00080910B018D7F80930B010EE91DE028015A
:1051F00081E090E00E94B24ED2018D939D932D01EB
:1052000080E9E82EFF24F39480910B01886080935D
:105210000B016AE070E080E090E00E94D44480914D
:105220000B01877F80930B016CE271E080E090E0DE
:105230000E94D444B1E0EB1AF10831F788EE93E014
:105240000E941245E6E14E16EEE05E0689F681E028
:1052500090E00E94B24E9093170E8093160E81E05C
:1052600090E0D3016D913D012C01BFEF4B1A5B0A19
:105270000E94265FC2018B3C910599F7F101619173
:105280001F013201FFEF6F1A7F0AC2010E94265FE1
:1052900023012BE4621621E0720681F7D8016D919B
:1052A0008D017301BFEFEB1AFB0AC3010E94265F59
:1052B0003701E5ECEE16E1E0FE0681F78AD180E0E9
:1052C00090E0CC56DF4F0FB6F894DEBF0FBECDBFD7
:1052D000DF91CF911F910F91FF90EF90DF90CF90D2
:1052E000BF90AF909F908F907F906F905F904F9006
:1052F0003F902F90089520916A0F30916B0F2115E8
:105300003105B9F080917A0F90917B0F8217930746
:1053100034F4019690937B0F80937A0F0AC0109219
:105320007B0F10927A0F10926B0F10926A0F1092EF
:10533000950D2091180D3091190D21153105A1F011
:105340008091780F9091790F8217930734F401962A
:105350009093790F8093780F07C01092790F109275
:10536000780F81E08093960D8091950D81111BC07F
:1053700080911A0D811117C0809173008E7F8093E8
:1053800073001092170D10926B0F10926A0F10920B
:10539000190D1092180D10927B0F10927A0F109227
:1053A000790F1092780F08958091770F811107C0BF
:1053B00081E08093770F80910B01806205C010928D
:1053C000770F80910B018F7D80930B018091750F7A
:1053D0009091760F9C012F5F3F4F3093760F209373
:1053E000750F20910402309105022817390760F4E7
:1053F0001092760F1092750F809170008E7F8093BF
:10540000700081E080939B0D08952091620D309192
:10541000630D2430310529F426E636E646E65FE3DF
:1054200007C02530310539F526E636E646EE5FE35E
:105430000E94897220E030E040E852E40E94DB7470
:105440000E94F1726093620F7093630F8093640FF8
:105450009093650F89E49AE29093D3148093D214C9
:105460001092A00085E08093A1008DEF9FEF9093B4
:10547000D5148093D4148091D4149091D514909322
:10548000A5008093A40080917200816080937200D7
:1054900008958091620F9091630FA091640FB09175
:1054A000650F181619061A061B06F4F42091740FDE
:1054B000222389F01092740F0197A109B1098093FA
:1054C000620F9093630FA093640FB093650F809168
:1054D0000201806406C081E08093740F8091020114
:1054E0008F7B8093020108950E94905C1092620F5E
:1054F0001092630F1092640F1092650F81E08093F9
:105500009A0D0895CF93DF93EB018431D1F028F405
:10551000882361F08C30A8F437C08233E9F018F4A6
:10552000873190F10EC0833311F10BC0888188233D
:1055300029F06FE674E0CE010E943A7661E774E0EC
:1055400020C08881882329F06FE674E0CE010E9494
:105550003A7664E774E015C08881882329F06FE605
:1055600074E0CE010E943A7668E774E00AC0888150
:10557000882329F06FE674E0CE010E943A766CE74A
:1055800074E0CE010E943A768091280D882379F04C
:1055900068E27DE0CE010E943A7682E3E8E2FDE037
:1055A000DF011D928A95E9F7DF91CF91089569E7B0
:1055B00073E0CE01DF91CF910C943A769C9A9D9A3C
:1055C000A498A59A82E090E090935B0D80935A0D89
:1055D00008958F929F92AF92BF92CF92DF92EF92F7
:1055E000FF920F931F93CF93DF930AE215E18EE1B1
:1055F000F80111928A95E9F70E9426400E94205FE7
:1056000080E090E00E94044FC2E6DDE06E877F8775
:10561000888B998B81E090E00E94044F6A8B7B8B92
:105620008C8B9D8B82E090E00E94044F6E8B7F8B71
:10563000888F998FF801C480D580E680F780CA8E64
:10564000DB8EEC8EFD8EC084D184E284F384CE8E1A
:10565000DF8EE8A2F9A204851585268537850AA381
:105660001BA32CA33DA320E030E044EB52E40E94B6
:10567000A8717B018C012A893B894C895D896E85E3
:105680007F8588899989E0E98E2EEDE09E2EFCE8E1
:10569000AF2EFDE0BF2EA8E8CA2EADE0DA2E0E94A4
:1056A000784CDF91CF911F910F91FF90EF90DF9099
:1056B000CF90BF90AF909F908F900895E1E0F1E080
:1056C000808180628083808180648083E2E0F1E079
:1056D00080818F7D808380818F7B808308953F9A36
:1056E000479A0895809104018778809304018091FE
:1056F00003018877803451F440E050E060E87FE3B4
:1057000084E00E94353C60E874E02AC08091030187
:10571000887791F440E050E060E87FE384E00E9405
:10572000353C67E874E08CE69FE00E94457640E0F7
:1057300050E060EE70E41BC080910301887740E088
:1057400050E060E87FE3803231F484E00E94353C31
:105750006EE874E005C084E00E94353C65E974E0C1
:105760008CE69FE00E94457640E050E0BA0183E07D
:105770000E94353C0C94623E0F931F93CF93DF93AE
:105780006091620D84E893E00E94265F6091630D52
:1057900085E893E00E94265FC4E6DDE088E993E0B7
:1057A00069918C010F5F1F4F0E94265FC8010C3961
:1057B0001340B1F7C8E6DDE08EE893E069918C0113
:1057C0000F5F1F4F0E94265FC80102391340B1F7D7
:1057D000CCE6DDE082E89CE069918C010F5F1F4F11
:1057E0000E94265FC80106381C40B1F7DF91CF91B7
:1057F0001F910F910895EBE7F4E18BE799E2918314
:1058000080831092200185E08093210181EF9FEF3A
:1058100093838283828193819093250180932401D5
:10582000E3E7F0E08081816080830895CF92DF928A
:10583000EF92FF920F931F93CF93DF9369017A0149
:1058400010929B0DEAE0F1E0208120622083EBE0E2
:10585000F1E020812F7D2083660F771F7093050272
:105860006093040204E714E184ED99E2F801918366
:105870008083C0E7D0E088818E7F8883E0EBF0E012
:1058800080818C7F8083E1EBF0E08081877F808363
:10589000A6EBB0E08C918F7D8C9388818D7F88837F
:1058A00080818460808380818C7F808320E034E2EB
:1058B00044EF59E4C701B6010E94897220E034E246
:1058C00044E75BE40E94DB7420E030E040E85CE306
:1058D0000E94DB740E94F17220E031E0C901861B56
:1058E000970BF80193838283828193818093B20026
:1058F000888181608883DF91CF911F910F91FF9004
:10590000EF90DF90CF900895CF93C1E0C0939A0DB0
:105910008091620D9091630D0497029700F51092AB
:105920009A0D1092660F1092670F1092680F1092E6
:10593000690F809107018F7D809307018091080195
:10594000806280930801809102018062809302014D
:1059500060E070E084EB93E458DDC093990DCF9143
:1059600008951092620F1092630F1092640F1092BC
:10597000650F0E94905C1092990D0C94905C809140
:10598000181582FF08C08A98809108018E7F809345
:1059900008015F9807C08A9A80910801816080930E
:1059A00008015F9ADEDF1092940D08958F929F9206
:1059B000AF92BF92CF92DF92EF92FF926B017C0188
:1059C00020E030E044EB53E40E94A07418160CF47D
:1059D00088C020E030E0A901C701B6010E948272B0
:1059E00087FD7FC08091620D9091630D04970297AF
:1059F000B8F52091660F3091670F4091680F509174
:105A0000690FC701B6010E94A8714B015C0120E03B
:105A100030E0A9010E948272882309F462C0C0921A
:105A2000660FD092670FE092680FF092690F20E046
:105A300030E0A901C501B4010E94A074181624F435
:105A4000809102018F7D03C080910201806280936A
:105A50000201C501B4019F77D8DC10929A0D41C0B4
:105A600020E030E044E353E4C701B6010E94A07493
:105A700018161CF4C12CD12C7601A701960160E008
:105A800070E084E393E40E94A87120E030E044E3F6
:105A900053E40E9489729B01AC010E94A97120E02D
:105AA00030E040E05FE30E94A971609300027093D0
:105AB0000102809302029093030220E030E040EA6A
:105AC00051E40E94897220E030EC4FE754E40E94D8
:105AD000DB740E94F672CB010E94425B81E08093EE
